S02B00004546523332784732325F62746D6573685F736F635F6C696768746E6573735F7365727665722E7333EF
S21400000000120020251A0000C3F00200C3F0020010
S2140000102F070300C3F00200C3F00200C3F0020083
S214000020C3F00200C3F00200C3F00200C3F00200F7
S214000030C3F00200AC1B0400E7EE0200C3F00200AF
S214000040C3F00200C3F00200C3F002009D1B0000D4
S214000050C3F00200C3F00200C3F00200C3F00200C7
S214000060C3F00200C3F00200C3F00200C3F00200B7
S214000070ED6D0000C3F00200C3F00200A106000010
S214000080D1EF0200C3F00200C3F00200C3F002008A
S214000090C3F0020085210000C3F00200C3F0020096
S2140000A0C3F00200C3F00200C3F00200C3F0020077
S2140000B0C3F0020025BB0200C3F0020065C50200C3
S2140000C05B0604005706040055BD020067060400E0
S2140000D05F0604003DC5020063060400A5C50200D5
S2140000E0399F0200FDA0020015C60200C3F0020000
S2140000F0C3F00200C3F00200C3F00200C3F0020027
S214000100C3F00200C3F00200C3F00200C3F0020016
S214000110C3F00200C3F00200C3F00200C3F0020006
S214000120C3F00200C3F00200C3F00200C3F00200F6
S214000130C3F00200C3F00200C3F00200C3F00200E6
S214000140013800D0FCE77047002370B5404C0546E8
S2140001508AB0E36318B1008823600CF0B5FF3D4811
S2140001603FF0E3FD3C4E3D4B304633603C4B736006
S21400017034F0FEFE0021304625F0B6FE32A3D3E969
S2140001800023A062C4E9062334F0FDFED4E906236A
S21400019019431043C4E90601CDE900014FF0FF33CF
S2140001A04FF0FF32A06A3FF03BFE02224FF0FF31D5
S2140001B0A06A3FF03AFE01200CF008FD4FF40073F1
S2140001C000222849A06A3FF081FEB0F5007F38D1B2
S2140001D000239422CDE9073309933C23CDE903326B
S2140001E005939623A06A03A9069325F09BFF35B3D3
S2140001F0287C0DF021F90546F0B9A06A3FF044FFCF
S2140002000DF0C8F80CF0C4FC20B14FF4807000214B
S21400021009F062FD0CF0CCFC20B14FF40060002128
S21400022009F05AFD34F073FF012025F0B1FE0E4AA6
S2140002300E49A06A34F09AFE28460AB070BDFF2028
S214000240D7E70725F8E700BF0DD5015520000000C9
S21400025050170020690345ECA030002051CA00006A
S214000260B0300020A02E0020154F0300554F03008D
S2140002700348044B834202D0034B03B11847704730
S214000280E0160020E016002000000000064B07499C
S214000290C91A891048BF0131491003D0044B0BB16D
S2140002A001481847704700BFE0160020E0160020FF
S2140002B00000000010B5064C237843B9FFF7D8FFBE
S2140002C0044B13B10448AFF300800123237010BD24
S2140002D0543A0020000000001877040008B5054BCB
S2140002E01BB105490548AFF30080BDE80840FFF79D
S2140002F0CDBF00BF00000000E81C002018770400F7
S214000300A3F5803A704700BF174B002B08BF134B6E
S2140003109D46FFF7F5FF00218B460F461348144A0B
S214000320121A40F016FB0E4B002B00D098470D4BD0
S214000330002B00D098470020002104000D000D4837
S214000340002802D00C48AFF300802CF0E5FF200018
S21400035029002EF0C0FD2CF0A5FD00BF000008000F
S214000360000000000000000000120020E016002040
S214000370643C0020000000000000000001482CF053
S21400038017BF00BF6017040003683B4A23F47F438F
S21400039023F00703934210B563D01AD802F17F42C8
S2140003A093425CD00CD8A2F5E022934249D002F5E5
S2140003B0403293422FD0A2F5E022934224D010BDC3
S2140003C02E4A93422BD002F580229342F7D12C4836
S2140003D01BE02C4A934236D00DD802F17D42934260
S2140003E017D002F10072934217D002F17B4293427B
S2140003F0E5D1254809E0254A934212D002F1406231
S2140004009342DCD1224800E02248BDE810402CF0A0
S214000410CFBE2148F9E72148F7E72148F5E721480C
S214000420F3E721482CF0C4FE40F6B8344FF47A7057
S21400043006F00EFD013CF9D12046BDE8104035F02F
S2140004405CBF1A48E1E7B0F80930B3F5805F04D026
S214000450B3F5985FB3D11648D7E71648D5E71648E0
S214000460D3E716482CF0A4FE01F042F8BDE8104091
S214000470014613482CF08ABEA8001F01A8001401EC
S21400048005180400A8001409FA170400A800140AA6
S214000490A317040065170400761704008B170400E2
S2140004A0B7170400C6170400DF170400EA17040095
S2140004B0181804003B1804005F1804007D18040098
S2140004C09A18040008B5044812F096FB2EF082FD38
S2140004D0BDE8084037F012BAF41A040010B5234CF1
S2140004E002F05AF902F092FA236F23F0070343F062
S2140004F0030323672EF037FF1D4B00209B6A9B07E4
S2140005005EBF01221B4B9A62D4F8203123F003030E
S21400051043F00203C4F82031D4F8243123F0070353
S21400052043F00203C4F82431D4F8403123F0030327
S21400053043F00203C4F84031D4F8603123F00303DB
S21400054043F00203C4F86031D4F8403223F00303CA
S21400055043F00203C4F84032D4F8003223F0070315
S21400056043F00203C4F8003210BD00BF0080005004
S21400057000C0005000E0005030B5234D95B00DACE3
S2140005800FCD0FC495E80700032384E807008DF815
S2140005904D3029231D4A1E49CDE902231D4B0E224C
S2140005A0CDE904134FF4807300210DF12600069365
S2140005B040F0CFF94FF4A020174B07A9CDE9070369
S2140005C00F238DF8243010238DF82530134B0DAAF9
S2140005D00A9320230B9340F20113ADF83030104BF2
S2140005E01048009302AB05F0A1FC04469DF832309B
S2140005F04FF4E130002B0CBF032100212EF052FDFA
S214000600204615B030BD00BF901B04000000065009
S214000610000500060008000724000650553A002092
S214000620001D0020541D0020831E012B10B512D87B
S214000630012922D8114B04221B6905210020C3F38F
S214000640401302F0CFFA0E4B1B681868A8B1BDE83D
S2140006501040436A18478B1E012B0CD801280CD873
S214000660BDE810400022054B05211B691046C3F368
S214000670401302F0B7BA0129E5D910BD00C00350F7
S2140006801C12002008B50449044805F0C5FEBDE864
S2140006900840FFF771BF00BF20120020781D002021
S2140006A001482FF0FABF00BF541D0020016808B5AE
S2140006B0104A21F47F4323F00703934211D004D855
S2140006C0A2F5803293420CD008BD0B4A0A400B4973
S2140006D08A4202D00A4A9342F6D1BDE8084006F0A4
S2140006E043BC12F001FF00B1FEE712F0F1FE002855
S2140006F0EAD0FEE7A8001500F800FFFEA8001F00DD
S214000700A8001F022DE9F041274C23782BB9274873
S21400071001F076F8002837D0FEE7254EDFF8A480F3
S2140007203168D8F80020234B013191421888224DB9
S2140007304FF00003214F31600DD3237064232880CF
S2140007403B802EF04CFCD8F8001033682888C91A75
S21400075000F0D4FE15E01A4C2488844216D8001BFC
S2140007604FEAE07CA0FB010E01FB0CE12CF002FA44
S21400077020443B8880B25A1C92B2632A288010D844
S2140007803A8028882EF02AFCBDE8F081201A4FEA2D
S214000790E07CA0FB010E01FB0CE12CF0EBF9201A2B
S2140007A0E7E7633BCCE700BF753A0020841D0020D6
S2140007B0BC1D0020C8390020CC390020BE14002003
S2140007C0CA390020C01D002010B5094C20802EF02C
S2140007D005FC084B1A7832B1002207481A7001F05F
S2140007E00FF800B1FEE720882EF0F9FB10BD00BF21
S2140007F0CC390020753A0020841D002007B521B9A9
S21400080003B05DF804EBFFF7DFBF0C4A002311606E
S2140008100B4A11880B4A118001210B4A10800B4AA3
S2140008200B4813600B4A11700B4A009101F004F854
S21400083000B1FEE703B05DF804FB00BFC01D00205A
S214000840CC390020CA390020C8390020BC1D002041
S214000850841D0020753A00200507000001280BD0F3
S214000860022803D058B90120FFF7AEBF044A136828
S21400087001331360DB07F6D44FF6FE70F4E77047DB
S214000880801D0020014B1888704700BFCC3900201F
S214000890002307B541F28831044A0548009300F06A
S2140008A0CBFF00B1FEE703B05DF804FB550A00007D
S2140008B0C41D0020044B12791978914202D01A7098
S2140008C0FFF7E6BF704700BF763A0020002210B55B
S2140008D00A4B8AB01C785B788DF808208DF81820B3
S2140008E08DF81C30009106AB014602AA4FF48050EA
S2140008F08DF80C4030F05AF80AB010BD763A002059
S2140009007FB507238DF80830074B01469B7802AA6F
S2140009108DF80C30002341F20400009330F046F8C6
S21400092007B05DF804FB00BF763A0020174B73B59E
S214000930B3F90020164B80EAE0711C6882EAE27385
S214000940A3EBE273A1EBE0719BB29942114D15DA6D
S214000950C617A4FB0001D31704FB06112CF0BAF847
S21400096004460146E888FFF749FF002321460A4A65
S2140009700A48009300F060FF28B1FEE7A8882146E9
S214000980104480B2EFE702B070BD00BFCE39002041
S214000990841F0020763A0020650B00004C1F0020C4
S2140009A038B513781446832B02D0842B0AD038BD72
S2140009B00B4B928859899142F9D05A81BDE838404C
S2140009C0FFF766BF064D9388AA899A4202D0AB818C
S2140009D0FFF75EFFE388EA899A42E8D0EB81EDE70D
S2140009E0763A002008B5074800F00AFF00B1FEE797
S2140009F0054800F005FF00B1FEE7044B1880044BE5
S214000A00186008BD6C1E00204C1F0020CE39002048
S214000A10841F002008B5074BB2F90420B3F9101064
S214000A20914206D01A82FFF733FFBDE80840FFF771
S214000A30D9BF08BD763A00201378802B07D1044B27
S214000A4092889988914202D09A80FFF721BF70471A
S214000A50763A0020142144F20400014A0EF074BED7
S214000A60763A002030B5022504468BB0124B8DF83E
S214000A700850587C1A7C8DF8185042EA0022ADF8CF
S214000A800C209A7CDB7C41F2020042EA0323ADF89C
S214000A901C30009106AB214602AA2FF087FF40B912
S214000AA02A46214641F202000BB0BDE830402FF046
S214000AB099BF0BB030BD00BF763A002037B5234B48
S214000AC01B78042B24D0052B2CD0022B3BD1204D99
S214000AD0204C2968E088FFF791FE296881B9B4F9AF
S214000AE012302382E3889AB2A38002B12381FFF7F3
S214000AF0CFFE2968002003B0BDE83040FFF7B2BF44
S214000B000023154A1548009300F096FED8B1FEE77C
S214000B10104BB3F91200B3F91030C01AFFF706FFF6
S214000B200F49E7E7FFF7AEFE0A4CA080E080A0F58D
S214000B30004020826082FFF755FF0021A088FFF763
S214000B405DFE0021D6E703B030BD00BFF2140020E2
S214000B50881F0020763A0020D50B0000DC1E0020FF
S214000B60005A620238B5184C184BB4F91250B3F953
S214000B700030B4F910102AB2521A83EAE370A0EBE0
S214000B80E370002AB8BF524280B28242A5BFA28854
S214000B9011FA83F1E38812FA83F3A6BF9BB221828F
S214000BA02582A380FFF774FE00200949FFF75AFF4D
S214000BB0B4F91200B4F91030C01A03D0BDE83840BA
S214000BC0FFF7B4BE38BD00BF763A0020CE3900200D
S214000BD0005A620208B5084BB3F912201A82DA8866
S214000BE091B29A8001B11A81FFF752FEBDE8084023
S214000BF000210846FFF736BF763A002073B5069EFA
S214000C00114C0D46B4F910105EB9B2F904308B429F
S214000C10638214D13146284602B0BDE87040FFF723
S214000C2021BFB3F904308B426382F3D000233146F0
S214000C30064A0748009300F0FFFD08B1FEE723824E
S214000C40FFF726FEE6E700BF763A0020D50B000049
S214000C50DC1E00202DE9F04F8DB0DDE917B59BF8BE
S214000C6000A00E46BAF1040F1746BDF85880BDF82E
S214000C7064409DF868907BD0BAF1050F00F0A7801D
S214000C80BAF1020F40F0A180FFF7ACFE5F4BBBF954
S214000C900420B3F9101008B2904233D159822C4484
S214000CA0FFF7F6FD19F0020F1FD00221574B8DF803
S214000CB01010587C1A7C8DF8201042EA0022ADF8FD
S214000CC014209A7CDB7C314642EA0323ADF82430BC
S214000CD00023CDE9024308AB019304AB00933A46E8
S214000CE0434641F202002FF036FE21463046FFF71B
S214000CF0B9FE802231464FF498500DB0BDE8F04F53
S214000D002FF070BEA2F5004080B2012838BF012047
S214000D105DB95CB9A0F5004221461A825A829880D5
S214000D20D8801881FFF76AFDB9E784B15A8202229B
S214000D30D880374B21461A700023364A364800932F
S214000D4000F07AFD00B1FEE7344B1D60A7E7A0F582
S214000D50004229465A82D880FFF750FD234629468E
S214000D602F4A3048009400F067FD002897D0FEE731
S214000D70BBF904302C4A002B13802C4A15600CDC7F
S214000D8014BF01230023DB031BB2204AB2F9100074
S214000D90984205D15382002482E747F6FF73F4E7B2
S214000DA0A3F5004189B25382D1805CB10422184B6E
S214000DB021461A700023174A1748009300F03CFD9E
S214000DC018B1FEE7181AFFF7B1FD194C68E7FFF7F0
S214000DD059FD0E4DA880E880A0F500402882688264
S214000DE06CB10B4B214683F800A00023094A0A4841
S214000DF0009300F021FD00283FF452AFFEE7FFF716
S214000E00F1FD2146A888FFF7F9FCC4E7763A0020F2
S214000E10F2140020BD0A00006C1E0020881F00206F
S214000E20D50B0000DC1E0020CE390020841F0020D9
S214000E30005A62027FB583298DF808100CD08429E9
S214000E4012D000230146009302AA4FF498502FF0C8
S214000E50ADFD07B05DF804FB0A4A937AD27A43EAFE
S214000E600223ADF80C30ECE7064B1A7B597B42EABE
S214000E700122ADF80C209A7BDB7B42EA0323ADF817
S214000E800E30DEE7763A00202DE9F04389B0119E59
S214000E909DF8505033780F46822B9046BDF8409010
S214000EA005F0020506D0832B27D0932185B38DF855
S214000EB0101012E02E4CB38862899A4202D06381E9
S214000EC0FFF7E6FC002D51D083238DF81030A37A6F
S214000ED0E27A43EA0223ADF814300023CDE9023368
S214000EE0019304AB009342464B46394641F201302B
S214000EF02FF031FD09B0BDE8F0831D4CB088A38902
S214000F0083420BD1E289F3889A4210D1F5B9842145
S214000F10384609B0BDE8F043FFF78CBFA388A08130
S214000F20984204D91BB10021A080FFF767FCF08827
S214000F30E389834207D0A388E081834203D9002156
S214000F40A080FFF75BFCFFF7A3FCDFE784238DF8A8
S214000F501030627B237B43EA0223ADF81430A37B78
S214000F60E27B43EA0223ADF81630B6E78321CFE7EB
S214000F70763A002070B5134B8AB08DF80820802A88
S214000F809C88DB880DD04FF6FE764FF6FF7504FB87
S214000F90046403FB0363B4FBF5F4B3FBF5F3A4B2FC
S214000FA09BB28DF81820ADF81C30009106AB0146B8
S214000FB002AA4FF49850ADF80C402FF0F7FC0AB098
S214000FC070BD00BF763A002037B5114D114C296828
S214000FD0E088FFF713FC296879B9E3889AB2A38002
S214000FE002B12381FFF754FC00200B4B29681A78C6
S214000FF003B0BDE83040FFF7BDBF0023074A0848EE
S214001000009300F019FC00B1FEE703B030BD00BF4E
S2140010108C1F0020763A0020F31400209110000068
S214001020141F0020F7B5154612780F46802A089C34
S21400103026D1144EB28894B9A8889042F08006D083
S2140010402146FFF7DBFBAB88B380FFF721FC80224D
S2140010502146384603B0BDE8F040FFF78BBF9888BE
S2140010609042F080F3D02146FFF7C8FB00232146CC
S214001070054A0648009300F0DFFB0028E5D0FEE7AF
S21400108003B0F0BD763A002091100000141F002037
S21400109008B5084BDA8891B29A8001B11A81FFF739
S2140010A0F7FB0021044B08461A78BDE80840FFF716
S2140010B061BF00BF763A0020F31400202DE9F0410E
S2140010C08CB01646DDE9132713780D46802BBDF845
S2140010D054404DD0812B4FD00020DFF81481B8F853
S2140010E0043083420FD0002F57D1002C56D1A8F8D9
S2140010F00400A8F8060008B1A8F808000021FFF7C9
S2140011007DFBFFF7C5FB9DF858309B072DD5324B6E
S21400111019788DF810108029B8F80420B8F8063031
S2140011200DD04FF6FE7C4FF6FF7002FB02C203FBAB
S21400113003C3B2FBF0F2B3FBF0F392B29BB2ADF88E
S21400114024300023039308AB3C44019304ABADF872
S21400115014208DF820100093324629464FF49850FC
S214001160BDF8483002942FF0F6FB0CB0BDE8F081D5
S214001170194990880B70B0E790881749C0EB00407B
S2140011800B702BF00DFC41EC100B2CF099FB51EC86
S214001190100B2BF07FFC80B29FE76CB10023A8F801
S2140011A0060021460D4A0E48009300F045FB00B1AC
S2140011B0FEE70C4B1F60A4E73946A8F80600FFF7C9
S2140011C01DFB23463946084A0848009400F034FBC5
S2140011D0002896D0FEE700BFF3140020C90F0000D9
S2140011E0341E00208C1F002091100000141F0020C9
S2140011F0763A00202DE9F04188B00F9B194E15462F
S2140012001A79B3780C469342BDF838709DF848803A
S21400121002D0B270FFF73CFB18F0020F12D0072383
S21400122000228DF81030B37821468DF8143004ABC8
S214001230CDE90222019200932A463B4641F2040081
S2140012402FF089FB2046FFF75BFB40B907222146BB
S21400125041F2040008B0BDE8F0412FF0C3BB08B06F
S214001260BDE8F081763A002030B50E4B87B0DB78CB
S21400127001258DF80C30002304460146009341F208
S214001280060002AA8DF808502FF090FB40B92A46B7
S214001290214641F2060007B0BDE830402FF0A2BB61
S2140012A007B030BD763A00202DE9F04188B00F9B9C
S2140012B0144E15461A79F3780C469342BDF83870EA
S2140012C09DF8488002D0F270FFF7E2FA18F0020F9D
S2140012D012D0012300228DF81030F37821468DF8C5
S2140012E0143004ABCDE90222019200932A463B4615
S2140012F041F207002FF02FFB204608B0BDE8F04172
S214001300FFF7B2BF763A002037B5194D194C296859
S214001310607891B9207050B9FFF7A0FAFFF7B8FAD5
S2140013200020296803B0BDE830402DF067BE208954
S214001330FFF764FA2389A380F0E770B9A071E07123
S2140013402968E088FFF75AFA002300930A4A2968BA
S2140013500A4800F071FA40B1FEE723890020E380D6
S21400136001232370FFF7B2FAEAE703B030BD00BFEF
S214001370901F0020763A002081130000A41E002053
S21400138008B5054B5A781A70FFF782FABDE8084090
S214001390002108462DF032BE763A002073B5069E30
S2140013A0114C0D46217856B913798B42637016D1CD
S2140013B03146284602B0BDE870402DF01FBE1B79AE
S2140013C08B426370F4D0012B08BF23700023314694
S2140013D0064A0748009300F02FFA08B1FEE723708C
S2140013E0FFF756FAE4E700BF763A002081130000C4
S2140013F0A41E00202DE9F04F374C8DB09046DDE955
S21400140017B522789BF804300E469A42BDF85890DD
S214001410BDF864709DF868A00BD0ADBBAFBB237061
S21400142063707BB320890021E080FFF7E7F9FFF7C0
S2140014302FFA1AF0020F3D4417D0002322788DF8B9
S21400144010308DF814208DF820306278CDE90253E4
S21400145008AB019304AB8DF82420009342464B461C
S21400146031464FF480502FF076FA294630462DF05C
S214001470C5FD802231464FF498500DB0BDE8F04FC0
S2140014802FF0B0BA3846CEE767B16370002339460E
S214001490124A1348009300F0CFF900B1FEE7114B53
S2140014A01D60C4E7012B29463046637008BF2370D1
S2140014B0FFF70CFA9BF8040000B120892946E0806B
S2140014C0FFF79CF900232946074A0848009300F0D6
S2140014D0B3F90028ABD0FEE7763A002009130000E7
S2140014E0FC1D0020901F002081130000A41E002079
S2140014F0014B9888704700BF763A0020034B9880CF
S214001500034B00201A78FFF735BD00BF763A00205F
S214001510F3140020014B987805F0FEBC763A0020C4
S21400152070B5142288B0002166483FF012FA0023F6
S2140015301421029344F2040003AB02AA0EF01AF937
S214001540604C10B9029B142B69D0142200215D4810
S2140015503FF0FFF94FF0FF33002201212372637240
S21400156021736273A373E37321716271A171E271D7
S214001570FFF7D0FF0546E07801285FD002287CD030
S21400158038B92070607020716071A071E071FFF74B
S21400159065F9FFF77DF94FF480504B4B4B4A4C49A9
S2140015A02DF020FD002341F207004A4A4A492DF05B
S2140015B019FD002341F20400484A49492DF012FD66
S2140015C04FF49850474B484A48492DF00BFD0023EE
S2140015D041F20130464A47492DF004FD464B474A42
S2140015E0474941F202002DF0FDFC0020FFF788F984
S2140015F083210020FFF71EFC84210020FFF71AFC41
S2140016000020FFF731FE002108462DF0F7FC0021F0
S2140016108022084608B0BDE87040FFF7ABBC224603
S21400162003AB07AE1D4603CDB542106051602B4696
S21400163002F10802F6D12868106099E72070607001
S214001640608900B92089A080E080A5B100263146D7
S214001650304626716671FFF7D1F833462946294A87
S2140016602948009600F0E8F800B1FEE72946E08831
S214001670FFF7C4F88DE72946FAE7E38898B2F5B194
S214001680E8B100263146304626716671FFF7B6F897
S214001690334629461B4A1C48009600F0CDF800B198
S2140016A0FEE72946E088FFF7A9F8A388003B18BFA5
S2140016B001232370E38803B10123637069E70021E7
S2140016C0A380F0E7763A00209D130000B5080000DE
S2140016D0F5130000E1EF0200A9120000E3EF02009C
S2140016E0F511000025100000390A0000BD100000AA
S2140016F0A1090000890E0000FD0B0000150A00007D
S214001700550C000091100000141F002003680E4ABC
S21400171023F47F4323F0070393420FD008D802F147
S2140017207F42934208D002F58032934206D070473B
S214001730064A934204D0704703791BB1FFF7F0BE08
S2140017402DF06ABC704700BFA8001401A800140A58
S214001750036807B523F47F430F4A23F00703934239
S21400176006D002F1206293420BD003B05DF804FB72
S2140017700379002BF9D1032011F0CEFE0028F4D017
S214001780FEE70023054A19460548009300F054F882
S2140017900028EAD0FEE700BFA800140021F00200EF
S2140017A0941F002008B50368054A23F47F4323F0FE
S2140017B00703934203D111F0A3FE2DF034FC08BDBD
S2140017C0A000010038B505462DF0E9FD00230B4AC0
S2140017D014685CB1AC4206D1A96A6BB199622DF06F
S2140017E0E4FD012007E02346A46AF2E7002DF3D0CB
S2140017F02DF0DBFD204638BD1160F0E7CC1F002041
S21400180010B5044698B105F0A1F82046FFF7DAFFB8
S21400181010B194F82C300BB9002010BD2DF0BFFD90
S214001820044A1368013B13602DF0BFFDF4E7222045
S214001830F3E700BFD01F00202DE9F04385B0054632
S214001840914698460E469DF8307009B9002F5CD137
S2140018502846FFF7D5FF0446002836D185F82C0029
S214001860686305F03BF9864233D905F0D7F8214680
S214001870844640F2E7304FF47A720023E6FB0C0110
S2140018802BF078F94FF0FF3200232BF073F92B463C
S214001890E88611462846CDE900441D4A2EF0BDFFD5
S2140018A0044690B9C5E9089885F82D702E632DF08A
S2140018B076FD184A136833B31A469B6A002BFBD191
S2140018C095620023AB622DF070FD204605B0BDE8A2
S2140018D0F08347B12B4631462846CDE900440C4AF2
S2140018E005F0C0F8DCE7304603A905F09DF804468D
S2140018F00028EAD12B462846CDE90077044A03990A
S2140019002EF067FFCCE71560DBE72124DDE700BF9C
S21400191019190000CC1F002091F82C3013B50C4686
S21400192083B98B8ECA8E93420ED243B9CDE900336B
S21400193020460B46104A4FF0FF312EF02EFFA38EA6
S2140019400133A38602B010BD52B191F82D307BB1A1
S21400195001230093D1E908232046096BFFF76CFFAB
S2140019600123064A84F82C30136801331360E9E734
S214001970084604F0EBFFF3E719190000D01F00201B
S2140019802DE9F041144E336823B34FF00008134F8F
S2140019902DF005FD05463C6824B92846BDE8F04113
S2140019A02DF003BD94F82C3093B1336884F82C8066
S2140019B0013B336094F82D3013B92046FFF702FF41
S2140019C028462DF0F2FCD4E9083120469847DFE798
S2140019D0A46AE1E7BDE8F081D01F0020CC1F0020FC
S2140019E007B508202DF088FB02238DF80030054B44
S2140019F0684601932DF01AFB082003B05DF804EB4F
S214001A002DF085BB006A18100348044A0449121AD0
S214001A1092102DF057BB00BF0C7C04000C7C040019
S214001A20643C002008B500F02FF8FFF7EDFF124BDE
S214001A3012498B4212D30020114B12498B4218D305
S214001A40FEF762FC186850F82240586840F82240BA
S214001A50013298688242F5D30C33EAE70022F8E7B1
S214001A601C6844F8220001325C68A242F8D30833AE
S214001A70E4E70022F8E700BF207704002C77040094
S214001A802C7704002C7704004FF400414FF0FF3011
S214001A90124B134A10B59A60D3F8882042F47002AD
S214001AA0C3F888200F4A916601F1884101F500527B
S214001AB010664FF6DF7050660220C3F8D000BFF302
S214001AC04F8FBFF36F8F08244FF440330648C0F89B
S214001AD08041D36004600B6110BD00BF00ED00E0E4
S214001AE0000000000090005000E100E0014B186884
S214001AF0704700BF2C120020084B1B6F03F0070333
S214001B00022B04D0032B05D0012B05D0FEE7044B97
S214001B1018687047034BFBE7034870470080005087
S214001B202C12002034120020002D310108B5FFF7DA
S214001B30E3FF054B1B6FC3F303330133B0FBF3F036
S214001B40024B186008BD00BF00800050281200201D
S214001B500048704700B4C404014B1868704700BFC3
S214001B603412002000487047002D3101014B1868E0
S214001B70704700BF30120020BFF34F8F0549064B59
S214001B80CA6802F4E0621343CB60BFF34F8F00BF16
S214001B90FDE700BF00ED00E00400FA0513B5204B9A
S214001BA01B7803B9FEE700231E4CCDE900336A46D6
S214001BB008231D49206823F0CDFEF0B91B4AD2F851
S214001BC04031D2F840211F2B4FF0010310D9203AA4
S214001BD09340019A1A43019208236A4612492068E4
S214001BE023F06EFE4FF00053114A1A60FFF7C4FF51
S214001BF09340009A1A430092EEE70E4B9842F1D1BA
S214001C000A4AD2F84031D2F840211F2B4FF0010388
S214001C1085BF203A93409340019398BF0093DBE73B
S214001C208A3A00205C120020007108000080004400
S214001C300B020FF00BE000F00346054A054910685A
S214001C4003448B428CBF4FF0FF301360704700BFD9
S214001C50381200200080002008B501213A2000F04C
S214001C60C1FC032101230422002000F0BBFF00205A
S214001C702DF0B1FB0122214B4FF46070C3F84424D1
S214001C802DF0A8FA1E4B00F5D520D3F8F02000F270
S214001C90FC4042F00102C3F8F020D3F8FC2042F0EA
S214001CA08072C3F8FC20174AA3F55D431A60164BF2
S214001CB00222B0FBF3F0154B01381861C3F8F02090
S214001CC04FF48072C3F804234FF06043104A00209C
S214001CD0C3F8B02F0F4AC3F8802ED3F8002E42F474
S214001CE08072C3F8002EFF2283F82020D3F8002E3F
S214001CF022F48072C3F8002E08BD00BF00D0035047
S214001D0000ED00E0FF030040F8590D00000004E07D
S214001D1055CEACC5090001004FF06043D3F8802EC5
S214001D2030B5D20715D501240B4D8440D5F8FC20DC
S214001D3042F08072C5F8FC20D3F8002E2243C3F888
S214001D40002E53F82020002AF0D003F820100020A0
S214001D5030BD1120FCE700BF00ED00E02DE9F04F9C
S214001D609A46564B85B01B7806460F461546DDF854
S214001D703C909DF844B0DDF85080002B00F0978032
S214001D80072A00F296800E9B002B00F09280B9F195
S214001D90000F00F08E80129BB3F5006F00F3898071
S214001DA0012803D1109B002B00F08380444B03EBEB
S214001DB005131B7B002B7ED0424C10220021684668
S214001DC03EF0C7FD04EB45141022A7BB394620465B
S214001DD03EF0BFFD43F210036380BBF1000F03D15A
S214001DE0E37843F00303E370364A0E9B02EB451C90
S214001DF0CCE90193129B6901581E9DF84C30C0F344
S214001E000A0003F003039B0643EA001E53582E48BD
S214001E10012E00EA03004EEA0003CDF800A053505E
S214001E2017D0B8F1000F2ED19CF8023068F30413D7
S214001E308CF8023027E0002120463EF08AFD4FF461
S214001E4044736380BBF1000FCED1E37843F03003D8
S214001E50C9E713230CF1100ECCF80C309CE80F00E9
S214001E608EE80F006FF00301DCF81C20109B61F376
S214001E709F02012FCCF81C20CCF8143003D1CCF8EC
S214001E801890CCF8043000270D4A290102EB051300
S214001E9042F80180159A28465A60694622469F6095
S214001EA05E7300F03DFF384605B0BDE8F08F07488A
S214001EB0FAE70748F8E70748F6E700BF8B3A00203E
S214001EC0D4200020D41F00200F80FFF3028000F0F3
S214001ED0018000F0078000F038B5124B05461B78ED
S214001EE0DBB1E0B12DF05BFA0F4A00231146147BFC
S214001EF054B92B6001251A0101EB03131D738C5096
S214001F002DF053FA204638BD0133082B02F110029B
S214001F10EDD12DF04AFA0548F5E70548F3E7054800
S214001F20F1E700BF8B3A0020D4200020048000F0A8
S214001F30028000F0018000F038B52DF030FA002362
S214001F4005460B4A147B6CB90133082B02F11002CC
S214001F50F8D100F087FE074B28461C702DF025FAB6
S214001F60204603E028462DF020FA034838BD00BF7F
S214001F70D42000208B3A0020058000F00D4B10B5D1
S214001F801B78044693B1072812D82DF008FA0A4B9E
S214001F9003EB04131A7B2AB100241C732DF005FAF8
S214001FA0204610BD2DF001FA0448FAE70448F8E789
S214001FB00448F6E78B3A0020D4200020068000F084
S214001FC0028000F0018000F0154B13B5186800235E
S214001FD001908DF804302DF0E2F9124B1C7824B1F4
S214001FE02DF0E3F9104802B010BD01221A702DF052
S214001FF0DCF90E4B01A81C731C7783F82C4083F881
S2140020003C4083F84C4083F85C4083F86C4083F88F
S2140020107C4008238DF8073000F050FE2046E2E7AB
S214002020FC1B04008B3A0020038000F0D420002024
S2140020300A4A08B512785AB107280BD8084A02EBA4
S21400204000131B7B43B1002100F02AFE002008BDD0
S2140020500448FCE70448FAE70448F8E78B3A00200F
S214002060D4200020028000F0018000F0078000F0FD
S2140020700A4A08B512785AB107280BD8084A02EB64
S21400208000131B7B43B1012100F00AFE002008BDAF
S2140020900448FCE70448FAE70448F8E78B3A0020CF
S2140020A0D4200020028000F0018000F0078000F0BD
S2140020B00A4A08B5127852B107280AD8084A02EB2D
S2140020C000131B7B3BB100F077FE002008BD0548DF
S2140020D0FCE70548FAE70548F8E700BF8B3A00201A
S2140020E0D4200020028000F0018000F0078000F07D
S2140020F00D4B1B7893B1072812D889B10B4B03EB15
S21400210000131B7B73B10A4B1A6D012383401342E5
S21400211014BF0123002300200B707047054870474A
S21400212005487047054870478B3A0020D4200020A9
S21400213000000450028000F0018000F0078000F0EC
S2140021400B4A10B512780C4662B107280CD859B164
S214002150084A02EB00131B7B43B100F03FFE2070E1
S214002160002010BD0448FCE70448FAE70448F8E7F6
S2140021708B3A0020D4200020028000F0018000F07E
S214002180078000F0184B2DE9F0411F6D5B6D1F4076
S21400219000D5FEE701260025144CDFF858803742AC
S2140021A018D02368C8F85060A3B1A168284601314A
S2140021B06268A1609847637B012B0BD150B90C4B2A
S2140021C003EB45131A7B60F341021A731A7F60F320
S2140021D041021A770135082D4FEA460604F110042D
S2140021E0DDD1BDE8F08100BF00000450D4200020FF
S2140021F0D41F002000200450024B1968024B1868B8
S21400220023F084BA3C1200205C12002070B59400C3
S214002210224605460E463FF07FFA431C0AD058B9C0
S2140022202246314628463EF06AFB0028034808BF8F
S214002230002070BD0248FCE70248FAE710E000F014
S21400224021E000F024E000F010B504463FF068FA04
S214002250431C10D088B900F081FE234620F003000E
S2140022602044984201D1002010BD53F8042B0132BF
S214002270F7D00348F8E70348F6E70348F4E700BF5B
S2140022800EE000F021E000F024E000F008B52DF0AC
S2140022907FF8014B186008BD44280020014B1868E1
S2140022A02DF07AB844280020044BD3F88420D206B8
S2140022B0FBD4D3F88400C0F3811070470040005070
S2140022C038B5104B0546D3F820310C4603F003030F
S2140022D0022B0BD0032B0DD0012B0FD1FFF706FCE2
S2140022E0052305B1286004B1236038BDFFF734FC30
S2140022F00323F6E7FFF736FC0223F2E7012300206C
S214002300EFE700BF0080005073B50D4600210E4B6E
S2140023100191D3F88041064604F00304012C09D04D
S214002320022C0CD00C460EB1019B336005B12C601C
S21400233002B070BD01A8FFF7C3FF0F24F3E7FFF755
S21400234011FC0190EFE700BF0080005038B5184B35
S2140023500546D3F824010C4600F00700062823D8CB
S214002360DFE800F0040A121A1E0E1600012305B15B
S214002370286004B1236038BDFFF7B8FB0523F6E7F5
S214002380FFF7B4FB0623F2E7FFF7E6FB0323EEE7CF
S214002390FFF7E2FB0423EAE7FFF7E4FB0223E6E7A6
S2140023A02CF09BFE0723E2E700231846DFE700BF7A
S2140023B00080005038B5104B0546D3F840310C4627
S2140023C003F00303022B0BD0032B0DD0012B0FD1F0
S2140023D02CF085FE092305B1286004B1236038BDC2
S2140023E0FFF7C4FB0823F6E72CF07CFE0B23F2E78E
S2140023F001230020EFE700BF0080005038B5144BE3
S2140024000546D3F800020C4600F0070004281BD847
S214002410DFE800F003090D111500012305B128605F
S21400242004B1236038BD2CF05AFE0923F6E7FFF707
S2140024309DFB0823F2E72CF055FE0B23EEE7FFF793
S21400244075FB0E23800AE9E700231846E6E700BF7F
S2140024500080005038B5104B0546D3F840320C4685
S21400246003F00303022B0BD0032B0DD0012B0FD14F
S2140024702CF035FE092305B1286004B1236038BD71
S214002480FFF774FB0823F6E72CF02CFE0B23F2E78D
S21400249000231846EFE700BF0080005038B5104B09
S2140024A00546D3F860310C4603F00303022B0BD02D
S2140024B0032B0DD0012B0FD12CF011FE092305B1F3
S2140024C0286004B1236038BDFFF750FB0823F6E709
S2140024D02CF008FE0B23F2E701230020EFE700BFF5
S2140024E00080005010B40D4C0B46D4F8204204F087
S2140024F00304012C0AD0022C0CD008B10021016084
S2140025000BB100221A605DF8044B70475DF8044B6F
S214002510FFF7D6BE5DF8044BFFF74CBF00800050B7
S21400252038B50C4605462CF033FF054B9A6A5440E6
S2140025302C4054409C62BDE838402CF02DBF00BFB4
S21400254000C00050B0F5207F1FD009D8B0F5007F3E
S21400255015D003D868B1B0F5C07F0AD000200CE0D3
S214002560B0F5607FFAD10B4BD3F88000C0F30110B2
S21400257003E0084B186FC0F3033001307047054B7B
S214002580D3F89000C0F30460F7E7024B186FC0F36F
S2140025908020F2E7008000504FF400320E4B0146D8
S2140025A010B500209A66FFF7CDFF484341F671321A
S2140025B00A490B4B884294BF00200120DC69DA638D
S2140025C09A6822F4401242EA00529A60E20344BF3C
S2140025D00022DA6310BD00BF00900050005A62026D
S2140025E000000350420910B50FD0012A0FD00A4B45
S2140025F00A4C022A18BF234600F01F0049B103F513
S2140026008053012282401A6010BD1346F4E7044B43
S214002610F2E703F50053F4E768800050608200504C
S2140026206480005008B580202CF0D4FD034B9842FF
S2140026309EBF4FF48032024B1A6708BD005A6202F2
S21400264000A000501FB50023B0F5807F019377D01F
S21400265028D8382800F094800BD82438092810D8B9
S21400266009280ED8DFE800F0676767670D0D620D72
S214002670377D52285FD008D83D283BD03E2800F052
S2140026808480019805B05DF804FB8028F9D1414BA1
S2140026901B6F03F00703013B032BF2D8DFE803F0C0
S2140026A044413F6CB0F5D06F5BD019D8B0F5A06F41
S2140026B066D00AD8B0F5806F3DD0B0F5906FE0D107
S2140026C0002001A9FFF742FEDBE7B0F5B06F2DD082
S2140026D0B0F5C06FD5D1002001A9FFF76BFED0E79B
S2140026E0B0F5006FECD00AD8B0F5E06F4DD0B0F57D
S2140026F0F06FC6D1002001A9FFF7D0FEC1E7B0F504
S214002700086FBED1234BD3F8003103F00303022B2E
S2140027102CD0032B2ED0012B30D1FFF71DFA03232C
S21400272000E005230193ACE70223FBE7002001A9A4
S214002730FFF7EAFDA5E7002001A9FFF7C1FDA0E726
S21400274002934FF0E0231B695B0705D5FFF7EEF910
S2140027500C230393039BE5E703A902A8FFF72AFED1
S214002760F8E7002001A9FFF749FE8AE7FFF7FEF920
S2140027700823D7E72CF0B1FC0723D3E70123D1E7E2
S214002780002001A9FFF7AEFE7BE7002001A9FFF7B6
S21400279061FE76E7008000504FF40022034B5A6635
S2140027A0012203F580439A62704700BF00900050F4
S2140027B008B5FFF747FF082811D00938012802D9C5
S2140027C04FF6FF7008BD4FF40012064B5A6603F52D
S2140027D0D8335B6ADB07F3D54FF4FA70F2E7024BA7
S2140027E01888EFE700900050C01400201E4BFF280A
S2140027F070B59E6A35D89A6D12F4803F18BF0121D5
S2140028001A4A18BF9162022191629B6DDC0303D5C0
S214002810154A936D9907FCD50222144B124D1A6582
S214002820AC6D14F08044FBD1114AAB6992F90020DC
S21400283023F47F03024423F47F4382F3080243EA2F
S214002840002343EA0243AB6131460220FFF768FEED
S214002850AB6DDB0303D531460120FFF761FE204652
S21400286070BD2124FBE700BF00C0005000D0005020
S2140028708C3A002001221548154B816A9A62826DB7
S21400288002F00302032AFAD102229A621A650F4A5C
S214002890936D5B00FCD40F48936D30EA0303FBD1C5
S2140028A001220B4B1A65A3F580539A6D9007FCD452
S2140028B09A6D9207FCD50222054B1A65034A936D62
S2140028C09B07FCD50320FFF72BBE00BF00C00050BF
S2140028D000D0005003000100F0B5D0E901434FF4EA
S2140028E080061A4A4178057856664FF4D156022774
S2140028F002F5B8325662164E4F2977604FF0010740
S21400290028BF4F2106F5805677601669F603FCD47B
S21400291041EA052151611B01417B43EA04230B4335
S214002920017B43EA41039360C37B817B1B0143EA3F
S2140029304113417C0B43017C43EA41035360837C93
S21400294013B16FF4D1535362F0BD00BF0090005036
S21400295000100250014B1880704700BFC0140020C2
S214002960B0F5207F10B50C4642D008D8B0F5007FF1
S21400297033D003D888B1B0F5C07F0ED010BDB0F507
S214002980607FFBD11F4A4C1ED2F8803023F0300304
S21400299043EA0413C2F88030F0E72CF013FC2CF066
S2140029A0DDFC4FF48031184B164A1967136F013C53
S2140029B023F4704343EA04331367FFF7B7F804467B
S2140029C0FFF772FCC0F1020120462CF0C1FC00F0BB
S2140029D02DF8BDE81040FFF725BE0A4A4C1ED2F877
S2140029E0903023F0F85343EA0463C2F89030C5E70A
S2140029F0044A4C1E136F23F4806343EA8423136750
S214002A00BCE700BF008000500090005008B50121D0
S214002A10022000F085F82CF0D5FB2CF09FFC4FF43C
S214002A208032014B1A6708BD0090005008B54FF47D
S214002A30C0702CF0CFFBBDE808400449884294BF24
S214002A40012102214FF42070FFF78ABF80F0FA02BE
S214002A50034B5868C0F30800003818BF01207047C1
S214002A6000ED00E010B5224B70B94FF40031214A5A
S214002A701860516602F598325268012A03D11E4A40
S214002A80D2F800211A6010BD1B68002BFBD01B4A31
S214002A905268012AF7D0184A8020C2F80031FFF7A2
S214002AA0D1FD05281FD14FF4C070FFF74BFD01285C
S214002AB0044604D102214FF4C070FFF751FF0722ED
S214002AC00F4B1A610122A3F580535A600B4A136913
S214002AD0DB07FCD5012CD6D12146BDE810404FF4CB
S214002AE0C070FFF73DBF0122064B5A60CBE700BF20
S214002AF048280020009000500080005000C0015080
S214002B0000E0015000D00150044A4178536F23F48E
S214002B10407343EA01235367704700BF00400050EC
S214002B20F8B504461C4BD3F88420D106FBD4D3F862
S214002B308430C3F381139C422CD0FEF7DDFF012CBA
S214002B40064602D121462CF003FC2CF021FC4FF067
S214002B500072124B07465A6620462CF02CFC4FF4A7
S214002B6080630D4D621E93402B676B6E9A0103D4F3
S214002B70D5F884309B060AD538462CF00DFC022C7E
S214002B8008D13046BDE8F84000212CF0E1BBD5F86E
S214002B908430EAE7F8BD00BF0040005000600050F7
S214002BA010B50C4608B9FEF7A7FF074B21461B7861
S214002BB03BB1064B984204D80120BDE81040FFF711
S214002BC0AFBF0220F9E700BF8D3A0020005A62022C
S214002BD00278034B012100201A70FFF7E1BF00BF07
S214002BE08D3A0020F8B504460D461F4616464AB1F3
S214002BF001238B403021184A01FB0022F7B141F235
S214002C001001535004EB4403072D4FF00F014FEA19
S214002C10031316D8A80006FA00F281400F4818449D
S214002C202CF0CAFB4EB9012330210B4AAB4001FB06
S214002C30042277B141F210015350F8BD42F2100160
S214002C40DFE7A5F10800800006FA00F2814004489C
S214002C50E5E742F21001EFE700C0035004C003505E
S214002C600CC003504FF400120B4B10B5C3F8802075
S214002C70BFF34F8FBFF36F8F0024FF22074B214611
S214002C805C6520209A625C60FFF7ACFC2146BDE8DC
S214002C9010402120FFF7A6BC00E100E00000045031
S214002CA0044A054B002908BF1346012282401A60D9
S214002CB0704700BF401004504020045010B501215A
S214002CC004462020FFF78EFC01212120FFF78AFC16
S214002CD00122114B5A60227812069A606178A27817
S214002CE042EA01429A61FF229A6200229A631A64BB
S214002CF04FF000425A654FF0FF324FF4001103F5D3
S214002D0000531A65054AC2F88011E3781B01DBB24E
S214002D1082F81533116010BD0000045000E100E099
S214002D20F8B50125C3B2DFF888C0D1F800E09D40B1
S214002D308F7ACB7A0C46097BCCF850500CF5005CA9
S214002D404CF820E04FF0300E184E1B050EFB0060CE
S214002D5094F80DC043EA074343EA415322F00302C6
S214002D60C0F860C0C36502672CF019FB736D2B4377
S214002D707365237A13B1336C2B433364637A13B1D0
S214002D80B36B2B43B3632279A37943EA0243084A21
S214002D9093616179E37943EA014306498B61034B0A
S214002DA055639D64BDE8F8402CF0FFBA000004505F
S214002DB0002004500010045010B50124C0B2844016
S214002DC02CF0EDFA044B5A6D22EA04025A659C6216
S214002DD0BDE810402CF0E9BA0000045010B50124FC
S214002DE0C0B284402CF0DBFA074BDA6A224208D1E4
S214002DF05B6B9C430CBF012400242CF0D6FA2046C3
S214002E0010BD0024F9E700BF000004504FF4003264
S214002E10054B9A6641F6713203F51C33DA630122DC
S214002E2003F50053DA6070470090005041F67132A7
S214002E300121064BDA6303F50052D1600022DA6303
S214002E404FF40032A3F518339A667047000003501B
S214002E50CB784A7810B55B010C7843EA82030A798E
S214002E60234343EA02130C22424302F1B0421363A7
S214002E70012C02BF8A78024B43F8202010BD00BF09
S214002E80E880035008B54FF0B0435A686AB958B1A5
S214002E905B680BB12CF0A0FA01210D4B59602CF0A9
S214002EA09BFA4FF0B043D96008BD5B680BB12CF0BD
S214002EB093FA0028F0D12CF08FFA4FF0B04302229C
S214002EC0DA602CF089FA0122024B5A60ECE700BF68
S214002ED000100058002000584FF0B0414B6810B565
S214002EE00BB12CF079FA01220B4BC4785A60837828
S214002EF0934043EA840344782343047943EA041363
S214002F00447943EAC4038B60044B5A600378C3F1E8
S214002F100203CB6010BD00BF002000580010005810
S214002F204FF48032064B5A6603F5E6235B69C3F31B
S214002F308512827003F03F021B0B427003707047CD
S214002F4000900050014B03205B6870470080E00F44
S214002F50014B986CD96C70470080E00F0120034B42
S214002F609B680A3303F01F03984070470080E00F09
S214002F7070B5054616461C4621B94FF420702CF055
S214002F8029F90146402C1BD003D8DCB1202C1BD0DD
S214002F9070BD602CFCD1042303FB06F2530803EB40
S214002FA04113B3FBF2F3094A203B02EAC303AA68C3
S214002FB022F06002AA60AA681443AC60EB61E7E7FF
S214002FC00623E9E71023E7E70823E5E7F8FF7F0095
S214002FD0012200F580535A6040F6AA6341F20502CA
S214002FE0436100230B498360C365C26000F500524D
S214002FF00361C361C364916407498365884203D152
S21400300003650023436502E004498842F8D00123A3
S21400301053607047FFFF010000C0055000000650D7
S21400302070B50D46FFF7D4FF012300F58056736098
S214003030AB7C04461BB1836843F080438360EB7C23
S2140030405BB1354A2B7D944245D1A2F51032C2F8C9
S2140030508C31E36D43F08003E3652A8A6B7B204660
S2140030601343EA891343E3602B7BD5E90112FFF78C
S2140030707FFF6B7D1BB1A36843F48033A360AB7DF9
S2140030801BB1A36843F40043A360EB7D2A7E1B07B5
S214003090120502F4E00203F0E0431343A365697EE1
S2140030A01D4A8B1E012B1D4B1FD894421BD002F5C8
S2140030B0804294420CBF01224FF0FF3203EB4213D2
S2140030C0022041F21C620329985020D10423F365A4
S2140030D02B78636170BD124A944204BFA2F5203279
S2140030E0C2F89C31B5E70022E8E794420DD00C4ABE
S2140030F094420CBF01224FF0FF3203EB4213022032
S21400310042F21C6201299850DFE70022F5E704220C
S21400311004F50053DA65DBE700C0055000C0035035
S2140031200000065038B50446054D3CF0B3FE0FCC03
S2140031300FC594E8030085E80300002038BD00BFF3
S2140031404C28002047F6FF739A42F0B56FD002294C
S2140031506FD8394B5B5C012B6BD8384DDF0005EB25
S214003160C30415F83330A178012B13D10025E0787D
S214003170401AA84202D80844C0B2F0BD431B666895
S214003180A0EB530336F913609642D4BF1D4603F1F5
S214003190FF30EEE760680028EFD0B0F900409442B8
S2140031A004DBB0F902409442B8BF144683883D441D
S2140031B0FF2B19BFC8224FF0280CB0F90620B0F933
S2140031C008C0A2EB04030CBF0126002693FBFCF309
S2140031D033446E781BB29E4201DD002B01DA731E6B
S2140031E01BB24FF47A7C01339BB2071D5D1E2DB2D5
S2140031F04FEAC50E00EBC505EA88AD689E4214FB93
S214003200025222EAE27202F15C02B2FBFCF204DD38
S21400321037F8335001339542E8D200EB0E03988816
S214003220904228BF1046884238BF0846A4E7FF20D1
S214003230A3E70020A1E700BF211C04004C280020C3
S2140032400229F0B555D82C4B585C012851D82B4C88
S21400325004EBC00114F830004B6801280FD1C87881
S2140032608C78904294BFC4EB0001C4EB0201001BB3
S214003270CAB28242C8BF002233F91200F0BD002B4A
S21400328037D08878904202D3B3F90200F6E7CC78BC
S214003290B3F900009442F1D94C789988013CA1F129
S2140032A0FF06714203F10405E4B2714103F10C0715
S2140032B0CEB2B44216D805EBC1014FF47A756A4314
S2140032C0B1F902404968521A04EBD47102EB61026C
S2140032D092FBF4F29042D1DBB3F902009042CDDCCF
S2140032E010B2CBE737F831C04E1C9445E3D33146D5
S2140032F0DEE70348C2E700BF211C04004C2800207C
S2140033000080FFFF08B50448FFF70CFFBDE8084043
S21400331001203CF0C3BD00BF241C040000487047D9
S214003320C21400201B0603F0706300F00F000902B1
S214003330034301F47061120402F470220B4313433A
S214003340014A1360704700BF0020025C60B5054666
S21400335019B10139B1F5806F0FD2094EF06810F43B
S2140033608030FBD143EA012312072B4302F0805240
S214003370134343F00043736060BD0120FCE700BFC9
S2140033800020025C0122054B9A60DA68D203FCD466
S214003390D86820F00F000004000C70470020025C84
S2140033A0014B1868704700BF0040025C014B58682C
S2140033B0704700BF0010025C014B186B704700BFDF
S2140033C00010025C014B1868704700BF0010025CDA
S2140033D0014B9860704700BF0010025C014B1864F8
S2140033E0704700BF0010025C014B5864704700BF76
S2140033F00010025C014B5863704700BF0010025C6F
S2140034000022014B1A6070470010025C024A1368E3
S21400341043F00103136070470010025C024A136811
S21400342023F00103136070470010025C43F20402AD
S214003430014B1A60704700BF0010025C024A136816
S21400344043F03003136070470010025C044B1A68A8
S21400345042F480721A601A6822F480721A6070470A
S2140034600010025C024A136843F4806313607047DE
S2140034700010025C034A136823F4702343EA0043F7
S214003480136070470010025C044B1A6902605A69A8
S21400349042609A698260DB69C36070470010025C14
S2140034A00268044B1A6142685A6182689A61C2686F
S2140034B0DA6170470010025C024B1A6BD207FCD42C
S2140034C0186270470010025C0322024B18601961F4
S2140034D05A6370470000025C82B01FB507930A9BD0
S2140034E004AC8B4228BF0B4604E907001048D10005
S2140034F0079948BF03330160099948BF23F00303C7
S21400350023F0704301F0E041194341F0005181601F
S214003510002102F0E042019C1A4342F00052C160D2
S21400352004618261416304B0BDE8104002B0704798
S2140035300000025C3F22034B1A631022DA6103226A
S2140035409A6370470000025C024AD36B9B07FCD468
S214003550704700BF0000025C044B9B6A13F0240F08
S21400356014BF012000208000704700BF0000025CEE
S21400357008B5FFF7F1FF064BDB6B23F47F4323F020
S214003580EF0303431EBF0122024BC3F8FC2F08BD06
S2140035900000025C00F0FF3F4368182B0AD0202B87
S2140035A01DD0102B2BD1174BD3F80434DB010AD4D3
S2140035B001207047134BD3F804349A01F8D50B68F2
S2140035C043F008030B6003680F4A934210D10B6860
S2140035D043F040030B600023436000207047094B14
S2140035E0D3F804345B01E3D50B6843F00403E9E742
S2140035F0064A9342F1D10B6843F08003EAE70720BE
S214003600704700BF0000025C8F3A00208E3A002010
S2140036100B4607B50749D1F80414C90708D5002199
S21400362000920246084600F0A3F803B05DF804FBDB
S2140036300120FAE70000025C0B4607B50749D1F8FF
S2140036400414C90708D5009201210246002000F0A4
S2140036508FF803B05DF804FB0120FAE70000025C77
S2140036601FB50A4CD4F8044464070CD5CDE9001203
S2140036700021069C0222CDE902340346084600F0EB
S214003680A1F804B010BD0120FBE700BF0000025CFB
S2140036901FB50A4CD4F8044464070CD5069CCDE943
S2140036A00012CDE90234022203460121002000F078
S2140036B089F804B010BD0120FBE700BF0000025CE3
S2140036C01FB50A4CD4F80444A4060DD5079C0092F6
S2140036D00394069C0246CDE901340B4600210846B9
S2140036E000F0F4F804B010BD0120FBE70000025C17
S2140036F01FB50A4CD4F80444A4060DD5079C0092C6
S2140037000394069C0246CDE9013400200B460121B5
S2140037102CF009F904B010BD0120FBE70000025CA4
S21400372013B5084CD4F80444E40508D500931346B2
S2140037300A460146002000F081F802B010BD0120C4
S214003740FBE700BF0000025C13B5084CD4F8044445
S214003750E40508D5009313460A460146002000F00B
S21400376091F802B010BD0120FBE700BF0000025C2C
S214003770F0B51C465B6815468DB01A07129E1AD126
S214003780CBB17268934216D10C4B0D4A53F8217098
S21400379009AB07CA83E807001A462946CDE9053370
S2140037A0CDE90333CDE90163009447F480702BF034
S2140037B06BFF0DB0F0BD0720FBE700BFD81C040070
S2140037C0A81C04002DE9F0418CB0DDE9127C7C6871
S2140037D01E46DDE9143E200728D13CB3DCF8040081
S2140037E0844223D15868102820D1DEF8040010281F
S2140037F01CD10F4809AC50F821500E4951F82280D0
S2140038000D4A07CA84E8070045EA08002246314602
S214003810CDE9054ECDE90344CDE901C4009740F05B
S21400382030002BF031FF0CB0BDE8F0810720FAE73E
S214003830D81C0400B41C0400A81C0400F0B51646EE
S2140038405A688DB0102A0D46129F15D17A68102A34
S21400385012D10A4A09AC07CA84E80700224629465C
S214003860CDE90547CDE90344CDE901440448009677
S2140038702BF00AFF0DB0F0BD0720FBE7A81C0400E4
S21400388030000100F0B516465A688DB0102A0D4675
S214003890129F15D17A68102A12D10A4A09AC07CAB3
S2140038A084E8070022462946CDE90574CDE903449D
S2140038B0CDE90144044800962BF0E6FE0DB0F0BDBD
S2140038C00720FBE7A81C0400100001002DE9F047C4
S2140038D094B00F46DDE91EA91546DDE91C821C469C
S2140038E0D8F804105B688B4229D10EA916200891DF
S2140038F0002108AE0296CDE90901DAF80410CDE9F8
S2140039000031D9F8043007CA2BF092FFA0B90D4B4E
S2140039100D4A53F827700BAB07CA83E807001A4610
S2140039202946CDE905A3CDE90393CDE901860094A8
S21400393047F400502BF0A8FE14B0BDE8F08707202F
S214003940FAE700BFD81C0400A81C04002DE9F04FBD
S2140039509DB08B46DDE9288A1646DDE926921D468F
S214003960D9F804105B688B4237D116A91620099146
S214003970002109AF0297CDE90A01D8F80410CDE975
S2140039800031DAF8043007CA2BF052FF044600BBB9
S214003990134B144A53F82BC00CAB07CA83E8070036
S2140039A0D8F8042012A9CDE90F120FAACDE903A278
S2140039B031461A46CDE90583CDE9019700954CF4CA
S2140039C00050CDE91244CDE9144411942BF05CFE6E
S2140039D0044620461DB0BDE8F08F0724F9E700BF77
S2140039E0D81C0400A81C040082B070B586B0149DD4
S2140039F003AE202D86E807000B9359D805EB850308
S214003A008B4203D006236B438B4253D10C9BAB42B5
S214003A1050D10F9BB3EB450F4CD1129A934249D12C
S214003A20012229462220159BFFF790FC044630BB56
S214003A30034606220E210C20FFF774FC0123CDE975
S214003A4000332B4696E807002BF09FFD0E230BAAAB
S214003A50009307CA2B462BF0E3FC0C23164C00936E
S214003A600EAA2B4607CA2BF00BFD636823F07F03D4
S214003A7043F026036360FFF785FC30B1062420463A
S214003A8006B0BDE8704002B07047636823F07F035D
S214003A9043F022036360FFF775FC04460028EDD16F
S214003AA0062311AA009307CA2B462BF01CFDE6E757
S214003AB00124E4E70724E2E70020025C0138C0B2F4
S214003AC006289ABF014B185C00207047BB1D0400F7
S214003AD00138C0B206289ABF014B185C0020704718
S214003AE0B41D04002DE9F04FBBB0804603A880E863
S214003AF00E001E467A4B1746D3F800248A46D40694
S214003B009DF8109103D401203BB0BDE8F08F08F17A
S214003B10FF32062A6DD8DFE802F004191F252B3184
S214003B203700D3F80C34D807EDD5012307930023CC
S214003B30B9F1010FCDE908332CD0B9F1020F5AD0F4
S214003B404046FFF7C5FF6324054631E0D3F80C3442
S214003B509907D8D50223E9E7D3F80C345A07D2D50B
S214003B600423E3E7D3F80C341B07CCD50823DDE7A2
S214003B70D3F80C34DD06C6D51023D7E7D3F80C34BB
S214003B809C06C0D52023D1E7D3F80C345806BAD506
S214003B904023CBE7524BD3F80C34D903B3D5079B5D
S214003BA0404643F4C0630793FFF788FF03240546A7
S214003BB013230422009307A94FF0005312A82BF0FA
S214003BC021FD5146009446F000533A462BF01AFD6C
S214003BD04FF0000B04465E46DDF814A1469B9B455D
S214003BE02CD1B9F1030F42D14046FFF771FFB8421E
S214003BF037D0072088E73A4BD3F80C24D20382D577
S214003C00D3F80C349B037FF57EAF97B17C423946E0
S214003C10374604F00304079B404643F4E0630793EB
S214003C20FFF74CFF24023E4605460F4644F0A30429
S214003C30BEE704210DF1200A0C46ECE7DAF8042072
S214003C4016444AB1032300932046DAF80830DAF81F
S214003C5000102BF0D7FC04460BF1010B0AF10C0AFE
S214003C60BCE740462BF0E9FE01383042C1D17EBBAE
S214003C70032332462046009308A933462BF0C2FCA5
S214003C8004260446103C20462BF0D1FC2046314644
S214003C902BF0D8FC489BAB4228BF2B461C46EBB10A
S214003CA00023224600934799499B0AA82BF0AAFCBA
S214003CB02A1B04D00023194600932BF0A3FC1038CF
S214003CC02BF0B5FC12A80AA92BF091FC00201BE7EC
S214003CD016F0030618BFC6F10406D3E70AA8E7E7FE
S214003CE00000025C70B598B0002843D02C4C08AD9C
S214003CF00FCC0FC50FCC0FC50FCC0FC594E80F0027
S214003D0085E80F006D4604AE04F1100320340FCB97
S214003D1085E80F0094E80F0086E80F00FFF796FB93
S214003D200420FFF7A7FBFFF781FB3046FFF7B8FB41
S214003D30002408AE56F8040B0134FFF7BDFB102C28
S214003D40F8D1FFF733FB0328FBD90024FFF758FB15
S214003D502646FFF725FB55F8043B01365840042E4F
S214003D6044EA0004F5D12CB1012206200D4B1A704E
S214003D7018B070BDFFF76AFB0820FFF729FB00208C
S214003D80FFF72CFB0720FFF72FFB4FF40070FFF721
S214003D9031FB0820FFF76EFBFFF738FB0020E7E754
S214003DA0C41D0400913A002008B5FFF74FFB01221E
S214003DB0014B1A7008BD00BF903A00201FB52CF0CA
S214003DC01EF8044630B1012206240D4B1A70204618
S214003DD004B010BDFFF7E4FA0090FFF7E1FA019097
S214003DE0FFF7DEFA0290FFF7DBFA03906846FFF76C
S214003DF057FBFFF7D9FFFFF721FBFFF733FBE6E79B
S214003E00913A002006289ABF014B185C00207047A4
S214003E10241E040030B5154B87B00293144B039054
S214003E20049346F611030D46059300F077F914281F
S214003E30044616D168462CF083F84FF0A8430322B8
S214003E4002A95A6319601D619A63DA6B9207FCD166
S214003E50142C02D168462CF081F800F093F9044641
S214003E6001E00028E9D0204607B030BD64280020D5
S214003E70040000202DE9F04FB1B005468C469E4662
S214003E80E8466F4EDDF8EC90409C06F1100A474677
S214003E9030687168083603C75645B846F7D13E9B6A
S214003EA003EB0208C8F1000A0AF00F0AB9F1000F86
S214003EB000F09D80C9F1000707F00F070121DDF82B
S214003EC0FCB044F00050C4F11006CDF810B00591D7
S214003ED00690300200F4F85040F021000790B9F147
S214003EE0000F40F08680CDF820D047F00050002D1F
S214003EF000F08480099121210A9041EA07210B9164
S214003F0042F00050CDF830C03D9B08A94FEA0A2C7D
S214003F100D910E904CF041000F901093002A75D131
S214003F203E9B119143F0005312933C9B13901493C5
S214003F3010AB1593434B444A169340F61103179360
S214003F40424B0021002D08BF1346189314AB19935B
S214003F503F4B10221A9311231B931CAB18463CF0C0
S214003F60F8FC01221D92002246F0804603461E966B
S214003F70239205B9EB46102CCDF880B024AE4BD179
S214003F800123224600213046219322943CF0E1FC96
S214003F9020AB002125938F4218BF334647F080425E
S214003FA026923A9A2CA828922993B2FA82F35B09B1
S214003FB049EA837310222B912A933CF0CAFCB9F18C
S214003FC0000F00D028AED04448F080432CA918A893
S214003FD02D962E93FFF71EFF30B92DB90346A34248
S214003FE025D1002818BF2C2031B0BDE8F08F10274F
S214003FF064E7CDF820E049F0005078E7002C3FF465
S21400400079AF04A9099101210A9076E73E9B0CAA94
S21400401011924120129388E7102200213046219306
S21400402022943CF096FC002CB2D10123B1E703F1B8
S214004030C0026A4412F8C02C01331043CFE700BF19
S2140040402B1E040010000020401E0400441E040026
S21400405004000020F0B5C0299FB0DDE9244557D004
S214004060B1F5807F04D0802948D029201FB0F0BD4C
S21400407001265CB140F2344702941024039604945F
S214004080212401970594069502AC0AE040F21447F5
S2140040900294102403960494212405940124019785
S2140040A00695079401251024089409950A92212262
S2140040B00B950C940D92174A0AAD0E92164A0F9560
S2140040C0109242F6110211921293139514941592BF
S2140040D001AA1692D3B112AB179304231893112397
S2140040E0199316AB1A901B9340F61103C9081C913E
S2140040F01AA806A91D93FFF78DFEB7E7012614B987
S2140041004FF48267C4E74FF48667B5E70EABE3E784
S2140041100F20ABE73C1E04001000001038B5164B0D
S2140041205A6E42F004025A66D3F8802242F0010228
S214004130C3F88022114B5B68C3F3080343B14FF00A
S214004140A842D36B13F0430FFBD11424204638BD8E
S2140041504FF0A843DC6B14F04304FBD1084D2B68EA
S2140041601BB90421284603F091FA2B68013343F06B
S21400417000432B60EAE700BF0080005000ED00E03F
S21400418064280020014B00205B68704700ED00E0CB
S2140041904FF40052034B00209A660322C3F86022B5
S2140041A0704700BF009000504FF40052034B0020B1
S2140041B09A660322C3F86022704700BF00A0005032
S2140041C0012300F01F02A0F506200949A0F5506063
S2140041D04009934051F820201A4341F82020054911
S2140041E051F8202022EA030241F82020704700BF41
S2140041F084280020682800200121A0F506230F4A05
S214004200A3F550635B0900F01F00814052F82300BD
S21400421010B5014342F8231000210B46084850F819
S214004220044B013107292344F9D133B9C2E90033DD
S214004230C2E90233C2E90433936110BD6828002046
S214004240842800202DE9F04FA9B003921D460446AD
S2140042500822339ECDE90401414021FA02F34B4087
S214004260980702F1080218BF9B00202A1C44F4D1CC
S214004270C123B4FBF3F203FB1244734B04F506248C
S2140042801B7804F55064002B3ED1FDF7B5FF0746BA
S21400429020B16FF0910029B0BDE8F08F01464022B2
S2140042A008A83CF056FB4022394618A83CF051FBC3
S2140042B0DFF8B081DFF8B091C3460BF10F0ACDF8F6
S2140042C000A0102208A95B46D9F800003BF073FB5B
S2140042D00022014608F1100808AF914245D1CDF8FA
S2140042E000A05B461022D9F8000018A93BF06CFB32
S2140042F04FF0000A834618AFD34540D1534B98453C
S214004300DAD10122504B1A704FF0C10A4FF0000864
S214004310DFF858B1A4F50627A7F550635B095BF8EC
S214004320232004F01F01CA40D2073CD4484A52F862
S2140043302330CB40DB0729D5B8F1000F08BFA046D5
S214004340C123A7F6FF47B7FBF3F203FB1277BAF1D8
S214004350010A07F5062404F55064DBD1039BBBB1C4
S214004360B8F1000F14D0444619E057F8040BCDE915
S2140043700612FFF725FF079A06990132ADE757F8B0
S214004380040BFFF739FF0AF1010AB5E7039B13B9DF
S2140043906FF08B007FE7B8F1000F18BF4446349BE0
S2140043A000201C6077E7329B13B10023329A13601B
S2140043B00EB1002333601023DFF8AC9000932A463A
S2140043C000232146D9F8000021F012FB60BB329989
S2140043D02A68204BC9B99A4206D02146D9F800006F
S2140043E021F09EFB0028D3D1D5E90223DDE9041095
S2140043F0834208BF8A42A3D1039B002BCFD06B68B1
S214004400012BCCD16FF0840045E7102032999A42F8
S2140044100860E2D1002EE7D033462146D9F80000E6
S21400442018AA21F039FB48B10B4B9842D5D00B4B5C
S2140044309842D2D00A4B9842D6D02AE7329A3368AE
S21400444012689B1A3360CFE7923A0020007108008A
S21400445068280020105D175EFFDF00F011E000F016
S214004460FEDF00F0006D08005C12002084280020AB
S2140044702DE9F04F87B08246894698461646DDF805
S21400448040B02AB1002B4FD040F26C739A424ED8FF
S214004490BBF1010F4ED8002406F110073946012063
S2140044A005942CF0A0FF0546002846D021463A4643
S2140044B03CF04FFA05ABCDE9014300942B460122B0
S2140044C050464946FFF7BEFE044680B110F18C0FF9
S2140044D008BF6FF08D043A46002128463CF039FAB2
S2140044E028462CF0A0FF204607B0BDE8F08F144BFE
S2140044F0C5E902A92B60C5F804B02EB13246414684
S21400450005F110003CF030FA059E0E483B462A4660
S2140045103146006821F0D4F918B93046FFF750FE4E
S214004520D9E76FF09104D6E76FF08604DBE76FF00B
S2140045309104D8E76FF08504D5E76FF08C04D2E7D6
S214004540105D175E5C1200202DE9F0438DB08146A9
S214004550DDE914780E4615461C469BB1B8F1000FEF
S21400456005D16FF0860630460DB0BDE8F083002F0B
S214004570F7D0B7F1005FF4D3C3F1005303F500435F
S2140045809F42EED81022002108A83CF0E2F9002253
S21400459007AB029305AB019306AB31460093484642
S2140045A008ABCDE90522FFF74DFE06460028DAD116
S2140045B0059BA4B1AB4215D853EA0504D1D1069B9E
S2140045C00B48C8F8004000943A46079900682B4408
S2140045D021F00EFA002818BF6FF09106C3E7AB4231
S2140045E0EDD2BEE75B1B9C4228BF1C46E7E700BF38
S2140045F05C12002030B58DB00C4605461022002116
S21400460008A83CF0A6F9002207AB029305AB01937D
S21400461006AB21460093284608ABCDE90522FFF7F6
S21400462011FE0446D8B9099B012B1BD0079D104BE1
S2140046302946186821F074FAB8B90122A5F50623B0
S2140046400C49A3F550635B0905F01F00824051F842
S21400465023004240284641F82320FFF7CDFD2046A0
S2140046600DB030BD6FF08404F9E76FF09104F6E703
S2140046705C120020842800202DE9F04F89B0074600
S2140046800E46FEF79FFEC00709D4042401202BF037
S214004690C3FB80B3013CF9D16FF0920028E01022F2
S2140046A000210DEB02003CF054F904A8FEF7ECFEE6
S2140046B0049B002BE9D0059B002BE6D0069B002B25
S2140046C0E3D0079B002BE0D00025DFF8808008F1C0
S2140046D00409B54219D34FF48A74FEF76DFE00F054
S2140046E00E03062B2DD1C30501D5FEF797FE00203D
S2140046F009B0BDE8F08FFEF75FFE10F00E03FAD0AB
S214004700022BF8D04105DFD5C4E7FEF74FFEA6EB37
S214004710050A8400544528BF544699E80300002340
S2140047208DE80300CDE9054307EB050BCDF810B087
S214004730029404AAD8F8003007CA2BF04FFA254492
S214004740C7E724FA03F3DA07A6D5C6E7501E040027
S2140047501FB504A800E90E0011460198FFF78CFF6C
S21400476070B1FFF721FBBFF34F8F0749074BCA68AD
S21400477002F4E0621343CB60BFF34F8F00BFFDE748
S21400478005B05DF804FB00BF00ED00E00400FA058C
S21400479070B50488054604F4E043B3F5005F1ED107
S2140047A0C4F30223042B1AD181F0AA6383F4807326
S2140047B033F47E13204821F47E1618D081F0AA63C5
S2140047C083F4007333F47E1311D086422DD1B4F5F2
S2140047D0105F0CBF6FF086006FF0850070BDB4F5FB
S2140047E0105F22D1144B21F47E119942F1E78642E4
S2140047F04FEA1143C1F3054117D1B4F5105F14D148
S21400480004390C2914D813F0010011D1073A062AEE
S2140048100ED86B8823F04002802ADFD0B3F5807F65
S2140048200CBF00206FF08600D8E76FF08500D5E754
S2140048306FF08600D2E700BF000140052DE9F04F7B
S21400484097B09346DDE924751C468A46269EDDF819
S214004850AC9021B96FF0860017B0BDE8F08F002845
S214004860F8D0209B002BF5D0229B13B9239B002B5E
S214004870F0D1002F40F09180002DEBD1289B002B2B
S214004880E8D0B9F1000FE5D02A9B002BE2D0299B97
S214004890002BDFD00288438802F4E041B1F5005FC8
S2140048A040F08680C2F30221042940F0818084F023
S2140048B0AA6282F4807232F47E1206D084F0AA6273
S2140048C082F4007232F47E127BD1C4F3054821468E
S2140048D0219AC9F800800393FFF75AFF0028BBD13E
S2140048E0039B0733DA08BBEBD30F0392B2D3279BA5
S2140048F09D4270D82A9B98456DD8B74208D27B193E
S2140049009E4205D239462A4630463CF008F83746DD
S214004910039B229A059300230792239A2999CDE9AF
S2140049200823209A24F47E140A92219ACDE90D7564
S214004930CDE90B23D9F80020CDE90F36CDE91312C7
S214004940284ACDE911539442CDF810A0069315934A
S2140049503AD1219BC3F10F03DBB2032B06D8012209
S214004960DB0002FA03F3AB427FF674AFFFF710FCEE
S21400497000287FF471AF07AB019313AB009310AA26
S2140049800AAB0DA904A8FEF79BFE0446FFF70CFC35
S214004990204323D1289B1D605EE7002D3FF46EAFB9
S2140049A0002E3FF457AF279B002B7FF467AF51E7ED
S2140049B042F204018A4204D184F0052282F4801275
S2140049C080E74FF0000882E7289A6FF096001360A1
S2140049D0C9F8003040E76FF089003DE76FF09200BD
S2140049E03AE700BF000140052DE9F04F95B08A4632
S2140049F0DDE92275DDE9264691469846834600287D
S214004A0000F0A780002900F0A4801E9B002B00F079
S214004A10A080209B1BB9219B002B40F09A8017B9E1
S214004A20002D40F0968014B9002E40F09280289B0E
S214004A30002B00F08E80249B002B00F08A804146DD
S214004A4058461F9AFFF7A4FE00286ED1BBF8023026
S214004A500733B9EBD30F4FEAD30B7AD3B5427BD8E3
S214004A60A74208D27B199C4205D239462A462046E0
S214004A703BF055FF27463B4B0DF1140C93E807001F
S214004A8014AB8CE8070003E907000DF1200C364B49
S214004A908CE8070028F47E180DF12C0C8CE8070033
S214004AA00DF108090DF1380C984589E807008CE8E7
S214004AB0070054D11F9BC3F10F03DBB2032B05D8AD
S214004AC00122DB0002FA03F3AB4242D90023209A0C
S214004AD0CDE902AB0592219ACDE90E75CDE9062304
S214004AE0249ACDE910340892259ACDE91253CDE9DF
S214004AF009231E9A04930B921F9ACDE90C23FFF705
S214004B0047FB90B905AB019308AB009311AA0BAB1A
S214004B100EA94846FEF7ECFD0746FFF745FB032FB8
S214004B2006D0384312D1289B1D6015B0BDE8F08F23
S214004B306FF094000023289A1360002EF5D02644C8
S214004B4022460134B4421370FAD1EEE76FF09200B9
S214004B50F0E76FF08600E8E76FF08900E5E76FF0B2
S214004B608500E2E7A81C0400000140052DE9F0419D
S214004B70DDF818800E4614461D460746E0B1D9B14A
S214004B80D2B15322002101303BF0E3FE01233B70FB
S214004B90234BC7F80480984502D0224B98453BD15A
S214004BA03388B3F5105F37D17388C02B18D0B3F5B0
S214004BB0807F23D0802B03D06FF08600BDE8F08185
S214004BC00F2DF9D907F1080304F1100254F8041B5D
S214004BD0944243F8041BF9D110230020BB62EDE792
S214004BE0172DE9D907F1080304F1180254F8041B3D
S214004BF0944243F8041BF9D11823EEE71F2DDBD9A6
S214004C0007F1080304F1200254F8041B944243F809
S214004C10041BF9D12023E0E76FF08500CEE700BF44
S214004C20004440040013C0042DE9F041DDF818806C
S214004C300E4614461D460746E0B1D9B1D2B15322FE
S214004C40002101303BF085FE02233B70234BC7F862
S214004C500480984502D0224B98453BD13388B3F563
S214004C60105F37D17388C02B18D0B3F5807F23D060
S214004C70802B03D06FF08600BDE8F0810F2DF9D9A8
S214004C8007F1080304F1100254F8041B944243F899
S214004C90041BF9D110230020BB62EDE7172DE9D9DC
S214004CA007F1080304F1180254F8041B944243F871
S214004CB0041BF9D11823EEE71F2DDBD907F10803F3
S214004CC004F1200254F8041B944243F8041BF9D163
S214004CD02023E0E76FF08500CEE700BF00444004E5
S214004CE00013C0042DE9F04F99B088461546994642
S214004CF00446229920B96FF0860019B0BDE8F08FFF
S214004D00B8F1000F01D1002AF5D1B9F1000F01D199
S214004D100029F0D1239B002BEDD06368A548E26BF9
S214004D20834214D114AB00260E931023CDE90F3620
S214004D3004F12C03CDE911321396239B276D1E60D8
S214004D40002D4BD007F00F07C7F1100B35E0BAB1B6
S214004D5014A800260E901020CDE90F0604F12C00B2
S214004D60CDE91102944A1396934211D00BD8934A78
S214004D70934217D0924A93420AD0924A9342DCD08A
S214004D806FF08800B9E7904A23F480739342F7D116
S214004D900026239B276D1E6005B38D4255D96FF004
S214004DA08900AAE7239B276D1E60BDB1237807F014
S214004DB00F07022BC7F1100B12D05D4524D2206DD1
S214004DC02A4600F00F004030414620443BF0CCFD20
S214004DD0236D239A2B4423650023136000208CE761
S214004DE0BBF1100F01D1276D0FB90126E5E7102D95
S214004DF027D90027A5F110021009431C12F00F0F47
S214004E0008BF0346012607E01DD9A5F110023A4463
S214004E101009431C002EF1D1B1EB031FBFD3C845C8
S214004E2047D208EB0503994543D28D423FF663AF60
S214004E300123029341462A4648463BF070FDC84689
S214004E400EE0012600270123E6E707F00F07C84516
S214004E50C7F1100B2BD208EB050399450296E9D350
S214004E604FF0000AA36A04F10802BBF1100FCDE967
S214004E700523CDF81CA055D0206D5A4600F00F0033
S214004E804030414620443BF06FFD04F1400303935D
S214004E9008931023039ACDE9093ACDE90B23CDF800
S214004EA034A0FFF775F938B16FF0920025E7029647
S214004EB0D6E701230293D3E722786368012A404AA3
S214004EC040F0848093426CD002F54072934268D0E2
S214004ED0384A93427FF454AF0BAA08A905A8FEF7F8
S214004EE097FB8246FFF760F95AEA0000DCD1029B86
S214004EF0002B00F086804A46039B03F1100153F80E
S214004F00040B8B4242F8040BF9D10EB15D4575D007
S214004F104FF0100A09F11009236D103D5B4423651C
S214004F20D8443D440F2D00F29D80002D35D0029BC5
S214004F30002B40F009811022002304F14007CDE940
S214004F400923CDE90B72CDF820800D93FFF720F9E9
S214004F500028A9D122786368012A194A40F0DC802B
S214004F60934204D002F5407293427FF409AF0EAB31
S214004F7000930BAA11AB08A905A8FEF771FB06461D
S214004F80FFF712F906438FD12A46394648463BF0CA
S214004F90EBFCAA44236D2B442365239BC3F800A097
S214004FA01CE70EAB00930BAA11AB08A905A8FEF7E9
S214004FB057FB96E7004440040011C004004140043B
S214004FC00010C004004040040012C00493420CD0FD
S214004FD0614A934209D0614A93427FF4D1AE0BAA4C
S214004FE008A905A8FEF728FB7BE70EAB00930BAAE3
S214004FF011AB08A905A8FEF74BFB72E74FF0000AB5
S2140050008AE7AB45DA4628BFAA46216D039B01F026
S2140050100F010B445246194648463BF0A5FC236D4B
S21400502053441A07236509D163684D4A23F4007177
S214005030914208D002F54072934204D0D144D04445
S214005040A5EB0A056EE714AF04F12C020DF1600C17
S2140050503B4603CB6345106051601F4602F10802D1
S214005060F6D1EBE725F00F071EB12B0701D1103F55
S2140050702DD00023CDE90887CDE90A39CDE90C7398
S214005080FFF786F800287FF40FAF22786368012ABE
S214005090334A2AD1934220D002F5407293421CD064
S2140050A02E4A93427FF46CAE0BAA08A905A8FEF719
S2140050B0AFFA8346FFF778F85BEA00007FF4F4AEB9
S2140050C0236DED1B3B44BA4423653FF466AF029B59
S2140050D0B844002B2FD1B9442DE711AB00930BAA8F
S2140050E008A905A8FEF7BCFAE3E793420CD01A4AD3
S2140050F0934209D0194A93427FF442AE0BAA08A9FC
S21400510005A8FEF799FAD4E711AB00930BAA08A9F5
S21400511005A8FEF7BDFACCE7934203D00E4A9342A9
S2140051207FF42EAE0EAB00930BAA11AB08A905A810
S214005130FEF7AEFA23E70F2D06D90EB1102D03D0D9
S2140051400023239A13601BE62A46414604F14000DA
S2140051503BF00AFC1EE700BF0013C00400444004F6
S2140051600010C00410B520B96FF086041860204601
S21400517010BD426813498A4222D00CD8124922F444
S21400518080628A4214D06FF088040021542219608D
S2140051903BF0DFFBEBE70D498A4211D022F40072A8
S2140051A0A1F580718A420CBF00246FF08804ECE7FA
S2140051B0026D12F00F0F0CBF00246FF08604E4E7B8
S2140051C00024E2E70010C004004040040012C004BF
S2140051D038B50D46044670B301F0FE43B3F1007FC8
S2140051E029D1682200213BF0B4FB144B9D4205D028
S2140051F004339D4211D06FF0850038BD022320464F
S21400520000F8083B0E4B03F1140253F8041B9342BC
S21400521040F8041BF9D10020EFE70423204600F8ED
S214005220083B084B03F1200253F8041B934240F856
S214005230041BF9D1EFE76FF08600DEE705000002F9
S2140052407D1E04005C1E040070B58AB00446DDE9CD
S2140052500E0509B9002A54D16BB9002851D12C4B40
S2140052609C4251D004339C420CBF6FF089006FF013
S21400527085000AB070BD002DEFD0254EB44205D093
S2140052800436B4421CD06FF08500F2E713283BD9F1
S214005290CDE904120022CDE90623CDE90802FEF787
S2140052A077FF0028E5D11A4B9C420BD004339C4272
S2140052B01AD0FEF779FF00236FF092002B60D8E734
S2140052C01F28E4E70AAB13E907008DE8070004ABE4
S2140052D00ECB02202AF052FC142304462B60FEF765
S2140052E063FF2043C5D0E6E70AAB13E907008DE865
S2140052F0070004AB0ECB04202AF040FC2023044613
S214005300ECE76FF08600B4E76FF08900B1E700BF06
S214005310050000022DE9F04FA9B0834617469A46CD
S2140053200E46DDF8C890DDF8D88029B96FF0860300
S214005330184629B0BDE8F08F002AF7D0B9F1000F63
S214005340F4D0349B002BF1D0B8F1000FEED000243F
S214005350424B0CAD93E8070085E807003C22214647
S21400536019A818943BF0F5FA3388728803F4E040E5
S214005370B0F5804FDAD03A4E3A480BEA060646F0C9
S2140053801066864263D1B2F5807F60D147F2121272
S21400539093425CD10620344ABAF11F0FD3680E94AC
S2140053A00B931369126800FB03F3CDE90C23BDD9F8
S2140053B0339B402BBAD9359B1F2B4BD909F10102E1
S2140053C020261292402299F800300F97042B18AF2F
S2140053D0CDE91324CDE91572109611941794A5D132
S2140053E0FEF7D6FE03460028A2D10B9B15AACDE9F0
S2140053F0086305AB07CA83E8070002AB12AA07CA10
S21400540083E80700DDE910018DE803000F9B95E8AF
S2140054100700FEF7E9FA0546FEF7C6FE55EA000362
S21400542084D13D46349A20AE2C4603CCB44210605C
S2140054305160254602F10802F6D100221146B95401
S2140054400132402AFBD12022C8F8002070E76FF016
S21400545085036DE76FF089036AE700BFA81C0400A8
S2140054600000FFF600000209E01C0400F0B50E463E
S2140054701D468BB0002853D0002951D0002A4FD0AB
S214005480002B4DD0048804F44F43B3F5824F03D06D
S2140054906FF085000BB0F0BDE3B224F0FF04B4F566
S2140054A0E24FB0F802C0F3D1122B01D0172BEFD188
S2140054B00CF10701B2EBD10F4FEAD10733D31D4AE7
S2140054C004ACBCF5807F07CA84E80700E0D1122B45
S2140054D007D1194B1A691B681344CDE9043200231F
S2140054E006930023CDE907670993FEF751FE0028CF
S2140054F0D0D1124A02AB92E8030083E803000AAB5D
S21400550013E903008DE80300079B94E807002AF0E0
S21400551028FA0446FEF748FE204307D12F60B9E775
S2140055206FF08600B6E76FF08900B3E76FF0920081
S214005530B0E700BFA81C0400E01C0400481E0400DE
S2140055402DE9F0438FB01D46DDE916C600285CD075
S21400555000295AD0002A58D0002B56D0BCF1000F94
S21400556053D0002E51D0038803F44F44B4F5824F35
S21400557051D1DCB223F0FF03B3F5824F40884AD006
S214005580122C01D0172C46D1C31DB2EBD30F4FEA15
S214005590D3083AD34FEA4802571C674538D8B0F5C7
S2140055A0807F38D1122C18BF4FF000094FF000034F
S2140055B008BF1C4CCDE9081805F1010114BF4C4684
S2140055C0D4F80C90CDE90B120A930D93FEF7E0FD8C
S2140055D0C0B9CDE9058902AB08AA07CA83E8070067
S2140055E00EAB13E903008DE803000B9B94E807005D
S2140055F02AF0D6F90446FEF7D7FD20430ED1042341
S2140056002B7037600FB0BDE8F0836FF08600F9E7C7
S2140056106FF08900F6E76FF08500F3E76FF0920011
S214005620F0E700BFE01C04002DE9F04389B00E4609
S21400563015461F46DDF8488020B96FF0860009B091
S214005640BDE8F0830029F8D0002AF6D0B8F1000FA4
S214005650F3D0038803F44F42B2F5824F02D06FF0C6
S2140056608500ECE7DAB2122A01D0172AF7D123F028
S214005670FF03B3F5E24F41D14488C8F8004044B96F
S214005680EB00B3F5807FC8F80030E8D1122A0DD1C0
S21400569008E0E31DB5EBD30FCFD1B4F5807FDED1A4
S2140056A0122A29D1354B1C681B691C440023194655
S2140056B070192C4414F801CD10F8012D1143B2EBEB
S2140056C00C020CBF4FF0FF3C4FF0000C86420CEA79
S2140056D0030343EA0203EDD10029AED0002BACDA77
S2140056E0109B9D4246D82A46314638463BF03CF948
S2140056F0119B00201D60A2E70024D7E73378042B17
S2140057009BD16B1EDB005B08B3F5807FC8F80030CA
S214005710A5D1122A06F1010318BF4FF000094FF079
S214005720400205934FF000030ABF144C4C46D4F8D1
S2140057300C90CDE90623FEF72BFD00287FF47FAF03
S214005740CDF80C90D8F800300733DB08029308AB8E
S21400575013E903008DE80300059B94E807002AF090
S214005760A5FA0446FEF720FD00287FF468AF002C5B
S214005770B6D062E76FF0890061E700BFE01C040066
S2140057800388B3F5105F0ED14388DB08103B102B5F
S2140057900CD8084A22FA03F313F0010F14BF0020B6
S2140057A06FF0860070476FF0850070476FF08600D8
S2140057B0704700BF010101002DE9FF470C9F0C4612
S2140057C09146054628B96FF08604204604B0BDE829
S2140057D0F0870029F7D00AB9002BF4D1B4F802A05C
S2140057E04FEADA089845CDF80C80ECD8AC220021B8
S2140057F028463BF0AEF8424B3B40B3F1607F68D1A1
S2140058002388B3F5885FDED13E4BFEB246F00076C5
S2140058109E424AD001339E4249D0043B9E426CD100
S2140058201423C7F305429A42CDD8BAF5027F40D377
S21400583003AB01934023424600934946304605F1A8
S2140058406C03FFF701FD04460028BED105F16B0886
S2140058504346039A02F16B0129448B4233D102F18D
S2140058606C003621C2F14002284405F104093BF0E1
S21400587070F831464846FFF7ABFC04460028A4D132
S2140058804022484605F16C012AF049FC04460028EF
S2140058909BD105F1AB0218F8013F83F06A039045EF
S2140058A088F80030F7D12F608FE71C23B9E7202354
S2140058B0B7E7BAF1070FC9D94246494605F16C0069
