:1000000000120020010600002BBC02002BBC0200E5
:1000100097D202002BBC02002BBC02002BBC0200BA
:100020002BBC02002BBC02002BBC02002BBC02002C
:100030002BBC020088CC0300E5BA02002BBC0200F6
:100040002BBC02002BBC02002BBC02007907000075
:100050002BBC02002BBC02002BBC02002BBC0200FC
:100060002BBC02002BBC02002BBC02002BBC0200EC
:10007000F95900002BBC02002BBC02004105000016
:100080008DBB02002BBC02002BBC02002BBC02006B
:100090002BBC0200610D00002BBC02002BBC020037
:1000A0002BBC0200996400002BBC02002BBC020098
:1000B0002BBC0200659302002BBC0200A59D020030
:1000C00007B9030003B903009595020013B90300B3
:1000D0000BB903007D9D02000FB90300E59D0200EE
:1000E000797702003D790200559E02002BBC020088
:1000F0002BBC02002BBC02002BBC02002BBC02005C
:100100002BBC02002BBC02002BBC02002BBC02004B
:100110002BBC02002BBC02002BBC02002BBC02003B
:100120002BBC02002BBC02002BBC02002BBC02002B
:100130002BBC02002BBC02002BBC02002BBC02001B
:10014000013800D0FCE77047002370B5404C0546ED
:100150008AB0E36318B1008823600BF023FE3D48AA
:100160003AF039FF3C4E3D4B304633603C4B7360B8
:1001700031F072F90021304623F0D6FA32A3D3E9E8
:100180000023A062C4E9062331F071F9D4E9062303
:1001900019431043C4E90601CDE900014FF0FF33D4
:1001A0004FF0FF32A06A3AF091FF02224FF0FF3188
:1001B000A06A3AF090FF01200BF076FB4FF4007339
:1001C00000222849A06A3AF0D7FFB0F5007F38D165
:1001D00000239422CDE9073309933C23CDE9033270
:1001E00005939623A06A03A9069323F0BBFB35B3BE
:1001F000287C0BF08FFF0546F0B9A06A3BF09AF817
:100200000BF036FF0BF032FB20B14FF48070002171
:1002100008F0D0FB0BF03AFB20B14FF40060002156
:1002200008F0C8FB31F0E7F9012023F0D1FA0E4ABB
:100230000E49A06A31F00EF928460AB070BDFF20C1
:10024000D7E70725F8E700BF0DD5015520000000CE
:1002500030170020690345EC1C2E00202DB700004C
:100260002C2E00201C2C0020FD1303003D14030045
:100270000348044B834202D0034B03B11847704735
:10028000BC160020BC16002000000000064B0749E9
:10029000C91A891048BF0131491003D0044B0BB172
:1002A00001481847704700BFBC160020BC1600204C
:1002B0000000000010B5064C237843B9FFF7D8FFC3
:1002C000044B13B10448AFF300800123237010BD29
:1002D0006E370020000000005028040008B5054BD0
:1002E0001BB105490548AFF30080BDE80840FFF7A2
:1002F000CDBF00BF00000000C81C00205028040033
:10030000A3F5803A704700BF174B002B08BF134B73
:100310009D46FFF7F5FF00218B460F461348144A10
:10032000121A3BF03EFC0E4B002B00D098470D4BB1
:10033000002B00D098470020002104000D000D483C
:10034000002802D00C48AFF300802AF0D1F9200039
:10035000290006F0EFF829F099FF00BF000008001F
:10036000000000000000000000120020BC16002069
:1003700070390020000000000000000010B5234C80
:1003800000F0F8FF01F030F9236F23F0070343F08A
:10039000030323672BF09BFD1D4B00209B6A9B07EB
:1003A0005EBF01221B4B9A62D4F8203123F0030375
:1003B00043F00203C4F82031D4F8243123F00703BA
:1003C00043F00203C4F82431D4F8403123F003038E
:1003D00043F00203C4F84031D4F8603123F0030342
:1003E00043F00203C4F86031D4F8403223F0030331
:1003F00043F00203C4F84032D4F8003223F007037C
:1004000043F00203C4F8003210BD00BF008000506A
:1004100000C0005000E0005030B5234D95B00DAC49
:100420000FCD0FC495E80700032384E807008DF87B
:100430004D3029231D4A1E49CDE902231D4B0E22B2
:10044000CDE904134FF4807300210DF126000693CB
:100450003BF0A7FB4FF4A020174B07A9CDE90703FA
:100460000F238DF8243010238DF82530134B0DAA5F
:100470000A9320230B9340F20113ADF83030104B58
:100480001048009302AB04F099FB04469DF832300B
:100490004FF4E130002B0CBF032100212BF0B6FB01
:1004A000204615B030BD00BF60CC030000000650F0
:1004B0000005000600080007240006506F370020E2
:1004C000E01C0020341D0020831E012B10B512D823
:1004D000012922D8114B04221B6905210020C3F3F6
:1004E000401301F0C7F90E4B1B681868A8B1BDE8AE
:1004F0001040436A18478B1E012B0CD801280CD8DA
:10050000BDE810400022054B05211B691046C3F3CE
:10051000401301F0AFB90129E5D910BD00C0035067
:100520000C12002008B50449044804F0BDFDBDE8E4
:100530000840FFF771BF00BF10120020581D0020B7
:1005400001482CF05EBE00BF341D002008B50368D2
:10055000084A23F47F4323F00703934209D111F0A3
:1005600061FC11F047FC11F051FCBDE8084011F0AE
:1005700035BC08BDA000010008B503680D4A23F48E
:100580007F4323F00703934204D002F12062934299
:1005900008D008BD0379002BFBD1BDE8084003203B
:1005A00011F04CBC044829F0EFFFBDE808400020E2
:1005B00032F017B9A80014007CCC030007B508205E
:1005C0002BF04EFB02238DF80030054B684601935B
:1005D0002BF0E0FA082003B05DF804EB2BF04BBBE6
:1005E000006A18100348044A0449121A92102BF0AA
:1005F0001DBB00BF202D0400202D040070390020F9
:1006000008B500F02FF8FFF7EDFF124B12498B42AF
:1006100012D30020114B12498B4218D3FFF774FEFE
:10062000186850F82240586840F822400132986813
:100630008242F5D30C33EAE70022F8E71C6844F85D
:10064000220001325C68A242F8D30833E4E70022BA
:10065000F8E700BF58280400642804006428040058
:10066000642804004FF400414FF0FF30124B134A4E
:1006700010B59A60D3F8882042F47002C3F888203D
:100680000F4A916601F1884101F5005210664FF65C
:10069000DF7050660220C3F8D000BFF34F8FBFF366
:1006A0006F8F08244FF440330648C0F88041D36070
:1006B00004600B6110BD00BF00ED00E00000000011
:1006C0000090005000E100E0014B1868704700BF47
:1006D0001C120020084B1B6F03F00703022B04D0F1
:1006E000032B05D0012B05D0FEE7044B186870479B
:1006F000034BFBE703487047008000501C120020AA
:1007000024120020002D310108B5FFF7E3FF054B4F
:100710001B6FC3F303330133B0FBF3F0024B1860DC
:1007200008BD00BF0080005018120020004870472C
:1007300000B4C404014B1868704700BF24120020A5
:1007400000487047002D3101014B1868704700BF09
:1007500020120020BFF34F8F0549064BCA6802F4F0
:10076000E0621343CB60BFF34F8F00BFFDE700BFD4
:1007700000ED00E00400FA0513B5204B1B7803B927
:10078000FEE700231E4CCDE900336A4608231D49CD
:10079000206822F0FFFCF0B91B4AD2F84031D2F8B1
:1007A00040211F2B4FF0010310D9203A9340019AAA
:1007B0001A43019208236A461249206822F0A0FCDD
:1007C0004FF00053114A1A60FFF7C4FF9340009A9C
:1007D0001A430092EEE70E4B9842F1D10A4AD2F842
:1007E0004031D2F840211F2B4FF0010385BF203A42
:1007F00093409340019398BF0093DBE78F3700202D
:100800004C12002000710800008000440B020FF021
:100810000BE000F00346054A0549106803448B428B
:100820008CBF4FF0FF301360704700BF28120020CC
:100830000080002008B501213A2000F0C1FC03210E
:1008400001230422002001F015F800202BF077FB93
:100850000122214B4FF46070C3F844242BF06EFA50
:100860001E4B00F5D520D3F8F02000F2FC4042F0FA
:100870000102C3F8F020D3F8FC2042F08072C3F8E4
:10088000FC20174AA3F55D431A60164B0222B0FB09
:10089000F3F0154B01381861C3F8F0204FF4807263
:1008A000C3F804234FF06043104A0020C3F8B02F70
:1008B0000F4AC3F8802ED3F8002E42F48072C3F89A
:1008C000002EFF2283F82020D3F8002E22F480721D
:1008D000C3F8002E08BD00BF00D0035000ED00E0BB
:1008E000FF030040F8590D00000004E055CEACC5F0
:1008F000090001004FF06043D3F8802E30B5D207D5
:1009000015D501240B4D8440D5F8FC2042F08072AF
:10091000C5F8FC20D3F8002E2243C3F8002E53F86C
:100920002020002AF0D003F82010002030BD112034
:10093000FCE700BF00ED00E02DE9F04F9A46564B72
:1009400085B01B7806460F461546DDF83C909DF8AD
:1009500044B0DDF85080002B00F09780072A00F2A9
:1009600096800E9B002B00F09280B9F1000F00F0F2
:100970008E80129BB3F5006F00F38980012803D1AC
:10098000109B002B00F08380444B03EB05131B7B73
:10099000002B7ED0424C1022002168463BF001F92A
:1009A00004EB45141022A7BB394620463BF0F9F86A
:1009B00043F210036380BBF1000F03D1E37843F0EF
:1009C0000303E370364A0E9B02EB451CCCE901930E
:1009D000129B6901581E9DF84C30C0F30A0003F0C9
:1009E00003039B0643EA001E53582E48012E00EADB
:1009F00003004EEA0003CDF800A0535017D0B8F121
:100A0000000F2ED19CF8023068F304138CF80230EA
:100A100027E0002120463BF0C4F84FF44473638084
:100A2000BBF1000FCED1E37843F03003C9E71323C5
:100A30000CF1100ECCF80C309CE80F008EE80F0083
:100A40006FF00301DCF81C20109B61F39F02012F63
:100A5000CCF81C20CCF8143003D1CCF81890CCF88A
:100A6000043000270D4A290102EB051342F80180EA
:100A7000159A28465A60694622469F605E7300F0C8
:100A800097FF384605B0BDE8F08F0748FAE70748FA
:100A9000F8E70748F6E700BF90370020601E002007
:100AA000601D00200F80FFF3028000F0018000F045
:100AB000078000F038B5124B05461B78DBB1E0B17A
:100AC0002BF021FA0F4A00231146147B54B92B60F6
:100AD00001251A0101EB03131D738C502BF019FA39
:100AE000204638BD0133082B02F11002EDD12BF066
:100AF00010FA0548F5E70548F3E70548F1E700BFB8
:100B000090370020601E0020048000F0028000F07A
:100B1000018000F038B52BF0F6F9002305460B4AAA
:100B2000147B6CB90133082B02F11002F8D100F0EC
:100B3000E1FE074B28461C702BF0EBF9204603E042
:100B400028462BF0E6F9034838BD00BF601E0020A0
:100B500090370020058000F00D4B10B51B7804463F
:100B600093B1072812D82BF0CEF90A4B03EB0413EC
:100B70001A7B2AB100241C732BF0CBF9204610BD40
:100B80002BF0C7F90448FAE70448F8E70448F6E709
:100B900090370020601E0020068000F0028000F0E8
:100BA000018000F0154B13B51868002301908DF8F3
:100BB00004302BF0A8F9124B1C7824B12BF0A9F9C2
:100BC000104802B010BD01221A702BF0A2F90E4B92
:100BD00001A81C731C7783F82C4083F83C4083F8F1
:100BE0004C4083F85C4083F86C4083F87C400823D9
:100BF0008DF8073000F0AAFE2046E2E7D8CC0300CB
:100C000090370020038000F0601E00200A4A08B5DB
:100C100012785AB107280BD8084A02EB00131B7B45
:100C200043B1002100F084FE002008BD0448FCE729
:100C30000448FAE70448F8E790370020601E0020D7
:100C4000028000F0018000F0078000F00A4A08B539
:100C500012785AB107280BD8084A02EB00131B7B05
:100C600043B1012100F064FE002008BD0448FCE708
:100C70000448FAE70448F8E790370020601E002097
:100C8000028000F0018000F0078000F00A4A08B5F9
:100C9000127852B107280AD8084A02EB00131B7BCE
:100CA0003BB100F0D1FE002008BD0548FCE7054837
:100CB000FAE70548F8E700BF90370020601E0020E3
:100CC000028000F0018000F0078000F00D4B1B78DF
:100CD00093B1072812D889B10B4B03EB00131B7B90
:100CE00073B10A4B1A6D01238340134214BF0123D1
:100CF000002300200B707047054870470548704777
:100D00000548704790370020601E00200000045006
:100D1000028000F0018000F0078000F00B4A10B55F
:100D200012780C4662B107280CD859B1084A02EB78
:100D300000131B7B43B100F099FE2070002010BD12
:100D40000448FCE70448FAE70448F8E79037002035
:100D5000601E0020028000F0018000F0078000F09B
:100D6000184B2DE9F0411F6D5B6D1F4000D5FEE76C
:100D700001260025144CDFF85880374218D023682C
:100D8000C8F85060A3B1A168284601316268A1602B
:100D90009847637B012B0BD150B90C4B03EB4513E8
:100DA0001A7B60F341021A731A7F60F341021A77CB
:100DB0000135082D4FEA460604F11004DDD1BDE8E7
:100DC000F08100BF00000450601E0020601D002064
:100DD00000200450024B1968024B186822F0B6B884
:100DE0002C1200204C12002070B5940022460546BB
:100DF0000E463BF0B1FD431C0AD058B9224631469D
:100E000028463AF0A4FE0028034808BF002070BD21
:100E10000248FCE70248FAE710E000F021E000F0A9
:100E200024E000F010B504463BF09AFD431C10D0BE
:100E300088B900F0DBFE234620F0030020449842EE
:100E400001D1002010BD53F8042B0132F7D0034824
:100E5000F8E70348F6E70348F4E700BF0EE000F0C8
:100E600021E000F024E000F008B52BF045F8014B3C
:100E7000186008BDD0250020014B18682BF040B841
:100E8000D0250020044BD3F88420D206FBD4D3F81D
:100E90008400C0F3811070470040005038B5104BFB
:100EA0000546D3F820310C4603F00303022B0BD088
:100EB000032B0DD0012B0FD1FFF706FC052305B145
:100EC000286004B1236038BDFFF734FC0323F6E744
:100ED000FFF736FC0223F2E701230020EFE700BF13
:100EE0000080005073B50D4600210E4B0191D3F8E0
:100EF0008041064604F00304012C09D0022C0CD0DA
:100F00000C460EB1019B336005B12C6002B070BD80
:100F100001A8FFF7C3FF0F24F3E7FFF711FC0190CF
:100F2000EFE700BF0080005038B5184B0546D3F8F6
:100F300024010C4600F00700062823D8DFE800F063
:100F4000040A121A1E0E1600012305B1286004B10E
:100F5000236038BDFFF7B8FB0523F6E7FFF7B4FBC6
:100F60000623F2E7FFF7E6FB0323EEE7FFF7E2FBDA
:100F70000423EAE7FFF7E4FB0223E6E72AF061FE39
:100F80000723E2E700231846DFE700BF0080005098
:100F900038B5104B0546D3F840310C4603F0030337
:100FA000022B0BD0032B0DD0012B0FD12AF04BFEBF
:100FB000092305B1286004B1236038BDFFF7C4FBE5
:100FC0000823F6E72AF042FE0B23F2E70123002074
:100FD000EFE700BF0080005038B5144B0546D3F84A
:100FE00000020C4600F0070004281BD8DFE800F0E0
:100FF00003090D111500012305B1286004B1236018
:1010000038BD2AF020FE0923F6E7FFF79DFB0823F1
:10101000F2E72AF01BFE0B23EEE7FFF775FB0E232A
:10102000800AE9E700231846E6E700BF0080005089
:1010300038B5104B0546D3F840320C4603F0030395
:10104000022B0BD0032B0DD0012B0FD12AF0FBFD6F
:10105000092305B1286004B1236038BDFFF774FB94
:101060000823F6E72AF0F2FD0B23F2E700231846E7
:10107000EFE700BF0080005038B5104B0546D3F8AD
:1010800060310C4603F00303022B0BD0032B0DD071
:10109000012B0FD12AF0D7FD092305B1286004B137
:1010A000236038BDFFF750FB0823F6E72AF0CEFD9A
:1010B0000B23F2E701230020EFE700BF0080005080
:1010C00010B40D4C0B46D4F8204204F00304012C5C
:1010D0000AD0022C0CD008B1002101600BB1002213
:1010E0001A605DF8044B70475DF8044BFFF7D6BEFD
:1010F0005DF8044BFFF74CBF0080005038B50C463C
:1011000005462AF0F9FE054B9A6A54402C4054409B
:101110009C62BDE838402AF0F3BE00BF00C000501A
:10112000B0F5207F1FD009D8B0F5007F15D003D8C7
:1011300068B1B0F5C07F0AD000200CE0B0F5607F48
:10114000FAD10B4BD3F88000C0F3011003E0084B39
:10115000186FC0F3033001307047054BD3F890008F
:10116000C0F30460F7E7024B186FC0F38020F2E78A
:10117000008000504FF400320E4B014610B50020A5
:101180009A66FFF7CDFF484341F671320A490B4B8F
:10119000884294BF00200120DC69DA639A6822F457
:1011A000401242EA00529A60E20344BF0022DA632E
:1011B00010BD00BF00900050005A620200000350B2
:1011C000420910B50FD0012A0FD00A4B0A4C022A4F
:1011D00018BF234600F01F0049B103F580530122D8
:1011E00082401A6010BD1346F4E7044BF2E703F5A2
:1011F0000053F4E768800050608200506480005023
:1012000008B580202AF09AFD034B98429EBF4FF408
:101210008032024B1A6708BD005A620200A00050DB
:101220001FB50023B0F5807F019377D028D83828E8
:1012300000F094800BD82438092810D809280ED83B
:10124000DFE800F0676767670D0D620D377D522894
:101250005FD008D83D283BD03E2800F0848001981C
:1012600005B05DF804FB8028F9D1414B1B6F03F0FA
:101270000703013B032BF2D8DFE803F044413F6C46
:10128000B0F5D06F5BD019D8B0F5A06F66D00AD892
:10129000B0F5806F3DD0B0F5906FE0D1002001A98E
:1012A000FFF742FEDBE7B0F5B06F2DD0B0F5C06FB1
:1012B000D5D1002001A9FFF76BFED0E7B0F5006F94
:1012C000ECD00AD8B0F5E06F4DD0B0F5F06FC6D1D4
:1012D000002001A9FFF7D0FEC1E7B0F5086FBED12D
:1012E000234BD3F8003103F00303022B2CD0032B44
:1012F0002ED0012B30D1FFF71DFA032300E0052388
:101300000193ACE70223FBE7002001A9FFF7EAFD08
:10131000A5E7002001A9FFF7C1FDA0E702934FF068
:10132000E0231B695B0705D5FFF7EEF90C23039358
:10133000039BE5E703A902A8FFF72AFEF8E70020D0
:1013400001A9FFF749FE8AE7FFF7FEF90823D7E76F
:101350002AF077FC0723D3E70123D1E7002001A976
:10136000FFF7AEFE7BE7002001A9FFF761FE76E7FD
:10137000008000504FF40022034B5A66012203F50F
:1013800080439A62704700BF0090005008B5FFF795
:1013900047FF082811D00938012802D94FF6FF70FD
:1013A00008BD4FF40012064B5A6603F5D8335B6A4A
:1013B000DB07F3D54FF4FA70F2E7024B1888EFE73A
:1013C00000900050A01400201E4BFF2870B59E6AAC
:1013D00035D89A6D12F4803F18BF01211A4A18BF00
:1013E0009162022191629B6DDC0303D5154A936DD6
:1013F0009907FCD50222144B124D1A65AC6D14F0FE
:101400008044FBD1114AAB6992F9002023F47F0399
:10141000024423F47F4382F3080243EA002343EAB1
:101420000243AB6131460220FFF768FEAB6DDB0380
:1014300003D531460120FFF761FE204670BD21240F
:10144000FBE700BF00C0005000D0005091370020E3
:1014500001221548154B816A9A62826D02F00302DF
:10146000032AFAD102229A621A650F4A936D5B0031
:10147000FCD40F48936D30EA0303FBD101220B4BE0
:101480001A65A3F580539A6D9007FCD49A6D920764
:10149000FCD50222054B1A65034A936D9B07FCD5C8
:1014A0000320FFF72BBE00BF00C0005000D000504B
:1014B00003000100F0B5D0E901434FF480061A4A59
:1014C0004178057856664FF4D156022702F5B832B6
:1014D0005662164E4F2977604FF0010728BF4F2103
:1014E00006F5805677601669F603FCD441EA0521BB
:1014F00051611B01417B43EA04230B43017B43EA17
:1015000041039360C37B817B1B0143EA4113417C10
:101510000B43017C43EA41035360837C13B16FF4B6
:10152000D1535362F0BD00BF009000500010025034
:10153000014B1880704700BFA0140020B0F5207F39
:1015400010B50C4642D008D8B0F5007F33D003D890
:1015500088B1B0F5C07F0ED010BDB0F5607FFBD173
:101560001F4A4C1ED2F8803023F0300343EA0413A4
:10157000C2F88030F0E72AF0D9FB2AF0A3FC4FF440
:101580008031184B164A1967136F013C23F47043DE
:1015900043EA04331367FFF7B7F80446FFF772FC1A
:1015A000C0F1020120462AF087FC00F02DF8BDE8CA
:1015B0001040FFF725BE0A4A4C1ED2F8903023F0A7
:1015C000F85343EA0463C2F89030C5E7044A4C1E5E
:1015D000136F23F4806343EA84231367BCE700BFDF
:1015E000008000500090005008B50121022000F05A
:1015F00085F82AF09BFB2AF065FC4FF48032014B02
:101600001A6708BD0090005008B54FF4C0702AF06A
:1016100095FBBDE808400449884294BF012102219E
:101620004FF42070FFF78ABF80F0FA02034B58682E
:10163000C0F30800003818BF0120704700ED00E03B
:1016400010B5224B70B94FF40031214A1860516631
:1016500002F598325268012A03D11E4AD2F80021BD
:101660001A6010BD1B68002BFBD01B4A5268012A70
:10167000F7D0184A8020C2F80031FFF7D1FD0528C5
:101680001FD14FF4C070FFF74BFD0128044604D171
:1016900002214FF4C070FFF751FF07220F4B1A6170
:1016A0000122A3F580535A600B4A1369DB07FCD56E
:1016B000012CD6D12146BDE810404FF4C070FFF791
:1016C0003DBF0122064B5A60CBE700BFD425002066
:1016D000009000500080005000C0015000E0015018
:1016E00000D00150044A4178536F23F4407343EA19
:1016F00001235367704700BF00400050F8B504460F
:101700001C4BD3F88420D106FBD4D3F88430C3F328
:1017100081139C422CD0FEF7DDFF012C064602D13E
:1017200021462AF0C9FB2AF0E7FB4FF00072124B6A
:1017300007465A6620462AF0F2FB4FF480630D4DAF
:10174000621E93402B676B6E9A0103D4D5F88430E8
:101750009B060AD538462AF0D3FB022C08D1304626
:10176000BDE8F84000212AF0A7BBD5F88430EAE7AD
:10177000F8BD00BF004000500060005010B50C469E
:1017800008B9FEF7A7FF074B21461B783BB1064B74
:10179000984204D80120BDE81040FFF7AFBF0220F7
:1017A000F9E700BF92370020005A62020278034B2B
:1017B000012100201A70FFF7E1BF00BF923700201F
:1017C000072A2DE9F041154698464FF0030401F031
:1017D00003072DD89600B44000FA06F221461C48B3
:1017E0002AF09EFB21461B4807FA06F22AF098FBD6
:1017F000194B1A499DF81800B8F1000F18BF194687
:10180000012303FA05F50D60154B1649002818BF92
:101810000B461D60144B9DF81C00C3F8205410317A
:1018200003F22443002818BF0B461D60BDE8F08179
:10183000A2F10806B600B44000FA06F221460B48B1
:101840002AF06EFB21460A4807FA06F2CEE700BFEF
:1018500000C4035008C4035010D4035010E40350D4
:1018600014E4035014D4035000E0035004C40350A4
:101870000CC40350F8B504460D461F4616464AB13F
:1018800001238B403021184A01FB0022F7B141F2BD
:101890001001535004EB4403072D4FF00F014FEAA2
:1018A000031316D8A80006FA00F281400F48184426
:1018B0002AF036FB4EB9012330210B4AAB4001FB25
:1018C000042277B141F210015350F8BD42F21001E9
:1018D000DFE7A5F10800800006FA00F28140044825
:1018E000E5E742F21001EFE700C0035004C00350E7
:1018F0000CC003504FF400120B4B10B5C3F88020FE
:10190000BFF34F8FBFF36F8F0024FF22074B214699
:101910005C6520209A625C60FFF752FC2146BDE8BE
:1019200010402120FFF74CBC00E100E00000045013
:10193000044A054B002908BF1346012282401A6061
:10194000704700BF401004504020045010B50121E2
:1019500004462020FFF734FC01212120FFF730FC52
:101960000122114B5A60227812069A606178A2789F
:1019700042EA01429A61FF229A6200229A631A6443
:101980004FF000425A654FF0FF324FF4001103F55B
:1019900000531A65054AC2F88011E3781B01DBB2D7
:1019A00082F81533116010BD0000045000E100E022
:1019B000F8B50125C3B2DFF888C0D1F800E09D403A
:1019C0008F7ACB7A0C46097BCCF850500CF5005C32
:1019D0004CF820E04FF0300E184E1B050EFB006057
:1019E00094F80DC043EA074343EA415322F003024F
:1019F000C0F860C0C36502672AF085FA736D2B4397
:101A00007365237A13B1336C2B433364637A13B158
:101A1000B36B2B43B3632279A37943EA0243084AA9
:101A200093616179E37943EA014306498B61034B92
:101A300055639D64BDE8F8402AF06BBA000004507D
:101A4000002004500010045010B50124C0B284409E
:101A50002AF059FA044B5A6D22EA04025A659C6234
:101A6000BDE810402AF055BA0000045010B501241A
:101A7000C0B284402AF047FA074BDA6A224208D102
:101A80005B6B9C430CBF012400242AF042FA2046E1
:101A900010BD0024F9E700BF000004504FF40032ED
:101AA000054B9A6641F6713203F51C33DA63012265
:101AB00003F50053DA6070470090005041F6713230
:101AC0000121064BDA6303F50052D1600022DA638C
:101AD0004FF40032A3F518339A66704700000350A4
:101AE000CB784A7810B55B010C7843EA82030A7917
:101AF000234343EA02130C22424302F1B042136330
:101B0000012C02BF8A78024B43F8202010BD00BF91
:101B1000E880035008B54FF0B0435A686AB958B12D
:101B20005B680BB12AF00CFA01210D4B59602AF0C9
:101B300007FA4FF0B043D96008BD5B680BB12AF0DB
:101B4000FFF90028F0D12AF0FBF94FF0B043022250
:101B5000DA602AF0F5F90122024B5A60ECE700BF87
:101B600000100058002000584FF0B0414B6810B5ED
:101B70000BB12AF0E5F901220B4BC4785A60837847
:101B8000934043EA840344782343047943EA0413EB
:101B9000447943EAC4038B60044B5A600378C3F171
:101BA0000203CB6010BD00BF002000580010005899
:101BB0004FF48032064B5A6603F5E6235B69C3F3A4
:101BC0008512827003F03F021B0B42700370704756
:101BD00000900050014B03205B6870470080E00FCD
:101BE000014B986CD96C70470080E00F0120034BCB
:101BF0009B680A3303F01F03984070470080E00F92
:101C000070B5054616461C4621B94FF420702AF0DF
:101C100095F80146402C1BD003D8DCB1202C1BD0FA
:101C200070BD602CFCD1042303FB06F2530803EBC8
:101C30004113B3FBF2F3094A203B02EAC303AA684B
:101C400022F06002AA60AA681443AC60EB61E7E787
:101C50000623E9E71023E7E70823E5E7F8FF7F001D
:101C6000012200F580535A6040F6AA6341F2050252
:101C7000436100230B498360C365C26000F50052D5
:101C80000361C361C364916407498365884203D1DA
:101C900003650023436502E004498842F8D001232C
:101CA00053607047FFFF010000C005500000065060
:101CB00070B50D46FFF7D4FF012300F58056736021
:101CC000AB7C04461BB1836843F080438360EB7CAC
:101CD0005BB1354A2B7D944245D1A2F51032C2F852
:101CE0008C31E36D43F08003E3652A8A6B7B2046E9
:101CF0001343EA891343E3602B7BD5E90112FFF715
:101D00007FFF6B7D1BB1A36843F48033A360AB7D81
:101D10001BB1A36843F40043A360EB7D2A7E1B073D
:101D2000120502F4E00203F0E0431343A365697E69
:101D30001D4A8B1E012B1D4B1FD894421BD002F550
:101D4000804294420CBF01224FF0FF3203EB42135A
:101D5000022041F21C620329985020D10423F3652C
:101D60002B78636170BD124A944204BFA2F5203201
:101D7000C2F89C31B5E70022E8E794420DD00C4A46
:101D800094420CBF01224FF0FF3203EB42130220BA
:101D900042F21C6201299850DFE70022F5E7042295
:101DA00004F50053DA65DBE700C0055000C00350BE
:101DB0000000065038B50446054D39F0C1F90FCC86
:101DC0000FC594E8030085E80300002038BD00BF7C
:101DD000D825002047F6FF739A42F0B56FD002294C
:101DE0006FD8394B5B5C012B6BD8384DDF0005EBAE
:101DF000C30415F83330A178012B13D10025E07806
:101E0000401AA84202D80844C0B2F0BD431B66681D
:101E1000A0EB530336F913609642D4BF1D4603F17D
:101E2000FF30EEE760680028EFD0B0F90040944240
:101E300004DBB0F902409442B8BF144683883D44A5
:101E4000FF2B19BFC8224FF0280CB0F90620B0F9BB
:101E500008C0A2EB04030CBF0126002693FBFCF391
:101E600033446E781BB29E4201DD002B01DA731EF3
:101E70001BB24FF47A7C01339BB2071D5D1E2DB25D
:101E80004FEAC50E00EBC505EA88AD689E4214FB1B
:101E9000025222EAE27202F15C02B2FBFCF204DDC1
:101EA00037F8335001339542E8D200EB0E0398889F
:101EB000904228BF1046884238BF0846A4E7FF205A
:101EC000A3E70020A1E700BFFDCC0300D825002038
:101ED0000229F0B555D82C4B585C012851D82B4C11
:101EE00004EBC00114F830004B6801280FD1C8780A
:101EF0008C78904294BFC4EB0001C4EB0201001B3C
:101F0000CAB28242C8BF002233F91200F0BD002BD2
:101F100037D08878904202D3B3F90200F6E7CC7844
:101F2000B3F900009442F1D94C789988013CA1F1B1
:101F3000FF06714203F10405E4B2714103F10C079D
:101F4000CEB2B44216D805EBC1014FF47A756A439C
:101F5000B1F902404968521A04EBD47102EB6102F4
:101F600092FBF4F29042D1DBB3F902009042CDDC57
:101F700010B2CBE737F831C04E1C9445E3D331465D
:101F8000DEE70348C2E700BFFDCC0300D8250020F0
:101F90000080FFFF08B50448FFF70CFFBDE80840CC
:101FA000012039F0D1B800BF00CD030000487047D0
:101FB000A21400201B0603F0706300F00F0009025A
:101FC000034301F47061120402F470220B431343C3
:101FD000014A1360704700BF0020025C60B50546EF
:101FE00019B10139B1F5806F0FD2094EF06810F4C4
:101FF0008030FBD143EA012312072B4302F08052C9
:10200000134343F00043736060BD0120FCE700BF51
:102010000020025C0122054B9A60DA68D203FCD4EE
:10202000D86820F00F000004000C70470020025C0C
:10203000014B1868704700BF0040025C014B5868B4
:10204000704700BF0010025C014B186B704700BF67
:102050000010025C014B1868704700BF0010025C62
:10206000014B9860704700BF0010025C014B186480
:10207000704700BF0010025C014B5864704700BFFE
:102080000010025C014B5863704700BF0010025CF7
:102090000022014B1A6070470010025C024A13686C
:1020A00043F00103136070470010025C024A13689A
:1020B00023F00103136070470010025C43F2040236
:1020C000014B1A60704700BF0010025C024A13689F
:1020D00043F03003136070470010025C044B1A6831
:1020E00042F480721A601A6822F480721A60704793
:1020F0000010025C024A136843F480631360704767
:102100000010025C034A136823F4702343EA00437F
:10211000136070470010025C044B1A6902605A6930
:1021200042609A698260DB69C36070470010025C9C
:102130000268044B1A6142685A6182689A61C268F7
:10214000DA6170470010025C024B1A6BD207FCD4B4
:10215000186270470010025C0322024B186019617C
:102160005A6370470000025C82B01FB507930A9B58
:1021700004AC8B4228BF0B4604E907001048D1008D
:10218000079948BF03330160099948BF23F003034F
:1021900023F0704301F0E041194341F000518160A8
:1021A000002102F0E042019C1A4342F00052C1605B
:1021B00004618261416304B0BDE8104002B0704721
:1021C0000000025C3F22034B1A631022DA610322F3
:1021D0009A6370470000025C024AD36B9B07FCD4F1
:1021E000704700BF0000025C044B9B6A13F0240F91
:1021F00014BF012000208000704700BF0000025C77
:1022000008B5FFF7F1FF064BDB6B23F47F4323F0A8
:10221000EF0303431EBF0122024BC3F8FC2F08BD8E
:102220000000025C00F0FF3F4368182B0AD0202B0F
:102230001DD0102B2BD1174BD3F80434DB010AD45B
:1022400001207047134BD3F804349A01F8D50B687A
:1022500043F008030B6003680F4A934210D10B68E8
:1022600043F040030B600023436000207047094B9C
:10227000D3F804345B01E3D50B6843F00403E9E7CA
:10228000064A9342F1D10B6843F08003EAE7072046
:10229000704700BF0000025C943700209337002095
:1022A0000B4607B50749D1F80414C90708D5002122
:1022B00000920246084600F0A3F803B05DF804FB64
:1022C0000120FAE70000025C0B4607B50749D1F888
:1022D0000414C90708D5009201210246002000F02D
:1022E0008FF803B05DF804FB0120FAE70000025C00
:1022F0001FB50A4CD4F8044464070CD5CDE900128C
:102300000021069C0222CDE902340346084600F073
:10231000A1F804B010BD0120FBE700BF0000025C83
:102320001FB50A4CD4F8044464070CD5069CCDE9CB
:102330000012CDE90234022203460121002000F000
:1023400089F804B010BD0120FBE700BF0000025C6B
:102350001FB50A4CD4F80444A4060DD5079C00927E
:102360000394069C0246CDE901340B460021084641
:1023700000F0F4F804B010BD0120FBE70000025C9F
:102380001FB50A4CD4F80444A4060DD5079C00924E
:102390000394069C0246CDE9013400200B4601213E
:1023A0002AF075F804B010BD0120FBE70000025CC4
:1023B00013B5084CD4F80444E40508D5009313463B
:1023C0000A460146002000F081F802B010BD01204D
:1023D000FBE700BF0000025C13B5084CD4F80444CE
:1023E000E40508D5009313460A460146002000F094
:1023F00091F802B010BD0120FBE700BF0000025CB5
:10240000F0B51C465B6815468DB01A07129E1AD1AE
:10241000CBB17268934216D10C4B0D4A53F8217020
:1024200009AB07CA83E807001A462946CDE90533F8
:10243000CDE90333CDE90163009447F4807029F0BE
:10244000D7FE0DB0F0BD0720FBE700BFB4CD030001
:1024500084CD03002DE9F0418CB0DDE9127C7C686D
:102460001E46DDE9143E200728D13CB3DCF8040009
:10247000844223D15868102820D1DEF804001028A7
:102480001CD10F4809AC50F821500E4951F8228058
:102490000D4A07CA84E8070045EA0800224631468B
:1024A000CDE9054ECDE90344CDE901C4009740F0E4
:1024B000300029F09DFE0CB0BDE8F0810720FAE75E
:1024C000B4CD030090CD030084CD0300F0B51646D3
:1024D0005A688DB0102A0D46129F15D17A68102ABD
:1024E00012D10A4A09AC07CA84E8070022462946E5
:1024F000CDE90547CDE90344CDE901440448009600
:1025000029F076FE0DB0F0BD0720FBE784CD030077
:1025100030000100F0B516465A688DB0102A0D46FD
:10252000129F15D17A68102A12D10A4A09AC07CA3B
:1025300084E8070022462946CDE90574CDE9034425
:10254000CDE901440448009629F052FE0DB0F0BDDB
:102550000720FBE784CD0300100001002DE9F047C0
:1025600094B00F46DDE91EA91546DDE91C821C4624
:10257000D8F804105B688B4229D10EA91620089167
:10258000002108AE0296CDE90901DAF80410CDE980
:102590000031D9F8043007CA29F0FEFEA0B90D4B6E
:1025A0000D4A53F827700BAB07CA83E807001A4699
:1025B0002946CDE905A3CDE90393CDE90186009431
:1025C00047F4005029F014FE14B0BDE8F08707204E
:1025D000FAE700BFB4CD030084CD03002DE9F04F2E
:1025E0009DB08B46DDE9288A1646DDE926921D4618
:1025F000D9F804105B688B4237D116A916200991CF
:10260000002109AF0297CDE90A01D8F80410CDE9FD
:102610000031DAF8043007CA29F0BEFE044600BBD8
:10262000134B144A53F82BC00CAB07CA83E80700BE
:10263000D8F8042012A9CDE90F120FAACDE903A200
:1026400031461A46CDE90583CDE9019700954CF452
:102650000050CDE91244CDE91444119429F0C8FD8D
:10266000044620461DB0BDE8F08F0724F9E700BFFF
:10267000B4CD030084CD030082B070B586B0149D44
:1026800003AE202D86E807000B9359D805EB850390
:102690008B4203D006236B438B4253D10C9BAB423E
:1026A00050D10F9BB3EB450F4CD1129A934249D1B5
:1026B000012229462220159BFFF790FC044630BBDF
:1026C000034606220E210C20FFF774FC0123CDE9FE
:1026D00000332B4696E8070029F00BFD0E230BAACA
:1026E000009307CA2B4629F04FFC0C23164C00938D
:1026F0000EAA2B4607CA29F077FC636823F07F03F4
:1027000043F026036360FFF785FC30B106242046C2
:1027100006B0BDE8704002B07047636823F07F03E5
:1027200043F022036360FFF775FC04460028EDD1F7
:10273000062311AA009307CA2B4629F088FCE6E776
:102740000124E4E70724E2E70020025C0138C0B27C
:1027500006289ABF014B185C0020704797CE0300F3
:102760000138C0B206289ABF014B185C00207047A0
:1027700090CE03002DE9F04FBBB0804603A880E85F
:102780000E001E467A4B1746D3F800248A46D4061C
:102790009DF8109103D401203BB0BDE8F08F08F103
:1027A000FF32062A6DD8DFE802F004191F252B310D
:1027B0003700D3F80C34D807EDD501230793002355
:1027C000B9F1010FCDE908332CD0B9F1020F5AD07D
:1027D0004046FFF7C5FF6324054631E0D3F80C34CB
:1027E0009907D8D50223E9E7D3F80C345A07D2D594
:1027F0000423E3E7D3F80C341B07CCD50823DDE72B
:10280000D3F80C34DD06C6D51023D7E7D3F80C3443
:102810009C06C0D52023D1E7D3F80C345806BAD58E
:102820004023CBE7524BD3F80C34D903B3D5079BE5
:10283000404643F4C0630793FFF788FF032405462F
:1028400013230422009307A94FF0005312A829F084
:102850008DFC5146009446F000533A4629F086FC20
:102860004FF0000B04465E46DDF814A1469B9B45E5
:102870002CD1B9F1030F42D14046FFF771FFB842A6
:1028800037D0072088E73A4BD3F80C24D20382D5FF
:10289000D3F80C349B037FF57EAF97B17C42394669
:1028A000374604F00304079B404643F4E063079374
:1028B000FFF74CFF24023E4605460F4644F0A304B2
:1028C000BEE704210DF1200A0C46ECE7DAF80420FB
:1028D00016444AB1032300932046DAF80830DAF8A8
:1028E000001029F043FC04460BF1010B0AF10C0A1D
:1028F000BCE7404629F055FE01383042C1D17EBBCD
:10290000032332462046009308A9334629F02EFCC3
:1029100004260446103C204629F03DFC2046314662
:1029200029F044FC489BAB4228BF2B461C46EBB128
:102930000023224600934799499B0AA829F016FCD8
:102940002A1B04D000231946009329F00FFC1038ED
:1029500029F021FC12A80AA929F0FDFB00201BE7A1
:1029600016F0030618BFC6F10406D3E70AA8E7E786
:102970000000025C70B598B0002843D02C4C08AD24
:102980000FCC0FC50FCC0FC50FCC0FC594E80F00AF
:1029900085E80F006D4604AE04F1100320340FCB20
:1029A00085E80F0094E80F0086E80F00FFF796FB1C
:1029B0000420FFF7A7FBFFF781FB3046FFF7B8FBCA
:1029C000002408AE56F8040B0134FFF7BDFB102CB1
:1029D000F8D1FFF733FB0328FBD90024FFF758FB9E
:1029E0002646FFF725FB55F8043B01365840042ED8
:1029F00044EA0004F5D12CB1012206200D4B1A70D7
:102A000018B070BDFFF76AFB0820FFF729FB002014
:102A1000FFF72CFB0720FFF72FFB4FF40070FFF7A9
:102A200031FB0820FFF76EFBFFF738FB0020E7E7DC
:102A3000A0CE03009637002008B5FFF74FFB012218
:102A4000014B1A7008BD00BF953700201FB529F053
:102A50008AFF044630B1012206240D4B1A7020462D
:102A600004B010BDFFF7E4FA0090FFF7E1FA01901F
:102A7000FFF7DEFA0290FFF7DBFA03906846FFF7F4
:102A800057FBFFF7D9FFFFF721FBFFF733FBE6E723
:102A90009637002006289ABF014B185C002070472B
:102AA00000CF030030B5154B87B00293144B039051
:102AB000049346F611030D46059300F077F91428A8
:102AC000044616D1684629F0EFFF4FF0A8430322D1
:102AD00002A95A6319601D619A63DA6B9207FCD1EF
:102AE000142C02D1684629F0EDFF00F093F904465A
:102AF00001E00028E9D0204607B030BDF0250020D5
:102B0000040000202DE9F04FB1B005468C469E46EA
:102B1000E8466F4EDDF8EC90409C06F1100A4746FF
:102B200030687168083603C75645B846F7D13E9BF2
:102B300003EB0208C8F1000A0AF00F0AB9F1000F0E
:102B400000F09D80C9F1000707F00F070121DDF8B3
:102B5000FCB044F00050C4F11006CDF810B005915F
:102B60000690300200F4F85040F021000790B9F1CF
:102B7000000F40F08680CDF820D047F00050002DA7
:102B800000F08480099121210A9041EA07210B91EC
:102B900042F00050CDF830C03D9B08A94FEA0A2C06
:102BA0000D910E904CF041000F901093002A75D1BA
:102BB0003E9B119143F0005312933C9B139014934E
:102BC00010AB1593434B444A169340F611031793E9
:102BD000424B0021002D08BF1346189314AB1993E4
:102BE0003F4B10221A9311231B931CAB184638F04D
:102BF000D8FF01221D92002246F0804603461E9611
:102C0000239205B9EB46102CCDF880B024AE4BD101
:102C100001232246002130462193229438F0C1FF3F
:102C200020AB002125938F4218BF334647F08042E6
:102C300026923A9A2CA828922993B2FA82F35B0939
:102C400049EA837310222B912A9338F0AAFFB9F135
:102C5000000F00D028AED04448F080432CA918A81B
:102C60002D962E93FFF71EFF30B92DB90346A342D0
:102C700025D1002818BF2C2031B0BDE8F08F1027D7
:102C800064E7CDF820E049F0005078E7002C3FF4ED
:102C900079AF04A9099101210A9076E73E9B0CAA1D
:102CA00011924120129388E710220021304621938F
:102CB000229438F076FF002CB2D10123B1E703F162
:102CC000C0026A4412F8C02C01331043CFE700BFA2
:102CD00007CF0300100000201CCF030020CF03000B
:102CE00004000020F0B5C0299FB0DDE9244557D08D
:102CF000B1F5807F04D0802948D029201FB0F0BDD5
:102D000001265CB140F234470294102403960494E7
:102D1000212401970594069502AC0AE040F214477D
:102D2000029410240396049421240594012401970D
:102D30000695079401251024089409950A922122EA
:102D40000B950C940D92174A0AAD0E92164A0F95E8
:102D5000109242F611021192129313951494159247
:102D600001AA1692D3B112AB17930423189311231F
:102D7000199316AB1A901B9340F61103C9081C91C6
:102D80001AA806A91D93FFF78DFEB7E7012614B90F
:102D90004FF48267C4E74FF48667B5E70EABE3E70D
:102DA0000F20ABE718CF03001000001038B5164B0A
:102DB0005A6E42F004025A66D3F8802242F00102B1
:102DC000C3F88022114B5B68C3F3080343B14FF093
:102DD000A842D36B13F0430FFBD11424204638BD17
:102DE0004FF0A843DC6B14F04304FBD1084D2B6873
:102DF0001BB90421284603F07DF92B68013343F009
:102E000000432B60EAE700BF0080005000ED00E0C7
:102E1000F0250020014B00205B68704700ED00E0CA
:102E20004FF40052034B00209A660322C3F860223D
:102E3000704700BF009000504FF40052034B002039
:102E40009A660322C3F86022704700BF00A00050BA
:102E5000012300F01F02A0F506200949A0F55060EB
:102E60004009934051F820201A4341F82020054999
:102E700051F8202022EA030241F82020704700BFC9
:102E800010260020F42500200121A0F506230F4A7A
:102E9000A3F550635B0900F01F00814052F8230046
:102EA00010B5014342F8231000210B46084850F8A2
:102EB000044B013107292344F9D133B9C2E9003366
:102EC000C2E90233C2E90433936110BDF425002046
:102ED000102600202DE9F04FA9B003921D460446AC
:102EE0000822339ECDE90401414021FA02F34B4010
:102EF000980702F1080218BF9B00202A1C44F4D155
:102F0000C123B4FBF3F203FB1244734B04F5062414
:102F10001B7804F55064002B3ED1FDF75BFF07469C
:102F200020B16FF0910029B0BDE8F08F014640223A
:102F300008A838F036FE4022394618A838F031FE8D
:102F4000DFF8B081DFF8B091C3460BF10F0ACDF87E
:102F500000A0102208A95B46D9F8000037F081FED6
:102F60000022014608F1100808AF914245D1CDF882
:102F700000A05B461022D9F8000018A937F07AFEAD
:102F80004FF0000A834618AFD34540D1534B9845C4
:102F9000DAD10122504B1A704FF0C10A4FF00008ED
:102FA000DFF858B1A4F50627A7F550635B095BF875
:102FB000232004F01F01CA40D2073CD4484A52F8EB
:102FC0002330CB40DB0729D5B8F1000F08BFA0465E
:102FD000C123A7F6FF47B7FBF3F203FB1277BAF161
:102FE000010A07F5062404F55064DBD1039BBBB14D
:102FF000B8F1000F14D0444619E057F8040BCDE99E
:103000000612FFF725FF079A06990132ADE757F838
:10301000040BFFF739FF0AF1010AB5E7039B13B967
:103020006FF08B007FE7B8F1000F18BF4446349B68
:1030300000201C6077E7329B13B10023329A1360A3
:103040000EB1002333601023DFF8AC9000932A46C2
:1030500000232146D9F8000020F0EAF860BB32993D
:103060002A68204BC9B99A4206D02146D9F80000F7
:1030700020F076F90028D3D1D5E90223DDE9041048
:10308000834208BF8A42A3D1039B002BCFD06B6839
:10309000012BCCD16FF0840045E7102032999A4281
:1030A0000860E2D1002EE7D033462146D9F800006F
:1030B00018AA20F011F948B10B4B9842D5D00B4B10
:1030C0009842D2D00A4B9842D6D02AE7329A336837
:1030D00012689B1A3360CFE7973700200071080011
:1030E000F4250020105D175EFFDF00F011E000F016
:1030F000FEDF00F0006D08004C12002010260020BA
:103100002DE9F04F87B08246894698461646DDF88D
:1031100040B02AB1002B4FD040F26C739A424ED887
:10312000BBF1010F4ED8002406F1100739460120EB
:1031300005942AF0DCFB0546002846D021463A4695
:1031400038F02FFD05ABCDE9014300942B46012259
:1031500050464946FFF7BEFE044680B110F18C0F81
:1031600008BF6FF08D043A460021284638F019FD5B
:1031700028462AF0CCFB204607B0BDE8F08F144B60
:10318000C5E902A92B60C5F804B02EB1324641460C
:1031900005F1100038F010FD059E0E483B462A460A
:1031A000314600681FF0ACFF18B93046FFF750FEFB
:1031B000D9E76FF09104D6E76FF08604DBE76FF094
:1031C0009104D8E76FF08504D5E76FF08C04D2E75F
:1031D000105D175E4C1200202DE9F0438DB0814642
:1031E000DDE914780E4615461C469BB1B8F1000F78
:1031F00005D16FF0860630460DB0BDE8F083002F94
:10320000F7D0B7F1005FF4D3C3F1005303F50043E7
:103210009F42EED81022002108A838F0C2FC0022FC
:1032200007AB029305AB019306AB314600934846CA
:1032300008ABCDE90522FFF74DFE06460028DAD19E
:10324000059BA4B1AB4215D853EA0504D1D1069B26
:103250000B48C8F8004000943A46079900682B4490
:103260001FF0E6FF002818BF6FF09106C3E7AB42DE
:10327000EDD2BEE75B1B9C4228BF1C46E7E700BFC0
:103280004C12002030B58DB00C46054610220021AE
:1032900008A838F086FC002207AB029305AB019327
:1032A00006AB21460093284608ABCDE90522FFF77F
:1032B00011FE0446D8B9099B012B1BD0079D104B6A
:1032C0002946186820F04CF8B8B90122A5F5062364
:1032D0000C49A3F550635B0905F01F00824051F8CB
:1032E00023004240284641F82320FFF7CDFD204629
:1032F0000DB030BD6FF08404F9E76FF09104F6E78C
:103300004C120020102600202DE9F04F89B007460E
:103310000E46FEF79FFEC00709D40424012029F0C1
:103320002FFB80B3013CF9D16FF0920028E010220E
:1033300000210DEB020038F034FC04A8FEF7ECFE8F
:10334000049B002BE9D0059B002BE6D0069B002BAD
:10335000E3D0079B002BE0D00025DFF8808008F148
:103360000409B54219D34FF48A74FEF76DFE00F0DC
:103370000E03062B2DD1C30501D5FEF797FE0020C5
:1033800009B0BDE8F08FFEF75FFE10F00E03FAD033
:10339000022BF8D04105DFD5C4E7FEF74FFEA6EBC0
:1033A000050A8400544528BF544699E803000023C9
:1033B0008DE80300CDE9054307EB050BCDF810B010
:1033C000029404AAD8F8003007CA29F0BBF92544B2
:1033D000C7E724FA03F3DA07A6D5C6E72CCF030024
:1033E0001FB504A800E90E0011460198FFF78CFFF5
:1033F00070B1FFF721FBBFF34F8F0749074BCA6836
:1034000002F4E0621343CB60BFF34F8F00BFFDE7D0
:1034100005B05DF804FB00BF00ED00E00400FA0514
:1034200070B50488054604F4E043B3F5005F1ED18F
:10343000C4F30223042B1AD181F0AA6383F48073AE
:1034400033F47E13204821F47E1618D081F0AA634D
:1034500083F4007333F47E1311D086422DD1B4F57A
:10346000105F0CBF6FF086006FF0850070BDB4F583
:10347000105F22D1144B21F47E119942F1E786426C
:103480004FEA1143C1F3054117D1B4F5105F14D1D0
:1034900004390C2914D813F0010011D1073A062A77
:1034A0000ED86B8823F04002802ADFD0B3F5807FEE
:1034B0000CBF00206FF08600D8E76FF08500D5E7DD
:1034C0006FF08600D2E700BF000140052DE9F04F04
:1034D00097B09346DDE924751C468A46269EDDF8A2
:1034E000AC9021B96FF0860017B0BDE8F08F0028CE
:1034F000F8D0209B002BF5D0229B13B9239B002BE7
:10350000F0D1002F40F09180002DEBD1289B002BB3
:10351000E8D0B9F1000FE5D02A9B002BE2D0299B1F
:10352000002BDFD00288438802F4E041B1F5005F50
:1035300040F08680C2F30221042940F0818084F0AB
:10354000AA6282F4807232F47E1206D084F0AA62FB
:1035500082F4007232F47E127BD1C4F30548214616
:10356000219AC9F800800393FFF75AFF0028BBD1C6
:10357000039B0733DA08BBEBD30F0392B2D3279B2D
:103580009D4270D82A9B98456DD8B74208D27B19C6
:103590009E4205D239462A46304638F0E8FA374688
:1035A000039B229A059300230792239A2999CDE938
:1035B0000823209A24F47E140A92219ACDE90D75ED
:1035C000CDE90B23D9F80020CDE90F36CDE9131250
:1035D000284ACDE911539442CDF810A006931593D3
:1035E0003AD1219BC3F10F03DBB2032B06D8012292
:1035F000DB0002FA03F3AB427FF674AFFFF710FC77
:1036000000287FF471AF07AB019313AB009310AAAE
:103610000AAB0DA904A8FEF79BFE0446FFF70CFCBD
:10362000204323D1289B1D605EE7002D3FF46EAF41
:10363000002E3FF457AF279B002B7FF467AF51E775
:1036400042F204018A4204D184F0052282F48012FD
:1036500080E74FF0000882E7289A6FF09600136029
:10366000C9F8003040E76FF089003DE76FF0920045
:103670003AE700BF000140052DE9F04F95B08A46BA
:10368000DDE92275DDE92646914698468346002805
:1036900000F0A780002900F0A4801E9B002B00F002
:1036A000A080209B1BB9219B002B40F09A8017B96A
:1036B000002D40F0968014B9002E40F09280289B97
:1036C000002B00F08E80249B002B00F08A80414666
:1036D00058461F9AFFF7A4FE00286ED1BBF80230AF
:1036E0000733B9EBD30F4FEAD30B7AD3B5427BD86C
:1036F000A74208D27B199C4205D239462A46204669
:1037000038F035FA27463B4B0DF1140C93E80700CF
:1037100014AB8CE8070003E907000DF1200C364BD1
:103720008CE8070028F47E180DF12C0C8CE80700BB
:103730000DF108090DF1380C984589E807008CE86F
:10374000070054D11F9BC3F10F03DBB2032B05D835
:103750000122DB0002FA03F3AB4242D90023209A94
:10376000CDE902AB0592219ACDE90E75CDE906238C
:10377000249ACDE910340892259ACDE91253CDE967
:1037800009231E9A04930B921F9ACDE90C23FFF78D
:1037900047FB90B905AB019308AB009311AA0BABA3
:1037A0000EA94846FEF7ECFD0746FFF745FB032F41
:1037B00006D0384312D1289B1D6015B0BDE8F08FAC
:1037C0006FF094000023289A1360002EF5D0264451
:1037D00022460134B4421370FAD1EEE76FF0920042
:1037E000F0E76FF08600E8E76FF08900E5E76FF03B
:1037F0008500E2E784CD0300000140052DE9F0419A
:10380000DDF818800E4614461D460746E0B1D9B1D2
:10381000D2B153220021013038F0C3F901233B70AB
:10382000234BC7F80480984502D0224B98453BD1E2
:103830003388B3F5105F37D17388C02B18D0B3F538
:10384000807F23D0802B03D06FF08600BDE8F0810D
:103850000F2DF9D907F1080304F1100254F8041BE5
:10386000944243F8041BF9D110230020BB62EDE71A
:10387000172DE9D907F1080304F1180254F8041BC5
:10388000944243F8041BF9D11823EEE71F2DDBD92E
:1038900007F1080304F1200254F8041B944243F892
:1038A000041BF9D12023E0E76FF08500CEE700BFCD
:1038B000004440040013C0042DE9F041DDF81880F5
:1038C0000E4614461D460746E0B1D9B1D2B1532287
:1038D0000021013038F065F902233B70234BC7F813
:1038E0000480984502D0224B98453BD13388B3F5EC
:1038F000105F37D17388C02B18D0B3F5807F23D0E9
:10390000802B03D06FF08600BDE8F0810F2DF9D930
:1039100007F1080304F1100254F8041B944243F821
:10392000041BF9D110230020BB62EDE7172DE9D964
:1039300007F1080304F1180254F8041B944243F8F9
:10394000041BF9D11823EEE71F2DDBD907F108037B
:1039500004F1200254F8041B944243F8041BF9D1EB
:103960002023E0E76FF08500CEE700BF004440046D
:103970000013C0042DE9F04F99B0884615469946CA
:103980000446229920B96FF0860019B0BDE8F08F87
:10399000B8F1000F01D1002AF5D1B9F1000F01D122
:1039A0000029F0D1239B002BEDD06368A548E26B82
:1039B000834214D114AB00260E931023CDE90F36A9
:1039C00004F12C03CDE911321396239B276D1E6061
:1039D000002D4BD007F00F07C7F1100B35E0BAB13F
:1039E00014A800260E901020CDE90F0604F12C003B
:1039F000CDE91102944A1396934211D00BD8934A01
:103A0000934217D0924A93420AD0924A9342DCD012
:103A10006FF08800B9E7904A23F480739342F7D19E
:103A20000026239B276D1E6005B38D4255D96FF08C
:103A30008900AAE7239B276D1E60BDB1237807F09C
:103A40000F07022BC7F1100B12D05D4524D2206D59
:103A50002A4600F00F0040304146204438F0ACF8D0
:103A6000236D239A2B4423650023136000208CE7E9
:103A7000BBF1100F01D1276D0FB90126E5E7102D1D
:103A800027D90027A5F110021009431C12F00F0FCF
:103A900008BF0346012607E01DD9A5F110023A44EC
:103AA0001009431C002EF1D1B1EB031FBFD3C84551
:103AB00047D208EB0503994543D28D423FF663AFE9
:103AC0000123029341462A46484638F050F8C8463A
:103AD0000EE0012600270123E6E707F00F07C8459F
:103AE000C7F1100B2BD208EB050399450296E9D3D9
:103AF0004FF0000AA36A04F10802BBF1100FCDE9F0
:103B00000523CDF81CA055D0206D5A4600F00F00BB
:103B100040304146204438F04FF804F1400303930D
:103B200008931023039ACDE9093ACDE90B23CDF888
:103B300034A0FFF775F938B16FF0920025E70296CF
:103B4000D6E701230293D3E722786368012A404A2B
:103B500040F0848093426CD002F54072934268D06A
:103B6000384A93427FF454AF0BAA08A905A8FEF780
:103B700097FB8246FFF760F95AEA0000DCD1029B0E
:103B8000002B00F086804A46039B03F1100153F896
:103B9000040B8B4242F8040BF9D10EB15D4575D090
:103BA0004FF0100A09F11009236D103D5B442365A5
:103BB000D8443D440F2D00F29D80002D35D0029B4E
:103BC000002B40F009811022002304F14007CDE9C9
:103BD0000923CDE90B72CDF820800D93FFF720F972
:103BE0000028A9D122786368012A194A40F0DC80B4
:103BF000934204D002F5407293427FF409AF0EABBA
:103C000000930BAA11AB08A905A8FEF771FB0646A5
:103C1000FFF712F906438FD12A463946484637F056
:103C2000CBFFAA44236D2B442365239BC3F800A03C
:103C30001CE70EAB00930BAA11AB08A905A8FEF771
:103C400057FB96E7004440040011C00400414004C3
:103C50000010C004004040040012C00493420CD085
:103C6000614A934209D0614A93427FF4D1AE0BAAD4
:103C700008A905A8FEF728FB7BE70EAB00930BAA6B
:103C800011AB08A905A8FEF74BFB72E74FF0000A3D
:103C90008AE7AB45DA4628BFAA46216D039B01F0AF
:103CA0000F010B4452461946484637F085FF236DF5
:103CB00053441A07236509D163684D4A23F4007100
:103CC000914208D002F54072934204D0D144D044CE
:103CD000A5EB0A056EE714AF04F12C020DF1600CA0
:103CE0003B4603CB6345106051601F4602F108025A
:103CF000F6D1EBE725F00F071EB12B0701D1103FDE
:103D00002DD00023CDE90887CDE90A39CDE90C7320
:103D1000FFF786F800287FF40FAF22786368012A46
:103D2000334A2AD1934220D002F5407293421CD0EC
:103D30002E4A93427FF46CAE0BAA08A905A8FEF7A1
:103D4000AFFA8346FFF778F85BEA00007FF4F4AE41
:103D5000236DED1B3B44BA4423653FF466AF029BE1
:103D6000B844002B2FD1B9442DE711AB00930BAA17
:103D700008A905A8FEF7BCFAE3E793420CD01A4A5B
:103D8000934209D0194A93427FF442AE0BAA08A984
:103D900005A8FEF799FAD4E711AB00930BAA08A97E
:103DA00005A8FEF7BDFACCE7934203D00E4A934232
:103DB0007FF42EAE0EAB00930BAA11AB08A905A899
:103DC000FEF7AEFA23E70F2D06D90EB1102D03D062
:103DD0000023239A13601BE62A46414604F1400063
:103DE00037F0EAFE1EE700BF0013C00400444004A1
:103DF0000010C00410B520B96FF08604186020468A
:103E000010BD426813498A4222D00CD8124922F4CC
:103E100080628A4214D06FF0880400215422196015
:103E200037F0BFFEEBE70D498A4211D022F4007251
:103E3000A1F580718A420CBF00246FF08804ECE782
:103E4000026D12F00F0F0CBF00246FF08604E4E740
:103E50000024E2E70010C004004040040012C00447
:103E600038B50D46044670B301F0FE43B3F1007F50
:103E700029D16822002137F094FE144B9D4205D0D1
:103E800004339D4211D06FF0850038BD02232046D7
:103E900000F8083B0E4B03F1140253F8041B934245
:103EA00040F8041BF9D10020EFE70423204600F876
:103EB000083B084B03F1200253F8041B934240F8DF
:103EC000041BF9D1EFE76FF08600DEE70500000282
:103ED00059CF030038CF030070B58AB00446DDE93E
:103EE0000E0509B9002A54D16BB9002851D12C4BC9
:103EF0009C4251D004339C420CBF6FF089006FF09C
:103F000085000AB070BD002DEFD0254EB44205D01B
:103F10000436B4421CD06FF08500F2E713283BD979
:103F2000CDE904120022CDE90623CDE90802FEF70F
:103F300077FF0028E5D11A4B9C420BD004339C42FA
:103F40001AD0FEF779FF00236FF092002B60D8E7BC
:103F50001F28E4E70AAB13E907008DE8070004AB6C
:103F60000ECB022028F0BEFB142304462B60FEF784
:103F700063FF2043C5D0E6E70AAB13E907008DE8ED
:103F8000070004AB0ECB042028F0ACFB2023044632
:103F9000ECE76FF08600B4E76FF08900B1E700BF8F
:103FA000050000022DE9F04FA9B0834617469A4656
:103FB0000E46DDF8C890DDF8D88029B96FF0860389
:103FC000184629B0BDE8F08F002AF7D0B9F1000FEC
:103FD000F4D0349B002BF1D0B8F1000FEED00024C8
:103FE000424B0CAD93E8070085E807003C222146D0
:103FF00019A8189437F0D5FD3388728803F4E0408F
:10400000B0F5804FDAD03A4E3A480BEA060646F051
:104010001066864263D1B2F5807F60D147F21212FA
:1040200093425CD10620344ABAF11F0FD3680E9434
:104030000B931369126800FB03F3CDE90C23BDD980
:10404000339B402BBAD9359B1F2B4BD909F1010269
:1040500020261292402299F800300F97042B18AFB7
:10406000CDE91324CDE91572109611941794A5D1BA
:10407000FEF7D6FE03460028A2D10B9B15AACDE978
:10408000086305AB07CA83E8070002AB12AA07CA98
:1040900083E80700DDE910018DE803000F9B95E838
:1040A0000700FEF7E9FA0546FEF7C6FE55EA0003EB
:1040B00084D13D46349A20AE2C4603CCB4421060E5
:1040C0005160254602F10802F6D100221146B9548A
:1040D0000132402AFBD12022C8F8002070E76FF09F
:1040E00085036DE76FF089036AE700BF84CD0300A5
:1040F0000000FFF600000209BCCD0300F0B50E463B
:104100001D468BB0002853D0002951D0002A4FD033
:10411000002B4DD0048804F44F43B3F5824F03D0F5
:104120006FF085000BB0F0BDE3B224F0FF04B4F5EE
:10413000E24FB0F802C0F3D1122B01D0172BEFD110
:104140000CF10701B2EBD10F4FEAD10733D31D4A6F
:1041500004ACBCF5807F07CA84E80700E0D1122BCD
:1041600007D1194B1A691B681344CDE904320023A7
:1041700006930023CDE907670993FEF751FE002857
:10418000D0D1124A02AB92E8030083E803000AABE5
:1041900013E903008DE80300079B94E8070028F06B
:1041A00094F90446FEF748FE204307D12F60B9E793
:1041B0006FF08600B6E76FF08900B3E76FF092000A
:1041C000B0E700BF84CD0300BCCD030024CF0300C3
:1041D0002DE9F0438FB01D46DDE916C600285CD0FE
:1041E00000295AD0002A58D0002B56D0BCF1000F1D
:1041F00053D0002E51D0038803F44F44B4F5824FBE
:1042000051D1DCB223F0FF03B3F5824F40884AD08E
:10421000122C01D0172C46D1C31DB2EBD30F4FEA9D
:10422000D3083AD34FEA4802571C674538D8B0F54F
:10423000807F38D1122C18BF4FF000094FF00003D7
:1042400008BF1C4CCDE9081805F1010114BF4C460C
:10425000D4F80C90CDE90B120A930D93FEF7E0FD14
:10426000C0B9CDE9058902AB08AA07CA83E80700EF
:104270000EAB13E903008DE803000B9B94E80700E5
:1042800028F042F90446FEF7D7FD20430ED104235F
:104290002B7037600FB0BDE8F0836FF08600F9E750
:1042A0006FF08900F6E76FF08500F3E76FF092009A
:1042B000F0E700BFBCCD03002DE9F04389B00E4606
:1042C00015461F46DDF8488020B96FF0860009B01A
:1042D000BDE8F0830029F8D0002AF6D0B8F1000F2D
:1042E000F3D0038803F44F42B2F5824F02D06FF04F
:1042F0008500ECE7DAB2122A01D0172AF7D123F0B1
:10430000FF03B3F5E24F41D14488C8F8004044B9F7
:10431000EB00B3F5807FC8F80030E8D1122A0DD148
:1043200008E0E31DB5EBD30FCFD1B4F5807FDED12C
:10433000122A29D1354B1C681B691C4400231946DD
:1043400070192C4414F801CD10F8012D1143B2EB73
:104350000C020CBF4FF0FF3C4FF0000C86420CEA01
:10436000030343EA0203EDD10029AED0002BACDAFF
:10437000109B9D4246D82A463146384637F01CFCF1
:10438000119B00201D60A2E70024D7E73378042B9F
:104390009BD16B1EDB005B08B3F5807FC8F8003053
:1043A000A5D1122A06F1010318BF4FF000094FF002
:1043B000400205934FF000030ABF144C4C46D4F85A
:1043C0000C90CDE90623FEF72BFD00287FF47FAF8C
:1043D000CDF80C90D8F800300733DB08029308AB17
:1043E00013E903008DE80300059B94E8070028F01B
:1043F00011FA0446FEF720FD00287FF468AF002C78
:10440000B6D062E76FF0890061E700BFBCCD030062
:104410000388B3F5105F0ED14388DB08103B102BE7
:104420000CD8084A22FA03F313F0010F14BF00203E
:104430006FF0860070476FF0850070476FF0860060
:10444000704700BF010101002DE9FF470C9F0C469A
:104450009146054628B96FF08604204604B0BDE8B1
:10446000F0870029F7D00AB9002BF4D1B4F802A0E4
:104470004FEADA089845CDF80C80ECD8AC22002140
:10448000284637F08EFB424B3B40B3F1607F68D14A
:104490002388B3F5885FDED13E4BFEB246F000764E
:1044A0009E424AD001339E4249D0043B9E426CD189
:1044B0001423C7F305429A42CDD8BAF5027F40D300
:1044C00003AB01934023424600934946304605F131
:1044D0006C03FFF701FD04460028BED105F16B080F
:1044E0004346039A02F16B0129448B4233D102F116
:1044F0006C003621C2F14002284405F1040937F06E
:1045000050FB31464846FFF7ABFC04460028A4D1D7
:104510004022484605F16C0128F0B5FB044600280E
:104520009BD105F1AB0218F8013F83F06A03904577
:1045300088F80030F7D12F608FE71C23B9E72023DC
:10454000B7E7BAF1070FC9D94246494605F16C00F1
:1045500037F032FBC2E713F8010F80F03600187015
:10456000C3E70D4B27F47E129A420ED12046FFF787
:104570004FFF044600287FF470AF42464946281D8D
:1045800037F01AFBC5F82480D5E76FF0850464E79F
:104590000000C07F080000020002C0032DE9F041C6
:1045A0000E461446054600284AD0002948D0E2B1FC
:1045B000036826481840B0F1607F04D1281DBDE88B
:1045C000F04128F060BB224823F47E1383423AD1A5
:1045D000AF6BF7B1C7F1100807F128004245284436
:1045E00006D2274437F0E8FAAF630020BDE8F08137
:1045F000424637F0E1FA1022103C3C19AA63F4D08D
:10460000284605F1280128F035FC0028EED1464463
:10461000A863102C0CD9671E27F00F073A463146C5
:10462000284628F027FC0028E0D1E41BDDD03E44DA
:104630002246314605F1280037F0BEFAAC63D4E7D4
:104640006FF08600D2E76FF08800CFE70000C07FF0
:104650000002C0032DE9F043884691461E460546F8
:10466000A1B0002850D000294ED0002B4CD00368B8
:10467000424A1A40B2F1607F3AD100F16C073B46E2
:1046800008AC00F1AC0C224618685968083303C224
:1046900063451446F7D140220021384605AF37F074
:1046A00080FA3B46202218A9281D28F075FB0446F5
:1046B000D0B960232878059A009308AB1946019772
:1046C000403240F00070FFF707FC044660B96D8887
:1046D00015F03F0508BF059D4D4546D82A46404682
:1046E00008A937F069FA3560204621B0BDE8F083AB
:1046F000234A23F47E1191423DD113F47C1FC3F36E
:10470000054704D0102F03D96FF08604ECE710277B
:104710004F452AD8FEF784FB04460028E4D1AB6B52
:1047200005F12802CDE902236B6A2A1DCDE9052394
:104730001023CDE9093008AB1A460490079005F123
:104740003C0902A905A8CDF82090FDF745FE0546D5
:10475000FEF772FB04465DB90028C5D13A464946CA
:10476000404637F029FA3760BEE76FF08904BBE7AF
:104770006FF09204B8E76FF08504B5E70000C07FE2
:104780000002C00330B5094D87B001AC0FCD0FC496
:104790002B6801A8236025238DF80530FCF78AFEDD
:1047A0003220FCF7C5FE002007B030BD7CCF0300EF
:1047B00010B5044627F0A0FB024B1C6027F0A0FBBD
:1047C000002010BD2C26002010B527F095FB034BD0
:1047D0001C6827F095FB204610BD00BF2C2600204A
:1047E00030B51446054687B0104628F0E6FB6369ED
:1047F000024683423CBFD4E903315B181B1A7BB1EC
:104800000F49049403910021CDE901310123009364
:104810002846D4E9001327F03AFA002007B030BD4B
:104820000122627694F82D20002AF6D084F83530E3
:104830001321E369204698472046636A9847ECE7CE
:10484000E14700002DE9F04788B004460F461646C0
:10485000984627F058FB8146002E7AD0237E03F03D
:10486000FF02002B00F0A280204628F0A6FB65691D
:10487000A84205D1637ED4E9033213445D1B01E0F5
:10488000F9D9451BB54228BF354627F03CFB94F8C3
:104890002D308246002B6DD12A463846616937F0AB
:1048A0008BF963692E462B44636121E0037803F0A2
:1048B000FD0111295BD1216B814205D1A3F11101C9
:1048C0004B424B4184F83430013E6369216B013225
:1048D0008B4203F1010308BF236363619542606962
:1048E000E4D1D4E90323216B1344994200D122631C
:1048F0000025D4E9032361691344994208BF62612A
:10490000207A6576FCF782F9204628F056FB636929
:10491000834232D1257694F82D30E568656103B184
:1049200025632046636A9847214B04940393002330
:10493000029323692A460193012300936368216847
:10494000207A27F0A4F9207AFCF780F9504627F066
:10495000E0FA4846C8F8006027F0DBFAD8F80030E3
:10496000002B0CBF1B20002008B0BDE8F08707F823
:10497000013BAAE72E460022B0E70123207A2376E6
:104980000DF11E01FCF7CAF99DF81E30002BDAD09C
:104990000DF11F01207AFCF799F99DF81F100029ED
:1049A000D1D12246207AFFF71BFFCCE71646D0E78D
:1049B000E1470000002807DB01234109034A00F01A
:1049C0001F00834042F82130704700BF00E100E043
:1049D000002808DB01224309034900F01F00824040
:1049E000603341F82320704700E100E070B50446D1
:1049F0000568FFF7E9FE844202D10020FFF7D8FEE8
:104A000095F936603046FFF7E3FF002E0CDB0122FC
:104A10001949730906F01F06B240203341F82320DC
:104A2000BFF34F8FBFF36F8F95F937603046FFF7B5
:104A3000CFFF002E0CDB01220F49730906F01F0681
:104A4000B240203341F82320BFF34F8FBFF36F8F65
:104A5000287AFCF71BF9287AFCF77EF8FCF75AF85D
:104A600000232846C4E90033C4E90433A360AB6AD9
:104A7000BDE87040184700BF00E100E02DE9F043B9
:104A80000C461546064687B04022002120461F46A8
:104A900037F087F895E8030000232A692376EB684E
:104AA00084E80300C4E904232A7DE36084F82C2011
:104AB000AA7D2363012384F8343084F835300E9BBB
:104AC00084F82D2023620F9BE7616362109BA36231
:104AD0002B7A84F836306B7A84F837302D4B34607B
:104AE00073602D4BB3602D4B33612D4B73612D4B98
:104AF000F360FCF757F838B12B4B984204D01024E0
:104B0000204607B0BDE8F083002104F10800FBF760
:104B1000D1FF07460028F2D14FF00108234B336242
:104B2000234B84F83C80B361224BF3619DF84830FD
:104B300084F8390084F83B309DF84430204684F8EE
:104B40003A30697D84F8388028F047FA95F9099061
:104B50004846FFF73DFF4846FFF72CFF164B0494ED
:104B6000CDE902732369CDE900836368E2682168B7
:104B7000207A27F08CF804460028C0D195F9085017
:104B80002846FFF725FF2846FFF714FF3046FFF7BA
:104B90000FFEB5E72BD0020045480000A9CF020068
:104BA000AFCF0200ED490000038000F083CF020088
:104BB000DBCF0200B5CF0200E14700002DE9F04154
:104BC00001271C46584B86B00293584B0C9D01930D
:104BD000574B904600930A46CDE903772946554B3B
:104BE000FFF74CFF0646002840F0968023683946C0
:104BF0002B6463683A206B64637A85F84930237AC2
:104C000085F84830E37A85F84B30A37A85F84A3046
:104C1000637B85F84D30237B85F84C30E37B85F84A
:104C20004F30A37B85F84E30FCF7CAFA3B4604228E
:104C3000617A207AFCF71EFE3B460222E17AA07AD6
:104C4000FCF718FE39466068FCF7BAFA88F800608D
:104C500041462068FDF72CF81422637C5B0103F1C8
:104C6000A04303F57033C3F81C26617A227A42EA26
:104C70000142C3F83426E17AA27A42EA0142C3F83B
:104C80002C2685F8506098F81930032B4AD8DFE8B5
:104C900003F03447021C022385F85030002304221D
:104CA000E17BA07BFCF7E6FD022741F21C61627C00
:104CB000214B03EB42104750E07BA17BB13241EA2C
:104CC000004103EB4213996017E0012785F850304B
:104CD00002220023617B207BFCF7CCFD637B227BDF
:104CE000617C42EA0342154B49015A500422236871
:104CF00003F58053DA65002FD0D1237A2A6C85F82A
:104D00004830637A052185F84930D36C206843F038
:104D10000403D36427F01CF9304606B0BDE8F081E7
:104D20000027D3E72326F7E759D102004DD102002F
:104D3000E5D10200D9D1020000C0035024D60350AF
:104D4000BFF35F8F074B5A6A22F480325A62D3F85E
:104D5000942022F00102C3F89420BFF34F8FBFF3D9
:104D60006F8F704700ED00E0F8B51446FFF7E8FFDD
:104D70001F2C27D90027C2062A4D1CBF20F01F0078
:104D800020302A68CB06284B18BF21F01F01FCB247
:104D9000A2422BD8D3F8C04020F01F0024F47F4457
:104DA00044F4807421F01F01C3F8C04040F00300B8
:104DB000C3F8982041F003010132C3F89C00C3F806
:104DC000A0102A600020BFF35F8F0522164BC3F8A6
:104DD00094205A6A42F480325A62BFF34F8FBFF375
:104DE0006F8FBFF34F8FBFF36F8FF8BDC3F898403D
:104DF000D3F89C40D3F8A06024F01F04A04226F012
:104E00001F0601D1B142DDD0B04201D8A14207D284
:104E1000D3F89840013724F0FF04C3F89840B6E770
:104E20002820D0E73026002000ED00E0BFF34F8FB0
:104E30000549064BCA6802F4E0621343CB60BFF336
:104E40004F8F00BFFDE700BF00ED00E00400FA0552
:104E5000054B1A782AB95B78002B0CBF032002207F
:104E600070470120704700BF9F3700200329F8B525
:104E700098BF124B05460E468CBF00245C5C03288D
:104E800005D8DFE800F002080B0E44F002040C4BDA
:104E90001F684FB9F8BD44F00804F8E744F0200457
:104EA000F5E744F08004F2E77B681A68144203D007
:104EB000314628465B6898473F68EAE790CF030091
:104EC0004026002038B5104D2B78ABB10F4C23781D
:104ED0001BB100F0D7F900232370002028F0EBF974
:104EE0000B4C50B100F020FA0023012120782B70E8
:104EF000FFF7BCFF0123237038BD0122054B1A7058
:104F00002278054B1A70F7E79A370020993700206E
:104F1000A13700209B3700209C37002070B526F079
:104F2000EBFF124E054633789BB900F01DFB04469B
:104F300020B1284626F0E4FF204670BD0C4826F03C
:104F400088FE00F073FD0B4B1C6000F0AFFB0A4BBA
:104F5000186000F0F3F828F0B0F9084B002418604E
:104F600001232846337026F0CBFFE5E7A237002067
:104F700040260020342600203C2600203826002031
:104F80002DE9F843284A0138135C39B1274F013322
:104F900039781354012904D8BDE8F883013B135430
:104FA000FAE7FFF755FF0128044635D826F0A4FF9D
:104FB000DFF88480054698F8003013B31C4E337830
:104FC0001BB9012232701B4A1370DFF8709099F8F8
:104FD000003023B100F056F9002389F8003028464C
:104FE00026F08EFF012028F066F926F085FF337841
:104FF00005461BB100F098F900233370002388F8B0
:105000000030284626F07CFF3878A042C4D02146E4
:10501000FFF72CFF3C70BFE70329F5D10228F3D13D
:1050200028F04FF9F0E700BF9F370020A13700209C
:10503000983700209B3700209A37002099370020AE
:1050400010B5044626F058FF002C0CBFFF210121AB
:10505000064A13780B44DBB21370B3FA83F3BDE84E
:105060001040034A5B09137026F04ABF9E370020A8
:105070009D37002038B526F03FFF094B05461B78C9
:10508000012B04D826F03CFF0024204638BD054BF8
:105090001C6800F07DF90444284626F031FFF4E74F
:1050A000A13700203426002038B54160044626F0A0
:1050B00023FF05462146044826F0CEFD2846BDE8DC
:1050C000384026F01DBF00BF40260020054B1B685E
:1050D0005843054B00F5742000F23F20B0FBF3F07D
:1050E000704700BF3C26002040420F0073B5114EB0
:1050F0000446337883420FD04FF400730E4DADF861
:10510000043058B101A8FCF7EDFA4020FFF7DEFFAC
:105110002B68181A2860347002B070BD8DF8050035
:1051200001A8FCF7DFFA4020FFF7D0FF2B681844F6
:10513000F0E700BFD21400207826002073B50024C9
:1051400001A88DF80440FCF731FB2046FFF7CEFFA5
:10515000404A4149136F414803F007030B60D2F8FE
:1051600000113F4D01F0030101604FF400203D4963
:10517000032B48664FF40030486601F59831896981
:10518000C1F3400129705DD0D2F8203103F0030350
:10519000981E43424341D2F82421334C02F00702C7
:1051A000022A08BF43F001034FF4C8702370FFF7D1
:1051B0008DFF00222D4B2E4918602E4E0B680132B8
:1051C000D2B20A2A46F8040BF9D1034400EBC0001E
:1051D00003440B602B78284D63B323781D4A3BB9F9
:1051E000D2F8003103F00303591E4B424B412370A8
:1051F000D2F8003103F00303022B25D0032B26D075
:10520000012B17D1FBF796FA024698B11B4B1C4EA7
:10521000DC6800231946C4F30B04013404EB840456
:105220000138E4FB060124F099FEFFF74FFF2B68DD
:1052300003442B601F20FFF749FF2B6803442B60BA
:1052400002B070BD0123A6E7FBF77EFADCE726F08B
:10525000F8FCD9E7008000507C2600208026002042
:10526000A537002000900050A637002044260020DB
:10527000482600204C2600207826002000C001503F
:1052800040420F00F8B51F4B1B78002B39D01E4C45
:105290002378B3B91D4B9A6DD10302D5DA6D92070D
:1052A0002FD49B6DDB072CD428F04FF8184B194AEC
:1052B0001860136F23F0070343F003031367FBF732
:1052C00023FA28F042F8124B134D1B68134EC01AF4
:1052D0002B78134F56F8232046F82300111A3A680A
:1052E0001048521A0A213A600932B2FBF1F2013336
:1052F000DBB20260B3FBF1F201FB12332B7000232F
:105300002370F8BDA6370020A437002000C000504D
:105310007426002000800050A33700204C26002077
:10532000482600204426002008B526F0F5FD124B43
:1053300012491A6F096822F007020A431A671049D6
:10534000D3F82021096822F003020A43C3F8202180
:105350000C49D3F82421096822F007020A43C3F854
:105360002421094B1B7813B10122084B9A62BDE836
:105370000840FBF7C9B900BF008000507C26002020
:105380008826002084260020A637002000E0005058
:10539000054B187818B1054B186800EBD000044B8A
:1053A0001B681844704700BFA63700204426002021
:1053B000782600200122014B1A707047A637002082
:1053C00038B527F0D0FF0025084B094C1A68236830
:1053D000C31A2AB123B15169994203D3C91A516141
:1053E000206038BD55615B1A9268F2E79426002070
:1053F00090260020C38870B504460D463BB9FFF7E0
:1054000039FE8542064602D227F049FF35460E494D
:1054100065610B688BB90C60A3600DE0AD1A9A68EA
:10542000184665616AB113465A69AA42F6D930B185
:105430008460521BA3605A6170BD0020F4E70C60C9
:10544000F7E79C60A260F7E79426002038B5134D7B
:105450002B685B6993B1124A022014681C4427F040
:1054600089FF204600F076FA00230E492A680B7067
:10547000D088800709D501230B7038BD022027F0A2
:1054800079FF022000F0B0FAEEE79268002AF4D02B
:1054900050690344012BEBD9EFE700BF94260020AD
:1054A00090260020A837002070B516469DF81420DD
:1054B000C0E903360271049ABDF818300260002278
:1054C00004460D468260C380EEB927F04CFF2844A5
:1054D000A0619DB12E4626F00FFD0546FFF770FF37
:1054E00031462046FFF786FF104B1B68A34201D1CF
:1054F000FFF7ACFF284626F003FD02E0E368656194
:105500007BB9002070BD27F02EFF3044A061002D34
:10551000E0D1E3686561002BDDD020462168984723
:10552000D9E7204621689847EBE700BF9426002082
:1055300000220C490B687BB183420AD183687AB19F
:10554000936083681BB15A6941690A445A6100201B
:1055500070471A469B68EEE70028EFD0022070479C
:105560000B60EEE79426002070B526F0CCFC144EBC
:1055700005463478FCB9134B1C60134B1C60134B6D
:105580001C8000F0A5F9012027F0F4FE27F00DFFA4
:105590000F4B0246186020B9284626F0BAFC23209B
:1055A00070BD234640F2E7310A4824F0D7FC0A4B8D
:1055B000186001233370284626F0ABFC0020EFE78B
:1055C000A93700209426002090260020E8360020ED
:1055D0009826002018FCFFFF8C26002070B504469A
:1055E00040B326F089FC144E0546FFF7E9FE30680B
:1055F000A04209D02046FFF79BFF0446B0B12846E1
:1056000026F07EFC204670BDFFF792FF044600287E
:10561000F5D133683BB9022000F0CEF9284626F0D8
:105620006FFC0024EEE7FFF711FFF7E73368002B6C
:10563000F4D1F0E72224E5E79426002038B50C46A3
:105640000546A8B1A1B100230B7026F05CFC012136
:10565000084B1B6833B926F05CFC002038BD9D4226
:1056600004D121702278002AF9D0F4E79B68F1E791
:105670002220F3E79426002070B526F044FC06466D
:1056800027F071FE084B04461D880120ADB227F0BB
:105690007DFE18B127F067FE04460135304626F03E
:1056A00038FC2046294670BDE8360020014B1868BA
:1056B000704700BF98260020F8B50C4B05461B68C4
:1056C0000E4683420FD3002440F2E7302146084BB8
:1056D0004FF47A721F680023E5FB070124F03EFCBB
:1056E00030602046F8BD2120FCE700BF8C2600205A
:1056F000982600200F4B10B51A689AB14FF47A71B2
:10570000531E1342A0FB01010ED1B2FA82F2C2F184
:105710001F04531CD243E04001FA03F3184321FA5B
:1057200002F20243104610BD002324F017FC02468B
:10573000F8E700BF9826002038B5154B1446834281
:10574000144B8B4121D3144B1A68F2B14FF47A7584
:10575000A0FB050305FB0131531E134211D1B2FA20
:1057600082F2C2F11F05531CD24301FA03F3E84051
:1057700021FA02F218431043E940C4E90001002075
:1057800038BD002324F0EAFBF7E72120F8E700BF4B
:10579000EFA7C64B3789410098260020C2072DE9A4
:1057A000F04704460BD5474A138801339BB2138058
:1057B000FFF706FE444B1B680BB1FFF747FEA3073C
:1057C0007ED526F0A0FB4FF0000905464E46FFF7B8
:1057D000F7FDC8463C4F3C680CB163698BB10022B1
:1057E0003A4B012E1A7003D119F0020F18BF1E7028
:1057F000002C61D0FFF72AFE2846BDE8F04726F0CE
:1058000088BB23465A693AB91A792179914288BFEF
:105810001C469B68002BF5D1284626F07AFB2569AB
:10582000DDB127F0A0FDA269A0EB02094FEAE97300
:105830004D4578EB030311DA23691344A361E36850
:10584000B4F80690013613B120462168984726F037
:105850005AFB0546FFF7B4FDBDE7A94626F053FB0A
:1058600082462046FFF764FE504626F052FB23692D
:10587000002BE4D0A38BB5EB090533B1E28B1344C5
:105880009BB2B3F57A7F0FD2E38326F03CFB8146CF
:1058900029462046FFF7AEFDA36922694846134416
:1058A000A36126F036FBCAE7A3F57A73E383A36905
:1058B000013D013BA361E8E7022000F07DF89BE792
:1058C000BDE8F087E836002094260020A7370020A6
:1058D0001FB500241C4B012118689A880290D3F848
:1058E00006009B7A00903E20ADF80C208DF8043025
:1058F000FBF766FC02A88DF808408DF80C40FCF719
:1059000033F9694601208DF80040FCF7E9F84FF0C3
:10591000B04240F2FF31936923F47F7323F0030315
:1059200093610A4B5961936A13F00803FBD1136228
:105930000120FCF7EFF84FF48052054BC3F88021AB
:105940001A6004B010BD00BF94CF030000200058BF
:1059500000E100E010B5044626F0CEFA4FF0B04268
:10596000936A1907FCD4136A116C5269520604D465
:10597000CA1A032A01D899420ED1E21A022A98BF04
:10598000DC1CB4F1FF3F38BF013C4FF0B0431C6456
:105990009A6942F040029A6126F0B2FA054A1378F9
:1059A0003BB14FF0B041CB6B43F00203CB6300231C
:1059B000137010BDD3140020820700F001030AD534
:1059C0000121084A43F0400311704FF0B041CA6B07
:1059D00022F00302CA634FF0B0418A6922EA03034E
:1059E0008B617047D3140020830742BF4022014BD4
:1059F0005A6170470010005810B526F084FA4FF035
:105A0000B04304465B695A06074A03F0010003F0FD
:105A1000510348BF40F002005361FFF7BFFE20462C
:105A2000BDE8104026F075BA002000580A4B10B5AA
:105A3000D3F8403203F00303013B012B0BD826F0CF
:105A40005BFA044601210220FFF79AFA2046BDE8DE
:105A5000104026F055BA10BD0080005010B5044625
:105A6000FAF752FE0C4BA0F57A729A4212D84FF414
:105A70007A73B0FBF3F05C43084BB3FBF0F3B4FB79
:105A8000F3F0022806D9BDE810400323B0FBF3F081
:105A9000FAF756BB10BD00BFFFC99A3B40420F004A
:105AA000024A0349034806F03BBE00BFA0CF0300F3
:105AB000C4CF0300FCCF030010B50A46044619B159
:105AC000024B00211B68984710BD00BF50120020F8
:105AD0000E4B0340B3F1607F06D1B1F5885F14BF70
