S02100004546523332424732325F4C696768746E6573735F436C69656E742E733337D6
S21400000000120020750C000029C8020029C8020052
S214000010EFDE020029C8020029C8020029C8020033
S21400002029C8020029C8020029C8020029C80200FF
S21400003029C802009CDD030011C6020029C8020080
S21400004029C8020029C8020029C802000D0E0000B7
S21400005029C8020029C8020029C8020029C80200CF
S21400006029C8020029C8020029C8020029C80200BF
S214000070C566000029C8020029C8020095070000CE
S21400008015C7020029C8020029C8020029C80200B4
S21400009029C80200F513000029C8020029C802007A
S2140000A029C802007D03000029C8020029C80200F2
S2140000B029C80200799E020029C80200B9A80200D9
S2140000C073C803006FC80300A9A002007FC803001E
S2140000D077C8030091A802007BC80300F9A80200B5
S2140000E08D8202005184020069A9020029C802001C
S2140000F029C8020029C8020029C8020029C802002F
S21400010029C8020029C8020029C8020029C802001E
S21400011029C8020029C8020029C8020029C802000E
S21400012029C8020029C8020029C8020029C80200FE
S21400013029C8020029C8020029C8020029C80200EE
S214000140013800D0FCE77047002370B5404C0546E8
S2140001508AB0E36318B1008823600CF063FB3D4867
S2140001603BF0EAFE3C4E3D4B304633603C4B736002
S21400017032F023F90021304624F016F832A3D3E9F2
S2140001800023A062C4E9062332F022F9D4E906234C
S21400019019431043C4E90601CDE900014FF0FF33CF
S2140001A04FF0FF32A06A3BF042FF02224FF0FF31D1
S2140001B0A06A3BF041FF01200CF0B6F84FF4007344
S2140001C000222849A06A3BF08AFFB0F5007F38D1AC
S2140001D000239422CDE9073309933C23CDE903326B
S2140001E005939623A06A03A9069324F0FBF835B37B
S2140001F0287C0CF0CFFC0546F0B9A06A3CF050F81D
S2140002000CF076FC0CF072F820B14FF480700021F0
S21400021009F010F90CF07AF820B14FF400600021D4
S21400022009F008F932F098F9012024F011F80E4A86
S2140002300E49A06A32F0BFF828460AB070BDFF200B
S214000240D7E70725F8E700BF0DD5015520000000C9
S21400025030170020690345EC6C2E0020ADC100006D
S2140002607C2E00206C2C00205F2303009F230300BD
S2140002700348044B834202D0034B03B11847704730
S214000280C0160020C016002000000000064B0749DC
S214000290C91A891048BF0131491003D0044B0BB16D
S2140002A001481847704700BFC0160020C01600203F
S2140002B00000000010B5064C237843B9FFF7D8FFBE
S2140002C0044B13B10448AFF300800123237010BD24
S2140002D0BE37002000000000F037040008B5054BCC
S2140002E01BB105490548AFF30080BDE80840FFF79D
S2140002F0CDBF00BF00000000C81C0020F03704007F
S214000300A3F5803A704700BF174B002B08BF134B6E
S2140003109D46FFF7F5FF00218B460F461348144A0B
S214000320121A3CF0F4FB0E4B002B00D098470D4BF6
S214000330002B00D098470020002104000D000D4837
S214000340002802D00C48AFF300802AF05BFF2000A4
S21400035029002CF053F92AF023FD00BF0000080006
S214000360000000000000000000120020C016002060
S214000370C4390020000000000000000038B5184B0B
S214000380184CD3F8202403F50053C3F82024164B4A
S21400039020781A78154D002A15BF00220122012167
S2140003A0002163288EBF00200130C0B21A70297069
S2140003B0207000F075FA0E482AF070FE29780D4875
S2140003C02AF05AFE642321780B48C1EB0141B1FBA9
S2140003D0F3F12AF051FEBDE8384008482AF05EBE28
S2140003E000C00350BF370020C1370020C0370020B0
S2140003F000D9030017D903002AD9030039D903000E
S21400040007B501213A2001F025FA01231A461946BC
S214000410184601F001FF0122002311461046CDE9DF
S214000420002201F09FFE4FF00072034BC3F88021BC
S2140004301A6003B05DF804FB00E100E008B503684D
S214000440314A23F47F4323F0070393423ED019D862
S2140004502E4A93424AD00CD8A2F5C022934233D0FB
S21400046002F5403293422BD0A2F5E022934220D0F0
S21400047008BD274A934225D002F580229342F7D141
S214000480244817E0244A934222D009D802F17D423C
S214000490934213D002F100729342E9D11F4809E05B
S2140004A01F4A934224D002F140629342E0D11D4895
S2140004B000E01D48BDE808402AF0F0BD1B48F9E7FB
S2140004C01B48F7E71B48F5E71B48F3E71B48F1E72F
S2140004D041F20102B0F80930934205D041F20232EF
S2140004E09342C5D11648E5E71648E3E71648E1E724
S2140004F016482AF0D3FD164806F016F9BDE808405F
S214000500002033F01FB900BFA8001403A8001E0087
S214000510A80014016BDA0300A8001409A7D9030089
S214000520A800140A93D9030051D9030061D9030027
S2140005307BD90300B6D90300D4D90300E4D903005D
S21400054022DA0300EFD9030056DA03007EDA03004E
S214000550A086010008B5044811F04CFD2CF0DCF82C
S214000560BDE8084034F0D1BBD4DC030010B5234C02
S21400057001F04AFA01F06AFC236F23F0070343F008
S214000580030323672CF0A2FA1D4B00209B6A9B07EF
S2140005905EBF01221B4B9A62D4F8203123F003037E
S2140005A043F00203C4F82031D4F8243123F00703C3
S2140005B043F00203C4F82431D4F8403123F0030397
S2140005C043F00203C4F84031D4F8603123F003034B
S2140005D043F00203C4F86031D4F8403223F003033A
S2140005E043F00203C4F84032D4F8003223F0070385
S2140005F043F00203C4F8003210BD00BF0080005074
S21400060000C0005000E0005008B501F0C1FF01280E
S2140006100ED1134B04205A6E4FF480231149520317
S21400062058BF114A4B6601F51041086258BF536621
S21400063004F062FE2CF0A9F804F0EEFD04F046FE8D
S21400064004F00CFE2DF079FAFFF790FF04F0F4FDAD
S2140006502CF090F800F008FFBDE8084005F082BADC
S214000660008000500090005000A0005030B5234D90
S21400067095B00DAC0FCD0FC495E80700032384E8B2
S21400068007008DF84D3029231D4A1E49CDE9022367
S2140006901D4B0E22CDE904134FF4807300210DF19B
S2140006A0260006933CF033FA4FF4A020174B07A918
S2140006B0CDE907030F238DF8243010238DF825305D
S2140006C0134B0DAA0A9320230B9340F20113ADF8A7
S2140006D03030104B1048009302AB05F031F804465A
S2140006E09DF832304FF4E130002B0CBF032100217F
S2140006F02CF08BF8204615B030BD00BF64DD03003B
S21400070000000650000500060008000724000650FA
S214000710C2370020E01C0020341D0020831E012B61
S21400072010B512D8012922D8114B04221B690521C5
S2140007300020C3F3401301F06FFD0E4B1B681868D2
S214000740A8B1BDE81040436A18478B1E012B0CD891
S21400075001280CD8BDE810400022054B05211B6976
S2140007601046C3F3401301F057BD0129E5D910BD6B
S21400077000C003500C12002008B50449044805F0D8
S214000780B7FABDE80840FFF771BF00BF101200209F
S214000790581D002001482DF060BB00BF341D00200E
S2140007A0026808B5084B1340084A93420BD112F072
S2140007B061F800B1FEE712F069F800B1FEE712F04A
S2140007C04DF800B1FEE708BDF800FEFFA8001400D3
S2140007D0002300B589B08DF810300F4B0F4A1B78F8
S2140007E0003B18BF01238DF8143010B9137801337D
S2140007F013700021CDE901110091127804AB41F28B
S21400080001002DF06CFC064A13780BB1013B137007
S21400081009B05DF804FB00BFE9370020E837002088
S214000820E53700207FB5114A10B9137801331370ED
S2140008300F4B10491B8810480B701B0A4B70049115
S21400084080230221CDE902310023CDE9003341F2B5
S21400085002311278007811F0D5FF084A13780BB1F0
S214000860013B137007B05DF804FB00BFE7370020BC
S21400087038370020E2370020E4370020E637002033
S214000880024B1878003818BF01207047E537002063
S214000890024B1878003818BF01207047E637002052
S2140008A00A4B6428197010D86423C0EB0040B0FBD4
S2140008B0F3F0074A83B2138008B1064A1380022277
S2140008C0054B00201A70FFF7ADBF7047E4370020D5
S2140008D038370020A0140020E6370020036807B54C
S2140008E023F47F430F4A23F00703934206D002F116
S2140008F0206293420BD003B05DF804FB0379002B13
S214000900F9D1032011F0DAFF0028F4D0FEE7002327
S214000910054A19460548009300F054F80028EAD026
S214000920FEE700BFA80014002DC70200601D0020CF
S21400093008B50368054A23F47F4323F00703934270
S21400094003D111F0AFFF2BF0F4FE08BDA0000100AC
S21400095038B505462CF0D6F800230B4A14685CB16F
S214000960AC4206D1A96A6BB199622CF0D1F801208D
S21400097007E02346A46AF2E7002DF3D02CF0C8F86F
S214000980204638BD1160F0E7981D002010B50446DB
S21400099098B105F047FC2046FFF7DAFF10B194F84F
S2140009A02C300BB9002010BD2CF0ACF8044A1368AC
S2140009B0013B13602CF0ACF8F4E72220F3E700BF0D
S2140009C09C1D00202DE9F04385B0054691469846CB
S2140009D00E469DF8307009B9002F5CD12846FFF707
S2140009E0D5FF0446002836D185F82C00686305F04C
S2140009F0E1FC864233D905F07DFC2146844640F270
S214000A00E7304FF47A720023E6FB0C012AF030F848
S214000A104FF0FF3200232AF02BF82B46E8861146CB
S214000A202846CDE900441D4A2DF0D7FA044690B971
S214000A30C5E9089885F82D702E632CF063F8184ADF
S214000A40136833B31A469B6A002BFBD195620023CA
S214000A50AB622CF05DF8204605B0BDE8F08347B1E8
S214000A602B4631462846CDE900440C4A05F066FC84
S214000A70DCE7304603A905F043FC04460028EAD12B
S214000A802B462846CDE90077044A03992DF081FAD3
S214000A90CCE71560DBE72124DDE700BFA50A0000F0
S214000AA0981D002091F82C3013B50C4683B98B8E18
S214000AB0CA8E93420ED243B9CDE9003320460B4688
S214000AC0104A4FF0FF312DF048FAA38E0133A3866B
S214000AD002B010BD52B191F82D307BB101230093C6
S214000AE0D1E908232046096BFFF76CFF0123064A6D
S214000AF084F82C30136801331360E9E7084605F0E4
S214000B0091FBF3E7A50A00009C1D002007B508200E
S214000B102BF0A5FE02238DF80030054B68460193A6
S214000B202BF037FE082003B05DF804EB2BF0A2BED6
S214000B30006A18102DE9F047434D88B001AC0FCD80
S214000B400FC495E80700012584E8070001213A2034
S214000B5000F080FEDFF8FC800121282000F07AFEFD
S214000B603A4B404601A903938DF8125001F0FCFD64
S214000B702B4604220021022001F04EFB2A4629467D
S214000B800023022001F048FB02212B4608460422DF
S214000B9001F042FB042203212B46022001F03CFB1D
S214000BA04FF002132A4C0226C4F83036A3F58033E1
S214000BB0C4F82C361C230827C4F8346604F5005AFB
S214000BC0C4F81C364FF4487005F0AEFD04F58059A5
S214000BD01420CAF8707005F0A7FD2320C9F87070BD
S214000BE005F0A2FDB9214046CAF870702BF0CEFF82
S214000BF0002330461A461946C9F8707001F00CFBFF
S214000C00002329461A46304601F006FB2B4631469D
S214000C103046002201F000FB2B460022032130461E
S214000C2001F0FAFA404601F0F5FC00212820C4F84D
S214000C303016C4F82C16C4F83416C4F81C1600F087
S214000C4009FE08B0BDE8F08780DD030000127A00D8
S214000C5000C0035000C005500348044A0449121A55
S214000C6092102BF0E2BD00BFC43C0400C43C04005C
S214000C70C439002008B500F02FF8FFF7EDFF124B3F
S214000C8012498B4212D30020114B12498B4218D3C3
S214000C90FFF73AFB186850F82240586840F82240A0
S214000CA0013298688242F5D30C33EAE70022F8E76F
S214000CB01C6844F8220001325C68A242F8D308336C
S214000CC0E4E70022F8E700BFF83704000438040021
S214000CD004380400043804004FF400414FF0FF309D
S214000CE0124B134A10B59A60D3F8882042F470026B
S214000CF0C3F888200F4A916601F1884101F5005239
S214000D0010664FF6DF7050660220C3F8D000BFF3BF
S214000D104F8FBFF36F8F08244FF440330648C0F858
S214000D208041D36004600B6110BD00BF00ED00E0A1
S214000D30000000000090005000E100E0014B186841
S214000D40704700BF1C120020084B1B6F03F0070300
S214000D50022B04D0032B05D0012B05D0FEE7044B55
S214000D6018687047034BFBE7034870470080005045
S214000D701C12002024120020002D310108B5FFF7B8
S214000D80E3FF054B1B6FC3F303330133B0FBF3F0F4
S214000D90024B186008BD00BF0080005018120020EB
S214000DA00048704700B4C404014B1868704700BF81
S214000DB024120020054B1860054B1B6F03F0070339
S214000DC0032B01D1FFF7DABF704700BF24120020C3
S214000DD00080005000487047002D3101014B186814
S214000DE0704700BF20120020BFF34F8F0549064B07
S214000DF0CA6802F4E0621343CB60BFF34F8F00BFB4
S214000E00FDE700BF00ED00E00400FA0513B5204B37
S214000E101B7803B9FEE700231E4CCDE900336A4673
S214000E2008231D49206822F0F5FEF0B91B4AD2F8C7
S214000E304031D2F840211F2B4FF0010310D9203A41
S214000E409340019A1A43019208236A461249206881
S214000E5022F096FE4FF00053114A1A60FFF7C4FFC7
S214000E609340009A1A430092EEE70E4B9842F1D157
S214000E700A4AD2F84031D2F840211F2B4FF0010326
S214000E8085BF203A93409340019398BF0093DBE7D9
S214000E90EA3700204C120020007108000080004451
S214000EA00B020FF00BE000F00346054A05491068F8
S214000EB003448B428CBF4FF0FF301360704700BF77
S214000EC0281200200080002008B501213A2000F0FA
S214000ED0C1FC032101230422002001F09DF900201B
S214000EE02BF02CFE0122214B4FF46070C3F84424F3
S214000EF02BF023FD1E4B00F5D520D3F8F02000F292
S214000F00FC4042F00102C3F8F020D3F8FC2042F087
S214000F108072C3F8FC20174AA3F55D431A60164B8F
S214000F200222B0FBF3F0154B01381861C3F8F0202D
S214000F304FF48072C3F804234FF06043104A002039
S214000F40C3F8B02F0F4AC3F8802ED3F8002E42F411
S214000F508072C3F8002EFF2283F82020D3F8002EDC
S214000F6022F48072C3F8002E08BD00BF00D00350E4
S214000F7000ED00E0FF030040F8590D00000004E01B
S214000F8055CEACC5090001004FF06043D3F8802E63
S214000F9030B5D20715D501240B4D8440D5F8FC207A
S214000FA042F08072C5F8FC20D3F8002E2243C3F826
S214000FB0002E53F82020002AF0D003F8201000203E
S214000FC030BD1120FCE700BF00ED00E02DE9F04F3A
S214000FD09A46564B85B01B7806460F461546DDF8F2
S214000FE03C909DF844B0DDF85080002B00F09780D0
S214000FF0072A00F296800E9B002B00F09280B9F133
S214001000000F00F08E80129BB3F5006F00F389800E
S214001010012803D1109B002B00F08380444B03EB88
S21400102005131B7B002B7ED0424C10220021684605
S2140010303BF06DFD04EB45141022A7BB3946204655
S2140010403BF065FD43F210036380BBF1000F03D154
S214001050E37843F00303E370364A0E9B02EB451C2D
S214001060CCE90193129B6901581E9DF84C30C0F3E1
S2140010700A0003F003039B0643EA001E53582E485B
S214001080012E00EA03004EEA0003CDF800A05350FC
S21400109017D0B8F1000F2ED19CF8023068F3041375
S2140010A08CF8023027E0002120463BF030FD4FF45C
S2140010B044736380BBF1000FCED1E37843F0300376
S2140010C0C9E713230CF1100ECCF80C309CE80F0087
S2140010D08EE80F006FF00301DCF81C20109B61F314
S2140010E09F02012FCCF81C20CCF8143003D1CCF88A
S2140010F01890CCF8043000270D4A290102EB05139E
S21400110042F80180159A28465A60694622469F6032
S2140011105E7301F01FF9384605B0BDE8F08F07484A
S214001120FAE70748F8E70748F6E700BFEB3700207E
S214001130A01E0020A01D00200F80FFF3028000F0FC
S214001140018000F0078000F038B5124B05461B788A
S214001150DBB1E0B12BF0D6FC0F4A00231146147B1E
S21400116054B92B6001251A0101EB03131D738C5033
S2140011702BF0CEFC204638BD0133082B02F11002BE
S214001180EDD12BF0C5FC0548F5E70548F3E7054823
S214001190F1E700BFEB370020A01E0020048000F01F
S2140011A0028000F0018000F038B52BF0ABFC002385
S2140011B005460B4A147B6CB90133082B02F110026A
S2140011C0F8D101F069F8074B28461C702BF0A0FCFC
S2140011D0204603E028462BF09BFC034838BD00BFA2
S2140011E0A01E0020EB370020058000F00D4B10B548
S2140011F01B78044693B1072812D82BF083FC0A4BC1
S21400120003EB04131A7B2AB100241C732BF080FC1A
S214001210204610BD2BF07CFC0448FAE70448F8E7AB
S2140012200448F6E7EB370020A01E0020068000F0FA
S214001230028000F0018000F0154B13B518680023FB
S21400124001908DF804302BF05DFC124B1C7824B115
S2140012502BF05EFC104802B010BD01221A702BF075
S21400126057FC0E4B01A81C731C7783F82C4083F8A0
S2140012703C4083F84C4083F85C4083F86C4083F82D
S2140012807C4008238DF8073001F032F82046E2E76C
S214001290ECDD0300EB370020038000F0A01E0020EA
S2140012A00A4A08B512785AB107280BD8084A02EB42
S2140012B000131B7B43B1002101F00CF8002008BD91
S2140012C00448FCE70448FAE70448F8E7EB37002050
S2140012D0A01E0020028000F0018000F0078000F0D1
S2140012E00A4A08B512785AB107280BD8084A02EB02
S2140012F000131B7B43B1012100F0ECFF002008BD6A
S2140013000448FCE70448FAE70448F8E7EB3700200F
S214001310A01E0020028000F0018000F0078000F090
S2140013200A4A08B5127852B107280AD8084A02EBCA
S21400133000131B7B3BB101F059F8002008BD05489F
S214001340FCE70548FAE70548F8E700BFEB3700205A
S214001350A01E0020028000F0018000F0078000F050
S2140013600D4B1B7893B1072812D889B10B4B03EBB2
S21400137000131B7B73B10A4B1A6D01238340134283
S21400138014BF0123002300200B70704705487047E8
S2140013900548704705487047EB370020A01E002020
S2140013A000000450028000F0018000F0078000F08A
S2140013B00B4A10B512780C4662B107280CD859B102
S2140013C0084A02EB00131B7B43B101F021F82070A2
S2140013D0002010BD0448FCE70448FAE70448F8E794
S2140013E0EB370020A01E0020028000F0018000F0F5
S2140013F0078000F0184B2DE9F0411F6D5B6D1F4014
S21400140000D5FEE701260025144CDFF85880374249
S21400141018D02368C8F85060A3B1A16828460131E7
S2140014206268A1609847637B012B0BD150B90C4BC7
S21400143003EB45131A7B60F341021A731A7F60F3BD
S21400144041021A770135082D4FEA460604F11004CA
S214001450DDD1BDE8F08100BF00000450A01E0020D2
S214001460A01D002000200450024B1968024B18688B
S21400147022F0ACBA2C1200204C12002070B594005A
S214001480224605460E463CF017FA431C0AD058B9C9
S2140014902246314628463BF010FB0028034808BF8A
S2140014A0002070BD0248FCE70248FAE710E000F0B2
S2140014B021E000F024E000F010B504463CF000FA0D
S2140014C0431C10D088B901F06BF8234620F00300C7
S2140014D02044984201D1002010BD53F8042B01325D
S2140014E0F7D00348F8E70348F6E70348F4E700BFF9
S2140014F00EE000F021E000F024E000F008B52BF04C
S214001500FAFA014B186008BD10260020014B186837
S2140015102BF0F5BA10260020044BD3F88420D20610
S214001520FBD4D3F88400C0F381107047004000500D
S21400153038B5104B0546D3F820310C4603F00303AC
S214001540022B0BD0032B0DD0012B0FD1FFF7F6FB90
S214001550052305B1286004B1236038BDFFF724FCDD
S2140015600323F6E7FFF736FC0223F2E70123002009
S214001570EFE700BF0080005073B50D4600210E4B0C
S2140015800191D3F88041064604F00304012C09D0EB
S214001590022C0CD00C460EB1019B336005B12C60BA
S2140015A002B070BD01A8FFF7C3FF0F24F3E7FFF7F3
S2140015B011FC0190EFE700BF0080005038B5184BD3
S2140015C00546D3F824010C4600F00700062823D869
S2140015D0DFE800F0040A121A1E0E1600012305B1F9
S2140015E0286004B1236038BDFFF7A8FB0523F6E7A3
S2140015F0FFF7A4FB0623F2E7FFF7D6FB0323EEE78D
S214001600FFF7D2FB0423EAE7FFF7E4FB0223E6E753
S2140016102BF016F90723E2E700231846DFE700BFA2
S2140016200080005038B5104B0546D3F840310C46C4
S21400163003F00303022B0BD0032B0DD0012B0FD18D
S2140016402BF000F9092305B1286004B1236038BDEA
S214001650FFF7C4FB0823F6E72BF0F7F80B23F2E7B7
S21400166001230020EFE700BF0080005038B5144B80
S2140016700546D3F800020C4600F0070004281BD8E5
S214001680DFE800F003090D111500012305B12860FD
S21400169004B1236038BD2BF0D5F80923F6E7FFF731
S2140016A09DFB0823F2E72BF0D0F80B23EEE7FFF7BD
S2140016B065FB0E23800AE9E700231846E6E700BF2D
S2140016C00080005038B5104B0546D3F840320C4623
S2140016D003F00303022B0BD0032B0DD0012B0FD1ED
S2140016E02BF0B0F8092305B1286004B1236038BD9B
S2140016F0FFF774FB0823F6E72BF0A7F80B23F2E7B7
S21400170000231846EFE700BF0080005038B5104BA6
S2140017100546D3F860310C4603F00303022B0BD0CA
S214001720032B0DD0012B0FD12BF08CF8092305B11C
S214001730286004B1236038BDFFF750FB0823F6E7A6
S2140017402BF083F80B23F2E701230020EFE700BF1E
S2140017500080005010B40D4C0B46D4F8204204F024
S2140017600304012C0AD0022C0CD008B10021016021
S2140017700BB100221A605DF8044B70475DF8044B0D
S214001780FFF7D6BE5DF8044BFFF74CBF0080005055
S21400179038B50C4605462BF0AEF9054B9A6A544010
S2140017A02C4054409C62BDE838402BF0A8B900BFDE
S2140017B000C00050B0F5207F1FD009D8B0F5007FDC
S2140017C015D003D868B1B0F5C07F0AD000200CE071
S2140017D0B0F5607FFAD10B4BD3F88000C0F3011050
S2140017E003E0084B186FC0F3033001307047054B19
S2140017F0D3F89000C0F30460F7E7024B186FC0F30D
S2140018008020F2E7008000504FF400320E4B014675
S21400181010B500209A66FFF7CDFF484341F67132B7
S2140018200A490B4B884294BF00200120DC69DA632A
S2140018309A6822F4401242EA00529A60E20344BFD9
S2140018400022DA6310BD00BF00900050005A62020A
S21400185000000350420910B50FD0012A0FD00A4BE2
S2140018600A4C022A18BF234600F01F0049B103F5B0
S2140018708053012282401A6010BD1346F4E7044BE1
S214001880F2E703F50053F4E76880005060820050EA
S2140018906480005008B580202BF04FF8034B984228
S2140018A09EBF4FF48032024B1A6708BD005A620290
S2140018B000A000501FB50023B0F5807F019377D0BD
S2140018C028D8382800F094800BD82438092810D857
S2140018D009280ED8DFE800F0676767670D0D620D10
S2140018E0377D52285FD008D83D283BD03E2800F0F0
S2140018F08480019805B05DF804FB8028F9D1414B3F
S2140019001B6F03F00703013B032BF2D8DFE803F05D
S21400191044413F6CB0F5D06F5BD019D8B0F5A06FDE
S21400192066D00AD8B0F5806F3DD0B0F5906FE0D1A4
S214001930002001A9FFF742FEDBE7B0F5B06F2DD01F
S214001940B0F5C06FD5D1002001A9FFF76BFED0E738
S214001950B0F5006FECD00AD8B0F5E06F4DD0B0F51A
S214001960F06FC6D1002001A9FFF7D0FEC1E7B0F5A1
S214001970086FBED1234BD3F8003103F00303022BCC
S2140019802CD0032B2ED0012B30D1FFF70DFA0323DA
S21400199000E005230193ACE70223FBE7002001A942
S2140019A0FFF7EAFDA5E7002001A9FFF7C1FDA0E7C4
S2140019B002934FF0E0231B695B0705D5FFF7DEF9BE
S2140019C00C230393039BE5E703A902A8FFF72AFE6F
S2140019D0F8E7002001A9FFF749FE8AE7FFF7FEF9BE
S2140019E00823D7E72AF02CFF0723D3E70123D1E704
S2140019F0002001A9FFF7AEFE7BE7002001A9FFF754
S214001A0061FE76E7008000504FF40022034B5A66D2
S214001A10012203F580439A62704700BF0090005091
S214001A2008B5FFF747FF082811D00938012802D962
S214001A304FF6FF7008BD4FF40012064B5A6603F5CA
S214001A40D8335B6ADB07F3D54FF4FA70F2E7024B44
S214001A501888EFE700900050A4140020F8B504465C
S214001A608020FFF727FF032800F087804FF400222E
S214001A70424B02215A6645F60E03414AC2F88030B0
S214001A80404B9962012103F580539962936DD90307
S214001A90FCD4D4E900131B0543EA0163E17B94F808
S214001AA020500B43217BE77E43EA0143617B6D01B7
S214001AB043EA0133A17B43EA811313619169D4E9B8
S214001AC004031B0643EA806301F000410B43A17E3A
S214001AD094F823000B43217E43EA0143617E43EAE8
S214001AE001239361136AE66923F00D0394F822102C
S214001AF043EA8703002E2DD11362966A94F82130AC
S214001B0045EA031326F033052B4343F001039362A3
S214001B101D4D1B4B9A6D35EA0202FBD10222194D70
S214001B20AA621A659A6D5200FCD41A69A56822F456
S214001B30700242EA05521A614FF00042114B9A6158
S214001B4019B9022203F580539A6278B901220F4B25
S214001B509A620BE0334343F008031362936A23F060
S214001B60330303432B4343EA4103936294F8243040
S214001B701BB1034B064AC3F88020F8BD0090005006
S214001B8000C0005000D000500300014000E00050AC
S214001B90F1A7FFFF1E4BFF2870B59E6A35D89A6DD9
S214001BA012F4803F18BF01211A4A18BF9162022121
S214001BB091629B6DDC0303D5154A936D9907FCD59E
S214001BC00222144B124D1A65AC6D14F08044FBD102
S214001BD0114AAB6992F9002023F47F03024423F4F0
S214001BE07F4382F3080243EA002343EA0243AB61E1
S214001BF031460220FFF7CCFDAB6DDB0303D5314643
S214001C000120FFF7C5FD204670BD2124FBE700BF7D
S214001C1000C0005000D00050EC370020014B93F974
S214001C2000007047EC37002001221548154B816AEA
S214001C309A62826D02F00302032AFAD102229A62A5
S214001C401A650F4A936D5B00FCD40F48936D30EA1B
S214001C500303FBD101220B4B1A65A3F580539A6D43
S214001C609007FCD49A6D9207FCD50222054B1A65A4
S214001C70034A936D9B07FCD50320FFF789BD00BF81
S214001C8000C0005000D0005003000100F0B5D0E9BD
S214001C9001434FF480061A4A4178057856664FF499
S214001CA0D156022702F5B8325662164E4F29776093
S214001CB04FF0010728BF4F2106F58056776016695A
S214001CC0F603FCD441EA052151611B01417B43EA3E
S214001CD004230B43017B43EA41039360C37B817B70
S214001CE01B0143EA4113417C0B43017C43EA410359
S214001CF05360837C13B16FF4D1535362F0BD00BFC1
S214001D000090005000100250014B1880704700BF32
S214001D10A4140020014B1880704700BFA2140020B6
S214001D204FF4001208B5184B5A660223174A536040
S214001D30936813F48033FBD1012822D1FFF734F8DF
S214001D40134B984215D003F5122303F5F863984217
S214001D5013D0104B00EB8002400AB3FBF0F3520A9C
S214001D600A49CA620B6301234B620022074B5A6082
S214001D7008BD45F67A13084AF2E745F61A03074AFD
S214001D80EEE75362F1E700BF0090005000400250BB
S214001D9000F0490264666666D8B80500BBCF050049
S214001DA0B0F5207F10B50C4642D008D8B0F5007FBD
S214001DB033D003D888B1B0F5C07F0ED010BDB0F5D3
S214001DC0607FFBD11F4A4C1ED2F8803023F03003D0
S214001DD043EA0413C2F88030F0E72AF0A6FD2AF0A2
S214001DE070FE4FF48031184B164A1967136F013C8A
S214001DF023F4704343EA04331367FEF7BFFF044639
S214001E00FFF78AFBC0F1020120462AF054FE00F0DC
S214001E102DF8BDE81040FFF73DBD0A4A4C1ED2F82B
S214001E20903023F0F85343EA0463C2F89030C5E7D5
S214001E30044A4C1E136F23F4806343EA842313671B
S214001E40BCE700BF008000500090005008B501219C
S214001E50022000F08FF82AF068FD2AF032FE4FF4D8
S214001E608032014B1A6708BD0090005008B54FF449
S214001E70C0702AF062FDBDE808400449884294BF5D
S214001E80012102214FF42070FFF78ABF80F0FA028A
S214001E90034B5868C0F30800003818BF012070478D
S214001EA000ED00E010B5224B70B94FF40031214A26
S214001EB01860516602F598325268012A03D11E4A0C
S214001EC0D2F800211A6010BD1B68002BFBD01B4AFD
S214001ED05268012AF7D0184A8020C2F80031FFF76E
S214001EE0E9FC05281FD14FF4C070FFF763FC0128FA
S214001EF0044604D102214FF4C070FFF751FF0722B9
S214001F000F4B1A610122A3F580535A600B4A1369DE
S214001F10DB07FCD5012CD6D12146BDE810404FF496
S214001F20C070FFF73DBF0122064B5A60CBE700BFEB
S214001F3014260020009000500080005000C0015081
S214001F4000E0015000D00150044A4178536F23F45A
S214001F50407343EA01235367704700BF00400050B8
S214001F60034A0179D36E23F030030B43D3667047E0
S214001F7000400050F8B504461C4BD3F88420D10628
S214001F80FBD4D3F88430C3F381139C422CD0FEF7E5
S214001F90DBFE012C064602D121462AF08CFD2AF0F3
S214001FA0AAFD4FF00072124B07465A6620462AF0EA
S214001FB0B5FD4FF480630D4D621E93402B676B6E2C
S214001FC09A0103D4D5F884309B060AD538462AF001
S214001FD096FD022C08D13046BDE8F84000212AF0D4
S214001FE06ABDD5F88430EAE7F8BD00BF004000506F
S214001FF00060005010B50C4608B9FEF7A5FE074B6A
S21400200021461B783BB1064B984204D80120BDE818
S2140020101040FFF7AFBF0220F9E700BFED37002002
S214002020005A62020278034B012100201A70FFF763
S214002030E1BF00BFED3700204FF0004238B5264B19
S21400204026495A6601224A604AF6CD3103F50B232B
S2140020505D6C1964154030BB9968C9070BD4002421
S21400206001221F4B5A6015B11E4B1F4A1A6439F0E5
S214002070F6FF204638BD1A498A601C4AD96ACC0742
S21400208005D4904201D10724EAE70130F6E79042F2
S214002090E5D1F8E70132DC6A14F0080406D08A427B
S2140020A0F8D10724DFE700221049F4E78A42F8D087
S2140020B020220B4B0B495A620122A3F580539A60EB
S2140020C023460A4A486A800603D49342E9D001337D
S2140020D0F8E79342C7D1E4E700900050005009505B
S2140020E000600950004009503254FFFF40420F0084
S2140020F04FF0004238B5174B174C5A66012203F5CD
S2140021000C235A604AF6CD33656C236443789340BB
S2140021101343124AD363C3788178A2689B0043EACC
S214002120011322F074021343A3600279837943EA11
S214002130022323614279C37943EA0223636100786C
S214002140FFF77AFFEB0744BF054B236439F087FFA0
S214002150012038BD0090005000400950004000505B
S2140021603254FFFF072A2DE9F041154698464FF0F6
S214002170030401F003072DD89600B44000FA06F2D7
S21400218021461C482AF0CBFC21461B4807FA06F2DB
S2140021902AF0C5FC194B1A499DF81800B8F1000F33
S2140021A018BF1946012303FA05F50D60154B1649AD
S2140021B0002818BF0B461D60144B9DF81C00C3F882
S2140021C02054103103F22443002818BF0B461D602C
S2140021D0BDE8F081A2F10806B600B44000FA06F2A7
S2140021E021460B482AF09BFC21460A4807FA06F2CD
S2140021F0CEE700BF00C4035008C4035010D40350F9
S21400220010E4035014E4035014D4035000E00350C9
S21400221004C403500CC40350F8B504460D461F46CC
S21400222016464AB101238B403021184A01FB002292
S214002230F7B141F21001535004EB4403072D4FF061
S2140022400F014FEA031316D8A80006FA00F28140E1
S2140022500F4818442AF063FC4EB9012330210B4A7C
S214002260AB4001FB042277B141F210015350F8BD98
S21400227042F21001DFE7A5F10800800006FA00F23E
S21400228081400448E5E742F21001EFE700C0035042
S21400229004C003500CC003504FF400120B4B10B593
S2140022A0C3F88020BFF34F8FBFF36F8F0024FF2249
S2140022B0074B21465C6520209A625C60FFF7CAFAED
S2140022C02146BDE810402120FFF7C4BA00E100E037
S2140022D000000450044A054B002908BF134601229B
S2140022E082401A60704700BF4010045040200450DF
S2140022F010B5012104462020FFF7ACFA0121212069
S214002300FFF7A8FA0122114B5A60227812069A604B
S2140023106178A27842EA01429A61FF229A6200221C
S2140023209A631A644FF000425A654FF0FF324FF43A
S214002330001103F500531A65054AC2F88011E378C8
S2140023401B01DBB282F81533116010BD000004508B
S21400235000E100E0F8B50125C3B2DFF888C0D1F887
S21400236000E09D408F7ACB7A0C46097BCCF8505023
S2140023700CF5005C4CF820E04FF0300E184E1B05B4
S2140023800EFB006094F80DC043EA074343EA41534E
S21400239022F00302C0F860C0C36502672AF0B2FBF1
S2140023A0736D2B437365237A13B1336C2B433364FD
S2140023B0637A13B1B36B2B43B3632279A37943EAF1
S2140023C00243084A93616179E37943EA0143064987
S2140023D08B61034B55639D64BDE8F8402AF098BBBB
S2140023E000000450002004500010045010B50124D2
S2140023F0C0B284402AF086FB044B5A6D22EA0402DF
S2140024005A659C62BDE810402AF082BB000004506A
S21400241010B50124C0B284402AF074FB074BDA6A78
S214002420224208D15B6B9C430CBF012400242AF097
S2140024306FFB204610BD0024F9E700BF00000450E3
S2140024404FF40032054B9A6641F6713203F51C33A1
S214002450DA63012203F50053DA60704700900050FB
S21400246041F671320121064BDA6303F50052D16062
S2140024700022DA634FF40032A3F518339A667047E9
S21400248000000350CB784A7810B55B010C7843EA1D
S21400249082030A79234343EA02130C22424302F1E1
S2140024A0B0421363012C02BF8A78024B43F8202007
S2140024B010BD00BFE880035008B54FF0B0435A681F
S2140024C06AB958B15B680BB12AF039FB01210D4B94
S2140024D059602AF034FB4FF0B043D96008BD5B6802
S2140024E00BB12AF02CFB0028F0D12AF028FB4FF085
S2140024F0B0430222DA602AF022FB0122024B5A6025
S214002500ECE700BF00100058002000584FF0B04124
S2140025104B6810B50BB12AF012FB01220B4BC478A6
S2140025205A608378934043EA8403447823430479CB
S21400253043EA0413447943EAC4038B60044B5A60AD
S2140025400378C3F10203CB6010BD00BF0020005823
S214002550001000584FF48032064B5A6603F5E62307
S2140025605B69C3F38512827003F03F021B0B427057
S2140025700370704700900050014B03205B68704763
S2140025800080E00F014B986CD96C70470080E00F1C
S214002590024B1868C0F30740704700BF0080E00F8A
S2140025A00120034B9B680A3303F01F0398407047D3
S2140025B00080E00F70B5054616461C4621B94FF45C
S2140025C020702AF0BAF90146402C1BD003D8DCB1A3
S2140025D0202C1BD070BD602CFCD1042303FB06F21C
S2140025E0530803EB4113B3FBF2F3094A203B02EA1C
S2140025F0C303AA6822F06002AA60AA681443AC600B
S214002600EB61E7E70623E9E71023E7E70823E5E7BA
S214002610F8FF7F00012200F580535A6040F6AA6357
S21400262041F20502436100230B498360C365C26023
S21400263000F500520361C361C36491640749836572
S214002640884203D103650023436502E004498842BB
S214002650F8D0012353607047FFFF010000C005500B
S2140026600000065070B50D46FFF7D4FF012300F5B5
S21400267080567360AB7C04461BB1836843F080438E
S2140026808360EB7C5BB1354A2B7D944245D1A2F545
S2140026901032C2F88C31E36D43F08003E3652A8A7A
S2140026A06B7B20461343EA891343E3602B7BD5E913
S2140026B00112FFF77FFF6B7D1BB1A36843F48033E5
S2140026C0A360AB7D1BB1A36843F40043A360EB7D1E
S2140026D02A7E1B07120502F4E00203F0E0431343D0
S2140026E0A365697E1D4A8B1E012B1D4B1FD8944285
S2140026F01BD002F5804294420CBF01224FF0FF32FD
S21400270003EB4213022041F21C620329985020D1A9
S2140027100423F3652B78636170BD124A944204BFAC
S214002720A2F52032C2F89C31B5E70022E8E79442D1
S2140027300DD00C4A94420CBF01224FF0FF3203EB3F
S2140027404213022042F21C6201299850DFE7002261
S214002750F5E7042204F50053DA65DBE700C0055010
S21400276000C003500000065038B50D46FFF752FF74
S214002770012200F580535A602B8A826843F00103D9
S2140027801343AA7B044643EA8223836083682A7D38
S21400279043EA42738360AB7C5BB11D4AEB7C90429C
S2140027A02DD1A2F51032C2F88C31E36D43F08003D0
S2140027B0E3652B7B2046D5E9011243F48053E360A2
S2140027C02AF0C5F96B7B0BB1102363616B7D1BB1DF
S2140027D0A36843F48033A360AB7D1BB1A36843F4C6
S2140027E00043A360EB7D2A7E1B07120503F0E0433F
S2140027F002F4E0021343A3652B78636138BD054AF3
S214002800904204BFA2F52032C2F89C31CDE700BF4B
S21400281000C005500000065038B50446054D39F096
S21400282042FC0FCC0FC594E8030085E803000020A7
S21400283038BD00BF1826002047F6FF739A42F0B551
S2140028406FD002296FD8394B5B5C012B6BD8384DA3
S214002850DF0005EBC30415F83330A178012B13D144
S2140028600025E078401AA84202D80844C0B2F0BD5D
S214002870431B6668A0EB530336F913609642D4BF39
S2140028801D4603F1FF30EEE760680028EFD0B0F990
S2140028900040944204DBB0F902409442B8BF1446AC
S2140028A083883D44FF2B19BFC8224FF0280CB0F98F
S2140028B00620B0F908C0A2EB04030CBF01260026D0
S2140028C093FBFCF333446E781BB29E4201DD002B73
S2140028D001DA731E1BB24FF47A7C01339BB2071DDC
S2140028E05D1E2DB24FEAC50E00EBC505EA88AD6841
S2140028F09E4214FB025222EAE27202F15C02B2FB32
S214002900FCF204DD37F8335001339542E8D200EB91
S2140029100E039888904228BF1046884238BF084663
S214002920A4E7FF20A3E70020A1E700BF11DE030015
S214002930182600200229F0B555D82C4B585C0128E3
S21400294051D82B4C04EBC00114F830004B6801281A
S2140029500FD1C8788C78904294BFC4EB0001C4EBCA
S2140029600201001BCAB28242C8BF002233F912001D
S214002970F0BD002B37D08878904202D3B3F902001E
S214002980F6E7CC78B3F900009442F1D94C789988F0
S214002990013CA1F1FF06714203F10405E4B2714166
S2140029A003F10C07CEB2B44216D805EBC1014FF4C2
S2140029B07A756A43B1F902404968521A04EBD47139
S2140029C002EB610292FBF4F29042D1DBB3F9020013
S2140029D09042CDDC10B2CBE737F831C04E1C9445A0
S2140029E0E3D33146DEE70348C2E700BF11DE03004B
S2140029F0182600200080FFFF08B50448FFF70CFFEC
S214002A00BDE80840012039F052BB00BF14DE0300C9
S214002A1000487047A61400207FB50222084B0949DB
S214002A20CDE901234FF00073CDE90313052301A977
S214002A304FF0FF30059339F06FFB07B05DF804FBED
S214002A40006A1800000204001B0603F0706300F022
S214002A500F000902034301F47061120402F47022AD
S214002A600B431343014A1360704700BF0020025C0B
S214002A7060B5054619B10139B1F5806F0FD2094E20
S214002A80F06810F48030FBD143EA012312072B4391
S214002A9002F08052134343F00043736060BD012090
S214002AA0FCE700BF0020025C0122054B9A60DA6852
S214002AB0D203FCD4D86820F00F000004000C704746
S214002AC00020025C014B1868704700BF0040025CA3
S214002AD0014B5868704700BF0010025C014B186B32
S214002AE0704700BF0010025C014B1868704700BFBB
S214002AF00010025C014B9860704700BF0010025C3B
S214002B00014B1864704700BF0010025C014B58640C
S214002B10704700BF0010025C014B5863704700BF4F
S214002B200010025C0022014B1A6070470010025C25
S214002B30024A136843F00103136070470010025CFA
S214002B40024A136823F00103136070470010025C0A
S214002B5043F20402014B1A60704700BF0010025C8B
S214002B60024A136843F03003136070470010025C9B
S214002B70044B1A6842F480721A601A6822F4807253
S214002B801A6070470010025C024A136843F48063C0
S214002B90136070470010025C034A136823F4702326
S214002BA043EA0043136070470010025C044B1A6946
S214002BB002605A6942609A698260DB69C360704746
S214002BC00010025C0268044B1A6142685A6182680F
S214002BD09A61C268DA6170470010025C024B1A6B99
S214002BE0D207FCD4186270470010025C0322024B26
S214002BF0186019615A6370470000025C82B01FB506
S214002C0007930A9B04AC8B4228BF0B4604E90700D7
S214002C101048D100079948BF03330160099948BF9F
S214002C2023F0030323F0704301F0E041194341F021
S214002C3000518160002102F0E042019C1A4342F0FC
S214002C400052C16004618261416304B0BDE8104077
S214002C5002B070470000025C3F22034B1A6310224A
S214002C60DA6103229A6370470000025C024AD36B63
S214002C709B07FCD4704700BF0000025C044B9B6AB5
S214002C8013F0240F14BF012000208000704700BFFF
S214002C900000025C08B5FFF7F1FF064BDB6B23F480
S214002CA07F4323F0EF0303431EBF0122024BC3F80A
S214002CB0FC2F08BD0000025C00F0FF3F4368182BA5
S214002CC00AD0202B1DD0102B2BD1174BD3F8043451
S214002CD0DB010AD401207047134BD3F804349A0161
S214002CE0F8D50B6843F008030B6003680F4A93425D
S214002CF010D10B6843F040030B60002343600020B4
S214002D007047094BD3F804345B01E3D50B6843F0F6
S214002D100403E9E7064A9342F1D10B6843F08003C7
S214002D20EAE70720704700BF0000025CEF3700208C
S214002D30EE3700200B4607B50749D1F80414C9073B
S214002D4008D5002100920246084600F0A3F803B01A
S214002D505DF804FB0120FAE70000025C0B4607B5AD
S214002D600749D1F80414C90708D500920121024684
S214002D70002000F08FF803B05DF804FB0120FAE7AE
S214002D800000025C1FB50A4CD4F8044464070CD556
S214002D90CDE900120021069C0222CDE9023403464A
S214002DA0084600F0A1F804B010BD0120FBE700BF04
S214002DB00000025C1FB50A4CD4F8044464070CD526
S214002DC0069CCDE90012CDE9023402220346012119
S214002DD0002000F089F804B010BD0120FBE700BF1A
S214002DE00000025C1FB50A4CD4F80444A4060DD5B6
S214002DF0079C00920394069C0246CDE901340B46DC
S214002E000021084600F0F4F804B010BD0120FBE7EE
S214002E100000025C1FB50A4CD4F80444A4060DD585
S214002E20079C00920394069C0246CDE901340020DC
S214002E300B4601212AF048F904B010BD0120FBE73B
S214002E400000025C13B5084CD4F80444E40508D529
S214002E50009313460A460146002000F081F802B0AF
S214002E6010BD0120FBE700BF0000025C13B5084C54
S214002E70D4F80444E40508D5009313460A460146F0
S214002E80002000F091F802B010BD0120FBE700BF63
S214002E900000025CF0B51C465B6815468DB01A074C
S214002EA0129E1AD1CBB17268934216D10C4B0D4AC2
S214002EB053F8217009AB07CA83E807001A4629466B
S214002EC0CDE90533CDE90333CDE90163009447F43A
S214002ED0807029F0AAFF0DB0F0BD0720FBE700BF09
S214002EE0C8DE030098DE03002DE9F0418CB0DDE972
S214002EF0127C7C681E46DDE9143E200728D13CB3D0
S214002F00DCF80400844223D15868102820D1DEF86B
S214002F10040010281CD10F4809AC50F821500E4967
S214002F2051F822800D4A07CA84E8070045EA0800DF
S214002F3022463146CDE9054ECDE90344CDE901C42C
S214002F40009740F0300029F070FF0CB0BDE8F0812B
S214002F500720FAE7C8DE0300A4DE030098DE0300BD
S214002F60F0B516465A688DB0102A0D46129F15D138
S214002F707A68102A12D10A4A09AC07CA84E8070000
S214002F8022462946CDE90547CDE90344CDE901446B
S214002F900448009629F049FF0DB0F0BD0720FBE776
S214002FA098DE030030000100F0B516465A688DB072
S214002FB0102A0D46129F15D17A68102A12D10A4A95
S214002FC009AC07CA84E8070022462946CDE90574FD
S214002FD0CDE90344CDE901440448009629F025FFD5
S214002FE00DB0F0BD0720FBE798DE030010000100DF
S214002FF02DE9F04794B00F46DDE91EA91546DDE938
S2140030001C821C46D8F804105B688B4229D10EA996
S21400301016200891002108AE0296CDE90901DAF8DB
S2140030200410CDE90031D9F8043007CA29F0D1FFE1
S214003030A0B90D4B0D4A53F827700BAB07CA83E8AF
S21400304007001A462946CDE905A3CDE90393CDE945
S2140030500186009447F4005029F0E7FE14B0BDE85E
S214003060F0870720FAE700BFC8DE030098DE0300FB
S2140030702DE9F04F9DB08B46DDE9288A1646DDE93E
S21400308026921D46D9F804105B688B4237D116A9E4
S21400309016200991002109AF0297CDE90A01D8F858
S2140030A00410CDE90031DAF8043007CA29F091FFA0
S2140030B0044600BB134B144A53F82BC00CAB07CA8C
S2140030C083E80700D8F8042012A9CDE90F120FAA4A
S2140030D0CDE903A231461A46CDE90583CDE901972D
S2140030E000954CF40050CDE91244CDE914441194F7
S2140030F029F09BFE044620461DB0BDE8F08F07244D
S214003100F9E700BFC8DE030098DE030082B070B5A2
S21400311086B0149D03AE202D86E807000B9359D881
S21400312005EB85038B4203D006236B438B4253D1BA
S2140031300C9BAB4250D10F9BB3EB450F4CD1129A70
S214003140934249D1012229462220159BFFF790FC85
S214003150044630BB034606220E210C20FFF774FC03
S2140031600123CDE900332B4696E8070029F0DEFD63
S2140031700E230BAA009307CA2B4629F022FD0C2328
S214003180164C00930EAA2B4607CA29F04AFD636820
S21400319023F07F0343F026036360FFF785FC30B11E
S2140031A00624204606B0BDE8704002B0704763684B
S2140031B023F07F0343F022036360FFF775FC0446A9
S2140031C00028EDD1062311AA009307CA2B4629F042
S2140031D05BFDE6E70124E4E70724E2E70020025C63
S2140031E00138C0B206289ABF014B185C0020704711
S2140031F0ABDF03000138C0B206289ABF014B185C4B
S21400320000207047A4DF03002DE9F04FBBB08046D6
S21400321003A880E80E001E467A4B1746D3F8002413
S2140032208A46D4069DF8109103D401203BB0BDE831
S214003230F08F08F1FF32062A6DD8DFE802F0041995
S2140032401F252B313700D3F80C34D807EDD50123D2
S21400325007930023B9F1010FCDE908332CD0B9F15B
S214003260020F5AD04046FFF7C5FF6324054631E0FB
S214003270D3F80C349907D8D50223E9E7D3F80C34F1
S2140032805A07D2D50423E3E7D3F80C341B07CCD572
S2140032900823DDE7D3F80C34DD06C6D51023D7E7C0
S2140032A0D3F80C349C06C0D52023D1E7D3F80C34D1
S2140032B05806BAD54023CBE7524BD3F80C34D90383
S2140032C0B3D5079B404643F4C0630793FFF788FFD8
S2140032D00324054613230422009307A94FF0005346
S2140032E012A829F060FD5146009446F000533A4675
S2140032F029F059FD4FF0000B04465E46DDF814A198
S214003300469B9B452CD1B9F1030F42D14046FFF7AF
S21400331071FFB84237D0072088E73A4BD3F80C2421
S214003320D20382D5D3F80C349B037FF57EAF97B1DA
S2140033307C423946374604F00304079B404643F474
S214003340E0630793FFF74CFF24023E4605460F4610
S21400335044F0A304BEE704210DF1200A0C46ECE776
S214003360DAF8042016444AB1032300932046DAF81C
S2140033700830DAF8001029F016FD04460BF1010BB0
S2140033800AF10C0ABCE7404629F028FF0138304213
S214003390C1D17EBB032332462046009308A933469C
S2140033A029F001FD04260446103C204629F010FDB5
S2140033B02046314629F017FD489BAB4228BF2B46D6
S2140033C01C46EBB10023224600934799499B0AA866
S2140033D029F0E9FC2A1B04D000231946009329F0A3
S2140033E0E2FC103829F0F4FC12A80AA929F0D0FC57
S2140033F000201BE716F0030618BFC6F10406D3E745
S2140034000AA8E7E70000025C70B598B0002843D031
S2140034102C4C08AD0FCC0FC50FCC0FC50FCC0FC56D
S21400342094E80F0085E80F006D4604AE04F1100323
S21400343020340FCB85E80F0094E80F0086E80F00D5
S214003440FFF796FB0420FFF7A7FBFFF781FB30464C
S214003450FFF7B8FB002408AE56F8040B0134FFF75C
S214003460BDFB102CF8D1FFF733FB0328FBD9002453
S214003470FFF758FB2646FFF725FB55F8043B0136B9
S2140034805840042E44EA0004F5D12CB1012206204F
S2140034900D4B1A7018B070BDFFF76AFB0820FFF7D7
S2140034A029FB0020FFF72CFB0720FFF72FFB4FF42C
S2140034B00070FFF731FB0820FFF76EFBFFF738FBC5
S2140034C00020E7E7B4DF0300F137002008B5FFF778
S2140034D04FFB0122014B1A7008BD00BFF0370020D9
S2140034E01FB52AF05DF8044630B1012206240D4BC4
S2140034F01A70204604B010BDFFF7E4FA0090FFF7FC
S214003500E1FA0190FFF7DEFA0290FFF7DBFA03908C
S2140035106846FFF757FBFFF7D9FFFFF721FBFFF7DA
S21400352033FBE6E7F137002006289ABF014B185C0C
S2140035300020704714E0030030B5154B87B00293A7
S214003540144B0390049346F611030D46059300F0C2
S21400355077F91428044616D168462AF0CBF84FF0BF
S214003560A843032202A95A6319601D619A63DA6BA5
S2140035709207FCD1142C02D168462AF0C9F800F054
S21400358093F9044601E00028E9D0204607B030BD94
S21400359030260020040000202DE9F04FB1B005468B
S2140035A08C469E46E8466F4EDDF8EC90409C06F151
S2140035B0100A474630687168083603C75645B8464D
S2140035C0F7D13E9B03EB0208C8F1000A0AF00F0A87
S2140035D0B9F1000F00F09D80C9F1000707F00F0752
S2140035E00121DDF8FCB044F00050C4F11006CDF81F
S2140035F010B005910690300200F4F85040F021001B
S2140036000790B9F1000F40F08680CDF820D047F043
S2140036100050002D00F08480099121210A9041EA93
S21400362007210B9142F00050CDF830C03D9B08A911
S2140036304FEA0A2C0D910E904CF041000F9010931B
S214003640002A75D13E9B119143F0005312933C9B88
S2140036501390149310AB1593434B444A169340F6BD
S21400366011031793424B0021002D08BF13461893F1
S21400367014AB19933F4B10221A9311231B931CABC8
S214003680184639F044FA01221D92002246F0804680
S21400369003461E96239205B9EB46102CCDF880B053
S2140036A024AE4BD10123224600213046219322949A
S2140036B039F02DFA20AB002125938F4218BF3346F0
S2140036C047F0804226923A9A2CA828922993B2FA7A
S2140036D082F35B0949EA837310222B912A9339F00F
S2140036E016FAB9F1000F00D028AED04448F0804357
S2140036F02CA918A82D962E93FFF71EFF30B92DB9CA
S2140037000346A34225D1002818BF2C2031B0BDE8BF
S214003710F08F102764E7CDF820E049F0005078E7F6
S214003720002C3FF479AF04A9099101210A9076E7AD
S2140037303E9B0CAA11924120129388E7102200218A
S21400374030462193229439F0E2F9002CB2D10123BD
S214003750B1E703F1C0026A4412F8C02C01331043EB
S214003760CFE700BF1BE003001000002030E003009E
S21400377034E0030004000020F0B5C0299FB0DDE966
S214003780244557D0B1F5807F04D0802948D0292021
S2140037901FB0F0BD01265CB140F2344702941024FD
S2140037A003960494212401970594069502AC0AE03A
S2140037B040F214470294102403960494212405949E
S2140037C0012401970695079401251024089409956D
S2140037D00A9221220B950C940D92174A0AAD0E926E
S2140037E0164A0F95109242F61102119212931395F3
S2140037F01494159201AA1692D3B112AB1793042310
S21400380018931123199316AB1A901B9340F61103C5
S214003810C9081C911AA806A91D93FFF78DFEB7E7E5
S214003820012614B94FF48267C4E74FF48667B5E7FC
S2140038300EABE3E70F20ABE72CE003001000001010
S21400384038B5164B5A6E42F004025A66D3F88022F8
S21400385042F00102C3F88022114B5B68C3F30803F1
S21400386043B14FF0A842D36B13F0430FFBD114249F
S214003870204638BD4FF0A843DC6B14F04304FBD160
S214003880084D2B681BB90421284603F0ADFA2B68B7
S214003890013343F000432B60EAE700BF008000508E
S2140038A000ED00E030260020014B00205B687047EA
S2140038B000ED00E04FF40052034B00209A6603220E
S2140038C0C3F86022704700BF009000504FF40052CB
S2140038D0034B00209A660322C3F86022704700BF9D
S2140038E000A00050012300F01F02A0F506200949A1
S2140038F0A0F550604009934051F820201A4341F843
S2140039002020054951F8202022EA030241F8202011
S214003910704700BF50260020342600200121A0F565
S21400392006230F4AA3F550635B0900F01F00814091
S21400393052F8230010B5014342F8231000210B462D
S214003940084850F8044B013107292344F9D133B90C
S214003950C2E90033C2E90233C2E90433936110BD01
S21400396034260020502600202DE9F04FA9B00392FF
S2140039701D4604460822339ECDE90401414021FA43
S21400398002F34B40980702F1080218BF9B00202A5A
S2140039901C44F4D1C123B4FBF3F203FB1244734B73
S2140039A004F506241B7804F55064002B3ED1FDF781
S2140039B05BFD074620B16FF0910029B0BDE8F08F9F
S2140039C00146402208A839F0A2F84022394618A835
S2140039D039F09DF8DFF8B081DFF8B091C3460BF1FF
S2140039E00F0ACDF800A0102208A95B46D9F80000FF
S2140039F038F0E8F80022014608F1100808AF9142B6
S214003A0045D1CDF800A05B461022D9F8000018A9D1
S214003A1038F0E1F84FF0000A834618AFD34540D19E
S214003A20534B9845DAD10122504B1A704FF0C10A19
S214003A304FF00008DFF858B1A4F50627A7F5506345
S214003A405B095BF8232004F01F01CA40D2073CD470
S214003A50484A52F82330CB40DB0729D5B8F1000F8F
S214003A6008BFA046C123A7F6FF47B7FBF3F203FB48
S214003A701277BAF1010A07F5062404F55064DBD183
S214003A80039BBBB1B8F1000F14D0444619E057F8B9
S214003A90040BCDE90612FFF725FF079A06990132B7
S214003AA0ADE757F8040BFFF739FF0AF1010AB5E74F
S214003AB0039B13B96FF08B007FE7B8F1000F18BFB8
S214003AC04446349B00201C6077E7329B13B10023EA
S214003AD0329A13600EB1002333601023DFF8AC90E7
S214003AE000932A4600232146D9F8000020F0E0F88B
S214003AF060BB32992A68204BC9B99A4206D0214643
S214003B00D9F8000020F06CF90028D3D1D5E90223BB
S214003B10DDE90410834208BF8A42A3D1039B002B31
S214003B20CFD06B68012BCCD16FF0840045E7102016
S214003B3032999A420860E2D1002EE7D033462146F9
S214003B40D9F8000018AA20F007F948B10B4B9842A4
S214003B50D5D00B4B9842D2D00A4B9842D6D02AE703
S214003B60329A336812689B1A3360CFE7F237002028
S214003B700071080034260020105D175EFFDF00F09D
S214003B8011E000F0FEDF00F0006D08004C1200208F
S214003B90502600202DE9F04F87B082468946984689
S214003BA01646DDF840B02AB1002B4FD040F26C73B9
S214003BB09A424ED8BBF1010F4ED8002406F11007EA
S214003BC03946012005942AF043FE0546002846D0D3
S214003BD021463A4638F09BFF05ABCDE901430094F9
S214003BE02B46012250464946FFF7BEFE044680B1EA
S214003BF010F18C0F08BF6FF08D043A46002128465E
S214003C0038F085FF28462AF033FE204607B0BDE888
S214003C10F08F144BC5E902A92B60C5F804B02EB18D
S214003C203246414605F1100038F07CFF059E0E48EE
S214003C303B462A46314600681FF0A2FF18B93046B8
S214003C40FFF750FED9E76FF09104D6E76FF08604D1
S214003C50DBE76FF09104D8E76FF08504D5E76FF0E7
S214003C608C04D2E7105D175E4C1200202DE9F0435D
S214003C708DB08146DDE914780E4615461C469BB18C
S214003C80B8F1000F05D16FF0860630460DB0BDE8DE
S214003C90F083002FF7D0B7F1005FF4D3C3F10053E1
S214003CA003F500439F42EED81022002108A838F002
S214003CB02EFF002207AB029305AB019306AB3146FD
S214003CC00093484608ABCDE90522FFF74DFE0646B1
S214003CD00028DAD1059BA4B1AB4215D853EA0504F7
S214003CE0D1D1069B0B48C8F8004000943A46079985
S214003CF000682B441FF0DCFF002818BF6FF0910609
S214003D00C3E7AB42EDD2BEE75B1B9C4228BF1C4616
S214003D10E7E700BF4C12002030B58DB00C460546D4
S214003D201022002108A838F0F2FE002207AB02930A
S214003D3005AB019306AB21460093284608ABCDE9B8
S214003D400522FFF711FE0446D8B9099B012B1BD0AC
S214003D50079D104B2946186820F042F8B8B9012292
S214003D60A5F506230C49A3F550635B0905F01F0073
S214003D70824051F823004240284641F82320FFF7AE
S214003D80CDFD20460DB030BD6FF08404F9E76FF02E
S214003D909104F6E74C120020502600202DE9F04F43
S214003DA089B007460E46FEF79FFEC00709D40424D6
S214003DB0012029F002FC80B3013CF9D16FF092009B
S214003DC028E0102200210DEB020038F0A0FE04A827
S214003DD0FEF7ECFE049B002BE9D0059B002BE6D0FB
S214003DE0069B002BE3D0079B002BE0D00025DFF8D6
S214003DF0808008F10409B54219D34FF48A74FEF79F
S214003E006DFE00F00E03062B2DD1C30501D5FEF77F
S214003E1097FE002009B0BDE8F08FFEF75FFE10F0B9
S214003E200E03FAD0022BF8D04105DFD5C4E7FEF723
S214003E304FFEA6EB050A8400544528BF544699E871
S214003E40030000238DE80300CDE9054307EB050BCF
S214003E50CDF810B0029404AAD8F8003007CA29F0AA
S214003E608EFA2544C7E724FA03F3DA07A6D5C6E791
S214003E7040E003001FB504A800E90E0011460198B3
S214003E80FFF78CFF70B1FFF721FBBFF34F8F074999
S214003E90074BCA6802F4E0621343CB60BFF34F8F50
S214003EA000BFFDE705B05DF804FB00BF00ED00E0D5
S214003EB00400FA0570B50488054604F4E043B3F53B
S214003EC0005F1ED1C4F30223042B1AD181F0AA632B
S214003ED083F4807333F47E13204821F47E1618D0C2
S214003EE081F0AA6383F4007333F47E1311D0864204
S214003EF02DD1B4F5105F0CBF6FF086006FF0850013
S214003F0070BDB4F5105F22D1144B21F47E11994296
S214003F10F1E786424FEA1143C1F3054117D1B4F5E4
S214003F20105F14D104390C2914D813F0010011D1F4
S214003F30073A062A0ED86B8823F04002802ADFD084
S214003F40B3F5807F0CBF00206FF08600D8E76FF0D7
S214003F508500D5E76FF08600D2E700BF0001400578
S214003F602DE9F04F97B09346DDE924751C468A4646
S214003F70269EDDF8AC9021B96FF0860017B0BDE83C
S214003F80F08F0028F8D0209B002BF5D0229B13B989
S214003F90239B002BF0D1002F40F09180002DEBD119
S214003FA0289B002BE8D0B9F1000FE5D02A9B002B08
S214003FB0E2D0299B002BDFD00288438802F4E04140
S214003FC0B1F5005F40F08680C2F30221042940F07C
S214003FD0818084F0AA6282F4807232F47E1206D067
S214003FE084F0AA6282F4007232F47E127BD1C4F3AB
S214003FF005482146219AC9F800800393FFF75AFF27
S2140040000028BBD1039B0733DA08BBEBD30F039220
S214004010B2D3279B9D4270D82A9B98456DD8B7424D
S21400402008D27B199E4205D239462A46304638F0D9
S21400403054FD3746039B229A059300230792239A42
S2140040402999CDE90823209A24F47E140A92219A0D
S214004050CDE90D75CDE90B23D9F80020CDE90F3653
S214004060CDE91312284ACDE911539442CDF810A099
S214004070069315933AD1219BC3F10F03DBB2032BB2
S21400408006D80122DB0002FA03F3AB427FF674AFD8
S214004090FFF710FC00287FF471AF07AB019313AB5A
S2140040A0009310AA0AAB0DA904A8FEF79BFE0446CF
S2140040B0FFF70CFC204323D1289B1D605EE7002DF4
S2140040C03FF46EAF002E3FF457AF279B002B7FF4D4
S2140040D067AF51E742F204018A4204D184F0052218
S2140040E082F4801280E74FF0000882E7289A6FF08B
S2140040F096001360C9F8003040E76FF089003DE78E
S2140041006FF092003AE700BF000140052DE9F04F3E
S21400411095B08A46DDE92275DDE926469146984641
S2140041208346002800F0A780002900F0A4801E9B8C
S214004130002B00F0A080209B1BB9219B002B40F099
S2140041409A8017B9002D40F0968014B9002E40F0E2
S2140041509280289B002B00F08E80249B002B00F082
S2140041608A80414658461F9AFFF7A4FE00286ED163
S214004170BBF802300733B9EBD30F4FEAD30B7AD331
S214004180B5427BD8A74208D27B199C4205D2394655
S2140041902A46204638F0A1FC27463B4B0DF1140C6E
S2140041A093E8070014AB8CE8070003E907000DF15D
S2140041B0200C364B8CE8070028F47E180DF12C0CEA
S2140041C08CE807000DF108090DF1380C984589E8D0
S2140041D007008CE8070054D11F9BC3F10F03DBB226
S2140041E0032B05D80122DB0002FA03F3AB4242D9C7
S2140041F00023209ACDE902AB0592219ACDE90E75EF
S214004200CDE90623249ACDE910340892259ACDE903
S2140042101253CDE909231E9A04930B921F9ACDE9F7
S2140042200C23FFF747FB90B905AB019308AB00934F
S21400423011AA0BAB0EA94846FEF7ECFD0746FFF7A2
S21400424045FB032F06D0384312D1289B1D6015B0BE
S214004250BDE8F08F6FF094000023289A1360002EBC
S214004260F5D0264422460134B4421370FAD1EEE764
S2140042706FF09200F0E76FF08600E8E76FF08900D5
S214004280E5E76FF08500E2E798DE030000014005F1
S2140042902DE9F041DDF818800E4614461D46074607
S2140042A0E0B1D9B1D2B153220021013038F02FFC51
S2140042B001233B70234BC7F80480984502D0224B5D
S2140042C098453BD13388B3F5105F37D17388C02B40
S2140042D018D0B3F5807F23D0802B03D06FF08600F4
S2140042E0BDE8F0810F2DF9D907F1080304F110029B
S2140042F054F8041B944243F8041BF9D11023002001
S214004300BB62EDE7172DE9D907F1080304F118029F
S21400431054F8041B944243F8041BF9D11823EEE723
S2140043201F2DDBD907F1080304F1200254F8041B03
S214004330944243F8041BF9D12023E0E76FF0850090
S214004340CEE700BF004440040013C0042DE9F0414E
S214004350DDF818800E4614461D460746E0B1D9B172
S214004360D2B153220021013038F0D1FB02233B703A
S214004370234BC7F80480984502D0224B98453BD182
S2140043803388B3F5105F37D17388C02B18D0B3F5D8
S214004390807F23D0802B03D06FF08600BDE8F081AD
S2140043A00F2DF9D907F1080304F1100254F8041B85
S2140043B0944243F8041BF9D110230020BB62EDE7BA
S2140043C0172DE9D907F1080304F1180254F8041B65
S2140043D0944243F8041BF9D11823EEE71F2DDBD9CE
S2140043E007F1080304F1200254F8041B944243F832
S2140043F0041BF9D12023E0E76FF08500CEE700BF6D
S214004400004440040013C0042DE9F04F99B08846DC
S214004410154699460446229920B96FF0860019B0D1
S214004420BDE8F08FB8F1000F01D1002AF5D1B9F13F
S214004430000F01D10029F0D1239B002BEDD063683B
S214004440A548E26B834214D114AB00260E931023CA
S214004450CDE90F3604F12C03CDE911321396239BD8
S214004460276D1E60002D4BD007F00F07C7F1100B0D
S21400447035E0BAB114A800260E901020CDE90F063C
S21400448004F12C00CDE91102944A1396934211D000
S2140044900BD8934A934217D0924A93420AD0924A34
S2140044A09342DCD06FF08800B9E7904A23F480731B
S2140044B09342F7D10026239B276D1E6005B38D42DD
S2140044C055D96FF08900AAE7239B276D1E60BDB102
S2140044D0237807F00F07022BC7F1100B12D05D45AB
S2140044E024D2206D2A4600F00F004030414620447A
S2140044F038F018FB236D239A2B44236500231360A2
S21400450000208CE7BBF1100F01D1276D0FB90126F3
S214004510E5E7102D27D90027A5F110021009431C46
S21400452012F00F0F08BF0346012607E01DD9A5F1BC
S21400453010023A441009431C002EF1D1B1EB031FC0
S214004540BFD3C84547D208EB0503994543D28D42F1
S2140045503FF663AF0123029341462A46484638F0A9
S214004560BCFAC8460EE0012600270123E6E707F05E
S2140045700F07C845C7F1100B2BD208EB050399456A
S2140045800296E9D34FF0000AA36A04F10802BBF1D1
S214004590100FCDE90523CDF81CA055D0206D5A4646
S2140045A000F00F0040304146204438F0BBFA04F1DA
S2140045B04003039308931023039ACDE9093ACDE903
S2140045C00B23CDF834A0FFF775F938B16FF09200E1
S2140045D025E70296D6E701230293D3E7227863689D
S2140045E0012A404A40F0848093426CD002F5407223
S2140045F0934268D0384A93427FF454AF0BAA08A976
S21400460005A8FEF797FB8246FFF760F95AEA000016
S214004610DCD1029B002B00F086804A46039B03F108
S214004620100153F8040B8B4242F8040BF9D10EB17B
S2140046305D4575D04FF0100A09F11009236D103D45
S2140046405B442365D8443D440F2D00F29D80002D29
S21400465035D0029B002B40F009811022002304F184
S2140046604007CDE90923CDE90B72CDF820800D93E4
S214004670FFF720F90028A9D122786368012A194A91
S21400468040F0DC80934204D002F5407293427FF4FF
S21400469009AF0EAB00930BAA11AB08A905A8FEF74D
S2140046A071FB0646FFF712F906438FD12A463946B4
S2140046B0484638F037FAAA44236D2B442365239BDB
S2140046C0C3F800A01CE70EAB00930BAA11AB08A919
S2140046D005A8FEF757FB96E7004440040011C00407
S2140046E0004140040010C004004040040012C00412
S2140046F093420CD0614A934209D0614A93427FF4B8
S214004700D1AE0BAA08A905A8FEF728FB7BE70EABDF
S21400471000930BAA11AB08A905A8FEF74BFB72E79E
S2140047204FF0000A8AE7AB45DA4628BFAA46216D55
S214004730039B01F00F010B4452461946484638F0D9
S214004740F1F9236D53441A07236509D163684D4A6E
S21400475023F40071914208D002F54072934204D0CF
S214004760D144D044A5EB0A056EE714AF04F12C0241
S2140047700DF1600C3B4603CB6345106051601F464D
S21400478002F10802F6D1EBE725F00F071EB12B0762
S21400479001D1103F2DD00023CDE90887CDE90A3995
S2140047A0CDE90C73FFF786F800287FF40FAF227868
S2140047B06368012A334A2AD1934220D002F5407218
S2140047C093421CD02E4A93427FF46CAE0BAA08A9E3
S2140047D005A8FEF7AFFA8346FFF778F85BEA000015
S2140047E07FF4F4AE236DED1B3B44BA4423653FF4DF
S2140047F066AF029BB844002B2FD1B9442DE711AB0E
S21400480000930BAA08A905A8FEF7BCFAE3E79342B3
S2140048100CD01A4A934209D0194A93427FF442AE0A
S2140048200BAA08A905A8FEF799FAD4E711AB0093DE
S2140048300BAA08A905A8FEF7BDFACCE7934203D059
S2140048400E4A93427FF42EAE0EAB00930BAA11AB2A
S21400485008A905A8FEF7AEFA23E70F2D06D90EB174
S214004860102D03D00023239A13601BE62A464146E8
S21400487004F1400038F056F91EE700BF0013C004EC
S214004880004440040010C00410B520B96FF0860440
S2140048901860204610BD426813498A4222D00CD8C0
S2140048A0124922F480628A4214D06FF088040021F4
S2140048B05422196038F02BF9EBE70D498A4211D0E3
S2140048C022F40072A1F580718A420CBF00246FF0BA
S2140048D08804ECE7026D12F00F0F0CBF00246FF097
S2140048E08604E4E70024E2E70010C0040040400429
S2140048F00012C00438B50D46044670B301F0FE43FE
S214004900B3F1007F29D16822002138F000F9144B5A
S2140049109D4205D004339D4211D06FF0850038BD0E
S2140049200223204600F8083B0E4B03F1140253F80E
S214004930041B934240F8041BF9D10020EFE7042340
S214004940204600F8083B084B03F1200253F8041BEE
S214004950934240F8041BF9D1EFE76FF08600DEE7DC
S214004960050000026DE003004CE0030070B58AB05D
S2140049700446DDE90E0509B9002A54D16BB90028B2
S21400498051D12C4B9C4251D004339C420CBF6FF04B
S21400499089006FF085000AB070BD002DEFD0254E5F
S2140049A0B44205D00436B4421CD06FF08500F2E75E
S2140049B013283BD9CDE904120022CDE90623CDE920
S2140049C00802FEF777FF0028E5D11A4B9C420BD071
S2140049D004339C421AD0FEF779FF00236FF0920052
S2140049E02B60D8E71F28E4E70AAB13E907008DE839
S2140049F0070004AB0ECB022028F091FC14230446DB
S214004A002B60FEF763FF2043C5D0E6E70AAB13E949
S214004A1007008DE8070004AB0ECB042028F07FFCCF
S214004A2020230446ECE76FF08600B4E76FF08900B9
S214004A30B1E700BF050000022DE9F04FA9B083469C
S214004A4017469A460E46DDF8C890DDF8D88029B994
S214004A506FF08603184629B0BDE8F08F002AF7D01D
S214004A60B9F1000FF4D0349B002BF1D0B8F1000F51
S214004A70EED00024424B0CAD93E8070085E8070013
S214004A803C22214619A8189438F041F833887288D9
S214004A9003F4E040B0F5804FDAD03A4E3A480BEADD
S214004AA0060646F01066864263D1B2F5807F60D176
S214004AB047F2121293425CD10620344ABAF11F0F15
S214004AC0D3680E940B931369126800FB03F3CDE9C9
S214004AD00C23BDD9339B402BBAD9359B1F2B4BD902
S214004AE009F1010220261292402299F800300F9711
S214004AF0042B18AFCDE91324CDE915721096119446
S214004B001794A5D1FEF7D6FE03460028A2D10B9B2C
S214004B1015AACDE9086305AB07CA83E8070002AB10
S214004B2012AA07CA83E80700DDE910018DE8030032
S214004B300F9B95E80700FEF7E9FA0546FEF7C6FE66
S214004B4055EA000384D13D46349A20AE2C4603CC69
S214004B50B44210605160254602F10802F6D10022E8
S214004B601146B9540132402AFBD12022C8F8002051
S214004B7070E76FF085036DE76FF089036AE700BFA3
S214004B8098DE03000000FFF600000209D0DE0300F6
S214004B90F0B50E461D468BB0002853D0002951D0E4
S214004BA0002A4FD0002B4DD0048804F44F43B3F5B1
S214004BB0824F03D06FF085000BB0F0BDE3B224F057
S214004BC0FF04B4F5E24FB0F802C0F3D1122B01D0C7
S214004BD0172BEFD10CF10701B2EBD10F4FEAD1073B
S214004BE033D31D4A04ACBCF5807F07CA84E80700AF
S214004BF0E0D1122B07D1194B1A691B681344CDE973
S214004C000432002306930023CDE907670993FEF7D5
S214004C1051FE0028D0D1124A02AB92E8030083E886
S214004C2003000AAB13E903008DE80300079B94E832
S214004C30070028F067FA0446FEF748FE204307D12F
S214004C402F60B9E76FF08600B6E76FF08900B3E72C
S214004C506FF09200B0E700BF98DE0300D0DE0300DE
S214004C6038E003002DE9F0438FB01D46DDE916C697
S214004C7000285CD000295AD0002A58D0002B56D0E5
S214004C80BCF1000F53D0002E51D0038803F44F44DC
S214004C90B4F5824F51D1DCB223F0FF03B3F5824F57
S214004CA040884AD0122C01D0172C46D1C31DB2EB37
S214004CB0D30F4FEAD3083AD34FEA4802571C67454A
S214004CC038D8B0F5807F38D1122C18BF4FF00009C5
S214004CD04FF0000308BF1C4CCDE9081805F1010190
S214004CE014BF4C46D4F80C90CDE90B120A930D93E2
S214004CF0FEF7E0FDC0B9CDE9058902AB08AA07CAF0
S214004D0083E807000EAB13E903008DE803000B9B56
S214004D1094E8070028F015FA0446FEF7D7FD20436E
S214004D200ED104232B7037600FB0BDE8F0836FF010
S214004D308600F9E76FF08900F6E76FF08500F3E785
S214004D406FF09200F0E700BFD0DE03002DE9F043DD
S214004D5089B00E4615461F46DDF8488020B96FF02C
S214004D60860009B0BDE8F0830029F8D0002AF6D006
S214004D70B8F1000FF3D0038803F44F42B2F5824F28
S214004D8002D06FF08500ECE7DAB2122A01D0172ABB
S214004D90F7D123F0FF03B3F5E24F41D14488C8F8BA
S214004DA0004044B9EB00B3F5807FC8F80030E8D186
S214004DB0122A0DD108E0E31DB5EBD30FCFD1B4F521
S214004DC0807FDED1122A29D1354B1C681B691C4412
S214004DD00023194670192C4414F801CD10F8012D43
S214004DE01143B2EB0C020CBF4FF0FF3C4FF0000C2F
S214004DF086420CEA030343EA0203EDD10029AED053
S214004E00002BACDA109B9D4246D82A4631463846DF
S214004E1037F088FE119B00201D60A2E70024D7E72C
S214004E203378042B9BD16B1EDB005B08B3F5807FC9
S214004E30C8F80030A5D1122A06F1010318BF4FF0BA
S214004E4000094FF0400205934FF000030ABF144CD0
S214004E504C46D4F80C90CDE90623FEF72BFD00282F
S214004E607FF47FAFCDF80C90D8F800300733DB081E
S214004E70029308AB13E903008DE80300059B94E852
S214004E80070028F0E4FA0446FEF720FD00287FF429
S214004E9068AF002CB6D062E76FF0890061E700BF0C
S214004EA0D0DE03000388B3F5105F0ED14388DB081D
S214004EB0103B102B0CD8084A22FA03F313F0010F0C
S214004EC014BF00206FF0860070476FF085007047B3
S214004ED06FF08600704700BF010101002DE9FF4713
S214004EE00C9F0C469146054628B96FF0860420466E
S214004EF004B0BDE8F0870029F7D00AB9002BF4D13A
S214004F00B4F802A04FEADA089845CDF80C80ECD841
S214004F10AC220021284637F0FAFD424B3B40B3F165
S214004F20607F68D12388B3F5885FDED13E4BFEB242
S214004F3046F000769E424AD001339E4249D0043B5A
S214004F409E426CD11423C7F305429A42CDD8BAF5D7
S214004F50027F40D303AB0193402342460093494669
S214004F60304605F16C03FFF701FD04460028BED16C
S214004F7005F16B084346039A02F16B0129448B4204
S214004F8033D102F16C003621C2F14002284405F10B
S214004F90040937F0BCFD31464846FFF7ABFC044633
S214004FA00028A4D14022484605F16C0128F091FC67
S214004FB0044600289BD105F1AB0218F8013F83F0A8
S214004FC06A03904588F80030F7D12F608FE71C23DE
S214004FD0B9E72023B7E7BAF1070FC9D942464946D1
S214004FE005F16C0037F09EFDC2E713F8010F80F064
S214004FF036001870C3E70D4B27F47E129A420ED186
S2140050002046FFF74FFF044600287FF470AF424665
S2140050104946281D37F086FDC5F82480D5E76FF091
S214005020850464E70000C07F080000020002C00399
S2140050302DE9F0410E461446054600284AD00029C0
S21400504048D0E2B1036826481840B0F1607F04D12A
S214005050281DBDE8F04128F03CBC224823F47E130E
S21400506083423AD1AF6BF7B1C7F1100807F12800B9
S2140050704245284406D2274437F054FDAF6300204B
S214005080BDE8F081424637F04DFD1022103C3C1939
S214005090AA63F4D0284605F1280128F011FD00285F
S2140050A0EED14644A863102C0CD9671E27F00F07D4
S2140050B03A463146284628F003FD0028E0D1E41B96
S2140050C0DDD03E442246314605F1280037F02AFD61
S2140050D0AC63D4E76FF08600D2E76FF08800CFE7C6
S2140050E00000C07F0002C0032DE9F04388469146C9
S2140050F01E460546A1B0002850D000294ED0002BF1
S2140051004CD00368424A1A40B2F1607F3AD100F1AF
S2140051106C073B4608AC00F1AC0C22461868596890
S214005120083303C263451446F7D1402200213846AF
S21400513005AF37F0ECFC3B46202218A9281D28F0C6
S21400514051FC0446D0B960232878059A009308AB32
S21400515019460197403240F00070FFF707FC0446FE
S21400516060B96D8815F03F0508BF059D4D4546D8CA
S2140051702A46404608A937F0D5FC3560204621B0BF
S214005180BDE8F083234A23F47E1191423DD113F407
S2140051907C1FC3F3054704D0102F03D96FF0860495
S2140051A0ECE710274F452AD8FEF784FB0446002874
S2140051B0E4D1AB6B05F12802CDE902236B6A2A1D08
S2140051C0CDE905231023CDE9093008AB1A46049033
S2140051D0079005F13C0902A905A8CDF82090FDF737
S2140051E045FE0546FEF772FB04465DB90028C5D1AC
S2140051F03A464946404637F095FC3760BEE76FF0C2
S2140052008904BBE76FF09204B8E76FF08504B5E752
S2140052100000C07F0002C00307B56B46054A106851
S214005220516803C36846FCF763FF002003B05DF8CF
S21400523004FB00BF8DE0030013B50024064A684651
S214005240536F43F00103536700948DF80440FCF756
S21400525087FE204602B010BD0040005030B58BB02F
S2140052606C46174D0FCD0FC40FCD0FC495E8030045
S21400527084E80300134BD3F84C2112031CD5A3F586
S214005280FE431C884FF6FF739C4208BF78248DF8B7
S2140052901940FCF7C3FC204480F308008DF8180082
S2140052A00948FBF787FD6846FCF7D8FB3220FCF779
S2140052B031FD00200BB030BDD3F85041E4B2E6E734
S2140052C098E003000080E00F00F0490230B5094D79
S2140052D087B001AC0FCD0FC42B6801A8236025232F
S2140052E08DF80530FCF7D2FC3220FCF70DFD0020CF
S2140052F007B030BDC0E003006FF00403502110B5C6
S2140053000A480B4C13F0800F03F1010207D1234427
S214005310402A83F800131346F4D1002010BD03F092
S2140053200F03043B034419761346EBE700ED00E059
S21400533000E100E010B5044627F0DDFB024B1C60E0
S21400534027F0DDFB002010BD6C26002010B527F0EE
S214005350D2FB034B1C6827F0D2FB204610BD00BFD3
S2140053606C26002030B51446054687B0104628F057
S21400537050FC6369024683423CBFD4E903315B18A4
S2140053801B1A7BB10F49049403910021CDE901312A
S214005390012300932846D4E9001327F077FA00206B
S2140053A007B030BD0122627694F82D20002AF6D090
S2140053B084F835301321E369204698472046636A0F
S2140053C09847ECE7655300002DE9F04788B004469F
S2140053D00F461646984627F095FB8146002E7AD053
S2140053E0237E03F0FF02002B00F0A280204628F068
S2140053F010FC6569A84205D1637ED4E903321344E4
S2140054005D1B01E0F9D9451BB54228BF354627F09C
S21400541079FB94F82D308246002B6DD12A4638460B
S214005420616937F07FFB63692E462B44636121E098
S214005430037803F0FD0111295BD1216B814205D170
S214005440A3F111014B424B4184F83430013E6369AD
S214005450216B01328B4203F1010308BF23636361B2
S21400546095426069E4D1D4E90323216B1344994241
S21400547000D122630025D4E90323616913449942CD
S21400548008BF6261207A6576FBF70AFF204628F09F
S214005490C0FB6369834232D1257694F82D30E568E7
S2140054A0656103B125632046636A9847214B0494DF
S2140054B003930023029323692A4601930123009352
S2140054C063682168207A27F0E1F9207AFBF708FF65
S2140054D0504627F01DFB4846C8F8006027F018FB2A
S2140054E0D8F80030002B0CBF1B20002008B0BDE809
S2140054F0F08707F8013BAAE72E460022B0E7012313
S214005500207A23760DF11E01FBF752FF9DF81E3020
S214005510002BDAD00DF11F01207AFBF721FF9DF852
S2140055201F100029D1D12246207AFFF71BFFCCE7B7
S2140055301646D0E765530000002807DB0123410923
S214005540034A00F01F00834042F82130704700BF36
S21400555000E100E0002808DB01224309034900F0CF
S2140055601F008240603341F82320704700E100E0CE
S21400557070B504460568FFF7E9FE844202D10020B4
S214005580FFF7D8FE95F936603046FFF7E3FF002EAA
S2140055900CDB01221949730906F01F06B2402033BE
S2140055A041F82320BFF34F8FBFF36F8F95F9376015
S2140055B03046FFF7CFFF002E0CDB01220F497309A0
S2140055C006F01F06B240203341F82320BFF34F8F6A
S2140055D0BFF36F8F287AFBF7A3FE287AFBF706FE49
S2140055E0FBF7E2FD00232846C4E90033C4E9043390
S2140055F0A360AB6ABDE87040184700BF00E100E05A
S2140056002DE9F0430C461546064687B04022002199
S21400561020461F4637F07BFA95E8030000232A69E8
S2140056202376EB6884E80300C4E904232A7DE3605C
S21400563084F82C20AA7D2363012384F8343084F870
S21400564035300E9B84F82D2023620F9BE761636242
S214005650109BA3622B7A84F836306B7A84F8373046
S2140056602D4B346073602D4BB3602D4B33612D4B47
S21400567073612D4BF360FBF7DFFD38B12B4B98427F
S21400568004D01024204607B0BDE8F083002104F1C2
S2140056900800FBF759FD07460028F2D14FF0010835
S2140056A0234B3362234B84F83C80B361224BF36177
S2140056B09DF8483084F8390084F83B309DF8443033
S2140056C0204684F83A30697D84F8388028F0B1FAAC
S2140056D095F909904846FFF73DFF4846FFF72CFF2F
S2140056E0164B0494CDE902732369CDE90083636801
S2140056F0E2682168207A27F0C9F804460028C0D15D
S21400570095F908502846FFF725FF2846FFF714FFAF
S2140057103046FFF70FFEB5E783DC0200C9530000F2
S21400572001DC020007DC020071550000038000F077
S214005730DBDB020033DC02000DDC020065530000F8
S2140057402DE9F04101271C46584B86B00293584B72
S2140057500C9D0193574B904600930A46CDE903777C
S2140057602946554BFFF74CFF0646002840F096802A
S214005770236839462B6463683A206B64637A85F83D
S2140057804930237A85F84830E37A85F84B30A37A97
S21400579085F84A30637B85F84D30237B85F84C309E
S2140057A0E37B85F84F30A37B85F84E30FCF752F844
S2140057B03B460422617A207AFCF72EFD3B46022205
S2140057C0E17AA07AFCF728FD39466068FCF742F8D3
S2140057D088F8006041462068FCF744FF1422637C8A
S2140057E05B0103F1A04303F57033C3F81C26617A0E
S2140057F0227A42EA0142C3F83426E17AA27A42EAE1
S2140058000142C3F82C2685F8506098F81930032B0F
S2140058104AD8DFE803F03447021C022385F85030EC
S21400582000230422E17BA07BFCF7F6FC022741F272
S2140058301C61627C214B03EB42104750E07BA17B4E
S214005840B13241EA004103EB4213996017E00127A9
S21400585085F8503002220023617B207BFCF7DCFCBD
S214005860637B227B617C42EA0342154B49015A5016
S2140058700422236803F58053DA65002FD0D1237AFB
S2140058802A6C85F84830637A052185F84930D36C50
S214005890206843F00403D36427F069F9304606B065
S2140058A0BDE8F0810027D3E72326F7E7B1DD020045
S2140058B0A5DD02003DDE020031DE020000C003501E
