:020000040800F2
:1000000000120020250A000801CF020801CF0208D3
:10001000B1E8020801CF020801CF020801CF0208AF
:1000200001CF020801CF020801CF020801CF020868
:1000300001CF0208F0E803085BCD020801CF0208F7
:10004000250C000801CF020801CF020801CF0208E9
:1000500001CF020801CF020801CF020801CF020838
:1000600001CF0208250800083BCE020801CF020894
:1000700001CF020801CF020801CF020801CF020818
:1000800001CF020801CF020801CF020801CF020808
:1000900001CF02086112000801CF020801CF020857
:1000A00001CF0208AD03000801CF020801CF02080A
:1000B00001CF0208A5A5020829B0020835D403081B
:1000C00031D40308D1A7020841D4030839D4030866
:1000D00001B002083DD4030869B00208D5B0020897
:1000E00001CF020801CF020801CF020801CF0208A8
:1000F00005E5020801CF020801CF020801CF02087E
:1001000001CF020801CF020801CF020801CF020887
:1001100001CF020801CF020801CF020801CF020877
:1001200001CF020801CF020801CF020801CF020867
:1001300001CF020801CF020801CF020801CF020857
:1001400001CF020801CF020801CF020893E902089B
:100150003D8E020801CF0208C7D00308CDD00308A6
:1001600001CF020801CF020801CF020801CF020827
:10017000013800D0FCE77047002370B5404C0546BD
:100180008AB0E36318B1008823600CF04BFD3D4852
:100190003CF0CEFC3C4E3D4B304633603C4B7360F4
:1001A00032F0E5FE0021304624F0F8F932A3D3E91D
:1001B0000023A062C4E9062332F0E4FED4E906235A
:1001C00019431043C4E90601CDE900014FF0FF33A4
:1001D0004FF0FF32A06A3CF0F8FC02224FF0FF31F2
:1001E000A06A3CF0F7FC01200CF09EFA4FF400737B
:1001F00000222849A06A3CF03EFDB0F5007F38D1CE
:1002000000239422CDE9073309933C23CDE903323F
:1002100005939623A06A03A9069324F0DDFA35B36B
:10022000287C0CF0B7FE0546F0B9A06A3CF001FE50
:100230000CF05EFE0CF05AFA20B14FF480700021F1
:1002400009F0F8FA0CF062FA20B14FF400600021D6
:1002500009F0F0FA32F05AFF012024F0F3F90E4AC7
:100260000E49A06A32F081FE28460AB070BDFF2018
:10027000D7E70725F8E700BF0DD50155200000009E
:1002800038170020690345ECB8310020ADC50008DF
:10029000C8310020B82F0020132F0308532F030864
:1002A0000348044B834202D0034B03B11847704705
:1002B000C4160020C416002000000000064B0749A9
:1002C000C91A891048BF0131491003D0044B0BB142
:1002D00001481847704700BFC4160020C41600200C
:1002E0000000000010B5064C237843B9FFF7D8FF93
:1002F000044B13B10448AFF300800123237010BDF9
:100300003A3B002000000000F050040808B5054BFF
:100310001BB105490548AFF30080BDE80840FFF771
:10032000CDBF00BF00000000E01C0020F05004081A
:10033000A3F5803A704700BF174B002B08BF134B43
:100340009D46FFF7F5FF00218B460F461348144AE0
:10035000121A3DF0BDF90E4B002B00D098470D4B03
:10036000002B00D098470020002104000D000D480C
:10037000002802D00C48AFF300802BF0EBFA2000ED
:1003800029002CF0E2FC2BF0B3F800BF00000800BD
:10039000000000000000000000120020C416002031
:1003A0003C3D00200000000000000000274B284AD0
:1003B000D3F8201470B5C2F820145B6F254D13F0EC
:1003C000020F40D100F0E2FA64246043224B9842CD
:1003D000DEBF4FF6FF73B0FBF3F000F10A0428789C
:1003E000012801D100F0B6FA184B5B6FC3F3C006C9
:1003F0001B0714D400F0CAFA64235843174B9842E1
:10040000C4BF4FF6FF73B0FBF3F02B78C8BFA0F169
:100410000A06012B02D1002000F09CFA344629780C
:100420000F482BF0D1F92B78022B0ED1E0B200F05F
:1004300077FA6421C4EB0444B4FBF1F1BDE87040E9
:1004400008482BF0C1B90024CEE770BD00C00350AE
:1004500000E003503B3B0020A4FF5A00F5FF0900D9
:10046000E0E40308EBE4030813B501213A2001F0AE
:10047000F7F9012200231146104601F0A9FE0122DE
:10048000012410460023032101F0A2FE224621464A
:1004900020460023CDE9004401F040FE0322002362
:1004A00011462046CDE9004401F038FE4FF00072BD
:1004B000074BC3F880211A60234606490648074ABD
:1004C0000968006802B0BDE8104023F09DBD00BF80
:1004D00000E100E0F81C00204C1200203B3B002013
:1004E0000368424A23F47F4323F00703934210B585
:1004F00058D019D83E4A934256D00CD8A2F5C02203
:1005000093424DD002F5403293422BD0A2F5E02227
:10051000934220D010BD374A934225D002F5802265
:100520009342F7D1344817E0344A93423ED009D879
:1005300002F17D42934213D002F100729342E9D15D
:100540002F4809E02F4A934210D002F140629342B3
:10055000E0D12D4800E02D48BDE810402BF046B911
:100560002B48F9E72B48F7E72B48F5E72B482BF00A
:100570003DF900232A4A2B492B48137009680123AF
:10058000006823F0F7FC40F6B8344FF47A7006F0B8
:10059000AFFA013CF9D12046BDE8104033F0ACBEC3
:1005A0002248D9E72248D7E72248D5E741F201029D
:1005B000B0F80930934211D041F202329342A9D1EE
:1005C0001D482BF013F90123154A137015491648DD
:1005D00009680068BDE8104023F0CCBC17482BF038
:1005E00005F902230E4A13700123EFE7A800140354
:1005F000A8001E00A800140197E50308A80014092C
:1006000049E50308A800140A35E50308F7E40308E0
:1006100008E503081DE5030858E5030871E503082C
:100620003B3B0020F81C00204C1200207CE5030816
:100630008CE50308AAE50308BFE50308E2E5030823
:1006400008B5044811F0D6FE2CF0F9FBBDE80840CF
:1006500035F035B950E8030810B5274C01F042FBDE
:1006600001F08EFC236F23F0070343F0030323679D
:100670002CF0E9FC214B00209B6ADB015EBF4FF4AC
:1006800080321F4B9A62D4F8203123F0070343F0E5
:100690000203C4F82031D4F8283123F0070343F0D3
:1006A0000203C4F82831D4F8403123F0030343F0A7
:1006B0000203C4F84031D4F8603123F0030343F05F
:1006C0000203C4F86031D4F8403223F0030343F04E
:1006D0000203C4F84032D4F8003223F0070343F099
:1006E0000203C4F80032D4F8083223F0070343F0C1
:1006F0000203C4F8083210BD008000500040005AC8
:100700000060005A30B5224D95B00DAC0FCD0FC42E
:1007100095E80700032384E807008DF84D3029236E
:100720001C4A1D49CDE9022340F20153CDE90413CF
:1007300000210E220DF1260006913CF0C9FF4FF476
:100740008020164B07A9CDE9070309238DF8243033
:100750000A238DF82530124B0DAA0A9320230B9300
:1007600040F20113ADF830300E4B0F48009302AB4E
:1007700005F038FA04469DF832304FF4E130002B92
:100780000CBF032100212CF0ACFB204615B030BD7E
:10079000D4E8030800C005500008000924C0055033
:1007A0003C3B0020FC1C0020501D0020831E012B20
:1007B00010B512D8012922D8114B04221B6C082134
:1007C0000020C3F3002301F003FD0E4B1B681868E3
:1007D000A8B1BDE81040436A18478B1E012B0CD806
:1007E00001280CD8BDE810400022054B08211B6CE5
:1007F0001046C3F3002301F0EBBC0129E5D910BD7D
:1008000000C003500C12002008B50449044805F04C
:1008100065FCBDE80840FFF775BF00BF101200205F
:10082000741D002001482DF0F9BF00BF501D0020AD
:10083000026808B5084B1340084A93420BD112F0E6
:1008400019FA00B1FEE712F021FA00B1FEE712F04A
:1008500005FA00B1FEE708BDF800FEFFA80014008D
:10086000802300B589B08DF810300D4B0D4A1B88E0
:10087000ADF8143010B9137801331370002132230E
:10088000CDE90131009104AB127841F202302EF033
:10089000DAF8054A1378013B137009B05DF804FBE0
:1008A000B43A00205E3B00205D3B0020002300B5F1
:1008B00089B08DF810300F4B0F4A1B78003B18BFE2
:1008C00001238DF8143010B913780133137000210F
:1008D0003223CDE90131009104AB127841F20100DD
:1008E0002EF0B1F8054A1378013B137009B05DF89A
:1008F00004FB00BF603B00205F3B00205C3B00200E
:10090000024B1878003818BF012070475D3B00206B
:10091000024B1878003818BF012070475C3B00205C
:10092000642810D86423C0EB0040B0FBF3F0064A03
:1009300083B2138008B1054A13800522044B0020BE
:100940001A70FFF78DBF7047B43A0020A61400203C
:100950005D3B0020094B022802BF1878C0F101005E
:10096000C0B2187008B1064B18880522054B1880D4
:10097000054B00201A70FFF799BF00BF603B0020B5
:10098000A6140020B43A00205C3B0020014B1888DC
:10099000704700BFB43A002008B50368074A23F443
:1009A0007F4323F00703934206D1037923B9032041
:1009B00012F084F900B1FEE708BD00BFA8001400E2
:1009C00008B50368054A23F47F4323F007039342E5
:1009D00003D112F067F92CF03CFA08BDA000010029
:1009E00007B508202CF0A7FA02238DF80030054B3C
:1009F000684601932CF039FA082003B05DF804EB47
:100A00002CF0A4BA006A18100348044A0449121AC8
:100A100092102CF076BA00BFC8550408C8550408D7
:100A20003C3D002008B500F02FF8FFF7EDFF124B1A
:100A300012498B4212D30020114B12498B4218D31A
:100A4000FFF77AFC186850F82240586840F82240B6
:100A5000013298688242F5D30C33EAE70022F8E7C6
:100A60001C6844F8220001325C68A242F8D30833C3
:100A7000E4E70022F8E700BFF85004080451040836
:100A800004510408045104084FF480414FF0FF3032
:100A9000114B124A10B59A60D3F8882042F47002C4
:100AA000C3F888200E4A91660E4901F5005210667F
:100AB0000D4850660220C3F8D000BFF34F8FBFF33C
:100AC0006F8F01244FF440330848C0F88041D36051
:100AD00004600B6110BD00BF00ED00E000000008E5
:100AE0000090005000800044F7FF370000E100E074
:100AF000014B1868704700BF1C120020084B1B6F89
:100B000003F00703022B04D0032B05D0012B05D0E3
:100B1000FEE7044B18687047034BFBE70348704738
:100B2000008000501C12002024120020002D3101F2
:100B300008B5FFF7E3FF054B1B6FC3F30333013326
:100B4000B0FBF3F0024B186008BD00BF00800050FE
:100B5000181200200048704700B4C404014B186804
:100B6000704700BF2412002000487047002D31015B
:100B70004FF0B4439868C0F304400C280AD8DFE86B
:100B800000F00B0909090909072119091B1D1F009C
:100B90000F487047002070479B6803F04073B3F123
:100BA000807F11D0B3F1007F10D00A4A002B08BF1C
:100BB0001046704708487047084870470848704713
:100BC0000848704708487047084870470848704709
:100BD000405DC60000093D00C0EA210180BA8C01D9
:100BE0000048E801005A62020024F40080841E00DC
:100BF00040420F00014B1868704700BF20120020D0
:100C0000BFF34F8F0549064BCA6802F4E0621343F5
:100C1000CB60BFF34F8F00BFFDE700BF00ED00E0EA
:100C20000400FA0513B5204B1B7803B9FEE7002337
:100C30001E4CCDE900336A4608231D49206823F085
:100C4000E3F9F0B91B4AD2F84031D2F840211F2B0A
:100C50004FF0010310D9203A9340019A1A430192B0
:100C600008236A461249206823F084F94FF00053A4
:100C7000114A1A60FFF7C4FF9340009A1A4300928A
:100C8000EEE70E4B9842F1D10A4AD2F84031D2F841
:100C900040211F2B4FF0010385BF203A9340934022
:100CA000019398BF0093DBE7613B00204C120020CA
:100CB00000710800008000440B020FF00BE000F010
:100CC0000346054A0549106803448B428CBF4FF028
:100CD000FF301360704700BF28120020000004207E
:100CE00008B501213A2000F0BBFD012304220321B5
:100CF000002001F06DFA00202CF0DBF90122354BC9
:100D00003549C3F844244FF40022A3F550335A6602
:100D1000324BD3F8FC20D20146D4D1F8803023F0F6
:100D2000030343F00203C1F880304FF4607000F019
:100D3000B1FD2A4B00F5D520D3F8F02000F2FC409D
:100D400042F00102C3F8F020D3F8FC2042F0807298
:100D5000C3F8FC20224AA3F55D431A60214B02220E
:100D6000B0FBF3F0204B01381861C3F8F0204FF4CA
:100D70008072C3F804234FF060431C4A0020C3F87C
:100D8000B02F1B4AC3F8802ED3F8002E42F4807295
:100D9000C3F8002EFF2283F82020D3F8002E22F47F
:100DA0008072C3F8002E08BDD3F8FC2022F08072B8
:100DB000C3F8FC20D1F8802022F0030242F00202A6
:100DC000C1F88020D3F8FC2042F08072C3F8FC20E8
:100DD000ABE700BF00D003500080005000ED00E002
:100DE000FF030040F8590D00000004E055CEACC5EB
:100DF000090001004FF06043D3F8802E30B5D207D0
:100E000015D501240B4D8440D5F8FC2042F08072AA
:100E1000C5F8FC20D3F8002E2243C3F8002E53F867
:100E20002020002AF0D003F82010002030BD11202F
:100E3000FCE700BF00ED00E02DE9F04F9A46564B6D
:100E400085B01B7806460F461546DDF83C909DF8A8
:100E500044B0DDF85080002B00F09780072A00F2A4
:100E600096800E9B002B00F09280B9F1000F00F0ED
:100E70008E80129BB3F5006F00F38980012803D1A7
:100E8000109B002B00F08380444B03EB05131B7B6E
:100E9000002B7ED0424C1022002168463CF018FC0A
:100EA00004EB45141022A7BB394620463CF010FC49
:100EB00043F210036380BBF1000F03D1E37843F0EA
:100EC0000303E370364A0E9B02EB451CCCE9019309
:100ED000129B6901581E9DF84C30C0F30A0003F0C4
:100EE00003039B0643EA001E53582E48012E00EAD6
:100EF00003004EEA0003CDF800A0535017D0B8F11C
:100F0000000F2ED19CF8023068F304138CF80230E5
:100F100027E0002120463CF0DBFB4FF44473638064
:100F2000BBF1000FCED1E37843F03003C9E71323C0
:100F30000CF1100ECCF80C309CE80F008EE80F007E
:100F40006FF00301DCF81C20109B61F39F02012F5E
:100F5000CCF81C20CCF8143003D1CCF81890CCF885
:100F6000043000270D4A290102EB051342F80180E5
:100F7000159A28465A60694622469F605E7301F0C2
:100F8000C5F9384605B0BDE8F08F0748FAE70748CD
:100F9000F8E70748F6E700BF623B00207C1E002010
:100FA0007C1D00200F80FFF3028000F0018000F024
:100FB000078000F038B5124B05461B78DBB1E0B175
:100FC0002CF05DF80F4A00231146147B54B92B60B6
:100FD00001251A0101EB03131D738C502CF055F8F9
:100FE000204638BD0133082B02F11002EDD12CF060
:100FF0004CF80548F5E70548F3E70548F1E700BF79
:10100000623B00207C1E0020048000F0028000F083
:10101000018000F038B52CF032F8002305460B4A69
:10102000147B6CB90133082B02F11002F8D101F0E6
:101030000FF9074B28461C702CF027F8204603E0D8
:1010400028462CF022F8034838BD00BF7C1E002043
:10105000623B0020058000F00D4B10B51B78044664
:1010600093B1072812D82CF00AF80A4B03EB0413AB
:101070001A7B2AB100241C732CF007F8204610BDFF
:101080002CF003F80448FAE70448F8E70448F6E7C8
:10109000623B00207C1E0020068000F0028000F0F1
:1010A000018000F0154B13B51868002301908DF8EE
:1010B00004302BF0E4FF124B1C7824B12BF0E5FF39
:1010C000104802B010BD01221A702BF0DEFF0E4B4B
:1010D00001A81C731C7783F82C4083F83C4083F8EC
:1010E0004C4083F85C4083F86C4083F87C400823D4
:1010F0008DF8073001F0D8F82046E2E740E9030810
:10110000623B0020038000F07C1E00200A4A08B5E4
:1011100012785AB107280BD8084A02EB00131B7B40
:1011200043B1002101F0B2F8002008BD0448FCE7FB
:101130000448FAE70448F8E7623B00207C1E0020E0
:10114000028000F0018000F0078000F00A4A08B534
:1011500012785AB107280BD8084A02EB00131B7B00
:1011600043B1012101F092F8002008BD0448FCE7DA
:101170000448FAE70448F8E7623B00207C1E0020A0
:10118000028000F0018000F0078000F00A4A08B5F4
:10119000127852B107280AD8084A02EB00131B7BC9
:1011A0003BB101F0FFF8002008BD0548FCE7054809
:1011B000FAE70548F8E700BF623B00207C1E0020EC
:1011C000028000F0018000F0078000F00D4B1B78DA
:1011D00093B1072812D889B10B4B03EB00131B7B8B
:1011E00073B10A4B1A6D01238340134214BF0123CC
:1011F000002300200B707047054870470548704772
:1012000005487047623B00207C1E0020000004500F
:10121000028000F0018000F0078000F00B4A10B55A
:1012200012780C4662B107280CD859B1084A02EB73
:1012300000131B7B43B101F0C7F82070002010BDE4
:101240000448FCE70448FAE70448F8E7623B00205A
:101250007C1E0020028000F0018000F0078000F07A
:10126000184B2DE9F0411F6D5B6D1F4000D5FEE767
:1012700001260025144CDFF85880374218D0236827
:10128000C8F85060A3B1A168284601316268A16026
:101290009847637B012B0BD150B90C4B03EB4513E3
:1012A0001A7B60F341021A731A7F60F341021A77C6
:1012B0000135082D4FEA460604F11004DDD1BDE8E2
:1012C000F08100BF000004507C1E00207C1D002027
:1012D00000200450024B1968024B186822F070BDC0
:1012E0002C1200204C12002070B5940022460546B6
:1012F0000E463DF0D5F8431C0AD058B92246314677
:1013000028463CF0BBF90028034808BF002070BD08
:101310000248FCE70248FAE710E000F021E000F0A4
:1013200024E000F010B504463DF0B6F8431C10D0A0
:1013300088B901F0D7F8234620F0030020449842F2
:1013400001D1002010BD53F8042B0132F7D003481F
:10135000F8E70348F6E70348F4E700BF0EE000F0C3
:1013600021E000F024E000F008B52BF081FE014BF5
:10137000186008BDEC250020014B18682BF07CBEDE
:10138000EC250020044BD3F88420D206FBD4D3F8FC
:101390008400C0F3811070470040005038B5104BF6
:1013A0000546D3F880300C4603F00303022B0BD024
:1013B000032B0DD0012B0FD1FFF7A0FB0E2305B19E
:1013C000286004B1236038BDFFF7D2FB0723F6E79E
:1013D000FFF78EFB0623F2E700231846EFE700BF76
:1013E0000080005038B5184B0546D3F820010C4654
:1013F00000F00700062823D8DFE800F0040A0E16E4
:10140000121A1E00012305B1286004B1236038BD03
:10141000FFF76EFB0523F6E7FFF7A0FB0323F2E7D8
:10142000FFF7A6FB0723EEE7FFF79EFB0223EAE7A1
:10143000FFF75EFB0623E6E7FFF790FB0423E2E7F6
:1014400000231846DFE700BF0080005038B5174B77
:101450000546D3F828310C4603F00703013B052B62
:1014600020D8DFE803F003131B0F0B17FFF740FB37
:10147000052305B1286004B1236038BDFFF738FBB0
:101480000623F6E7FFF774FB0723F2E7FFF766FB97
:101490000323EEE7FFF762FB0423EAE7FFF764FBB1
:1014A0000223E6E700231846E3E700BF0080005070
:1014B00073B50D460021114B0191D3F880410646CA
:1014C00004F00304022C13D0032C0CD0012C13D1F4
:1014D00001A8FFF787FF10240EB1019B336005B10F
:1014E0002C6002B070BDFFF743FB07240190F3E7C7
:1014F000FFF73AFB0190EFE70C46EDE70080005064
:10150000002337B50193164B0546D3F820320C461D
:1015100003F00703042B21D8DFE803F0030B1116B7
:101520001B0001230DB1019A2A6004B1236003B0AE
:1015300030BD002101A8FFF789FF1223F2E7FFF772
:1015400017FB07230190EDE72BF0E8FC0A2301903D
:10155000E8E7FFF74FFB09230190E3E70023E1E70A
:101560000080005038B5104B0546D3F840310C468A
:1015700003F00303022B0BD0032B0DD0012B0FD153
:101580002BF0CCFC0A2305B1286004B1236038BDE0
:10159000FFF730FB0923F6E72BF0C3FC0C23F2E73F
:1015A00001230020EFE700BF00800050002337B583
:1015B0000193164B0546D3F860320C4603F007033F
:1015C000013B032B1FD8DFE803F0020E19140021A2
:1015D00001A8FFF707FF10230DB1019A2A6004B19B
:1015E000236003B030BD002101A8FFF7BBFF11232A
:1015F000F2E7FFF7BDFA07230190EDE7FFF7B4FA32
:1016000002230190E8E70023E6E700BF00800050D6
:10161000002337B50193164B0546D3F894320C4698
:1016200003F00703013B032B1FD8DFE803F0020E92
:101630001914002101A8FFF7D5FE10230DB1019A5E
:101640002A6004B1236003B030BD002101A8FFF778
:1016500089FF1123F2E7FFF78BFA07230190EDE7EB
:10166000FFF782FA02230190E8E70023E6E700BFD4
:101670000080005038B5144B0546D3F800020C46E4
:1016800000F0070004281BD8DFE800F003090D1163
:101690001500012305B1286004B1236038BD2BF08B
:1016A0003DFC0A23F6E7FFF7A5FA0923F2E72BF042
:1016B00038FC0C23EEE7FFF73BFA0F23800AE9E73B
:1016C00000231846E6E700BF0080005038B5144BF1
:1016D0000546D3F808020C4600F0070004281BD882
:1016E000DFE800F003090D111500012305B12860A2
:1016F00004B1236038BD2BF011FC0A23F6E7FFF795
:1017000079FA0923F2E72BF00CFC0C23EEE7FFF744
:101710000FFA0F23800AE9E700231846E6E700BF27
:101720000080005038B5104B0546D3F840320C46C7
:1017300003F00303022B0BD0032B0DD0012B0FD191
:101740002BF0ECFB0A2305B1286004B1236038BDFF
:10175000FFF750FA0923F6E72BF0E3FB0C23F2E73F
:1017600001230020EFE700BF0080005038B5104B88
:101770000546D3F860310C4603F00303022B0BD06F
:10178000032B0DD0012B0FD12BF0C8FB0A2305B181
:10179000286004B1236038BDFFF72CFA0923F6E76F
:1017A0002BF0BFFB0C23F2E701230020EFE700BF83
:1017B00000800050B0F5207F1FD009D8B0F5007F21
:1017C00015D003D868B1B0F5C07F0AD000200CE076
:1017D000B0F5607FFAD10B4BD3F88000C0F3011055
:1017E00003E0084B186FC0F3033001307047054B1E
:1017F000D3F89000C0F30460F7E7024B186FC0F312
:101800008020F2E70080005002464FF48030104BF9
:1018100010B598660020FFF7CDFF504341F67132B6
:101820000C4BDC69DA635A6804F4803422F4401209
:1018300059B90949884294BF00200120000502439C
:101840005A600CB10022DA6310BD0449F2E700BF10
:101850000090005000000350005A6202002D310138
:10186000430905D0012B0CD0022B084B18BF0023D5
:1018700000F01F0039B103F58053012282401A6045
:101880007047034BF4E703F50053F6E76880005018
:10189000648000501FB5002180280446CDE9001166
:1018A00000F0A58035D85E2846D85E2844D8DFE809
:1018B00000F0A2434343434343434343434343432F
:1018C00043434343434343434343434343434343E8
:1018D0004343A2AAA2AABABABABABAAAC44DDA7142
:1018E0004DAAAAAA4343434343434343AAAAAA791E
:1018F000E4AA43434343434343434343434343BA39
:10190000A2A2A2DF4D4DE9885EBF43434343439902
:10191000A200B0F5B06F00F090802DD8B0F5207F18
:1019200071D00CD8B0F5C07F65D0B0F5007F65D020
:10193000B0F5807F00F08680009804B010BDB0F54F
:10194000607F6BD00DD8B0F5407FF5D1FFF7F0F890
:1019500002464FF42070FFF72DFFB2FBF0F2520861
:101960005AE0B0F5806F5ED0B0F5A06FE4D10021F1
:101970006846FFF7C5FDDFE7B0F5106F78D016D8E1
:10198000B0F5E06F79D00AD8B0F5C06F6BD0B0F584
:10199000D06FD1D100216846FFF76CFECCE7B0F5DF
:1019A000F06FC9D100216846FFF7E0FEC4E7B0F54B
:1019B000406F3DD013D8B0F5206F63D0B0F5286FDD
:1019C000BAD10021324B0391D3F8703203F00303F4
:1019D000012B02D103A8FFF7C5FD039B3CE0B0F546
:1019E000486FA9D100216846FFF712FEA4E7FFF770
:1019F00085F80090A0E7FFF79BF8FAE7FFF77EF87D
:101A00000246204604E0FFF793F802464FF42070A8
:101A1000FFF7D0FEB2FBF0F200928DE701A8FFF7CE
:101A2000BDFC019AEDE700216846FFF7DBFC83E788
:101A300000216846FFF70AFD7EE700216846FFF7B0
:101A400037FD79E74FF0E02302911B695B0705D56D
:101A5000FFF76EF80290029B00936DE703A902A8BE
:101A6000FFF780FDF7E700216846FFF77BFD63E79E
:101A700000216846FFF72AFE5EE700216846FFF76F
:101A800051FE59E700216846FFF790FD54E700BF7B
:101A90000080005008B58020FFF7FCFE034B984201
:101AA0009EBF4FF48032024B1A6708BD005A620293
:101AB00000A000501FB503460020B3F5807F0190C1
:101AC00000F0C18064D85D2B55D84C2B07D82D2B46
:101AD00048D8232B2CD8019805B05DF804FB4D3B6A
:101AE000102BF8D801A252F823F000BF3D1C0008CB
:101AF000D71A0008D71A0008D71A0008F31B0008E5
:101B0000D71A0008D71A0008C11C0008111C0008C9
:101B1000B71B0008B71C0008D71A0008D71A00081E
:101B2000D71A0008D71A0008D71A0008CB1C0008DB
:101B3000243B092BCFD801A252F823F03D1C00080A
:101B40003D1C00083D1C00083D1C00083D1C000811
:101B5000D71A0008331C0008D71A0008D31B000846
:101B6000731C00083D2B7FD03E2BB4D1002001A96F
:101B7000FFF7D8FDAFE7802BADD1594B1B6F03F0BA
:101B80000703013B032BA6D8DFE803F0514E858DF8
:101B9000B3F5F06F68D021D8B3F5B06F49D00FD846
:101BA000B3F5607F00F0838095D3B3F5806F45D0A7
:101BB000B3F5A06F8FD1002001A9FFF7A1FC8AE740
:101BC000B3F5D06F55D0B3F5E06FCFD0B3F5C06F9C
:101BD00081D1002001A9FFF7C5FC7CE7B3F5206F98
:101BE0006ED00BD8B3F5086F48D0B3F5106F7FF403
:101BF00072AF002001A9FFF769FD6CE7B3F5406FF4
:101C000059D0B3F5486F60D0B3F5286F7FF463AF58
:101C1000334BD3F8703203F00303012B5AD0022B5D
:101C20000CBF1523002300E00523019353E7022393
:101C3000FBE7002001A9FFF73BFC4CE7002001A9CE
:101C4000FFF7D0FB47E74FF0E02302901B695B07EB
:101C500005D5FEF76DFF0D230393039BE5E703A96D
:101C600002A8FFF77FFCF8E7002001A9FFF77EFD3F
:101C700031E7002001A9FFF7FDFC2CE7184BD3F852
:101C8000003103F00303022B07D0032B09D0012BF3
:101C90000BD1FEF763FF0323C7E7FEF7ABFF092372
:101CA000C3E72BF039F90823BFE70123BDE701A9FA
:101CB000FFF774FB0FE7002001A9FFF7C7FB0AE756
:101CC000002001A9FFF772FC05E7002001A9FFF73A
:101CD0009FFC00E7002103A8FFF744FC1123A4E7C1
:101CE000008000504FF48012034B5A664FF480324C
:101CF000024B9A62704700BF009000500050005A9B
:101D000008B5FFF7D7FE092811D00A38012802D9F3
:101D10004FF6FF7008BD4FF48002064B5A6603F57C
:101D2000D8335B6ADB07F3D54FF4FA70F2E7024B66
:101D30001888EFE700900050A814002070B5194CE7
:101D4000FF28A66A2BD8A36D4FF0807113F4803F53
:101D500018BF4FF48032144B18BF9A629962134A2D
:101D6000A36992F9005023F47F03054423F47F43D1
:101D700043EA002385F3080543EA0543A36132469D
:101D80000B482BF03EF9A36DDB0301D4002070BD9E
:101D900032464FF4803106482BF033F9F6E7212024
:101DA000F5E700BF0040005A0050005ADA14002046
:101DB0002840005A4FF4803311481249826A8B62DE
:101DC000836D03F00303032BFAD14FF080730E48A9
:101DD0008B620B4B996D30EA0101FBD1012009495F
:101DE0000865996D8907FCD4054B996D8807FCD56A
:101DF000996D8907FCD5054905482BF002B900BF4C
:101E00000040005A0050005A030001000000010188
:101E10002840005AF0B5D0E901434FF400061A4AB1
:101E20004178057856664FF4D156022702F5B8324C
:101E30005662164E4F2977604FF0010728BF4F2199
:101E400006F5805677601669F603FCD441EA052151
:101E500051611B01417B43EA04230B43017B43EAAD
:101E600041039360C37B817B1B0143EA4113417CA7
:101E70000B43017C43EA41035360837C13B16FF44D
:101E8000D1535362F0BD00BF0090005000100250CB
:101E9000014B1880704700BFA8140020B0F5207FC8
:101EA00010B50C465DD008D8B0F5007F4ED003D8F1
:101EB000C0B1B0F5C07F15D010BDB0F5607FFBD1CB
:101EC0002C4B4C1ED3F8FC202B4912F0807F4FEA9C
:101ED000041427D1D1F8803023F030032343C1F814
:101EE0008030E9E72BF09CF82BF0A8F84FF4803114
:101EF000224B214A1967136F013C23F4704343EAD4
:101F000004331367FEF714FE0446FFF73BFAC0F1F3
:101F1000020120462BF08CF800F042F8BDE810409A
:101F2000FFF7B8BDD3F8FC2022F08072C3F8FC2084
:101F3000D1F8802022F030022243C1F88020D3F86B
:101F4000FC2042F08072C3F8FC20B5E70A4A4C1E20
:101F5000D2F8903023F0F85343EA0463C2F890308B
:101F6000AAE7054A4C1E136F23F4806343EA8423D7
:101F70001367A1E700ED00E00080005000900050E2
:101F800008B50121022000F03BF82BF049F82BF0B6
:101F900055F84FF48032014B1A6708BD009000508D
:101FA00008B54FF4C070FFF775FCBDE80840044960
:101FB000884294BF012102214FF42070FFF76EBFC9
:101FC00080F0FA02034B5868C0F30800003818BFCD
:101FD0000120704700ED00E0024A536B0342FCD140
:101FE000704700BF00400950044A4178536F23F402
:101FF000407343EA01235367704700BF004000501D
:10200000F8B504461C4BD3F88420D106FBD4D3F892
:102010008430C3F381139C422CD0FEF76FFD012C5A
:10202000064602D121462BF003F82BF021F84FF0A1
:102030000072124B07465A6620462BF02AF84FF4DE
:1020400080630D4D621E93402B676B6E9A0103D423
:10205000D5F884309B060AD538462BF00DF8022CB3
:1020600008D13046BDE8F84000212AF0E1BFD5F89C
:102070008430EAE7F8BD00BF004000500060005027
:1020800010B50C4608B9FEF739FD074B21461B7801
:102090003BB1064B984204D80120BDE81040FFF741
:1020A000AFBF0220F9E700BF633B0020005A620285
:1020B0000278034B012100201A70FFF7E1BF00BF37
:1020C000633B00204FF00042104B70B55D6E03F58E
:1020D00080535A664AF6CD3304460D4980204E6C33
:1020E0000B64FFF779FF0B6A23F4F85343EA0423E8
:1020F0000B62F30744BF074B0B64002DA2BF4FF0E8
:102100000042054B5A663AF078FD70BD00800050E1
:10211000004009503254FFFF00A00050072A2DE96B
:10212000F041154698464FF0030401F003072DD8FF
:102130009600B44000FA06F221461C482AF0AAFF95
:1021400021461B4807FA06F22AF0A4FF194B1A4948
:102150009DF81800B8F1000F18BF1946012303FAC3
:1021600005F50D60154B1649002818BF0B461D607C
:10217000144B9DF81C00C3F82054103103F2244383
:10218000002818BF0B461D60BDE8F081A2F10806CB
:10219000B600B44000FA06F221460B482AF07AFF56
:1021A00021460A4807FA06F2CEE700BF00C40350F2
:1021B00008C4035010D4035010E4035014E4035037
:1021C00014D4035000E0035004C403500CC4035063
:1021D0002DE9F04105460F461E4690464AB10123BF
:1021E0003022194C8B4002FB004436B304F5825474
:1021F00023600F21072F05EB450388BFA7F10804D3
:102200004FEA0313114895BFBC00A40004330C33FC
:1022100008FA04F2A14018442AF03CFFB8F1000F7C
:1022200009D101233021084ABB4001FB05223EB100
:1022300002F582521360BDE8F08104F50154D7E73E
:1022400002F50152F6E700BF00C0035030C0035052
:102250004FF400120B4B10B5C3F88020BFF34F8F23
:10226000BFF36F8F0024FF22074B21465C652020BF
:102270009A625C60FFF7F4FA2146BDE81040212025
:10228000FFF7EEBA00E100E000000450044A054BFD
:10229000002908BF1346012282401A60704700BF20
:1022A000401004504020045010B501210446202065
:1022B000FFF7D6FA01212120FFF7D2FA0122114BB4
:1022C0005A60227812069A606178A27842EA014246
:1022D0009A61FF229A6200229A631A644FF00042C8
:1022E0005A654FF0FF324FF4001103F500531A65A1
:1022F000054AC2F88011E3781B01DBB282F815337E
:10230000116010BD0000045000E100E0F8B50125A7
:10231000C3B2D1F800E091F80AC00F7B0C469D4093
:10232000CB7A1D491D4E0D65810001F1A04101F5DB
:102330008821C1F804E04FF0300E0EFB00601B0551
:10234000617B43EA0C4343EA475322F003020166F0
:10235000C36502672AF093FE736D2B437365237A7E
:1023600013B1336C2B433364637A13B1B36B2B43D8
:10237000B3632279A37943EA0243074A93616179FF
:10238000E37943EA014306498B61044B55639D643D
:10239000BDE8F8402AF079BE002004500000045047
:1023A0000010045010B50124C0B284402AF067FE2A
:1023B000044B5A6D22EA04025A659C62BDE8104043
:1023C0002AF063BE0000045010B50124C0B284405E
:1023D0002AF055FE074BDA6A224208D15B6B9C4318
:1023E0000CBF012400242AF050FE204610BD00241A
:1023F000F9E700BF000004504FF48032054B9A66A5
:1024000041F6713203F51C33DA63012203F5005300
:10241000DA6070470090005041F671320121064B9E
:10242000DA6303F50052D1600022DA634FF48032A0
:10243000A3F518339A66704700000350013831281D
:102440009ABF024B185C0020704700BF65E9030883
:1024500038B5C2F30625044602F0070241B942EA44
:10246000052242F440220634074B43F8242038BDAD
:10247000114628462AF01EFE02462846FFF7DEFFD8
:10248000163442EA0022EFE7008003504FF4803216
:10249000064B5A6603F5E6239B69C3F385128270E7
:1024A00003F03F021B0B4270037070470090005016
:1024B00040F6B732064B5B689BB293429FBF4FF426
:1024C0007A72B3FBF2F3034AD05C88BF00207047F6
:1024D0000080E00F97E90308014B986CD96C7047B6
:1024E0000080E00F0120034B9B680A3303F01F03B9
:1024F000984070470080E00F70B5054616461C46B0
:1025000021B94FF42070FFF7C5F90146402C1BD0CC
:1025100003D8DCB1202C1BD070BD602CFCD104236F
:1025200003FB06F2530803EB4113B3FBF2F3094A32
:10253000203B02EAC303AA6822F06002AA60AA68EC
:102540001443AC60EB61E7E70623E9E71023E7E714
:102550000823E5E7F8FF7F00012100F5805310B55F
:10256000596040F6AA6341F2050243610023094C19
:102570008360C365C26000F500520361C361C36438
:102580009464054C8365A04204BF036543655160B4
:1025900010BD00BFFFFF010000C0055070B50D4623
:1025A000FFF7DAFF012300F580567360AB7C044629
:1025B0001BB1836843F080438360EB7C5BB1244BA9
:1025C0009C4202BF2A7DA3F51033C3F8C821E36DF6
:1025D00043F08003E3652A8A6B7B20461343EA8934
:1025E0001343E3602B7BD5E90112FFF785FF6B7D79
:1025F0001BB1A36843F48033A360AB7D1BB1A36818
:1026000043F40043A360EB7D2A7E1B07120502F40E
:10261000E00203F0E0431343A3656B7E9A1E012A98
:102620004FF0020209D80B49032BC1F8202709D12A
:102630000423F3652B78636170BD0749012BC1F852
:102640002027F4E7042204F50053DA65F2E700BF1F
:1026500000C0055000D0035000E00350034B5A68FF
:10266000D20702D5DA69002AF9D1704700800A50F2
:10267000054B9A689107FCD45A689207F9D4DA6935
:10268000002AF6D1704700BF00800A5008B5FFF756
:10269000E5FF0222014B1A6108BD00BF00800A500D
:1026A00008B5FFF7E5FF0122024B03F580514A60B0
:1026B0001A6108BD00800A5008B5044B5968012909
:1026C00003D1FFF7E3FF024B596008BD00800A50B9
:1026D00000A00A5010B5064CFFF7CAFF6368012B33
:1026E00003D1FFF7E9FFFFF7C3FF0378E36010BDF5
:1026F00000800A50B8B94A680B7812B1127843EAE0
:10270000C2034A7843EA42038A6812B1127843EA64
:1027100082138A7843EA8203CA6812B1127843EAC4
:102720004223014A9364704700800A5008B9014B64
:102730005964704700900A5008B9014B59647047BA
:1027400000A00A5008B9014B1964704700A00A5054
:1027500010B9024B186C70470020704700800A5077
:1027600048B911B1012903D07047044BD86C7047A8
:10277000024B186D70470020704700BF00800A5060
:1027800040B911B1012903D07047034BDA64704797
:10279000014B1A65704700BF00800A5010B9024B08
:1027A000586D70470020704700800A5038B50446C5
:1027B000054D3AF046FA0FCC0FC594E8030085E8C2
:1027C0000300002038BD00BFF025002047F6FF734E
:1027D0009A42F0B56FD002296FD8394B5B5C012B60
:1027E0006BD8384DDF0005EBC30415F83330A17802
:1027F000012B13D10025E078401AA84202D80844E2
:10280000C0B2F0BD431B6668A0EB530336F91360FA
:102810009642D4BF1D4603F1FF30EEE76068002802
:10282000EFD0B0F90040944204DBB0F9024094428A
:10283000B8BF144683883D44FF2B19BFC8224FF010
:10284000280CB0F90620B0F908C0A2EB04030CBFB5
:102850000126002693FBFCF333446E781BB29E42A4
:1028600001DD002B01DA731E1BB24FF47A7C0133B9
:102870009BB2071D5D1E2DB24FEAC50E00EBC505CC
:10288000EA88AD689E4214FB025222EAE27202F12B
:102890005C02B2FBFCF204DD37F8335001339542A1
:1028A000E8D200EB0E039888904228BF1046884279
:1028B00038BF0846A4E7FF20A3E70020A1E700BF38
:1028C0009AE90308F02500200229F0B555D82C4BD1
:1028D000585C012851D82B4C04EBC00114F830008F
:1028E0004B6801280FD1C8788C78904294BFC4EB14
:1028F0000001C4EB0201001BCAB28242C8BF002221
:1029000033F91200F0BD002B37D08878904202D303
:10291000B3F90200F6E7CC78B3F900009442F1D99C
:102920004C789988013CA1F1FF06714203F104053E
:10293000E4B2714103F10C07CEB2B44216D805EBF4
:10294000C1014FF47A756A43B1F902404968521ADD
:1029500004EBD47102EB610292FBF4F29042D1DB02
:10296000B3F902009042CDDC10B2CBE737F831C0AA
:102970004E1C9445E3D33146DEE70348C2E700BF6F
:102980009AE90308F02500200080FFFF0148FFF7C7
:102990000DBF00BFA0E9030800487047AA1400203B
:1029A00008B5B0B14FF480620B4B9A662AF0BCFBBD
:1029B0004FF098435A6CD202FCD54FF48062586DA8
:1029C000064B10F470209A6604D0BDE808402AF047
:1029D000E2BB212008BD00BF0090005000A00050C5
:1029E0002DE9F0418CB08846DDE912761D4604469B
:1029F000002847D0002945D0002F43D0002E41D0D9
:102A000013F00F033ED120482049A360002A08BFDD
:102A10000146E361C4E90013404609A92AF035FDE7
:102A200068BB204609992AF076FB294620462AF001
:102A300072FB6946404600F00FFF00BB6946204626
:102A40002AF055FB404603A92AF01EFEB8B92046DD
:102A500003A92AF04CFB06970127204645F00055B4
:102A600006A9079708952AF042FB204609A909966E
:102A70000A970B952AF045FB2046FFF791FF0CB013
:102A8000BDE8F0812120FAE7000100040001010403
:102A90002DE9F04F97B0894690461F460546DDF870
:102AA00080A0002800F0BB80002900F0B8803AB177
:102AB000229B002B00F0B380239B002B00F0AF8003
:102AC000BAF1000F00F0AB80219B002B00F0A78033
:102AD00067B13C680026229B43440293464507D3D6
:102AE00007B13C60002017B0BDE8F08F3C46F1E72D
:102AF0005CB1229B219A9B5D125D01345340239A65
:102B000004F00F0493550136E8E7A8EB060BBBF180
:102B10000F0F58D9434B4846C5E90034AC60EC610F
:102B200013A92AF0B2FC0028DDD1284613992BF016
:102B30000F0B2AF0F0FA594628462AF0ECFA4846DC
:102B400004A900F089FE0028CDD1284604A92AF066
:102B5000CEFA484607A92AF097FD0028C3D1284697
:102B600007A92AF0C4FA012322992F4ACDF828A0F8
:102B70000B930C928A190D9228464BF000520AA929
:102B80000E9303920F922AF0B2FA28460DA92AF06A
:102B9000AEFA239B039A9919012310911193129273
:102BA000214A284610A9CDF84CA0149315922AF07A
:102BB000A8FA284613A92AF0A4FA2846FFF7F0FE3F
:102BC0005E4400288FD1229B03EB060B239B1E44FF
:102BD000029B5B4501D1464680E7ACB9219B22466A
:102BE000CDE900A3494610232846FFF7F9FE002847
:102BF0007FF479AF0AF1100212F8013D0133DBB224
:102C000013700BB95245F7D1219A1BF8013B125DA5
:102C10000134534006F8013B04F00F04D8E72120AB
:102C200061E700BF03030004100000202DE9F04F0E
:102C300097B0894615469A460446209FDDF888805D
:102C4000DDF890B0269E002800F09D80002900F05D
:102C50009A80002E40F08A80002B00F09480B8F11A
:102C6000000F0AD0219B002B00F08D80002A40F03D
:102C70009F80F10700F1878002E0002A40F0858004
:102C8000FB1F062B7FD8524B0BEB05029A427AD8DA
:102C90000023504A4846C4E90023A360E36113A916
:102CA0002AF0F3FB00285ED1204613992AF033FA6C
:102CB000204646EA07412AF02EFA414620462AF0ED
:102CC0002AFA294620462AF026FA484601A900F0A9
:102CD000C3FD002847D1204601A92AF008FA48463A
:102CE00004A92AF0D1FC00283DD14FF0010920466B
:102CF00004A92AF0FCF9239B45F000550793219B7A
:102D0000CDF82090204609950DA90A9347F0005769
:102D100048F00053CDF82C900C93CDF834A0CDF8AA
:102D200038900F972AF0E3F920460AA92AF0DFF934
:102D3000204607A92AF0DBF9259B204610A946F07A
:102D40000056CDF840B0CDF8449012951393CDF8CD
:102D5000509015962AF0D5F9204613A92AF0D1F9FA
:102D60002046FFF71DFE17B0BDE8F08F259B53B13D
:102D7000BAF1000F07D0B8F1000F01D0219B13B1B9
:102D8000B5B9022E20D12120EDE7239B002BFAD0EC
:102D9000BBF1000FF7D0C7F10F03DBB2032B3FF6F7
:102DA00068AF0122DB0002FA03F3AB42EBD9E8E79C
:102DB000239B002BE7D0BBF1000FE4D0C7F10F033A
:102DC000DBB2032BDDD8ECE7102E7FF652AFDAE74B
:102DD000FFFF0320000005042DE9F04F99B088465D
:102DE00015469B460446229FDDF89890289E60B1C8
:102DF00059B1279B4BB1BBF1000F06D0249B0BB1FF
:102E0000239B13B11DB9022E13D121239AE0259BD8
:102E1000002BFAD0B9F1000FF7D0C7F10F03DBB2E6
:102E2000032BF0D80122DB0002FA03F3AB42ECD90A
:102E3000E9E7731E0F2BE8D816F0010AE5D1FB1F56
:102E4000062BE2D8414B09EB05029A42DDD8404BF4
:102E50004046C4E9003AC4F808A0C4F81CA015A96B
:102E60002AF013FB034600286CD1204615992AF05E
:102E700052F9204646EA07412AF04DF920462499A6
:102E80002AF049F9294620462AF045F9404603A987
:102E900000F0E2FC0346002854D1204603A92AF0A2
:102EA00026F9404606A92AF0EFFB0346002849D13F
:102EB0004FF00108204606A92AF019F9259B204663
:102EC000099345F00053CDF8288001930B93239B81
:102ED0000FA90C93249B47F0005743F00052CDF804
:102EE00034800E92CDF83CB0CDF8408011972AF096
:102EF000FEF820460CA92AF0FAF8204609A92AF083
:102F0000F6F8019B204612A9CDF84890CDF84C80E8
:102F100014932AF0F6F8279B204615A946F0005690
:102F20001593CDF8588017962AF0E1F82046FFF760
:102F300037FD034630B101902A46514648463AF0E3
:102F4000C7FB019B184619B0BDE8F08FFFFF0320B7
:102F5000000006042DE9F0418CB0884616461D4657
:102F60000446129F00284BD0002949D0002A47D0A0
:102F7000002F45D00B68103B102B41D8214A22FA74
:102F800003F3D9073CD500231F4A8360C0E900231F
:102F9000C36109A940462AF078FA70BB2046099916
:102FA0002AF0B9F8294620462AF0B5F86946404685
:102FB00000F052FC08BB694620462AF098F84046CB
:102FC00003A92AF061FBC0B9204603A92AF08FF8B3
:102FD00006960126204606A945F000550796089555
:102FE0002AF085F8094B204609A909970A960B9300
:102FF0002AF087F82046FFF7D3FC0CB0BDE8F0813B
:103000002120FAE701010100000004041000002063
:10301000F0B50C4617461E46054695B0002874D0FC
:10302000002972D0002A70D0002B6ED0036B0F2BBA
:103030005BD80023364A3846C4E90023A360E36125
:1030400011A92AF022FA00285BD1204611992AF012
:1030500062F8296B20460F2984BF01F00F0110315F
:103060002AF059F8384602A900F0F6FB002848D1AA
:10307000204602A92AF03BF8384605A92AF004FBAD
:1030800000283ED1204605A92AF031F80122214B23
:10309000089509920A932B6B05F1100003F00F01BC
:1030A00041F000510B900F2B0C920D910E900F924E
:1030B00043F00052109226D90A9B08A923F000532E
:1030C00020460A932AF013F80BA920462AF00FF89D
:1030D0000123119612930F4B204611A913932AF046
:1030E00010F82046FFF75CFC0BE000F12003019094
:1030F00000930122102339462046FFF771FC002877
:1031000097D015B0F0BD0EA9DFE72120F9E700BF89
:1031100000000404100000202DE9F04F9BB00C4685
:1031200090461F460546DDF89090002800F0B280DA
:10313000002900F0AF80002A00F0AC80002B00F0E6
:10314000A980026B02EB09031B09B3EB121F02F00B
:103150000F0600F0978000234F4A8B60C1E90023DF
:10316000CB61404617A92AF090F90346002840F0A9
:10317000858006EB090B204617992BF00F0A29F0E2
:10318000CAFF5146204629F0C6FF404602A900F07A
:1031900063FB0346002871D1204602A929F0A7FF4E
:1031A000404605A92AF070FA0346002866D14FF080
:1031B0000108019005A9204629F099FF374A2046C9
:1031C00008A90895CDF824800A9229F090FF46F0CE
:1031D0000051AAEB060605F1100346F000560B93CA
:1031E000CDF830800D910E97CDF83C8010960D995A
:1031F000204621F000510D910BA9009329F077FF93
:1032000020460EA929F073FF019B244A1193AAF1CD
:10321000100343F00053CDF84880139305F12003C9
:103220001493CDF854801692139B204643F08043AC
:103230001393139B11A923F00053139329F061FFFB
:10324000204614A929F05DFF144A17A920461795B6
:10325000CDF86080199229F054FF2046FFF7A0FBBB
:10326000AAEB0B0149440190ABEB0A0200983944E8
:103270003AF039FA019B2A6B4A442A6318461BB07C
:10328000BDE8F08F10304A46394630443AF02BFA08
:103290000023F0E72123F1E70302000410000020DF
:1032A0002DE9F0438DB08946DDE914681F460446D8
:1032B000002850D000294ED0002B4CD0B8F1000F80
:1032C00049D0531EDBB2042B45D82449CD5C169B54
:1032D0009D4240D8224B09A903EB0223036000233F
:1032E000C0E90133C36148462AF0CFF880BB2046CD
:1032F000099929F010FF3146204629F00CFF694654
:10330000484600F0A9FA18BB6946204629F0EFFEAE
:10331000484603A92AF0B8F9D0B9204603A929F0F4
:10332000E6FE06970127204606A946F000560797B5
:1033300045F00055089629F0DAFE204609A9CDF897
:1033400024800A970B9529F0DCFE2046FFF728FB26
:103350000DB0BDE8F0832120FAE700BF4CFB030865
:10336000000102032DE9FF474FF000080E46174603
:103370000446CDF80080002859D022B900252846FF
:1033800004B0BDE8F087002951D032F0030902F003
:10339000030A1FD04FF0E063C0E900380123019118
:1033A000C0F808800293C0F81C8049F0005301A9BE
:1033B000039329F0A6FE4946204629F0ACFE20469C
:1033C000FFF7EEFA054628B14A46414630463AF044
:1033D0007FF9D4E7BAF1000FD0D04FF000084FF0DA
:1033E000E063C4E900380123CDF804D00293114B07
:1033F000204601A9C4F80880C4F81C80039329F072
:1034000080FE0421204629F086FE2046FFF7C8FAF8
:10341000054608B13A46D8E7009A4E44EB0001351C
:1034200022FA03F3AA4506F8013BF7D1A6E72125C6
:10343000A5E700BF040000202DE9F0410F46017808
:103440000446013990468AB0042947D8DFE801F0E4
:103450000332373C41004025142621490C34002218
:103460005D43C7E90122FA6138463960294629F0EF
:1034700052FE0123384646F0005604A945F0005597
:10348000CDF804800293039504940593069607945F
:103490000893099629F02BFE384601A929F027FE4A
:1034A000384607A929F02DFE3846FFF779FA0AB009
:1034B000BDE8F081402520260A490C34CFE740259D
:1034C000202609490C34CAE78025402607491434D0
:1034D000C5E78025402606491434C0E72120E6E7E9
:1034E00000020103000301030004010300050103BE
:1034F0000006010310B591B188B10023C0E9013382
:10350000084B00F10C0203F1200153F8044B8B42ED
:1035100042F8044BF9D101230370002010BD212093
:10352000FCE700BF77FB030810B591B188B1002319
:10353000C0E90133084B00F10C0203F1200153F8FC
:10354000044B8B4242F8044BF9D103230370002053
:1035500010BD2120FCE700BF51FB03082DE9F04F0F
:103560000D46904604468BB000287DD000297BD0C4
:10357000002A79D00278013A042A75D8DFE802F0EF
:10358000030C58606B001427394A00F10C0B00F152
:10359000040A2C34B94608E020274FF01C09354AAC
:1035A00000F10C0B00F1040A2C34402199455BD842
:1035B0000AF104030AEBD10653F8040B002855D195
:1035C000B342F9D1DAF80030013901EA0306C5E95E
:1035D00000203146A860E861284629F09CFD284675
:1035E000DAF8001029F097FD012249F0005328462F
:1035F00001A947F0005746F00056CDF804B00292FA
:103600000397049405920696CDF81C8008920993BE
:1036100029F06DFD284604A929F069FD284607A96F
:1036200029F06FFD2846FFF7BBF90BB0BDE8F08F1E
:103630002027114A00F10C0B00F1040A2C34A9E7F1
:1036400040274FF030090D4A00F1140B00F1040A35
:1036500054348021AAE74027094AB94600F1140BE7
:1036600000F1040A5434F4E72120DEE70F20DCE700
:103670000002030300030303000403030005030324
:10368000000603032DE9F04387B00D4691461E4620
:103690000446DDF83880002836D0B8F1000F33D06A
:1036A00002B98BBB6B1EDBB2042B2DD8174AD75C3B
:1036B0000F9B9F4228D80023280200F1407000F59C
:1036C00080703146C4E901332060E361204629F06F
:1036D00022FD01236946204646F0005647F0005778
:1036E000CDF8009001930296CDF80C8004930597D5
:1036F00029F0FDFC204603A929F003FD2046FFF731
:103700004FF907B0BDE8F0832120FAE772FB030808
:10371000F0B50F4616461D46044693B010B9212059
:1037200013B0F0BD0029FAD0002AF8D0002BF6D053
:10373000002331461A46384629F04CFE0028EFD1C6
:10374000304602A929F0E2FD0028E9D1EB68022BFE
:103750000AD039683F48029A81426B6902D018301A
:10376000814270D19A42DAD82B68002BD7D14FF022
:1037700060623846C4E90023A360E36101A929F02F
:1037800084FE0028CCD10199204621F4F0610191FA
:1037900029F0C1FC6946284629F077FE0028BFD1F0
:1037A0002046009929F0B7FC384609A900F054F8E2
:1037B0000028B5D1204609A929F099FC38460CA962
:1037C00029F062FF0028ABD120460CA929F08FFC1C
:1037D000EB684BB1284606A900F03EF800289FD1BF
:1037E000204606A929F083FC304603A929F04CFFA6
:1037F000002895D1B368DA040CD59B0427D506219F
:10380000F36932691B6801FB03225B0043F000533C
:1038100003920593204603A929F069FC28460FA9C5
:1038200029F032FF00287FF47BAF20460FA929F052
:1038300068FC03252046FFF7B3F801287FF470AF3A
:10384000013DF7D16CE7B3EB420F8DD267E729203A
:1038500066E700BF200000B090B189B101234B6042
:10386000C368013B012B08D88269064B1AB10A6074
:1038700000208B607047044AF9E74FF00053F7E7E8
:10388000212070470800002098FB030870B50E4601
:10389000154604468AB000285BD0002959D0002A7A
:1038A00057D0012329461A46304629F093FD0028B7
:1038B0004DD1B36813F4C04F4BD0AB6803F4C04391
:1038C000B3F5005F45D1254BA060C4E90030E0614D
:1038D00007A9304629F0D9FD002838D1204607999C
:1038E00029F019FC304601A9FFF7B6FF78BB204646
:1038F00029F0FDFB304604A929F0C6FE38BB20465E
:1039000004A929F0F4FBEB681BBBAB6803F4C043CC
:10391000B3F5005F1DD16946284629F022FDB0B9F4
:10392000009B6A699A4216D32A6943F000530792B2
:103930000122204607A908920325099329F0E1FBFB
:103940002046FFF72DF8012801D1013DF8D10AB03A
:1039500070BD2120FBE71D20F9E700BF0000010238
:1039600006289ABF024B33F810000020704700BFB2
:10397000A0FB030830B5154B87B00293144B03909E
:10398000049346F611030D46059300F077F91428C9
:10399000044616D168462AF02CF84FF0A8430322BB
:1039A00002A95A6319601D619A63DA6B9207FCD110
:1039B000142C02D168462AF02AF800F093F9044644
:1039C00001E00028E9D0204607B030BD08260020DD
:1039D000040000202DE9F04FB1B005468C469E460C
:1039E000E8466F4EDDF8EC90409C06F1100A474621
:1039F00030687168083603C75645B846F7D13E9B14
:103A000003EB0208C8F1000A0AF00F0AB9F1000F2F
:103A100000F09D80C9F1000707F00F070121DDF8D4
:103A2000FCB044F00050C4F11006CDF810B0059180
:103A30000690300200F4F85040F021000790B9F1F0
:103A4000000F40F08680CDF820D047F00050002DC8
:103A500000F08480099121210A9041EA07210B910D
:103A600042F00050CDF830C03D9B08A94FEA0A2C27
:103A70000D910E904CF041000F901093002A75D1DB
:103A80003E9B119143F0005312933C9B139014936F
:103A900010AB1593434B444A169340F6110317930A
:103AA000424B0021002D08BF1346189314AB199305
:103AB0003F4B10221A9311231B931CAB184639F06D
:103AC00007FE01221D92002246F0804603461E9604
:103AD000239205B9EB46102CCDF880B024AE4BD123
:103AE00001232246002130462193229439F0F0FD33
:103AF00020AB002125938F4218BF334647F0804208
:103B000026923A9A2CA828922993B2FA82F35B095A
:103B100049EA837310222B912A9339F0D9FDB9F128
:103B2000000F00D028AED04448F080432CA918A83C
:103B30002D962E93FFF71EFF30B92DB90346A342F1
:103B400025D1002818BF2C2031B0BDE8F08F1027F8
:103B500064E7CDF820E049F0005078E7002C3FF40E
:103B600079AF04A9099101210A9076E73E9B0CAA3E
:103B700011924120129388E71022002130462193B0
:103B8000229439F0A5FD002CB2D10123B1E703F155
:103B9000C0026A4412F8C02C01331043CFE700BFC3
:103BA000AEFB030810000020C4FB0308C8FB030899
:103BB00004000020F0B5C0299FB0DDE9244557D0AE
:103BC000B1F5807F04D0802948D029201FB0F0BDF6
:103BD00001265CB140F23447029410240396049409
:103BE000212401970594069502AC0AE040F214479F
:103BF000029410240396049421240594012401972F
:103C00000695079401251024089409950A9221220B
:103C10000B950C940D92174A0AAD0E92164A0F9509
:103C2000109242F611021192129313951494159268
:103C300001AA1692D3B112AB179304231893112340
:103C4000199316AB1A901B9340F61103C9081C91E7
:103C50001AA806A91D93FFF78DFEB7E7012614B930
:103C60004FF48267C4E74FF48667B5E70EABE3E72E
:103C70000F20ABE7C0FB03081000001038B5164B4F
:103C80005A6E42F004025A66D3F8802242F00102D2
:103C9000C3F88022114B5B68C3F3080343B14FF0B4
:103CA000A842D36B13F0430FFBD11424204638BD38
:103CB0004FF0A843DC6B14F04304FBD1084D2B6894
:103CC0001BB90421284603F08BFA2B68013343F01B
:103CD00000432B60EAE700BF0080005000ED00E0E9
:103CE00008260020014B00205B68704700ED00E0D3
:103CF000012300F01F02A0F506200949A0F550603D
:103D00004009934051F820201A4341F820200549EA
:103D100051F8202022EA030241F82020704700BF1A
:103D2000282600200C2600200121A0F506230F4A9A
:103D3000A3F550635B0900F01F00814052F8230097
:103D400010B5014342F8231000210B46084850F8F3
:103D5000044B013107292344F9D133B9C2E90033B7
:103D6000C2E90233C2E90433936110BD0C2600207E
:103D7000282600202DE9F04FA9B003921D460446E5
:103D80000822339ECDE90401414021FA02F34B4061
:103D9000980702F1080218BF9B00202A1C44F4D1A6
:103DA000C123B4FBF3F203FB1244734B04F5062466
:103DB0001B7804F55064002B3ED1FDF78BFA0746C3
:103DC00020B16FF0910029B0BDE8F08F014640228C
:103DD00008A839F07DFC4022394618A839F078FC53
:103DE000DFF8B081DFF8B091C3460BF10F0ACDF8D0
:103DF00000A0102208A95B46D9F8000038F0DEFCCC
:103E00000022014608F1100808AF914245D1CDF8D3
:103E100000A05B461022D9F8000018A938F0D7FCA2
:103E20004FF0000A834618AFD34540D1534B984515
:103E3000DAD10122504B1A704FF0C10A4FF000083E
:103E4000DFF858B1A4F50627A7F550635B095BF8C6
:103E5000232004F01F01CA40D2073CD4484A52F83C
:103E60002330CB40DB0729D5B8F1000F08BFA046AF
:103E7000C123A7F6FF47B7FBF3F203FB1277BAF1B2
:103E8000010A07F5062404F55064DBD1039BBBB19E
:103E9000B8F1000F14D0444619E057F8040BCDE9EF
:103EA0000612FFF725FF079A06990132ADE757F88A
:103EB000040BFFF739FF0AF1010AB5E7039B13B9B9
:103EC0006FF08B007FE7B8F1000F18BF4446349BBA
:103ED00000201C6077E7329B13B10023329A1360F5
:103EE0000EB1002333601023DFF8AC9000932A4614
:103EF00000232146D9F8000020F0D4F860BB3299A5
:103F00002A68204BC9B99A4206D02146D9F8000048
:103F100020F060F90028D3D1D5E90223DDE90410AF
:103F2000834208BF8A42A3D1039B002BCFD06B688A
:103F3000012BCCD16FF0840045E7102032999A42D2
:103F40000860E2D1002EE7D033462146D9F80000C0
:103F500018AA20F0FBF848B10B4B9842D5D00B4B78
:103F60009842D2D00A4B9842D6D02AE7329A336888
:103F700012689B1A3360CFE7643B00200071080091
:103F80000C260020105D175EFFDF00F011E000F04E
:103F9000FEDF00F0006D08004C12002028260020F3
:103FA0002DE9F04F87B08246894698461646DDF8DF
:103FB00040B02AB1002B4FD040F26C739A424ED8D9
:103FC000BBF1010F4ED8002406F11007394601203D
:103FD00005942BF0F1F80546002846D021463A46D4
:103FE00039F076FB05ABCDE9014300942B46012265
:103FF00050464946FFF7BEFE044680B110F18C0FD3
:1040000008BF6FF08D043A460021284639F060FB66
:1040100028462BF0E1F8204607B0BDE8F08F144B9E
:10402000C5E902A92B60C5F804B02EB1324641465D
:1040300005F1100039F057FB059E0E483B462A4615
:10404000314600681FF096FF18B93046FFF750FE62
:10405000D9E76FF09104D6E76FF08604DBE76FF0E5
:104060009104D8E76FF08504D5E76FF08C04D2E7B0
:10407000105D175E4C1200202DE9F0438DB0814693
:10408000DDE914780E4615461C469BB1B8F1000FC9
:1040900005D16FF0860630460DB0BDE8F083002FE5
:1040A000F7D0B7F1005FF4D3C3F1005303F58023D9
:1040B0009F42EED81022002108A839F009FB002207
:1040C00007AB029305AB019306AB3146009348461C
:1040D00008ABCDE90522FFF74DFE06460028DAD1F0
:1040E000059BA4B1AB4215D853EA0504D1D1069B78
:1040F0000B48C8F8004000943A46079900682B44E2
:104100001FF0D0FF002818BF6FF09106C3E7AB4245
:10411000EDD2BEE75B1B9C4228BF1C46E7E700BF11
:104120004C12002030B58DB00C46054610220021FF
:1041300008A839F0CDFA002207AB029305AB019332
:1041400006AB21460093284608ABCDE90522FFF7D0
:1041500011FE0446D8B9099B012B1BD0079D104BBB
:104160002946186820F036F8B8B90122A5F50623CB
:104170000C49A3F550635B0905F01F00824051F81C
:1041800023004240284641F82320FFF7CDFD20467A
:104190000DB030BD6FF08404F9E76FF09104F6E7DD
:1041A0004C1200202826002030B5048804F4E04397
:1041B000B3F5005F2ED1C4F30223042B2AD181F082
:1041C000AA6383F4807333F47E132AD081F0AA6348
:1041D00083F4007333F47E1323D00023144D21F4B1
:1041E0007E11A9421AD1B4F5105F17D1418821F090
:1041F0004000802802D0B1F5807F15D1191F0C290D
:1042000012D8DB0710D4073A072A34BF00206FF01A
:10421000860030BD42F204039C42DED16FF085007F
:10422000F7E7C1F30543D9E76FF08600F1E700BF78
:10423000000140052DE9F04F9BB08146DDE928766D
:104240001D468B46DDF8A880DDF8BCA0099241B17F
:1042500038B1249B2BB1269B0BB9279B0BB91FB9F7
:104260004EB16FF086047FE02EB1B8F1000FF8D0A8
:104270002B9B002BF5D02C9B002BF2D0BAF1000F1A
:10428000EFD02E9B002BECD02D9B002BE9D0B9F862
:10429000003003F4E042B2F5005F69D1C3F30222BB
:1042A000042A65D185F0AA6383F4807333F47E1306
:1042B00006D085F0AA6383F4007333F47E1360D1D3
:1042C000C5F3054329464846259ACAF80030FFF74A
:1042D0006BFF0446002847D1014620220AA839F086
:1042E000F7F92022214612A839F0F2F90AA828F09D
:1042F00080FF002855D159464846099A12AB00F074
:1043000037FC044600282FD12B9B9E424CD8DAF86C
:1043100000302E9A934247D8474508D2BB1998459A
:1043200005D239463246404639F0B8F94746204B67
:1043300025F47E159D4226D1DAF8003032460693E8
:104340002D9B0397CDE90483279B12A90293269BFB
:104350000AA80193259B0093249BFEF767FC212864
:1043600019D0D8B92C9B1E6020461BB0BDE8F08F39
:1043700042F20402934204D185F0052383F48013B2
:104380009BE700239EE76FF0880400232C9A1360BC
:10439000CAF80030E8E76FF08604F6E76FF09204A1
:1043A000F3E76FF09204DFE76FF08904DCE700BF0A
:1043B000000140052DE9F04F99B08A46DDE92665F8
:1043C0009346984681462A9F28B96FF08604204676
:1043D00019B0BDE8F08F0029F7D0229B002BF4D054
:1043E000249B13B9259B002BEFD10EB9002DECD1E6
:1043F00017B92B9B002BE8D12C9B002BE5D0289BD9
:10440000002BE2D041464846239AFFF7CDFE0446F2
:104410000028DCD1202201460DEB020039F058F9CA
:104420002022214610A839F053F908A828F0E1FE0F
:1044300010B16FF09204CAE75A465146484610AB95
:1044400000F096FB04460028C1D12B9B9D422AD840
:10445000BE4208D273199F4205D231462A463846D9
:1044600039F01CF93E46144B28F47E1898451DD1AE
:10447000299B2A460693289B0396CDE90473259B26
:1044800010A90293249B08A80193239B0093229BCD
:10449000FEF7A2FC212898D02C280AD00028C8D1E9
:1044A0002C9B1D6093E76FF0890490E76FF0880400
:1044B0008DE76FF094048AE700014005084B9842AD
:1044C00002D0084B984207D10B88B3F5105F0CBFA0
:1044D00000206FF0850070476FF08500704700BFC7
:1044E000004440040013C0042DE9F04F0E4614466A
:1044F0009846054691B028B96FF08609484611B034
:10450000BDE8F08F09B9002AF6D1B8F1000F02D149
:104510001A9B002BF0D11B9B002BEDD0286829F0B3
:104520005FFB81460028E9D1EA6C854902F00F0360
:104530000493C3F1100B6B6A8B4208D195F820707D
:10454000012F12D1002C32D11B9B1C60D6E77D4A73
:10455000934223D01AD8A2F5807293421ED01AD863
:10456000794A23F48063934215D1002CECD00027C4
:104570005C452DD2049822463C303146284439F01F
:10458000B2F8EB6C2344EB640024DDE76F4A23F4BC
:104590008073934202D06FF08809AFE7002CD3D02C
:1045A0001A9B9C4200F2C9800027059720E0BBF1CE
:1045B000100FDDD1002ADBD0102C27D9A4F1100276
:1045C00011094B1C12F00F0F08BF0B46012708E022
:1045D0001CD9049BA4F110021A4411094B1C002F92
:1045E000F0D11A9AB2EB031FC0F0A7800123059304
:1045F000202200210DEB020039F06AF808A828F00B
:10460000F8FD824620B16FF0920977E70123E8E7D1
:1046100046450CD23319984509D21A9B9C423FF665
:104620006BAF31462246404639F038F846466B6A51
:10463000474A93424DD002F54072934249D0454AD1
:104640009342A8D1BBF1100F22D0E86C5A4600F07B
:104650000F003C303146284439F045F805F13C0361
:104660000093CDF804801023294695F8202008A84F
:10467000FEF7B6F9002857D14FF0100A049B103C02
:1046800023441C46EB6C5E445B4408F11008EB6469
:104690000F2C07D8DCB1059B002B3BD100231B9AC4
:1046A000136078E7CDE9006824F00F0B5B462946DC
:1046B00095F8202008A8FEF793F9002834D1EB6C78
:1046C000B4EB0B045B445E44DA44EB6419D154460A
:1046D0003AE7EB6C224603F00F03079305F13C0326
:1046E000019305F1280300932946CDE9026807AB41
:1046F00008A8FEF7CDF9B8B9EB6CA2462344EB64E9
:10470000E5E7059B002BC9D00F2C03D9002FC5D09E
:10471000102CC3D12246314605F13C0038F0E3FFAE
:10472000EB6C2344EB64D2E700231B9A012813604F
:104730007FF469AF6FF08B09E0E66FF08909DDE681
:10474000004140040011C004004040040012C004B5
:104750000010C0040044400438B51C46054648B368
:1047600001B93ABB34B3286829F03AFAF0B96A6A59
:10477000124B9A4213D007D8114B22F480629A420E
:1047800010D06FF088000AE00E4B9A4207D08EBF1F
:104790000D4B22F48072A3F500739A42F1D10023ED
:1047A000236003E02060EB6C1B0700D138BD6FF085
:1047B0008600F4E76FF08600F8E700BF0001800490
:1047C000004040040012C0040013C0042DE9F0476B
:1047D000C2B00C4607460021154601A820229A4681
:1047E0004A9EDDF83091DDF8388138F071FF2022E3
:1047F000002109A838F06CFF2022002111A838F010
:1048000067FF2022002119A838F062FF00218022D2
:1048100022A8219138F05CFF3CB135B12EB1B9F13D
:10482000000F02D0B8F1000F05D16FF086042046CA
:1048300042B0BDE8F0872188628801F4E043B3F517
:10484000804FF2D02C4B2D483B4043F01063834205
:1048500002D06FF08504EAE7D31DBAEBD30F4FEA1D
:10486000D307E2D34D9B9F423FD847F212139942A0
:10487000EFD1B2F5807FECD1214B4B980993842383
:104880000230013620F0030016937B000D960E9047
:10489000129320465246294621AE01AB159600F0F0
:1048A00067F904460028C2D10B9B119043F40053D2
:1048B00019A80B9328F09DFCD0B911AB09AA01A946
:1048C00019A8FEF725FF054610B14828ADD1C0E76D
:1048D0003A463146484638F006FF2B4673550135B7
:1048E000842DFBD1C8F80070A1E76FF089049EE722
:1048F0006FF092049BE700BF0000FFF60000020982
:10490000200000802DE9F0410D4614461E46C2B03D
:1049100010B96FF086000DE00029FAD0002AF8D017
:10492000002BF6D0038803F44F42B2F5824F04D037
:104930006FF0850042B0BDE8F081DAB2122AF7D1FB
:1049400023F0FF03B3F5E24F27D143883360FBB96F
:10495000E3003360B3F5807FEAD100231846434972
:104960002E19214411F8014D16F8012D1043121B88
:104970000CBF4FF0FF340024B54203EA040343EABE
:104980000203EFD10028C4D0002BC2DA0020D1E707
:10499000DA1DB4EBD20FDDD0BBE7B3F5824F61D1A6
:1049A0000B78042BB5D120220021684638F090FE08
:1049B000684628F01EFC002851D100278422394681
:1049C0000DEB0200209738F083FE202201234FF0E8
:1049D000880839460DEB0200013C8DF88030013526
:1049E00038F076FE202239460D9410A8E4000C958C
:1049F000640838F06DFE20AD2022394618A81495C1
:104A0000CDF8548038F064FEE02CCDE91C583460B9
:104A100003D0B4F5807F7FF47CAF154B0734089347
:104A200010934FF400530A934FF48043E408129319
:104A300008AA18AB6846640010A91994FEF768FE2E
:104A400033680733DB085A0033B10021531E013BA2
:104A5000297005F10105FAD2002897D059E76FF0C7
:104A6000920067E76FF0960064E700BFCCFB030895
:104A700020000080F8B5134642880C460732072A0A
:104A80004FEAD20101D0A1426DD146680588C768BE
:104A900020221846002138F01BFE360A034626B1B4
:104AA000012E11D06FF08B00F8BD002C5BD041F2CD
:104AB0000102954205D0B5F5885F02D0B5F5905F4B
:104AC0001BD15C600020EFE7C660002C4BD041F2A8
:104AD000010295420BD15C60B90707F001021FD4B7
:104AE000002AEFD19A6842F080729A60EAE7B5F541
:104AF000885FF0D0B5F5905FEDD0B5F5105F0AD1C5
:104B0000182C03D0202C01D0102C2CD1C3E9004448
:104B1000002ED7D0E0E705F44F42B2F5824F02D025
:104B20006FF08500C0E7EAB2122AF9D1202CF7D144
:104B30000E4A25F0FF05B5F5E24F1A600CD0B5F529
:104B4000824F10D14FF4005217F4705F09D017F460
:104B5000864F04D09A60E3E74FF48042F4E742F4D2
:104B600080629A60D4E76FF086009DE720000080A5
:104B70002DE9F041174600221C4643688CB01B0A01
:104B800080460D46009204D0012B56D06FF08B006A
:104B90008EE0008820F0FF03B3F5824F15D1B8F8FE
:104BA00002200732D208009229F051F8002800F0C4
:104BB000E1800B78042B05D1013FB7EB420F05F1E3
:104BC000010503D06FF0860072E00097009E224638
:104BD00031464046FFF74EFF002869D1FA1CC4E970
:104BE000030522F003026261002E00F0A48020225F
:104BF000002101A838F06CFD3146404601AAFFF7BC
:104C000039FF002840F097802368019A9A4240F0CB
:104C100092806368029A9A4240F08D80A368039A5A
:104C20009A4240F08880A369079A9A4240F08380B4
:104C3000E369089A9A423BD07DE0032FC2D90B78F2
:104C4000012B40F09A80497800294BD0F739082988
:104C50009CD801A353F821F0C14C00087D4C0008FA
:104C60008D4B0008B74C00088D4B0008DB4C00084A
:104C70008D4B0008CB4C0008D34C00084FF4105665
:104C8000F8253F4F1C22002102A838F021FD032304
:104C90000197CDE90435039601AA09AD134603CB6C
:104CA000AB42206061601A4604F10804F6D100208E
:104CB0000CB0BDE8F08110274FF08076FA25E1E7CF
:104CC00020274FF00076F725DCE7FE252C4F2D4EF0
:104CD000D8E7FF252A4F2C4ED4E74FF41056FC2579
:104CE000274FCFE72B2F7FF66DAF2022204638F0DD
:104CF000EFFC05F110032361AB070DD001AB05F10B
:104D000028061A4628686968083503C2B542134662
:104D1000F7D1286801AD10606B68103F2360AB6865
:104D200069466360EB682046A36001236761E36026
:104D300028F0ECFA28B120220021204638F0C8FCE7
:104D400040E7B8F80030009E03F44F42B2F5824FBE
:104D50000ED1DAB2122A0BD123F0FF03B3F5824F42
:104D600006D1730062691C339A42BFF43DAFE2E79B
:104D70003346F7E76FF085009AE76FF0910097E709
:104D8000200000800044000200440003144B034054
:104D9000B3F1607F21D1C3B243F0007303F17E43CE
:104DA000053B062B19D8DFE803F0041818080C108F
:104DB0001400142301200B6070471C2302200B6099
:104DC0007047202303200B607047302304200B60C2
:104DD0007047402305200B6070470020704700BFDC
:104DE0000000C07F2DE9F04F97B0DDF880900546B8
:104DF0000C4616461F46DDF88880B9F1000F02D137
:104E00006FF0860410E0B8F1000FF9D00028F7D059
:104E10002022002106A838F05BFC06A828F0E9F95A
:104E2000824628B16FF09204204617B0BDE8F08F9B
:104E3000424B2340B3F1607F3BD1059005A920464A
:104E4000FFF7A4FF0246002874D0059BC4F3054475
:104E50009C42D5D804B10594DDF814B0219B9B4544
:104E600065D820230EAC29460293CDE90074334661
:104E700006A8FEF715FA0546C0B95A462146484627
:104E800038F031FC0023C8F800B004F80A300AF109
:104E9000010ABAF1200FF8D1212D41D16FF086041B
:104EA00006A828F0B0F90028BED0BBE74FF0000BF1
:104EB000E8E714F47C1FC4F3054A27D0BAF1100FB9
:104EC0009ED8219B9A4532D81D4B24F47E149C42D7
:104ED00030D100230EAC2946CDE90E33CDE9103395
:104EE00032463B46009406A8FEF734F8054680B9E2
:104EF00052462146484638F0F6FB2B4663550135AD
:104F0000102DFBD1C8F800A00024C9E74FF0100A0B
:104F1000D7E72128C2D0012806D16FF08B04BFE764
:104F2000012DFAD0002DEFD06FF09204B8E76FF0AA
:104F3000890479E76FF0850476E700BF0000C07F41
:104F40000002C00370B50E461446054610B96FF056
:104F5000860070BD0029FAD03822002138F0B8FB55
:104F6000094B24F47E129A420AD13388B3F5105FBC
:104F700006D1C4F30543102BE9D800202C60E8E7E4
:104F80006FF08500E5E700BF0002C003F0B50F46F3
:104F900016461D4604468BB088B302B97BBB20225F
:104FA000002102A838F094FB02A828F022F920B1D1
:104FB0006FF0920420460BB0F0BD2368114A23F431
:104FC0007E13934215D135B9002402A828F01BF9AD
:104FD0000028EFD0ECE733463A46009502A9201DA1
:104FE000FEF79AF8012807D00028EDD06FF0920460
:104FF000EBE76FF08804E8E76FF08B04E5E76FF00C
:105000008604D7E70002C0032DE9F0418CB0884642
:1050100016461D460446129F002840D0002A3ED066
:10502000002B3CD0002F3AD0102B036828BF10254E
:1050300013F47C1FC3F3054202D0954228BF1546E6
:105040001A4A23F47E1393422CD12022002104A873
:1050500038F03EFB002304A8CDE90033CDE902334C
:1050600028F0C7F840B96B46424604A9201DFDF759
:10507000CFFF30B100233B606FF092000CB0BDE871
:10508000F08104A828F0BFF804460028F2D12A468F
:105090006946304638F027FB20463D60EEE76FF06A
:1050A0008600EBE76FF08800E8E700BF0002C0036E
:1050B0002DE9F7430A9C0E4690469946054668B38B
:1050C00061B35AB3294FB8220021274038F000FBC2
:1050D000B7F1607F2BD13388B3F5885F1ED10023F1
:1050E000204601A90193FFF751FED0B1019B202B6F
:1050F00017D8C5F880402B464A4641463046FFF750
:1051000037FD044678B97388B7F1607F4FEAD30260
:10511000EA6716D1203BB3F5F47F1AD36FF086040B
:1051200001E06FF08504204603B0BDE8F08322461D
:10513000314605F18000FFF705FF04460028DAD06C
:10514000F1E7A2F110011029E8D8094BCB40DB07A9
:10515000E4D56B691C329342E0D305F12003184675
:10516000296938F0C0FA2861DDE700BF0000C07F80
:10517000010101001FB50C46134600B301B9F2B995
:10518000D0F88010114A0A40B2F1607F0FD1D0F8F8
:10519000A420BAB900F1A40202922022019200F1E7
:1051A000840200922246FFF71DFE04B010BD0146A6
:1051B0002246803004B0BDE81040FFF7E7BE6FF034
:1051C0008600F2E76FF08800EFE700BF0000C07FC5
:1051D00037B504461D46084611460CB300B3FAB174
:1051E000F3B1D4F88020134B1340B3F1607F0ED19C
:1051F000D4F8A420BAB18A4218D804F1840138F056
:1052000072FA0020D4F8A4302B6003B030BD0B46F6
:1052100002462146009504F18000FFF7F5FEF4E711
:105220006FF08600F1E76FF08800EEE76FF089001D
:10523000EBE700BF0000C07F2DE9F0478AB01746BA
:10524000DDE9129498460E4609B9002A3BD1B8F11F
:10525000000F0CD1B9F1000F35D1A4B31B4B98420C
:1052600012D0043398420FD06FF0850010E054B391
:10527000164B98420FD004339842F5D120234FF0BB
:10528000030A994523600AD200236FF08900236046
:105290000AB0BDE8F08714234FF0010AF1E702A835
:1052A00027F0A7FF054610B16FF09200F0E73B46EC
:1052B00032465146CDE9008902A8FEF7E3F90028FD
:1052C000E6D02560F0E76FF08600E1E70500000218
:1052D00030B50D46044689B000B3031DD422002129
:1052E000184638F0F5F90F4A954206D00432954237
:1052F0000ED06FF0850009B030BD012269462270E2
:10530000FEF7F8F8002814BF6FF092000020F2E7D3
:10531000032269462270FEF707F9F3E76FF0860073
:10532000E9E700BF050000020023C36001F1380374
:10533000036120230A6843618B6D0B4922F47E12BE
:105340008A42436003D001F580718A4208D1102B54
:1053500001D0182B02D1036000207047202BFAD017
:105360006FF08800704700BF0001C0032DE9FF47C0
:10537000DDF830900F4615461E46044690B189B1BF
:1053800002B97BB94FF4AE720021204638F0A0F983
:10539000554B09EA0303B3F1607F6FD13B88B3F546
:1053A000885F02D06FF0860033E0504B5FFA89F8D7
:1053B00048F0007898452FD008F17E43043B0F2B2E
:1053C0002CD84B4AD35CC9F305429A42EAD804F17F
:1053D000040A41465046FFF77BFFD0B9798808F1AF
:1053E0007E430A3B022B4FEAD10234BF802740277D
:1053F000B2420392D6D8BA4204F1DC0610D903AB0C
:10540000019380232946009340463346FFF714FF5B
:1054100060B104B0BDE8F0871023D4E70023D2E7E1
:10542000072903D92946304638F05DF904F1DB0538
:105430002B46039A02F1DB012144994218D102F173
:10544000DC003621BA1A204438F042F93A46314697
:10545000504628F0EAFF0028DBD12F4415F8013F21
:1054600083F06A03BD422B70F8D1C4F80090D0E7F6
:1054700013F8010F80F036001870DEE74A4639460F
:105480002046FFF75FFD0028C3D17B88DB08182B7F
:10549000A3650FD0202B1AD0102B83D10F2E81D9CA
:1054A000383405F1100355F8042B9D4244F8042BC1
:1054B000F9D1AEE7172E7FF675AF383405F1180332
:1054C00055F8042B9D4244F8042BF9D1A1E71F2E77
:1054D0007FF668AF383405F1200355F8042B9D4260
:1054E00044F8042BF9D194E70000C07F03000002C8
:1054F000ECFB030870B50D461646044688B008B3A9
:1055000001B9FAB92268114B1340B3F1607F07D19A
:1055100032462946201D08B0BDE8704028F085BFFE
:1055200000212022684638F0D3F821466846FFF76C
:10553000FBFE28B933462A4669462046FFF726FD7A
:1055400008B070BD6FF08600FAE700BF0000C07FB2
:105550002DE9F0470E46174698460546B4B0002898
:105560006ED000296CD0002A6AD0002B68D0036866
:10557000354A1A40B2F1607F4CD100225FFA83F9BC
:1055800049F0007909F17E430A3B012B03923BD994
:1055900000F1DC0C634604AC00F58E7E22461868F0
:1055A0005968083303C273451446F7D1802200219D
:1055B00060460DF10C0A38F08BF85346802214A98E
:1055C000281D28F04EFF0446D0B9C023039A00934B
:1055D00004AB19464846CDF804A04032FFF72CFE34
:1055E000044668B96D8815F03F0508BF039DBD42AC
:1055F0000DD82A46304604A938F075F8C8F800508E
:10560000204634B0BDE8F0876FF08804F8E76FF00B
:105610008904F5E72022002104A838F059F829462A
:1056200004A8FFF781FE04460028E9D13B46324634
:105630002846CDF8008004A9FFF7E6FC0446DFE722
:105640006FF08604DCE700BF0000C07F30B5094D75
:1056500087B001AC0FCD0FC42B6801A823602C23A9
:105660008DF80530FCF7D6FB3220FCF711FC00204A
:1056700007B030BDFCFB0308012208B5034B1A70CC
:1056800029F057F9024B186008BD00BF653B0020A8
:105690004426002010B501F011F8044627F041FC23
:1056A000844207D929F053F920B10122024B186036
:1056B000024B1A7010BD00BF44260020653B00203D
:1056C000F8B51C4C2378D3B129F033F91A4B1B4D94
:1056D0001B68C01A012838BF0120286000F0EEFFC7
:1056E0004FF416735843164B00F5742000F23F2018
:1056F000B0FBF3F02968814202D900232370F8BD82
:10570000104D114E2B78114F56F8232046F82310D8
:10571000501A0A213A680133121A3A600932B2FB70
:10572000F1F20B48DBB20260B3FBF1F201FB123382
:105730002B70E2E7653B0020442600207426002001
:1057400040420F00663B00204C26002048260020E7
:1057500078260020014B1868704700BF782600208B
:10576000044B9A6D12F0050F02D10028F9D1704751
:10577000012070470040005A154B10B51C6F14F003
:1057800004020FD003F500531A6708229A62FFF74C
:1057900081FF00F0E3FC00F0C3FC012001F0A0F861
:1057A00029F0D7F8E30706D501220A4B1A67FFF75D
:1057B00087FF00F0B5FC14F000521CBF054B1A67C0
:1057C000002CBEBF4FF00042024B1A6710BD00BF55
:1057D0000040005A0060005A10B5044627F048FC0B
:1057E000024B1C6027F048FC002010BD7C260020E6
:1057F00010B527F03DFC034B1C6827F03DFC20460C
:1058000010BD00BF7C26002030B51446054687B089
:10581000104628F0DFFE6369024683423CBFD4E9AC
:1058200003315B181B1A7BB10F49049403910021CB
:10583000CDE90131012300932846D4E9001327F074
:1058400091FB002007B030BD0122627694F82D2034
:10585000002AF6D084F835301321E36920469847B2
:105860002046636A9847ECE7095800082DE9F0479D
:1058700088B004460F461646984627F000FC81463D
:10588000002E7AD0237E03F0FF02002B00F0A280CE
:10589000204628F09FFE6569A84205D1637ED4E9C1
:1058A000033213445D1B01E0F9D9451BB54228BF03
:1058B000354627F0E4FB94F82D308246002B6DD15D
:1058C0002A463846616937F00EFF63692E462B443D
:1058D000636121E0037803F0FD0111295BD1216BA5
:1058E000814205D1A3F111014B424B4184F8343080
:1058F000013E6369216B01328B4203F1010308BF52
:105900002363636195426069E4D1D4E90323216B89
:105910001344994200D122630025D4E9032361692D
:105920001344994208BF6261207A6576FBF7EEFB6B
:10593000204628F04FFE6369834232D1257694F8E1
:105940002D30E568656103B125632046636A984799
:10595000214B049403930023029323692A46019365
:105960000123009363682168207A27F0FBFA207AEC
:10597000FBF7ECFB504627F088FB4846C8F8006070
:1059800027F083FBD8F80030002B0CBF1B20002031
:1059900008B0BDE8F08707F8013BAAE72E460022D1
:1059A000B0E70123207A23760DF11E01FBF736FCC8
:1059B0009DF81E30002BDAD00DF11F01207AFBF785
:1059C00005FC9DF81F100029D1D12246207AFFF74F
:1059D0001BFFCCE71646D0E709580008002807DB74
:1059E00001234109034A00F01F00834042F821309F
:1059F000704700BF00E100E0002808DB01224309F6
:105A0000034900F01F008240603341F823207047B3
:105A100000E100E070B504460568FFF7E9FE844246
:105A200002D10020FFF7D8FE95F936603046FFF727
:105A3000E3FF002E0CDB01221949730906F01F0653
:105A4000B240203341F82320BFF34F8FBFF36F8F55
:105A500095F937603046FFF7CFFF002E0CDB0122AF
:105A60000F49730906F01F06B240203341F8232086
:105A7000BFF34F8FBFF36F8F287AFBF787FB287A2E
:105A8000FBF7EAFAFBF7C6FA00232846C4E900331D
:105A9000C4E90433A360AB6ABDE87040184700BF97
:105AA00000E100E02DE9F0430C461546064687B0BC
:105AB0004022002120461F4637F00AFE95E80300E9
:105AC00000232A692376EB6884E80300C4E90423F1
:105AD0002A7DE36084F82C20AA7D2363012384F8C7
