:1000000000120020ED0400004FD902004FD9020079
:10001000390003004FD902004FD902004FD9020026
:100020004FD902004FD902004FD902004FD9020028
:100030004FD90200D8070400492D03004FD9020010
:100040004FD902004FD902004FD9020075070000B6
:100050004FD902004FD902004FD902004FD90200F8
:100060004FD902004FD902004FD902004FD90200E8
:100070001D0403004FD902004FD902004FD90200DE
:100080004FD902004FD902004FD902004FD90200C8
:100090004FD902004FD902004FD902004FD90200B8
:1000A0004FD902004FD902004FD902004FD90200A8
:1000B0004FD902005DB802004FD902009DC2020074
:1000C000DBF90300D7F903008DBA0200E7F903005A
:1000D000DFF9030075C20200E3F90300DDC202008C
:1000E000719C0200359E02004DC302004FD90200F0
:1000F0004FD902004FD902004FD902004FD9020058
:100100004FD902004FD902004FD902004FD9020047
:100110004FD902004FD902004FD902004FD9020037
:100120004FD902004FD902004FD902004FD9020027
:100130004FD902004FD902004FD902004FD9020017
:10014000002370B5404C05468AB0E36318B10088BF
:1001500023600EF023FD3D483EF0A7FF3C4E3D4B93
:10016000304633603C4B736035F0CCFA00213046AA
:1001700025F056FD32A3D3E90023A062C4E906238B
:1001800035F0CBFAD4E9062319431043C4E906013C
:10019000CDE900014FF0FF334FF0FF32A06A3EF08F
:1001A000FFFF02224FF0FF31A06A3EF0FEFF012068
:1001B0000EF076FA4FF4007300222849A06A3FF04F
:1001C00045F8B0F5007F38D100239422CDE90733FC
:1001D00009933C23CDE9033205939623A06A03A932
:1001E000069325F03BFE35B3287C0EF08FFE0546C6
:1001F000F0B9A06A3FF008F90EF036FE0EF032FAC0
:1002000020B14FF4807000210BF0D0FA0EF03AFAD2
:1002100020B14FF4006000210BF0C8FA35F041FB2B
:10022000012025F051FD0E4A0E49A06A35F068FA0A
:1002300028460AB070BDFF20D7E70725F8E700BFC2
:100240000DD501552000000080180020690345EC01
:10025000702D002025E50000802D0020702B00204F
:10026000A9560300E95603000348044B834202D019
:10027000034B03B1184770470C1800200C180020DE
:1002800000000000064B0749C91A891048BF013118
:10029000491003D0044B0BB101481847704700BF09
:1002A0000C1800200C1800200000000010B5064CAF
:1002B000237843B9FFF7D8FF044B13B10448AFF3D9
:1002C00000800123237010BD7C3600200000000058
:1002D0009060040008B5054B1BB105490548AFF314
:1002E0000080BDE80840FFF7CDBF00BF0000000060
:1002F000181E002090600400A3F5803A704700BFEC
:10030000174B002B08BF134B9D46FFF7F5FF00214D
:100310008B460F461348144A121A3FF0B8FB0E4B97
:10032000002B00D098470D4B002B00D098470020A1
:10033000002104000D000D48002802D00C48AFF346
:1003400000802CF0F7FA2000290009F063F82CF067
:1003500019FA00BF000008000000000000000000C3
:10036000001200200C18002050380020000000006F
:100370000000000008B501F09BF82DF004FC2A4BAA
:100380001B6F23F00703284A43F0030313672DF084
:1003900007FC264B9B6A03F00203002B05D1234B7D
:1003A00003F500531A46012393621F4BD3F8203103
:1003B00023F003031C4A43F00203C2F820311A4B16
:1003C000D3F8243123F00703174A43F00203C2F89D
:1003D0002431154BD3F8403123F00303124A43F084
:1003E0000203C2F84031104BD3F8603123F003030D
:1003F0000D4A43F00203C2F860310B4BD3F8403290
:1004000023F00303084A43F00203C2F84032064BCC
:10041000D3F8003223F00703034A43F00203C2F883
:1004200000320023184608BD0080005000C0005074
:1004300000B585B00390039B1B6823F47F4323F032
:1004400007030B4A93420ED114F0A8FB002301933B
:1004500001230093002346F2676240F2FF2100204F
:1004600014F0BAFB00E000BF00BF05B05DF804FB6C
:10047000A000010000B583B00190019B1B6823F42C
:100480007F4323F007030C4A934203D00B4A934265
:1004900008D00CE0019B1B79002B07D1032014F03E
:1004A00089FB03E0002036F0F2FA00E000BF00BF55
:1004B00003B05DF804FB00BFA8001400A800140AF4
:1004C00000B583B0064A074BD31A9B100193019ADB
:1004D000054904482DF03DFA00BF03B05DF804FB68
:1004E000B0660400B06604005038002000B585B046
:1004F00000F080F8FFF7E4FF1F4B039319E000239F
:1005000002930EE0039B1A68029B9B001A44039B14
:100510005968029B9B000B4412681A60029B0133CE
:100520000293039B9B68029A9A42EBD3039B0C3382
:100530000393039B114A9342E1D3114B019314E0BF
:100540000023009309E0019B1A68009B9B00134461
:1005500000221A60009B01330093019B5B68009AA4
:100560009A42F0D3019B08330193019B054A9342C1
:10057000E6D3FFF7C5FE00BF98600400A460040046
:10058000A4600400A460040082B003468DF8073024
:100590009DF90730002B0CDB9DF8073003F01F029C
:1005A00005499DF907305B09012000FA02F241F884
:1005B000232000BF02B0704700E100E082B0034694
:1005C0008DF807309DF90730002B0DDB9DF80730C3
:1005D00003F01F0206499DF907305B09012000FA6C
:1005E00002F2603341F8232000BF02B0704700BF21
:1005F00000E100E008B51E4B1E4A9A601C4BD3F880
:1006000088301B4A43F47003C2F888301A4B03F554
:1006100080531A464FF400439366184B03F500537A
:100620001A464FF0FF331366144B03F500531A4676
:100630004FF6DF735366124B02221A60BFF34F8FDF
:1006400000BFBFF36F8F00BF0320FFF7B7FF0B4B57
:1006500003F500531A464FF44033D3600320FFF7ED
:1006600093FF064B4FF440321A6100BF08BD00BF34
:1006700000ED00E000000000008000500080004419
:10068000D0ED00E0014B1B68184670476412002053
:1006900000B583B0002301930E4B1B6F03F00703DB
:1006A000032B09D0032B0FD8012B09D0022B0BD120
:1006B000FFF7E8FF019008E0074B1B68019304E097
:1006C000064B019301E0FFE7FDE7019B184603B0ED
:1006D0005DF804FB008000505C120020002D310109
:1006E00000B583B0FFF7D4FF01900A4B1B6F1B0BC3
:1006F00003F00F030093009B0133019AB2FBF3F365
:100700000193054A019B1360019B184603B05DF8F5
:1007100004FB00BF0080005068120020014B184607
:10072000704700BF00B4C404014B1B6818467047F3
:100730005C120020014B1846704700BF002D3101AC
:10074000014B1B681846704760120020BFF34F8FA3
:1007500000BF064BDB6803F4E0620449044B13431B
:10076000CB60BFF34F8F00BF00BFFDE700ED00E09F
:100770000400FA0500B587B0314B1B78002B01D17E
:1007800000BFFDE701AB00221A605A602D4B0593B4
:100790002D4B186801AA0823059924F077FF0490CF
:1007A000049B002B1ED1294BD3F840311F2B09D9B4
:1007B000264BD3F84031203B01229A40029B134341
:1007C000029307E0214BD3F8403101229A40019B6C
:1007D000134301931C4B186801AA0823059924F0C0
:1007E0000BFF1FE0049B1A4A93421BD1174BD3F80F
:1007F00040311F2B08D9154BD3F84031203B012243
:1008000002FA03F3029306E0104BD3F840310122C1
:1008100002FA03F301930C4B186801AA0823059907
:1008200024F0EAFE4FF000530393039B40F20B22A7
:100830001A80039B4FF20F025A80FFF787FF00BF19
:100840007D360020007108007012002000800044F6
:100850000BE000F084B001900B4B1A68019B13442D
:100860000A4A934202D94FF0FF3309E0064B1B6856
:100870000393054B1A68019B1344034A1360039BBF
:10088000184604B0704700BF6C12002000800020A2
:1008900008B5054B1B68054A12681146184624F036
:1008A000D1FD0346184608BD7012002090120020AA
:1008B00084B003468DF807309DF90730B3F1FF3F50
:1008C00004D0002B05D10023039305E0044B0393D0
:1008D00002E0044B039300BF039B184604B070472B
:1008E00021E000F024E000F000B58BB0039002910D
:1008F0000192029B0893039B0793019B9B00069325
:10090000069A089907983FF0E7FD03468DF81730DF
:100910009DF917301846FFF7CBFF0990099B002B74
:1009200009D1069A089907983FF087F80346002BEB
:1009300001D0034B0993099B18460BB05DF804FBEB
:1009400010E000F000B585B0019001983FF0C8FDBF
:1009500003468DF80B309DF90B301846FFF7A8FFC2
:100960000390039B002B0ED101F0CEFC03461946E9
:1009700001982DF02FF8034683F00103DBB2002B22
:1009800001D0034B0393039B184605B05DF804FBAD
:100990000EE000F008B52DF05BF90346014A136044
:1009A00000BF08BD7024002008B5034B1B68184623
:1009B0002DF05AF900BF08BD7024002008B500BF13
:1009C000042104482DF0B8F80346002BF8D100BFED
:1009D00000BF08BD8440005008B5FFF7EFFF044B8F
:1009E000D3F884309B0903F00303DBB2184608BD3B
:1009F00000400050054BDB6903F48033002B14BF2B
:100A000001230023DBB21846704700BF00000350EB
:100A1000024B0022DA6300BF704700BF00000350A2
:100A2000024B41F67132DA6300BF70470000035099
:100A3000014B9B68184670470000035082B001903C
:100A4000024A019B936000BF02B070470000035050
:100A500084B0019000230393019BB3F5607F21D004
:100A6000019BB3F5607F34D8019BB3F5207F29D07B
:100A7000019BB3F5207F2CD8019BB3F5007F19D0E3
:100A8000019BB3F5007F24D8019B002B03D0019B71
:100A9000B3F5C07F1DD1124B1B6F1B0B03F00F036F
:100AA000039317E00E4BD3F880301B0903F00303C8
:100AB00003930FE00A4BD3F890301B0E03F01F0393
:100AC000039307E0064B1B6F9B0A03F0010303939C
:100AD00000E000BF039B0133184604B0704700BF1D
:100AE0000080005010B582B001900091019BB3F5D9
:100AF000607F49D0019BB3F5607F7CD8019BB3F543
:100B0000207F68D0019BB3F5207F74D8019BB3F59B
:100B1000007F4ED0019BB3F5007F6CD8019B002B6A
:100B200003D0019BB3F5C07F65D1009B012B0AD098
:100B3000009B022B07D0009B042B04D0009B082BAA
:100B400001D0009B102B2DF079F82DF06FF800F0FC
:100B5000D5FE2B4B1B6F23F47042009B013B1B0304
:100B6000274913430B672CF0C8FF0446FFF734FFF7
:100B70000346C3F10203194620462DF028F801F080
:100B80007BF800F0C7FE37E0009B012B04D0009BF0
:100B9000022B01D0009B042B194BD3F8803023F09B
:100BA0003002009B013B1B0115491343C1F8803003
:100BB00022E0009B002B01D0009B202B104BD3F890
:100BC000903023F0F852009B013B1B060C49134365
:100BD000C1F8903010E0009B012B01D0009B022B4C
:100BE000074B1B6F23F48062009B013B9B0204496F
:100BF00013430B6700E000BF00BF02B010BD00BF91
:100C00000080005000B585B001900B468DF8033090
:100C100000230393019B5B09002B0FD0019B5B0911
:100C2000012B02D10D4B039308E0019B5B09022BC2
:100C300002D10B4B039301E00A4B0393019B03F09A
:100C40001F0302939DF803301A46029903982CF073
:100C50005AFF00BF05B05DF804FB00BF6480005080
:100C6000688000506082005010B584B0019000236D
:100C7000039300230293019BB3F5F06F00F0C2824F
:100C8000019BB3F5F06F00F2C382019BB3F5E06FF7
:100C900000F0B282019BB3F5E06F00F2B982019BD4
:100CA000B3F5D06F00F0A282019BB3F5D06F00F2D4
:100CB000AF82019BB3F5C06F00F09282019BB3F548
:100CC000C06F00F2A582019BB3F5B06F00F07C828B
:100CD000019BB3F5B06F00F29B82019BB3F5A06F4F
:100CE00000F06C82019BB3F5A06F00F29182019B32
:100CF000B3F5906F00F05C82019BB3F5906F00F24A
:100D00008782019BB3F5806F00F04C82019BB3F5A5
:100D1000806F00F27D82019BB3F5607F00F033822B
:100D2000019BB3F5607F00F27382019BB3F5407FB6
:100D300000F01C82019BB3F5407F00F26982019BA9
:100D4000B3F5207F00F00682019BB3F5207F00F20F
:100D50005F82019BB3F5007F00F0F081019BB3F54A
:100D6000007F00F25582019BB3F5C07F00F0E18166
:100D7000019BB3F5C07F00F24B82019B002B00F07A
:100D8000D881019BB3F5807F00F24282019B202B2A
:100D9000C0F03E82019B203BE02B00F2398201A291
:100DA00052F823F0331100005511000033110000F8
:100DB00055110000A5110000A5110000A5110000AB
:100DC000A51100005511000055110000C9110000C7
:100DD0006D110000E1110000ED1100006D11000027
:100DE00055110000551100005511000011120000AE
:100DF0001112000011120000111200001112000067
:100E000011120000BD110000B111000055110000C9
:100E1000551100005511000005120000F9110000E5
:100E200055110000111200001112000011120000F3
:100E30001112000011120000111200001112000026
:100E40001112000011120000111200001112000016
:100E500011120000111200003311000011120000E5
:100E6000331100003311000033110000A511000000
:100E700011120000111200001112000011120000E6
:100E800011120000111200001112000011120000D6
:100E900011120000111200001112000011120000C6
:100EA0001112000033110000331100001112000074
:100EB00011120000111200001112000011120000A6
:100EC0001112000011120000111200001112000096
:100ED0001112000011120000111200001112000086
:100EE0001112000011120000111200001112000076
:100EF0001112000011120000111200001112000066
:100F00001112000011120000111200001112000055
:100F10001112000011120000111200001112000045
:100F2000111200002911000011120000111200001E
:100F30001112000011120000111200001112000025
:100F40001112000011120000111200001112000015
:100F50001112000011120000111200001112000005
:100F600011120000111200001112000011120000F5
:100F700011120000111200001112000011120000E5
:100F800011120000111200001112000011120000D5
:100F900011120000111200001112000011120000C5
:100FA00011120000111200001112000011120000B5
:100FB00011120000111200001112000011120000A5
:100FC0001112000011120000111200001112000095
:100FD0001112000011120000111200001112000085
:100FE0001112000011120000111200001112000075
:100FF0001112000011120000111200001112000065
:101000001112000011120000111200001112000054
:101010001112000011120000111200001112000044
:101020001112000011120000111200001112000034
:101030001112000011120000111200001112000024
:101040001112000011120000111200001112000014
:101050001112000011120000111200001112000004
:1010600011120000111200001112000011120000F4
:1010700011120000111200001112000011120000E4
:1010800011120000111200001112000011120000D4
:1010900011120000111200001112000011120000C4
:1010A00011120000111200001112000011120000B4
:1010B00011120000111200001112000011120000A4
:1010C0001112000011120000111200001112000094
:1010D0001112000011120000111200001112000084
:1010E0001112000011120000111200001112000074
:1010F0001112000011120000111200001112000064
:101100001112000011120000111200001112000053
:101110001112000011120000111200001112000043
:1011200011120000D5110000FFF7B2FA0346039335
:101130006FE0FFF7D5FA034603936AE0FFF7A8FADA
:1011400004464FF40070FFF783FC0346B4FBF3F34F
:1011500003935EE0FFF7C4FA04464FF42070FFF7F4
:1011600077FC0346B4FBF3F3039352E0FFF7B8FABE
:1011700004464FF42070FFF76BFC0346B4FBF3F317
:101180005B08039345E002AB002118462CF033FDC9
:10119000029C4FF46070FFF75BFC0346B4FBF3F373
:1011A000039336E003AB0021184600F00BFC30E05F
:1011B00003AB0021184600F01BFB2AE003AB002123
:1011C000184600F06FFB24E003AB0021184600F046
:1011D0001FFD1EE003AB0021184600F0EFFD18E0F4
:1011E00003AB0021184600F02FFC12E003AB0021F6
:1011F000184600F097FD0CE003AB0021184600F004
:1012000055FD06E003AB0021184600F05FFC00E04E
:1012100000BF039B184604B010BD00BF00B585B0E9
:10122000019000230393019BB3F5086F00F0268122
:10123000019BB3F5086F00F23381019BB3F5006F9A
:1012400000F01081019BB3F5006F00F22981019B32
:10125000B3F5F06F00F00081019BB3F5F06F00F281
:101260001F81019BB3F5E06F00F01481019BB3F582
:10127000E06F00F21581019BB3F5D06F00F0F880AC
:10128000019BB3F5D06F00F20B81019BB3F5C06FEA
:1012900000F0DC80019BB3F5C06F00F20181019B7F
:1012A000B3F5B06F00F0C080019BB3F5B06F00F2F2
:1012B000F780019BB3F5A06F00F0E680019BB3F5CA
:1012C000A06F00F2ED80019BB3F5906F00F0CA8033
:1012D000019BB3F5906F00F2E380019BB3F5806F43
:1012E00000F0A880019BB3F5806F00F2D980019BCC
:1012F000B3F5807F00F0A480019BB3F5807F00F2FE
:10130000CF80019B522B69D8019B242BC0F0C88051
:10131000019B243B2E2B00F2C38001A252F823F044
:101320003514000035140000351400003514000099
:10133000A1140000A114000029140000A114000051
:101340004D14000071140000A1140000A11400004D
:10135000A1140000A1140000A1140000A1140000B9
:10136000A1140000A1140000A1140000A1140000A9
:1013700089140000A1140000A1140000A1140000B1
:10138000A11400005914000095140000A1140000DD
:10139000A1140000A1140000A1140000A114000079
:1013A000A1140000A1140000A1140000A114000069
:1013B000A1140000A1140000A1140000A114000059
:1013C000A1140000A1140000A1140000A114000049
:1013D000A1140000A114000035140000019B802B13
:1013E0005ED1324B1B6F03F00703013B032B17D871
:1013F00001A252F823F000BF1B14000009140000E2
:101400000F14000015140000052303930BE00323C1
:10141000039308E00723039305E00223039302E00C
:101420000023039300BF3CE003AB1946002000F00B
:10143000EFFB36E003AB1946002000F0C3FA30E0C2
:1014400003AB1946002000F0B9FC2AE003AB1946B3
:10145000002000F0F9FA24E003AB1946002000F068
:1014600035FB1EE003AB1946002000F0C1F918E07F
:1014700003AB1946002000F055FC12E003AB1946FF
:10148000002000F05DFA0CE003AB1946002000F0EC
:1014900009FA06E003AB1946002000F007FC00E063
:1014A00000BF039B184605B05DF804FB00800050A8
:1014B000074B03F580531A464FF400235366054B40
:1014C00003F580531A460123936200BF704700BFA3
:1014D0000080005000C0005000B585B00190019818
:1014E000FFF79CFE0290029B082B07D0029B082B63
:1014F00020D3029B093B012B1CD804E0134B1B8813
:10150000ADF80E301BE0124B03F580531A464FF432
:10151000001353660F4B5B6A03F00103002B04D0EA
:101520004FF4FA73ADF80E3009E04FF6FF73ADF8E3
:101530000E3004E04FF6FF73ADF80E3000BFBDF87B
:101540000E30184605B05DF804FB00BF941400206F
:10155000008000500040025000B585B00190354B2E
:101560009B6A0293019BFF2B01D921235DE0314B44
:101570009B6D03F48033002B05D02E4B03F5805375
:101580001A46012393622B4B03F580531A4602231C
:101590009362284B9B6D03F48033002B06D000BF71
:1015A000244B9B6D03F00203002BF9D0214B03F574
:1015B00080531A460223136500BF1E4B9B6D03F038
:1015C0008043002BF9D100F039F803461A46019BFD
:1015D00013440393039B002B02DA0023039304E0DC
:1015E000039BFF2B01DDFF230393124B9B6923F425
:1015F0007F0323F47F43039A12041A43019B1B02C7
:101600009BB20C4913438B61029A02210A482CF0C9
:10161000A0FA084B9B6D03F48033002B04D0029A90
:10162000012105482CF095FA0023184605B05DF815
:1016300004FB00BF00C0005028C00050024B93F9CB
:1016400000301846704700BF7E36002000B583B0DA
:101650002A4B9B6A0193294B03F580531A460123B9
:10166000936200BF254B9B6D03F00303032BF9D15D
:10167000224B03F580531A46022393621F4B03F556
:1016800080531A460223136500BF1C4B9B6D03F069
:101690008043002BF9D100BF184B9A6D184B1340B3
:1016A000174A9342F8D1154B03F580531A4601238C
:1016B000136500BF114B9B6D03F00203022BF9D0A1
:1016C00000BF0E4B9B6D03F00203002BF9D00B4BB8
:1016D00003F580531A460223136500BF074B9B6D29
:1016E00003F00203002BF9D0019A032105482CF0E6
:1016F00030FA00BF03B05DF804FB00BF00C000502B
:101700000300010028C0005084B001904F230393D0
:10171000019B5B788DF80B309DF80B20039B934267
:1017200028BF13468DF80A30284B03F580531A461C
:101730004FF480035366264B4FF4D1525A62244B28
:1017400003F580531A4602235360214B03F50053DF
:101750001A460123536000BF1D4B1B6903F48033FD
:10176000002BF9D1019B1B781A029DF80A30184909
:1017700013434B61019B5B681A02019B9B681B0131
:101780001A43019B1B7B5B001343019A527B11465A
:101790000F4A0B439360019B9B7B5A01019BDB7BB0
:1017A0001B011A43019B1B7C5B001343019A527C73
:1017B0001A43074B5A60019B9B7C002B03D0044BC0
:1017C0006FF4D1525A6200BF04B0704700800050DD
:1017D0000000025082B00346ADF80630034ABDF85F
:1017E0000630138000BF02B0704700BF9414002081
:1017F00000B585B00190009100230393284BD3F8E6
:10180000243103F00703062B37D801A252F823F046
:10181000751800002D180000451800005D18000024
:10182000691800003918000051180000FEF72AFF5F
:1018300003900523029323E0FEF724FF0390062381
:1018400002931DE0FEF770FF03900323029317E05D
:10185000FEF76AFF03900423029311E0FEF76AFF8C
:101860000390022302930BE02CF08BF803900723E4
:10187000029305E00123029302E00023029300BFDC
:10188000019B002B02D0019B039A1A60009B002B46
:1018900002D0009B029A1A6000BF05B05DF804FBFD
:1018A0000080005000B583B001900091124BD3F836
:1018B000203203F00303012B02D0022B05D009E0F4
:1018C0000099019800F07EF811E00099019800F06D
:1018D000BBF80CE0019B002B02D0019B00221A6098
:1018E000009B002B02D0009B00221A6000BF00BFAB
:1018F00003B05DF804FB00BF00800050044B03F50B
:1019000080531A464FF48033136700BF704700BFFF
:101910000080005008B58020FFF7A6F90346064A6C
:10192000934206D8054B03F500531A464FF4803313
:10193000136700BF08BD00BF005A6202008000505C
:1019400000B585B001900091002303931C4BD3F8A0
:10195000003103F00303032B1FD801A252F823F038
:1019600095190000711900007D1900008919000007
:10197000FEF7DAFE03900323029311E0FEF7E0FE88
:101980000390082302930BE02BF0FBFF0390072347
:10199000029305E00123029302E00023029300BFBB
:1019A000019B002B02D0019B039A1A60009B002B25
:1019B00002D0009B029A1A6000BF05B05DF804FBDC
:1019C0000080005000B585B0019000910023039382
:1019D0001C4BD3F8203103F00303032B1FD801A2C3
:1019E00052F823F0191A0000F5190000011A00003E
:1019F0000D1A0000FEF746FE03900523029311E046
:101A0000FEF792FE0390032302930BE0FEF792FE93
:101A100003900223029305E00123029302E00023D6
:101A2000029300BF019B002B02D0019B039A1A6016
:101A3000009B002B02D0009B029A1A6000BF05B0E9
:101A40005DF804FB0080005000B585B00190009166
:101A5000002303931C4BD3F8403103F00303032B03
:101A60001FD801A252F823F09D1A0000791A000035
:101A7000851A0000911A00002BF086FF03900923BD
:101A8000029311E0FEF75CFE0390082302930BE043
:101A90002BF07EFF03900B23029305E001230293BA
:101AA00002E00023029300BF019B002B02D0019BA8
:101AB000039A1A60009B002B02D0009B029A1A60C6
:101AC00000BF05B05DF804FB0080005000B585B094
:101AD00001900091002303931C4BD3F8603103F075
:101AE0000303032B1FD801A252F823F0211B00008F
:101AF000FD1A0000091B0000151B00002BF044FF1D
:101B000003900923029311E0FEF71AFE03900823C5
:101B100002930BE02BF03CFF03900B23029305E0B4
:101B20000123029302E00023029300BF019B002BDC
:101B300002D0019B039A1A60009B002B02D0009BED
:101B4000029A1A6000BF05B05DF804FB00800050E7
:101B500084B0019000914FF440130393009B002B3D
:101B60000AD1019B0D4A934203D94FF4801303938A
:101B70000FE0002303930CE0009B002B09DD019B89
:101B8000064A934203D94FF48013039301E00023E4
:101B90000393039B184604B0704700BF005A6202CB
:101BA00000B585B001900091184B03F580531A469B
:101BB0004FF4003393660020FEF74AFF0246019B74
:101BC00002FB03F30193FEF715FF03468DF80F3078
:101BD000FEF726FFFEF72CFF034623F44013029383
:101BE00000990198FFF7B4FF0246029B134302934A
:101BF0000298FEF723FF9DF80F30002B01D0FEF76F
:101C000007FF00BF05B05DF804FB00BF0080005077
:101C100000B585B00190009100230293154BD3F8D5
:101C2000803103F00303012B02D0022B08D00EE019
:101C300002AB00211846FFF7C5FE0F23039309E00E
:101C4000FEF778FD034602930223039302E000238C
:101C5000039300BF019B002B02D0029A019B1A60E4
:101C6000009B002B02D0009B039A1A6000BF05B0B6
:101C70005DF804FB0080005000B583B0022301939F
:101C80004FF4C070FEF7F0FF0346074A934201D8B5
:101C90000123019301994FF42070FEF723FF00BF49
:101CA00003B05DF804FB00BF80F0FA0200B585B018
:101CB0000190009100230393194BD3F8403203F0B5
:101CC0000303032B12D0032B16D8012B02D0022BB7
:101CD00006D011E02BF058FE0390092302930EE08A
:101CE000FEF72EFD03900823029308E02BF050FE30
:101CF00003900B23029302E00023029300BF019B99
:101D0000002B02D0019B039A1A60009B002B02D08B
:101D1000009B029A1A6000BF05B05DF804FB00BF8B
:101D20000080005000B585B001900091002303931E
:101D3000214BD3F8003203F00703042B29D801A26A
:101D400052F823F08D1D0000591D0000651D000094
:101D5000711D00007D1D00002BF016FE039009236D
:101D6000029319E0FEF7ECFC03900823029313E0C2
:101D70002BF00EFE03900B2302930DE0FEF7B0FC58
:101D800003469B0A03930E23029305E0012302936B
:101D900002E00023029300BF019B002B02D0019BB5
:101DA000039A1A60009B002B02D0009B029A1A60D3
:101DB00000BF05B05DF804FB0080005000B585B0A1
:101DC0000190009100230393114B1B6803F004035F
:101DD000002B06D0FEF784FC034603930C230293EA
:101DE00005E002AA03AB11461846FFF72DFE019B42
:101DF000002B02D0039A019B1A60009B002B02D09B
:101E0000029A009B1A6000BF05B05DF804FB00BF9A
:101E100010E000E0054B5B68C3F30803002B14BF20
:101E200001230023DBB21846704700BF00ED00E03D
:101E300008B500BF042104482BF03BFF0346002BEC
:101E4000F8D100BF00BF08BD8440005008B5FFF7BF
:101E5000EFFF044BD3F884309B0903F00303DBB29C
:101E6000184608BD0040005000B585B003468DF807
:101E700007309DF80730002B13D12D4B00221A603C
:101E80002C4B03F580531A464FF4003353662A4B0C
:101E90005B68012B47D1274BD3F80031244A1360EC
:101EA00041E0234B1B68002B3DD0234B5B68012B8B
:101EB00039D0204A1E4B1B68C2F800318020FFF742
:101EC000ADF90346052B28D14FF4C070FEF7C0FDD5
:101ED0000390039B012B04D102214FF4C070FEF745
:101EE00001FE154B03F500531A4607231361124BED
:101EF00003F580531A460123536000BF0E4B1B6944
:101F000003F00103002BF9D0039B012B0BD101211E
:101F10004FF4C070FEF7E6FD05E0074B03F5805374
:101F20001A460123536000BF05B05DF804FB00BFF3
:101F3000282500200080005000C0015000B583B06B
:101F40000190019B1A78054B1A700121002000F0C6
:101F500019F800BF03B05DF804FB00BF2425002082
:101F600082B00190064B5B6F23F44072019B5B785B
:101F70001B02034913434B6700BF02B0704700BF09
:101F80000040005000B585B001900B468DF803303D
:101F9000019B002B03D1FEF77BFB039001E0019B2B
:101FA00003930D4B1B78002B0AD0039B0B4A9342E3
:101FB00006D89DF803301946012000F011F806E01C
:101FC0009DF803301946022000F00AF800BF00BF58
:101FD00005B05DF804FB00BF24250020005A620212
:101FE00010B586B003460A468DF8073013468DF8C3
:101FF0000630FFF72BFF03461A469DF80730934241
:1020000040D0FEF745FB0590059B04939DF80730F3
:10201000012B03D1012105982BF0D9FD2BF018FEDF
:1020200003901A4B03F500531A464FF000735366A2
:102030009DF8073018462BF05DFE144C9DF80730D4
:1020400018462BF043FE0346236702E00F4BD3F8FC
:1020500084300E4B5B6E03F00073002B06D10B4BEC
:10206000D3F8843003F02003002BEFD003982BF03B
:10207000FBFD9DF80730022B05D1002105982BF0C0
:10208000A6FD00E000BF06B010BD00BF004000503C
:1020900082B0034600918DF807309DF80730002B81
:1020A0000AD09DF80730012B06D09DF80730022B8F
:1020B00002D09DF80730032B08489DF80720012126
:1020C000009B994013465B0013441B01034403F536
:1020D00000531033196000BF02B0704700C00350B6
:1020E00082B0034600918DF807309DF80730002B31
:1020F0000AD09DF80730012B06D09DF80730022B3F
:1021000002D09DF80730032B08489DF807200121D5
:10211000009B994013465B0013441B01034403F5E5
:1021200080531033196000BF02B0704700C00350E5
:10213000094B03F580531A464FF400339366074B5F
:1021400041F67132DA63054B03F500531A46012359
:10215000D36000BF704700BF0080005000000350F4
:102160000A4B41F67132DA63084B03F500531A4605
:102170000123D360054B0022DA63054B03F50053BE
:102180001A464FF40033936600BF704700000350B7
:102190000080005084B001900091009B1B781A468B
:1021A000009B5B789B001A43009BDB785B011A4322
:1021B000009B1B791B014FF0B04042EA0301019ADA
:1021C00013465B0013449B00034430331960009BAB
:1021D0001B78012B09D1064B0393009B9978019B37
:1021E0009B00039A13440A461A6000BF04B070476C
:1021F000E8800350014B5B691846704700C00750E8
:1022000000B585B00190114B03F580531A464FF489
:1022100080335366FFF7EEFF0390039B9B09DBB20D
:1022200003F03F03DAB2019B9A70039BDBB203F029
:102230003F03DAB2019B5A70039B1B0BDAB2019B7E
:102240001A7000BF05B05DF804FB00BF00800050AD
:1022500000B583B000238DF8073000F067F803461F
:10226000ADF80430BDF80430154AA2FB03239B09E6
:102270009BB24133ADF802304323ADF80230BDF8D4
:102280000230432B0ED0432B10DC412B02D0422BCB
:1022900004D00BE004238DF807300BE005238DF804
:1022A000073007E003238DF8073003E000238DF8A3
:1022B000073000BF9DF80730184603B05DF804FBF7
:1022C000D34D6210F0B482B00E4B9B6C01930D4B5A
:1022D000DB6C00221E4617464FF000024FF0000351
:1022E00033000022019E00273046394642EA0004AE
:1022F00043EA010522462B461046194602B0F0BCBF
:10230000704700BF0080E00F82B0074B9B68DBB2D4
:102310000193019B0A3303F01F03012202FA03F326
:10232000184602B0704700BF0080E00F024B5B68A8
:102330009BB21846704700BF0080E00F30B583B0F5
:10234000019001983CF066FF064A019B14461D4629
:102350000FCD0FC495E8030084E80300002318465E
:1023600003B030BD2C2500208EB001900B468DF8B7
:1023700003301346ADF80030BDF9003047F6FF7268
:10238000934201D1FF23F7E09DF80330022B00F2C6
:10239000F2809DF803307A4AD35C012B00F2EB8087
:1023A0009DF80330764AD35CDB00764A13440893E9
:1023B000089B9B780793089B1B78012B2BD100234C
:1023C0000D93089BDB781A46079BD31A0C9317E0F2
:1023D0000C9A0D9BD31A5B080C9AD31A0393089B93
:1023E0005A68039B5B001344B3F90030BDF9002029
:1023F0009A4203DA039B013B0C9301E0039B0D938C
:102400000D9A0C9B9A42E3D30C9BDAB2079BDBB28A
:102410001344DBB2B0E0089B5B680693069B002B7D
:1024200001D10023A8E0069BB3F90030BDF90020DC
:102430009A4204DD069B1B88ADF800300AE0069B3B
:10244000B3F90230BDF900209A4203DA069B5B889B
:10245000ADF80030C823ADF82E302823ADF82C306D
:102460000023ADF82A30069B9B88FF2B0DD1BDF8C9
:102470002A3001339BB2ADF82A30069BDB88ADF8D9
:102480002E30069B9B68ADF82C30BDF92E20BDF98F
:102490000030D21ABDF92C3092FBF3F39AB2BDF89A
:1024A0002A3013449BB2ADF82A30089B5B781A4659
:1024B000BDF92A309A4203DDBDF92A30002B05DA36
:1024C000089B5B78013B9BB2ADF82A30BDF92A30FE
:1024D000DB00069A134404330593059B5A68059B59
:1024E000B3F902301946BDF9003001FB03F3134480
:1024F0000493049B002B02DA0023099301E0049B60
:102500000993099B5C33204AA2FB03239B0909938F
:10251000BDF92A309BB201339BB2ADF82A30BDF928
:102520002A30089A5278934209DABDF92A30069A7D
:10253000DB0013449B881A46099B9342C6D9BDF918
:102540002A30013B069ADB0013449B881A46099BFC
:10255000934207D9BDF92A30013B069ADB001344A8
:102560009B880993099A079B9A4201D2079B09937A
:10257000099BDBB200E0002318460EB0704700BF95
:102580004C0804002C250020D34D621088B0019027
:102590000B468DF8033013468DF802309DF803305A
:1025A000022B00F2C1809DF80330614AD35C012BFD
:1025B00000F2BA809DF803305D4AD35CDB005D4ACF
:1025C00013440693069B1B78012B26D1069BDB78D0
:1025D0009DF802209A4203D9069BDB788DF80230E1
:1025E000069B9B789DF80220D31A8DF802309DF847
:1025F0000220069BDB781946069B9B78CB1A9A42F1
:1026000002DD00238DF80230069B5A689DF80230E7
:102610005B001344B3F9003087E0069B5B680593C9
:10262000059B002B01D1444B7FE0059B04330493B1
:10263000069B9B789DF802209A4203D8059BB3F92C
:10264000023072E0069BDB789DF802209A4203D3A9
:10265000059BB3F9003068E000238DF81F30069B1E
:102660005B78013B8DF80F30049B1B88FF2B14D146
:1026700001238DF81F3010E09DF81F300133DB007F
:10268000049A13441A889DF802309BB29A420BD3E5
:102690009DF81F3001338DF81F309DF81F209DF8E5
:1026A0000F309A42E8D300E000BF9DF802304FF4AB
:1026B0007A7203FB02F29DF81F30DB0004990B4491
:1026C0005B68D31A02939DF81F30DB00049A134411
:1026D000B3F90230DA0F13445B101BB21A46029BA7
:1026E00013449DF81F20D20004990A44B2F9022035
:1026F00093FBF2F30293059BB3F900301A46029B59
:10270000934203DD059BB3F900300EE0059BB3F95E
:1027100002301A46029B934203DA059BB3F902305A
:1027200003E0029B1BB200E0034B184608B0704761
:102730004C0804002C2500200080FFFF08B5044849
:10274000FFF7FCFD01203CF069FD00BF08BD00BFA4
:10275000BC080400014B1846704700BF94120020CB
:1027600082B001230193034A019B936000BF02B032
:10277000704700BF0020025C014BDB6818467047C1
:102780000020025C86B00390029101920093002326
:102790000593019B1B0403F47022029B1B0203F4AC
:1027A00070631A43039B03F00F031A43009B1B063D
:1027B00003F0706313430593024A059B136000BF47
:1027C00006B070470020025C00B587B0039002910C
:1027D000019200934FF000430493029B002B03D01F
:1027E000029B013B059301E000230593059BB3F594
:1027F000806F01D301231FE000BF2BF0CAFB03460B
:10280000002BFAD1049A039B13430493059B1A02ED
:102810000B4B1340049A13430493019B1B0703F0D3
:102820008053049A13430493049A009B1343049324
:10283000044A049B53600023184607B05DF804FB6C
:1028400000FF03000020025C014B1B681846704724
:102850000040025C014B1B68184670470410025C84
:10286000014B1B68184670473010025C014B1B6817
:10287000184670470010025C82B00190024A019B2A
:10288000136000BF02B070470810025C82B0019074
:10289000024A019B136000BF02B070474010025C07
:1028A00082B003468DF80730034A9DF80730136065
:1028B00000BF02B0704700BF4410025C82B00190BC
:1028C000024A019B136000BF02B070473410025CE3
:1028D000024B00221A6000BF704700BF0010025C6C
:1028E00008B5FFF7C3FF0346024A43F00103136034
:1028F00000BF08BD0010025C08B5FFF7B7FF034634
:10290000024A23F00103136000BF08BD0010025CFF
:10291000024B43F204021A6000BF70470010025CD1
:1029200008B5FFF7A3FF0346024A43F030031360E4
:1029300000BF08BD0010025C08B5FFF797FF034613
:10294000064A43F480731360FFF790FF0346034A7F
:1029500023F48073136000BF08BD00BF0010025C49
:1029600008B5FFF783FF0346024A43F48063136010
:1029700000BF08BD0010025C00B583B003468DF8AF
:102980000730FFF773FF034623F470229DF80730EA
:102990001B04034913430B6000BF03B05DF804FB45
:1029A0000010025C82B001900A4B1A68019B1A6009
:1029B000094A019B043312681A60084A019B0833D4
:1029C00012681A60064A019B0C3312681A6000BF35
:1029D00002B070471010025C1410025C1810025C08
:1029E0001C10025C82B001900A4A019B1B681360B4
:1029F000019B0433084A1B681360019B0833074A94
:102A00001B681360019B0C33054A1B68136000BFF1
:102A100002B070471010025C1410025C1810025CC7
:102A20001C10025C00B583B0019000BFFFF718FFD7
:102A3000034603F00103002BF8D1034A019B136006
:102A400000BF03B05DF804FB2010025C82B0044BB1
:102A50000193019B01221A6000BF02B0704700BFC2
:102A6000FCFFFF3F00B583B001900091019907483A
:102A70002BF0F8FB009906482BF0F4FB054B0322E2
:102A80001A6000BF03B05DF804FB00BF0000025CE9
:102A90001000025C3400025C82B010B586B001AC5C
:102AA00084E807000993029B0C9A934228BF1346BF
:102AB0000593039B03F08053002B04D0059B033345
:102AC00023F003030593059B23F070430593099BB3
:102AD000194613482BF0C6FB0B9B03F0E042059B05
:102AE0001343104A43F0005313600F4B00221A6047
:102AF000019B19460D482BF0B5FB039B03F0E04208
:102B0000059B13430A4A43F000531360094B00220C
:102B10001A6000BF06B0BDE8104002B0704700BFA9
:102B20000000025C0800025C0C00025C1000025C09
:102B30001800025C3400025C054B3F221A60054B12
:102B400010221A60044B03221A6000BF704700BFB6
:102B50003000025C1C00025C3800025C00BF044BC9
:102B60001B6803F00203002BF9D100BF00BF7047C0
:102B70003C00025C054B1B6803F02403002B01D0D2
:102B8000042300E000231846704700BF2800025CC1
:102B900082B0084B1B680193019B23F47F4323F011
:102BA000EF03002B01D0042300E00023184602B0FD
:102BB000704700BF3C00025C82B001900091019B15
:102BC0005B68202B22D0202B2FD8102B02D0182B63
:102BD0000DD02AE0264B1B6803F08073002B01D137
:102BE000012342E0009B1A68009B1A601FE0204B03
:102BF0001B6803F00073002B01D1012335E0009B1B
:102C00001B6843F00802009B1A6010E0184B1B6819
:102C100003F08063002B01D1012326E0009B1B6899
:102C200043F00402009B1A6001E007231DE0019BB2
:102C30001B68104A934209D1009B1B6843F0400275
:102C4000009B1A60019B00225A600DE0019B1B68EB
:102C5000094A934208D1009B1B6843F08002009B05
:102C60001A60019B00225A600023184602B0704788
:102C70000404025C7F3600208036002000B587B057
:102C80000590049103920A4B1B6803F00103002B8B
:102C900001D1012308E0039B0093049B059A0021C6
:102CA000002000F0EFF80346184607B05DF804FB7B
:102CB0000404025C00B587B00590049103920A4BAE
:102CC0001B6803F00103002B01D1012308E0039BE3
:102CD0000093049B059A0121002000F0D3F80346DD
:102CE000184607B05DF804FB0404025C00B589B027
:102CF00007900691059204930D4B1B6803F00403A3
:102D0000002B01D101230EE00A9B0393049B029345
:102D1000059B0193069B0093079B02220021002044
:102D200000F0FAF80346184609B05DF804FB00BF4E
:102D30000404025C00B589B00790069105920493E3
:102D40000D4B1B6803F00403002B01D101230EE09F
:102D50000A9B0393049B0293059B0193069B00939C
:102D6000079B02220121002000F0D6F803461846F6
:102D700009B05DF804FB00BF0404025C00B589B033
:102D800007900691059204930D4B1B6803F02003F6
:102D9000002B01D101230EE00B9B03930A9B0293AE
:102DA000049B0193059B0093069B079A002100203A
:102DB00000F00EF90346184609B05DF804FB00BFA9
:102DC0000404025C00B589B0079006910592049353
:102DD0000D4B1B6803F02003002B01D101230EE0F3
:102DE0000B9B03930A9B0293049B0193059B009307
:102DF000069B079A012100202BF039FB0346184659
:102E000009B05DF804FB00BF0404025C00B587B0A4
:102E100005900491039202930A4B1B6803F480739C
:102E2000002B01D1012308E0029B0093039B049A2D
:102E30000599002000F08EF90346184607B05DF8AA
:102E400004FB00BF0404025C00B587B00590049148
:102E5000039202930A4B1B6803F48073002B01D189
:102E6000012308E0029B0093039B049A059900202C
:102E700000F0AAF90346184607B05DF804FB00BF4E
:102E80000404025C00B591B00A92099303468DF8E0
:102E90002F300B468DF82E30099B5B6803F00F0333
:102EA000002B09D1099B5B68002B05D0129B5A6847
:102EB000099B5B689A4201D0072325E09DF82E30DC
:102EC000134A52F8233043F480730F93114A0CAB2A
:102ED00007CA83E807000CAA9DF82F000CAB0793E4
:102EE0000CAB06930CAB05930CAB04930CAB0393A8
:102EF000129B0293099B01930CAB009313460A9A11
:102F00000F992BF0C0FB0346184611B05DF804FB87
:102F1000E0080400D408040000B58FB0089303460D
:102F20008DF827300B468DF8263013468DF8253066
:102F30009DF82630234A52F823209DF82530224957
:102F400051F82330134343F030030D93109B5B681B
:102F500003F00F03002B11D1109B5B68002B0DD0E9
:102F6000119B5A68109B5B689A4207D1129B5B6861
:102F7000102B03D1139B5B68102B01D007231DE09E
:102F8000124A0AAB07CA83E807000AAA9DF827007D
:102F9000139B07930AAB06930AAB05930AAB049302
:102FA0000AAB0393119B0293109B0193129B009316
:102FB0001346089A0D992BF066FB034618460FB08E
:102FC0005DF804FBE0080400E8080400D4080400ED
:102FD00010B59EB00A92099303468DF82F300B4628
:102FE0008DF82E30099B5A68209B5B689A4201D06D
:102FF000072340E016AB1393162314930023159375
:10300000239B5C68099B5B68229A5168219A13A8EC
:10301000029001910093234607CA2BF061FA1D909C
:103020001D9B002B01D01D9B25E09DF82E30134ADF
:1030300052F8233043F400531C93114A0DAB07CAD6
:1030400083E807000DAA9DF82F000DAB0793229B84
:1030500006930DAB0593239B049313AB0393209B23
:103060000293099B01930DAB009313460A9A1C9996
:103070002BF009FB034618461EB010BDE008040003
:10308000D408040010B5A4B00A92099303468DF841
:103090002F300B468DF82E30099B5A68269B5B68B3
:1030A0009A4201D007234EE01CAB199316231A93C2
:1030B00000231B93299B5C68099B5B68289A5168D5
:1030C000279A19A8029001910093234607CA2BF072
:1030D00007FA2390239B002B01D0239B33E09DF81C
:1030E0002E301A4A52F8233043F400532293184AE0
:1030F00013AB07CA83E8070000230F9310AB00222D
:103100001A605A609A60289B5A680CAB0FA918463F
:103110002BF064F913AA9DF82F0013AB0793289B9B
:1031200006930CAB0593299B049319AB0393269B41
:103130000293099B019313AB009313460A9A2299B9
:103140002BF0A1FA0346184624B010BDE008040095
:10315000D408040000B591B00A910992089303467F
:103160008DF82F30164B0F93089B5B68102B03D103
:10317000129B5B68102B01D007231DE0114A0CAB9A
:1031800007CA83E807000CAA9DF82F00129B07933B
:103190000CAB06930CAB05930CAB04930CAB0393F5
:1031A0000CAB0293099B0193089B009313460A9A68
:1031B0000F992BF068FA0346184611B05DF804FB2E
:1031C00030000100D408040000B591B00A910992C2
:1031D000089303468DF82F30164B0F93089B5B68BE
:1031E000102B03D1129B5B68102B01D007231DE02D
:1031F000114A0CAB07CA83E807000CAA9DF82F0000
:103200000CAB0793129B06930CAB05930CAB04938A
:103210000CAB03930CAB0293099B0193089B0093A7
:1032200013460A9A0F992BF02EFA0346184611B04E
:103230005DF804FB10000100D408040082B010B552
:1032400088B003AC84E807000B93149B202B01D9B2
:10325000012371E00499149A13469B001344994288
:1032600007D00499149A13465B0013445B009942FB
:103270000DD10C9B149A9A4209D10F9A149B5B00B2
:103280009A4204D1129A149B5B009A4201D0072300
:1032900052E0159B012214992220FFF795FA07901E
:1032A000079B002B01D0079B46E0002306220E213E
:1032B0000C20FFF767FA0123019301230093149B6D
:1032C00003AA07CA2AF08DFF0E230093149B0BAAB2
:1032D00007CA2AF07AFE0C230093149B0EAA07CA91
:1032E0002AF0B8FE174B0693069B5B6823F07F031A
:1032F00043F02602069B5A602AF067FF0790079B5F
:10330000002B01D0062317E0069B5B6823F07F03A8
:1033100043F02202069B5A602AF057FF0790079B52
:10332000002B01D0062307E006230093149B11AA6B
:1033300007CA2AF0DCFE0023184608B0BDE810409A
:1033400002B070470020025C10B5CAB004464AA81B
:10335000A0F5887080E80E004AABA3F20113224664
:103360001A704AABA3F588720CAB07CA83E8070052
:10337000A64B1B6803F01003002B01D1012389E148
:103380004AABA3F201131B78013B062B5DD801A2C7
:1033900052F823F0B1330000C7330000DD330000E2
:1033A000F3330000093400001F34000035340000FE
:1033B000974B1B6803F00103002B01D1012369E146
:1033C00001233F9343E0924B1B6803F00203002B61
:1033D00001D101235EE102233F9338E08C4B1B684F
:1033E00003F00403002B01D1012353E104233F9395
:1033F0002DE0874B1B6803F00803002B01D101234C
:1034000048E108233F9322E0814B1B6803F010033F
:10341000002B01D101233DE110233F9317E07C4BAA
:103420001B6803F02003002B01D1012332E120238C
:103430003F930CE0764B1B6803F04003002B01D157
:10344000012327E140233F9301E0072322E14AAB18
:10345000A3F5807300221A6000225A609DF8303173
:10346000012B02D0022B1CD05BE0694B1B6803F4DC
:103470008033002B01D101230CE13F9B43F4C06357
:103480003F934AABA3F5887300225A600323479306
:103490004AABA3F201131B78184600F0FFF84590E1
:1034A00049E05B4B1B6803F48033002B05D0584B7D
:1034B0001B6803F40033002B01D10123EAE04AAB7F
:1034C000A3F588735B68002B08D04AABA3F588731B
:1034D0005B685B4203F0030344930EE004234493D0
:1034E00002AB0AA9449A18462BF0AAFA4AABA3F5F4
:1034F00090720CAB07CA83E807003F9B43F4E0637C
:103500003F93449B1B0203F4F85343F0A3034793F8
:103510004AABA3F201131B78184600F0BFF84590A0
:1035200009E0632347934AABA3F201131B781846C3
:1035300000F00CF9459017AB46933FA91323009375
:103540004FF00053042246982BF09EFA46900CA9A7
:10355000479B4FF0005246982BF0AEFA469000235E
:10356000439300234993002343931CE0439A13465B
:103570005B0013449B001A464D9B13445B68499AB9
:1035800013444993439A13465B0013449B001A4625
:103590004D9B99180323002246982BF0A7FA4690DA
:1035A000439B01334393439A4E9B9A42DED39DF84B
:1035B0003031032B1BD14AABA3F201131B78184601
:1035C00000F0C4F842904AABA3F201131B781846EE
:1035D00000F090F841900D9B429A9A4205D1419B90
:1035E0005A1E499B1340002B01D0072352E0499BF0
:1035F000002B0FD1042348930AA90323009300232F
:10360000002246982AF086FE469011E00004025CF3
:103610000C04025C499B03F00303002B06D0499B7A
:1036200003F00303C3F10403489301E0002348932C
:10363000469B103B469346982AF098FE4899469838
:103640002AF0A8FE509B194645982BF010FA40909E
:103650000FAB46934F99519B0FA800220092409ABE
:103660002BF012FA4690459A409BD21A0023009301
:103670000023002146982BF007FA4690469B103B0A
:1036800018462AF073FE0FAA17AB114618462AF007
:1036900024FE002318464AB010BD00BF82B0034686
:1036A0008DF807309DF80730013B062B1ED801A28C
:1036B00052F823F0D1360000D5360000D93600008C
:1036C000DD360000E1360000E5360000E936000096
:1036D00010230CE014230AE01C2308E0202306E05A
:1036E000302304E0402302E0202300E000231846BA
:1036F00002B0704782B003468DF807309DF807305E
:10370000013B062B1ED801A252F823F029370000F6
:103710002D37000031370000353700003937000001
:103720003D3700004137000040230CE040230AE011
:10373000402308E0402306E0802304E0802302E0E9
:10374000402300E00023184602B0704782B00346D1
:103750008DF807309DF80730013B062B1ED801A2DB
:1037600052F823F0813700008537000089370000C8
:103770008D37000091370000953700009937000021
:1037800010230CE014230AE0202308E0202306E0A5
:10379000402304E0402302E0202300E000231846F9
:1037A00002B0704730B59BB02E4B08AC1D460FCD14
:1037B0000FC40FCD0FC40FCD0FC495E80F0084E8E0
:1037C0000F00294B04AC0FCB84E80F00274B6C464D
:1037D0000FCB84E80F0000231893FFF7ADF8042007
:1037E000FFF7CAF8FFF794F86B461846FFF7FAF8A8
:1037F000002319930BE0199B9B0068336B4453F82B
:10380000483C1846FFF70EF9199B01331993199B91
:103810000F2BF0D900BFFFF71DF80346032BFAD991
:10382000FFF756F8002319930FE0FFF70DF8024653
:10383000199B9B0068336B4453F8583C5340189ACB
:1038400013431893199B01331993199B032BECD93C
:10385000189B002B01D0062300E0002318461BB064
:1038600030BD00BFE0090400200A0400300A040053
:1038700000B585B00190019B002B0AD0FFF792FFA5
:103880000390039B002B04D00E4B01221A700623D9
:1038900014E0FFF751F80820FEF7EEFF0020FEF7D6
:1038A000F5FF0720FEF7FCFF4FF40070FFF706F866
:1038B0000820FFF761F8FFF713F80023184605B05A
:1038C0005DF804FB8136002000B587B02BF06BFC5F
:1038D0000590059B002B04D0114B01221A70062382
:1038E0001AE0FEF7B1FF03460193FEF7ADFF034672
:1038F0000293FEF7A9FF03460393FEF7A5FF0346D5
:10390000049301AB1846FFF76DF82BF080FCFFF72E
:1039100007F8FFF725F80023184607B05DF804FB09
:1039200081360020024B01221A7000BF704700BF91
:103930008236002082B003468DF807309DF80730AC
:10394000062B1FD801A252F823F000BF69390000EE
:103950006D3900007D3900007139000075390000B3
:1039600079390000813900006C230CE05C230AE007
:10397000B42308E0842306E0102304E0582302E087
:10398000242300E00023184602B0704700B58BB036
:10399000019000911F4B0393019B04931E4B0593D1
:1039A00046F61103069300F01FFA0990099B142BA9
:1039B00004D107AB18462BF006FD04E0099B002B51
:1039C00001D0099B21E04FF0A84303225A634FF036
:1039D000A84203AB13604FF0A842009B13614FF065
:1039E000A84303229A6300BF4FF0A843DB6B03F0A8
:1039F0000303002BF8D1099B142B03D107AB184606
:103A00002BF0F9FC00F020FA034618460BB05DF8E5
:103A100004FB00BF442500200400002010B5BAB00C
:103A200002910192009303468DF80F308F4B31AC19
:103A30000FCB84E80F00409A019B13445B4203F0D4
:103A40000F0337933D9B002B04D03D9B5B4203F05B
:103A50000F0300E010233693419B2D9301232E93F7
:103A6000429B43F000532F93429BC3F110031B0270
:103A700003F4F85343F0210330933D9B002B01D115
:103A800031AB00E0009B29939DF80F3083F00103D8
:103A9000DBB2002B04D0429B002B01D02DAB00E009
:103AA00001232A933D9B002B03D03D9B43F0005301
:103AB00002E0369B43F000532B939DF80F30002B10
:103AC00002D1429B002B01D1212200E00122369B32
:103AD0001B0203F4F85313432C93029B259329AB49
:103AE0002693019B43F000532793379B1B0203F45B
:103AF000F85343F0410328933F9B2193019B002BF4
:103B000001D025AB00E029AB2293019B002B01D013
:103B1000002201E04FF00052409B13432393019B8E
:103B2000002B06D1379B1B0203F4F85343F04103EB
:103B300000E0412324933E9B1D9321AB1E934C4BED
:103B40001F9340F6110320939DF80F30002B01D0F6
:103B5000484B00E0484B19931DAB1A93474B1B93FE
:103B600011231C9315AB00221A605A609A60DA6028
:103B700001231693429BC3F1100343F08043179334
:103B800011AB00221A605A609A60DA609DF80F301B
:103B900083F00103DBB2002B01D031AB00E0419B8D
:103BA0001193429B102B01D015AB00E0012312931F
:103BB000429B13930DAB00221A605A609A60DA6040
:103BC000429B002B01D011AB00E001230E93369BEA
:103BD00043F080430F9309AB00221A605A609A6049
:103BE000DA603C9B0993369B002B01D00DAB05E0BE
:103BF000429B002B01D011AB00E001230A933C9BB8
:103C0000002B02D14FF0804200E000223D9B134385
:103C10000B9305AB00221A605A609A60DA603D9BF4
:103C2000002B01D009AB00E00DAB0693409A019B3D
:103C30001A44379B134443F08043079305AA19ABFA
:103C400011461846FFF7A2FE3590359B002B01D098
:103C5000359B2BE09DF80F3083F00103DBB2002B86
:103C600023D0002339930023389315E0480A040039
:103C700010000020400A0400440A04000400002050
:103C800031AA389B13441B78DBB21A46399B134385
:103C90003993389B01333893389A429B9A42EFD339
:103CA000399B002B01D02C2300E0002318463AB0AA
:103CB00010BD00BF00B5A3B0039002910192009324
:103CC000029BB3F5807F0AD0029BB3F5807F1CD89E
:103CD000029B802B0FD0029BC02B0AD015E0249BA7
:103CE000002B02D040F2344301E040F21443219310
:103CF0000DE00F2358E0249B002B02D04FF4866385
:103D000001E04FF48263219301E029234CE0249BDE
:103D10001D9301231E9310231F9321232093259B82
:103D20001993249B002B01D01DAB00E001231A93B3
:103D300010231B9301231C93019B159301231693BE
:103D40001023179321231893194B119315AB12933A
:103D5000184B139342F611031493009B0D9315AB6C
:103D60000E9310230F9342F61103109321AB099386
:103D7000009B002B01D00DAB00E011AB0A93042394
:103D80000B9311230C93039B059309AB0693029BA2
:103D9000DB08079340F61103089319AA05AB1146F7
:103DA0001846FFF7F3FD0346184623B05DF804FB01
:103DB000680A04001000001000B583B0094B1B68AE
:103DC000002B04D10421074804F094FF0190054B17
:103DD0001B68013343F00043024A136000BF03B085
:103DE0005DF804FB4425002008B5154B5B6E144AB2
:103DF00043F004035366124BD3F88032104A43F069
:103E00000103C2F880320F4B5B68C3F30803002B39
:103E100009D000BF4FF0A843DB6B03F04303002B36
:103E2000F8D114230AE000BF4FF0A843DB6B03F086
:103E30004303002BF8D1FFF7BFFF0023184608BD4E
:103E40000080005000ED00E0054B5B68C3F3080301
:103E5000002B01D0002300E000231846704700BF6C
:103E600000ED00E0084B03F580531A464FF4005371
:103E70009366054B03F580531A460323C2F860325C
:103E800000231846704700BF00800050084B03F520
:103E900000531A464FF400539366054B03F5005345
:103EA0001A460323C2F8603200231846704700BF49
:103EB0000080005010B582B0019001982BF0C2FA3A
:103EC0000346012202FA03F401982BF0B0FA0346EC
:103ED0000F4A52F8232021460A430D4941F8232076
:103EE00001982BF0AFFA0346012202FA03F3DC43F8
:103EF00001982BF09CFA0346064A52F823202146EB
:103F00000A40044941F8232000BF02B010BD00BFA1
:103F1000482500206425002010B586B00190019846
:103F20002BF090FA0346012202FA03F401982BF0D9
:103F30007EFA0346164A52F8232021460A431449C2
:103F400041F82320002305930023049309E0114A3C
:103F5000049B52F82330059A13440593049B0133C4
:103F60000493049B062BF2D9059B002B0DD1002353
:103F7000039307E0064A039B002142F82310039BAA
:103F800001330393039B062BF4D900BF06B010BD89
:103F9000642500204825002010B582B001900198CA
:103FA0002BF050FA0346012202FA03F401982BF099
:103FB0003EFA0346054A52F8232021464A40034967
:103FC00041F8232000BF02B010BD00BF48250020EB
:103FD00010B582B0019001982BF029FA0346094AE6
:103FE00052F8234001982BF02DFA034624FA03F3EC
:103FF00003F00103002B14BF01230023DBB218469A
:1040000002B010BD4825002010B582B00190019883
:104010002BF00DFA0346094A52F8234001982BF081
:1040200011FA034624FA03F303F00103002B14BF33
:1040300001230023DBB2184602B010BD6425002026
:1040400082B00190019BA3F50621A1F6FF41084B28
:10405000A3FB01231A0913465B0013449B0113447D
:10406000CA1A02F5062303F55063184602B07047DA
:104070004909391500B583B0CDE90001DDE900013A
:104080002BF0E8F90146094BA3FB01231A0913465B
:104090005B0013449B011344CA1A02F5062303F57F
:1040A0005063184603B05DF804FB00BF4909391599
:1040B00000B5A9B012AB4022002118463BF0E7FC46
:1040C00002AB4022002118463BF0E1FC2A4B27932B
:1040D00047E0279B10332693269B284A934201D919
:1040E000264B2693264B1868269B013B12A900936A
:1040F000279B10223AF01FFE2390002325930BE00C
:10410000259B9B00A0336B4453F8583C1846FFF79F
:10411000D1FE259B01332593259A239B9A42EFD309
:10412000174B1868269B013B02A90093279B10227E
:104130003AF00AFE2290002324930BE0249B9B007C
:10414000A0336B4453F8983C1846FFF7E5FE249BD8
:1041500001332493249A229B9A42EFD3279B103356
:104160002793279B074A9342B3D9074B01221A7022
:1041700000BF29B05DF804FB006D08000071080065
:1041800070120020FF7008008336002000B58BB04D
:104190000590049103920293039B002B02D0039B92
:1041A00000221A60029B002B02D0029B00221A60A0
:1041B0001D4B1868102300930023049A059921F0E1
:1041C000B3FA0990099B002B01D0099B27E0039BC0
:1041D000002B02D0039B10221A60049B1B68134A19
:1041E000934201D0124B1AE0039B002B16D0029B86
:1041F000002B13D00C4B186807AA029B059921F0DD
:10420000E7FA0890089B002B01D0089B07E0029B6F
:104210001A68039B1B68D21A029B1A60099B1846F6
:104220000BB05DF804FB00BF70120020105D175E3C
:10423000FFDF00F000B589B0CDE90201009313461D
:104240008DF807300023069300230593DDE9020172
:10425000FFF710FF05904E4B1B7883F00103DBB294
:10426000002B09D0FCF714FB0346002B02D06FF0A3
:10427000910389E0FFF71CFF0023049373E0059886
:10428000FFF7A6FE034683F00103DBB2002B23D029
:104290000598FFF7B9FE0346002B09D0069B002BBB
:1042A00001D1059B06930598FFF7CAFE059057E0DC
:1042B0009DF80730002B0CD0069B002B04D00C9BE4
:1042C000069A1A6000235FE00C9B059A1A6000238F
:1042D0005AE06FF08B0357E00B9B0A9A0099059800
:1042E000FFF754FF0790079B2A4A934203D0079B8E
:1042F000294A93420CD1294B1B680599184621F095
:10430000ABFA0790079B002B02D06FF08B033BE0CA
:10431000079B002B06D0079B214A934202D06FF0E7
:10432000910331E0009BD3E90223DDE902019942C8
:1043300008BF904204D00598FFF782FE05900FE079
:104340009DF80730002B06D0009B5B68012B02D143
:104350006FF0840318E00C9B059A1A60002313E0A9
:10436000049B01330493049BC02B88D99DF807302C
:10437000002B07D0069B002B04D00C9B069A1A60DA
:10438000002301E06FF08B03184609B05DF804FBD1
:1043900083360020FFDF00F011E000F070120020F3
:1043A000FEDF00F000B58FB0CDE906010592049361
:1043B000059B002B05D0049B002B02D16FF08603D8
:1043C0007FE0059B40F26C72934202D96FF091033B
:1043D00077E0109B012B05D0109B002B02D06FF0D3
:1043E00085036EE06FF096030D9300230893059B01
:1043F0000C930C9B1033194601202CF083F80B9082
:104400000B9B002B02D16FF08C035AE00C9B1033F6
:104410001A4600210B983BF03AFB0B9B0A932BF0BA
:1044200002F808AB029300230193002300930A9B38
:104430000122DDE90601FFF7FDFE0D900D9B002B2B
:1044400007D00D9B13F18C0F2DD16FF08D030D93C1
:1044500029E00A9B1D4A1A600A99DDE90623C1E991
:1044600002230A9B109A5A60059B002B06D00B9BD7
:104470001033059A049918463BF013FB144B186847
:1044800008990C9B10330B9A21F0B6F80990099B00
:10449000002B04D1089B1846FFF70CFD04E06FF0D9
:1044A00091030D9300E000BF0C9B10331A460021CE
:1044B0000B983BF0ECFA0B982CF039F82AF0B5FF8A
:1044C0000D9B18460FB05DF804FB00BF105D175E32
:1044D0007012002000B595B0CDE906010592049355
:1044E000049B002B05D0179B002B02D16FF0860395
:1044F00083E0049B002B11D0169B002B0BD0169B46
:10450000B3F1005F07D3049BC3F1005303F50043ED
:10451000169A934202D26FF086036EE06FF0960314
:1045200013930CAB00221A605A609A60DA60002381
:104530000B930023129300230A932AF074FF0CAA12
:1045400009AB02930BAB01930AAB00931346002215
:10455000DDE90601FFF76EFE1390139B002B48D197
:104560000B9B1293049B002B14D0059A129B9A422A
:1045700006D3129B002B03D06FF08603139339E010
:10458000129B002B0ED1059B002B0BD06FF08603E6
:1045900013932FE0059A129B9A4203D96FF086037A
:1045A000139327E0129A059BD31A049A9A4205D9CD
:1045B000129A059BD21A179B1A6002E0179B049A65
:1045C0001A60104B186809990A9A059B1A44179BA0
:1045D0001B6800931346169A21F0A6F81190119BC0
:1045E000002B03D06FF09103139303E00023139388
:1045F00000E000BF2AF019FF139B184615B05DF8C4
:1046000004FB00BF7012002000B591B0CDE9040199
:104610006FF096030F930AAB00221A605A609A60FB
:10462000DA6000230993002308932AF0FCFE0AAA0B
:1046300007AB029309AB019308AB0093134600222A
:10464000DDE90401FFF7F6FD0F900F9B002B20D151
:104650000B9B012B03D16FF084030F931AE0114BD6
:104660001B68079A1146184621F0F6F80E900E9B2B
:10467000002B0AD1079B1846FFF78EFC079B1846B4
:10468000FFF74AFC00230F9304E06FF091030F93B0
:1046900000E000BF2AF0C9FE0F9B184611B05DF87C
:1046A00004FB00BF70120020BFF34F8F00BF064B0A
:1046B000DB6803F4E0620449044B1343CB60BFF3AF
:1046C0004F8F00BF00BFFDE700ED00E00400FA05DA
:1046D00030B58FB005AB83E807002AF0C9FF034669
:1046E000002B07D02AF0A4FF0C900C9B002B01D0CC
:1046F0000C9B2FE000230D9325E0059A0D9BD41809
:10470000069A0D9BD51AFEF7A5F803469B0019469D
:1047100028462AF027FF024609AB214618462AF010
:104720000AFF0A9A0D4B02926C461A1D92E803008A
:1047300084E803001B6809AA07CA2AF077FB0A9BD2
:104740000D9A13440D93069B0D9A9A42D5D32AF0E5
:1047500016FF034618460FB030BD00BF6C0A0400B8
:1047600000B587B0039002910192009303982AF05C
:10477000FCFF034603F4E043B3F5005F22D1039846
:104780002AF0F3FF03461B0A9BB203F00703042B36
:1047900018D1029B83F0AA6383F4807323F47E1301
:1047A000002B08D0029B83F0AA6383F4007323F4E8
:1047B0007E13002B01D1012300E0002303F001034D
:1047C000DBB217E003982AF0D0FF03461A4642F204
:1047D00004039A420AD1029B83F0052383F48013D9
:1047E00023F47E13002B01D1012300E0002303F00A
:1047F0000103DBB2002B04D0029B1B0C03F03F0330
:1048000003E003982AF0B8FF00230593029B23F4EA
:104810007E131E4A93421DD103982AF0A6FF034639
:10482000B3F5105F02D06FF085032AE0059B032BE0
:104830000DD9059B102B0AD8059B03F00103002B13
:1048400005D1019B062B02D9019B0D2B05D96FF0D9
:10485000860316E06FF0850313E000BF03982AF08B
:104860008BFF0346B3F5807F09D0B3F5807F03D873
:10487000802B04D0C02B02D06FF0860301E000BF74
:104880000023184607B05DF804FB00BF0001400597
:1048900010B59EB00590049103920293049B002BE7
:1048A00026D0059B002B23D0209B002B20D0229BC1
:1048B000002B02D1239B002B1AD1249B002B02D169
:1048C000259B002B14D1259B002B05D0269B002B6C
:1048D0000ED0279B002B0BD0289B002B08D02B9BA6
:1048E000002B05D02A9B002B02D0299B002B02D144
:1048F0006FF08603FFE005982AF03EFF1C900598B4
:104900002AF033FF034603F4E043B3F5005F22D1FE
:1049100005982AF02AFF03461B0A9BB203F00703FF
:10492000042B18D1029B83F0AA6383F4807323F4D1
:104930007E13002B08D0029B83F0AA6383F40073DC
:1049400023F47E13002B01D1012300E0002303F0A8
:104950000103DBB217E005982AF007FF03461A4669
:1049600042F204039A420AD1029B83F0052383F4A6
:10497000801323F47E13002B01D1012300E00023D8
:1049800003F00103DBB2002B04D0029B1B0C03F0ED
:104990003F0303E005982AF0EFFE00232B9A1360F3
:1049A000239B219A02990598FFF7DAFE1B901B9B27
:1049B000002B01D01B9B9EE01C9B0733DB08039A56
:1049C0009A4202D26FF0860395E0279A259B9A427D
:1049D00004D32B9B1B682A9A9A4202D26FF0890358
:1049E00089E0269A249B9A420CD9249A259B134449
:1049F000269A9A4206D2259A249926983BF02DF8B9
:104A0000269B24936FF096031D9306231A931C9BF9
:104A10000733DA0816AB049918462AF08FFE13AB59
:104A2000239A229918462AF089FE10AB219A2099E0
:104A300018462AF083FE0DAB259A249918462AF0D1
:104A40007DFE0AAB259A269918462AF077FE2B9B05
:104A50001A6807AB299918462AF070FE029B23F4C6
:104A60007E13264A934238D1219BDBB2C3F10F0358
:104A70008DF867309DF86730032B0BD89DF86730B1
:104A8000DB00012202FA03F3259A9A4202D36FF067
:104A9000860330E0FFF7E6F91B901B9B002B01D04B
:104AA0001B9B28E010AC0AAA0DA916A813AB019312
:104AB00007AB00932346FEF761F91A90FFF7E6F97A
:104AC0001B901A9B002B02D11B9B002B02D06FF076
:104AD000920310E000231D9300BF1D9B002B03D108
:104AE000289B259A1A6005E0289B00221A602B9BC0
:104AF00000221A601D9B18461EB010BD0001400523
:104B000010B5A2B00990089107920693099B002B5B
:104B10001DD0089B002B1AD0249B002B17D0269B5E
:104B2000002B02D1279B002B11D1289B002B02D1F7
:104B3000299B002B0BD12C9B002B02D12D9B002BF2
:104B400005D12E9B002B02D02A9B002B02D16FF0A7
:104B50008603F0E009982AF00FFE2090279B259A03
:104B600006990998FFF7FCFD1F901F9B002B01D0B1
:104B70001F9BE0E0209B0733DB08079A9A4202D292
:104B80006FF08603D7E02D9A299B9A4202D26FF0EC
:104B90008903D0E02C9A289B9A420CD9289A299B09
:104BA00013442C9A9A4206D2299A28992C983AF0C2
:104BB00054FF2C9B28936FF09603219306231E939A
:104BC0005E4A1AAB07CA83E807005C4A17AB07CAFC
:104BD00083E80700594A14AB07CA83E80700574A1D
:104BE00011AB07CA83E80700544A0EAB07CA83E833
:104BF0000700524A0BAB07CA83E80700069B23F461
:104C00007E134F4A934240F08880259BDBB2C3F16C
:104C10000F038DF877309DF87730032B0BD89DF874
:104C20007730DB00012202FA03F3299A9A4202D379
:104C30006FF086037FE0209B0733DA0802AB089908
:104C400018462AF07BFD1AAB02AA07CA83E80700C0
:104C500002AB279A269918462AF070FD17AB02AAD4
:104C600007CA83E8070002AB2B9A2A9918462AF054
:104C700065FD14AB02AA07CA83E8070002AB259AB8
:104C8000249918462AF05AFD11AB02AA07CA83E8F4
:104C9000070002AB299A289918462AF04FFD0EAB5F
:104CA00002AA07CA83E8070002AB299A2C99184682
:104CB0002AF044FD0BAB02AA07CA83E80700FFF7FE
:104CC000D1F81F901F9B002B01D01F9B33E011AC2C
:104CD0000BAA0EA91AA817AB019314AB0093234695
:104CE000FEF770F81E90FFF7D1F81F901E9B032B64
:104CF00003D16FF09403219312E01E9B002B02D18D
:104D00001F9B002B03D06FF09203219308E02E9B92
:104D1000299A1A600023219302E06FF085030AE0CC
:104D2000219B002B06D02E9B00221A602D992C98D7
:104D30002AF029FD219B184622B010BDD40804009A
:104D40000001400500B585B00390029101920093E7
:104D5000039B002B05D0029B002B02D0019B002B54
:104D600002D16FF0860366E05422002103983AF0E6
:104D70008EFE039B0433069A1A60039B01221A706D
:104D8000069B2F4A934202D02E4A934209D10298A1
:104D90002AF0FFFD0346B3F5105F05D06FF08503E1
:104DA00049E06FF0850346E000BF02982AF0F8FD65
:104DB0000346B3F5807F29D0B3F5807F37D8802BA9
:104DC00002D0C02B11D032E0009B0F2B02D86FF025
:104DD000860330E0039B08331022019918463AF00D
:104DE00060FE039B10229A6224E0009B172B02D8DE
:104DF0006FF086031FE0039B0833182201991846C1
:104E00003AF04FFE039B18229A6213E0009B1F2B7F
:104E100002D86FF086030EE0039B0833202201992D
:104E200018463AF03EFE039B20229A6202E06FF0A1
:104E3000860300E00023184605B05DF804FB00BFC0
:104E4000004440040013C00400B585B003900291F3
:104E500001920093039B002B05D0029B002B02D0F4
:104E6000019B002B02D16FF0860366E054220021E3
:104E700003983AF00CFE039B0433069A1A60039BD6
:104E800002221A70069B2F4A934202D02E4A934266
:104E900009D102982AF07DFD0346B3F5105F05D0D5
:104EA0006FF0850349E06FF0850346E000BF02988C
:104EB0002AF076FD0346B3F5807F29D0B3F5807FD5
:104EC00037D8802B02D0C02B11D032E0009B0F2BA3
:104ED00002D86FF0860330E0039B0833102201995B
:104EE00018463AF0DEFD039B10229A6224E0009BF4
:104EF000172B02D86FF086031FE0039B083318229C
:104F0000019918463AF0CDFD039B18229A6213E0EE
:104F1000009B1F2B02D86FF086030EE0039B083323
:104F20002022019918463AF0BCFD039B20229A6288
:104F300002E06FF0860300E00023184605B05DF83C
:104F400004FB00BF004440040013C00430B5A7B008
:104F500009900891079206936FF083031F9306232D
:104F60002593099B002B0ED0089B002B02D1079B99
:104F7000002B08D1069B002B02D12A9B002B02D1CB
:104F80002B9B002B02D16FF086034BE3099B5B68E0
:104F9000984A934206D0099BDB6B002B02D16FF03D
:104FA00088033FE30EAB11A9102218462AF0DAFC61
:104FB000099B03F12C01099BDA6B0BAB18462AF015
:104FC000D1FC01238DF89330099B5B688A4A934298
:104FD00024D0894A934225D8884A93421ED0874AD2
:104FE00093421FD8864A934218D0854A934219D8D3
:104FF000844A934212D0834A934213D87D4A934203
:1050000008D07C4A93420DD87F4A934202D07F4A0F
:10501000934207D101238DF8933006E000238DF8E9
:10502000933002E06FF08803FCE2099B1B6D03F0F4
:105030000F03C3F110032393002322932B9B002221
:105040001A60079B002B01D10023EBE2099B5B68F0
:105050006E4A934205D1099B1B78022B01D1012393
:1050600000E000238DF87B309DF87B3003F00103D6
:105070008DF87B309DF89330002B48D09DF87B3025
:10508000002B06D0239B102B03D1099B1B6D002BFB
:105090001AD1079A239B9A4216D2099B1B6D03F0E3
:1050A0000F034033099A1344079A089918463AF0B7
:1050B000F8FC099B1A6D079B1A44099B1A652B9BE8
:1050C000229A1A600023ADE201232193079A239BC1
:1050D0009A4214D9079A239BD31A1B09219A134485
:1050E00021939DF87B30002B09D0079A239BD31A7C
:1050F00003F00F03002B02D1219B013B2193219B45
:105100001B012A9A9A4209D26FF089038AE22A9AED
:10511000079B9A4202D26FF0890383E2069A089BAA
:105120009A4213D9089A079B1344069A9A420DD2C1
:105130002A9A079B9A4202D26FF0860372E2079A7C
:10514000089906983AF089FC069B0893099B03F19D
:105150000801099B9A6A02AB18462AF003FC1BABB4
:1051600002AA07CA83E80700239B102B00F00981DD
:10517000099B1B6D03F00F034033099A1344239AD4
:10518000089918463AF08DFC099B03F1400102ABE7
:10519000102218462AF0E6FB18AB02AA07CA83E8D9
:1051A0000700099B03F1400102AB102218462AF0C8
:1051B000D9FB15AB02AA07CA83E80700FEF752FE27
:1051C0001F901F9B002B02D06FF092032AE2099BD5
:1051D0001B78012B32D1099B5B68074A93421FD091
:1051E000054A934227D8034A934211D0054A934275
:1051F00016D020E0004440040013C0040012C00494
:105200000011C0040010C0040040400400414004EC
:1052100015AA18A91BAB1846FDF730FD259032E002
:105220000BAC15AA18A91BA80EAB00932346FDF7DB
:105230005DFD259027E06FF08803F3E1099B5B6833
:10524000924A934211D0914A934219D8904A93427C
:1052500003D0904A934208D012E015AA18A91BABBC
:105260001846FDF727FD25900DE00BAC15AA18A9EF
:105270001BA80EAB00932346FDF75CFD259002E0D2
:105280006FF08803CEE1FEF701FE1F90259B002BF7
:1052900002D11F9B002B02D06FF09203C2E19DF858
:1052A0009330002B26D0099B4033102219460698D4
:1052B0003AF0F7FB9DF87B3083F00103DBB2002B63
:1052C00003D1239A079B9A4205D0069B103306937D
:1052D000229B10332293099B1A6D239B1A44099B2E
:1052E0001A65089A239B13440893079A239BD31AA1
:1052F000079346E0079A239B9A4201D2079B239388
:10530000099B03F14002099B1B6D03F00F0313443B
:10531000239A194606983AF0C4FB069A239B134435
:105320000693229A239B13442293099B1A6D239B75
:105330001A44099B1A65089A239B13440893079AF9
:10534000239BD31A0793099B1B6D03F00F03002BBC
:1053500017D1099B5B684D4A934208D04B4A934250
:105360000FD84C4A934202D04B4A934209D1099B31
:105370002C331D4611AC0FCC28606960AA60EB602D
:1053800000BF079B0F2B40F2AB80079B23F00F035E
:1053900020939DF87B30002B07D0079B03F00F0371
:1053A000002B02D1209B103B2093209B002B00F070
:1053B000818002AB209A089918462AF0D3FA18ABDC
:1053C00002AA07CA83E8070002AB209A069918468A
:1053D0002AF0C8FA15AB02AA07CA83E80700FEF74D
:1053E00041FD1F901F9B002B02D06FF0920319E12B
:1053F000099B1B78012B24D1099B5B68234A9342AC
:1054000011D0224A934219D8214A934203D0214A0B
:10541000934208D012E015AA18A91BAB1846FDF755
:105420002DFC25903AE00BAC15AA18A91BA80BABD4
:1054300000932346FDF75AFC25902FE06FF0880378
:10544000F0E0099B5B68114A934211D00F4A9342E6
:1054500019D80F4A934203D00E4A934208D012E063
:1054600015AA18A91BAB1846FDF724FC259015E0DA
:105470000BAC15AA18A91BA80BAB00932346FDF78C
:1054800059FC25900AE06FF08803CBE00013C004BC
:10549000004440040010C0040012C004FEF7F6FCF3
:1054A0001F90259B002B02D11F9B002B02D06FF079
:1054B0009203B7E0089A209B13440893079A209B15
:1054C000D31A0793229A209B13442293069A209B77
:1054D00013440693099B1A6D209B1A44099B1A6575
:1054E000079B002B00F09A809DF8933083F0010316
:1054F000DBB2002B6ED002AB1022089918462AF0BE
:1055000031FA18AB02AA07CA83E80700099B03F126
:10551000400102AB102218462AF024FA15AB02AA69
:1055200007CA83E80700FEF79DFC1F901F9B002B16
:1055300002D06FF0920375E0099B1B78012B15D107
:10554000099B5B68394A934202D0394A93420AD197
:105550000BAC15AA18A91BA80EAB00932346FDF7A8
:10556000C5FB259018E06FF088035BE0099B5B6842
:105570002E4A934202D02E4A93420AD10BAC15AA6E
:1055800018A91BA80EAB00932346FDF7D3FB25906B
:1055900002E06FF0880345E0FEF778FC1F90259B42
:1055A000002B02D11F9B002B02D06FF0920339E039
:1055B000099B4033079A194606983AF072FA229AE4
:1055C000079B13442293099B1A6D079B1A44099B5E
:1055D0001A6523E0079B0F2B06D99DF87B3083F0DB
:1055E0000103DBB2002B06D1079B102B09D99DF8D4
:1055F0007B30002B05D02B9B00221A606FF08803B4
:1056000010E0099B4033079A089918463AF049FA86
:10561000099B1A6D079B1A44099B1A652B9B229ABA
:105620001A600023184627B030BD00BF0010C00428
:105630000013C00400B587B003900291019200935B
:105640006FF083030593039B002B05D1009B002281
:105650001A606FF0860345E0039B5B68234A934220
:105660002AD0224A93422DD8214A934224D0204A5C
:10567000934227D81F4A93421ED01E4A934221D8F4
:105680001D4A934218D01C4A93421BD81B4A93428E
:1056900002D01B4A934215D1039B1B6D03F00F03ED
:1056A000002B03D06FF08603059301E000230593E0
:1056B000009B00221A6009E000230593009B002252
:1056C0001A6003E06FF08803059300BF059B002B71
:1056D00002D0009B00221A605422002103983AF065
:1056E000D6F9059B184607B05DF804FB0013C0040B
:1056F0000012C0040011C0040010C00400404004A7
:105700000044400430B583B001900091019B002B10
:1057100002D16FF086033BE0009B03F0FE43B3F140
:10572000007F02D06FF0860332E0682200210198EA
:105730003AF0ADF9009B184A934204D0009B174AF7
:1057400093420BD01DE0019B02221A70019B08338B
:105750001422134918463AF0A4F915E0019B0422DB
:105760001A70019B08330F4A1C4615460FCD206066
:105770006160A260E3600FCD20616161A261E361BD
:1057800002E06FF0850303E0019B00225A600023D2
:10579000184603B030BD00BF05000002090000023A
:1057A000800A0400A00A040010B590B0079006918A
:1057B0000592049307230F93069B002B02D1059BB0
:1057C000002B0BD1049B002B02D1129B002B05D187
:1057D000139B002B05D1129B002B02D06FF0860388
:1057E00067E0079B344A934204D0079B334A9342B5
:1057F00006D00BE0129B132B0BD86FF0890358E0F7
:10580000129B1F2B07D86FF0890352E06FF08503BE
:105810004FE000BF00E000BF0BAB059A06991846A9
:105820002AF0D5F808AB129A049918462AF0CFF856
:10583000FEF718FB0E900E9B002B01D00E9B38E05C
:10584000079B1D4A934204D0079B1C4A934210D0E9
:105850001FE06C4608AB93E8070084E807000BAB39
:105860000ECB022029F054FA0F90139B14221A60D9
:105870000FE06C4608AB93E8070084E807000BAB29
:105880000ECB042029F044FA0F90139B20221A60BB
:1058900000BFFEF7FBFA0E900F9B002B02D10E9B70
:1058A000002B05D0139B00221A606FF0920300E0DA
:1058B0000023184610B010BD0500000209000002C8
:1058C00010B5B0B00D900C910B920A930C9B002B6D
:1058D0000BD00B9B002B08D0329B002B05D0349BA8
:1058E000002B02D0369B002B02D16FF08603D5E04F
:1058F0006FF096032F9306232E9300232D93694A6E
:1059000028AB07CA83E807000023189319AB3C2291
:10591000002118463AF0BBF80C982AF008FA2C90AF
:105920000C982AF0FDF90346ADF8AE30BDF8AE3064
:1059300003F4E043B3F5804F02D16FF08603ADE08E
:105940000D9A594B134043F01063584A934202D0CA
:105950006FF08503A2E02C9BB3F5807F20D1BDF8CA
:10596000AE3047F21212934217D1514BDB682D93A0
:105970004F4B19684E4B1A6913465B0013445B008A
:105980001A4628AB18462AF0B4F900BF2C9B0733FF
:10599000DB080A9A9A420ED305E06FF085037DE09A
:1059A0006FF085037AE02C9B0733DB085B00013343
:1059B000339A9A4202D26FF086036FE02C9B073332
:1059C000DB08359A9A4202D26FF0890366E02C9B7D
:1059D0000733DA0815AB0B9918462AF08AF9329B7F
:1059E000591C2C9B0733DB085A0012AB18462AF0CF
:1059F00080F92C9B0733DB085A000FAB18A9184617
:105A00002AF077F9329B1B78042B02D06FF08603C3
:105A100044E0FEF727FA2F902F9B002B01D02F9BFD
:105A20003CE02C9B0733DB082D9A0992089305ACC8
:105A30000FAB93E8070084E8070002AC12AB93E8D1
:105A4000070084E807006A4616AB93E8030082E883
:105A50000300159B28AA07CAFDF7F0FB2E90FEF75E
:105A600015FA2F902E9B002B02D12F9B002B02D0DA
:105A70006FF0860312E02C9B0733DA0818AB194647
:105A800034983AF00EF818AB402118462AF056F92F
:105A90002C9B0733DA08369B1A600023184630B077
:105AA00010BD00BFD40804000000FFF6000002098A
:105AB000CC09040000B593B00790069105920493B9
:105AC000079B002B08D0069B002B05D0059B002BC5
:105AD00002D0049B002B02D16FF0860389E0079867
